{
  "contractName": "BattleManager",
  "abi": [
    {
      "constant": true,
      "inputs": [
        {
          "name": "",
          "type": "address"
        }
      ],
      "name": "addressToBattleInfoDev",
      "outputs": [
        {
          "name": "battleId",
          "type": "uint32"
        },
        {
          "name": "attacker",
          "type": "address"
        },
        {
          "name": "defender",
          "type": "address"
        },
        {
          "name": "state",
          "type": "uint8"
        },
        {
          "name": "rankBattle",
          "type": "bool"
        },
        {
          "name": "exists",
          "type": "bool"
        }
      ],
      "payable": false,
      "stateMutability": "view",
      "type": "function"
    },
    {
      "constant": false,
      "inputs": [],
      "name": "renounceOwnership",
      "outputs": [],
      "payable": false,
      "stateMutability": "nonpayable",
      "type": "function"
    },
    {
      "constant": true,
      "inputs": [],
      "name": "TURN_COUNTS",
      "outputs": [
        {
          "name": "",
          "type": "uint8"
        }
      ],
      "payable": false,
      "stateMutability": "view",
      "type": "function"
    },
    {
      "constant": true,
      "inputs": [],
      "name": "battleTransaction",
      "outputs": [
        {
          "name": "",
          "type": "address"
        }
      ],
      "payable": false,
      "stateMutability": "view",
      "type": "function"
    },
    {
      "constant": true,
      "inputs": [],
      "name": "owner",
      "outputs": [
        {
          "name": "",
          "type": "address"
        }
      ],
      "payable": false,
      "stateMutability": "view",
      "type": "function"
    },
    {
      "constant": true,
      "inputs": [],
      "name": "isOwner",
      "outputs": [
        {
          "name": "",
          "type": "bool"
        }
      ],
      "payable": false,
      "stateMutability": "view",
      "type": "function"
    },
    {
      "constant": true,
      "inputs": [],
      "name": "rank",
      "outputs": [
        {
          "name": "",
          "type": "address"
        }
      ],
      "payable": false,
      "stateMutability": "view",
      "type": "function"
    },
    {
      "constant": true,
      "inputs": [
        {
          "name": "",
          "type": "address"
        }
      ],
      "name": "addressToBattleInfo",
      "outputs": [
        {
          "name": "battleId",
          "type": "uint32"
        },
        {
          "name": "attacker",
          "type": "address"
        },
        {
          "name": "defender",
          "type": "address"
        },
        {
          "name": "state",
          "type": "uint8"
        },
        {
          "name": "rankBattle",
          "type": "bool"
        },
        {
          "name": "exists",
          "type": "bool"
        }
      ],
      "payable": false,
      "stateMutability": "view",
      "type": "function"
    },
    {
      "constant": true,
      "inputs": [],
      "name": "deckManager",
      "outputs": [
        {
          "name": "",
          "type": "address"
        }
      ],
      "payable": false,
      "stateMutability": "view",
      "type": "function"
    },
    {
      "constant": false,
      "inputs": [
        {
          "name": "newOwner",
          "type": "address"
        }
      ],
      "name": "transferOwnership",
      "outputs": [],
      "payable": false,
      "stateMutability": "nonpayable",
      "type": "function"
    },
    {
      "anonymous": false,
      "inputs": [
        {
          "indexed": true,
          "name": "previousOwner",
          "type": "address"
        }
      ],
      "name": "OwnershipRenounced",
      "type": "event"
    },
    {
      "anonymous": false,
      "inputs": [
        {
          "indexed": true,
          "name": "previousOwner",
          "type": "address"
        },
        {
          "indexed": true,
          "name": "newOwner",
          "type": "address"
        }
      ],
      "name": "OwnershipTransferred",
      "type": "event"
    },
    {
      "constant": false,
      "inputs": [
        {
          "name": "_deckManagerAddress",
          "type": "address"
        }
      ],
      "name": "setDeckManagerAddress",
      "outputs": [],
      "payable": false,
      "stateMutability": "nonpayable",
      "type": "function"
    },
    {
      "constant": false,
      "inputs": [
        {
          "name": "_battleTransactionAddress",
          "type": "address"
        }
      ],
      "name": "setBattleTransactionAddress",
      "outputs": [],
      "payable": false,
      "stateMutability": "nonpayable",
      "type": "function"
    },
    {
      "constant": false,
      "inputs": [
        {
          "name": "_rankAddress",
          "type": "address"
        }
      ],
      "name": "setRankAddress",
      "outputs": [],
      "payable": false,
      "stateMutability": "nonpayable",
      "type": "function"
    },
    {
      "constant": false,
      "inputs": [
        {
          "name": "_address",
          "type": "address"
        },
        {
          "name": "_rankBattle",
          "type": "bool"
        }
      ],
      "name": "start",
      "outputs": [],
      "payable": false,
      "stateMutability": "nonpayable",
      "type": "function"
    },
    {
      "constant": false,
      "inputs": [],
      "name": "next",
      "outputs": [],
      "payable": false,
      "stateMutability": "nonpayable",
      "type": "function"
    },
    {
      "constant": false,
      "inputs": [],
      "name": "end",
      "outputs": [],
      "payable": false,
      "stateMutability": "nonpayable",
      "type": "function"
    },
    {
      "constant": true,
      "inputs": [],
      "name": "hasNext",
      "outputs": [
        {
          "name": "",
          "type": "bool"
        }
      ],
      "payable": false,
      "stateMutability": "view",
      "type": "function"
    },
    {
      "constant": false,
      "inputs": [
        {
          "name": "_attacker",
          "type": "address"
        },
        {
          "name": "_defender",
          "type": "address"
        }
      ],
      "name": "battleDev",
      "outputs": [],
      "payable": false,
      "stateMutability": "nonpayable",
      "type": "function"
    },
    {
      "constant": false,
      "inputs": [
        {
          "name": "_attacker",
          "type": "address"
        }
      ],
      "name": "nextDev",
      "outputs": [],
      "payable": false,
      "stateMutability": "nonpayable",
      "type": "function"
    },
    {
      "constant": false,
      "inputs": [
        {
          "name": "_attacker",
          "type": "address"
        }
      ],
      "name": "endDev",
      "outputs": [],
      "payable": false,
      "stateMutability": "nonpayable",
      "type": "function"
    },
    {
      "constant": true,
      "inputs": [
        {
          "name": "_attacker",
          "type": "address"
        }
      ],
      "name": "hasNextDev",
      "outputs": [
        {
          "name": "",
          "type": "bool"
        }
      ],
      "payable": false,
      "stateMutability": "view",
      "type": "function"
    }
  ],
  "bytecode": "0x608060405260008054600160a060020a03191633179055612740806100256000396000f30060806040526004361061011c5763ffffffff7c01000000000000000000000000000000000000000000000000000000006000350416631af83e7381146101215780632e2df80d146101a157806345f60d71146101c45780634c8fe526146101f957806352076bd51461020e57806354e04b721461022f5780635802a45c1461025557806364cbbd531461027c578063715018a61461029d5780637e9ca234146102b257806380627f13146102dd5780638afded1c1461030e5780638da5cb5b1461032f5780638f32d59b14610344578063934209ce14610359578063b3689b1e1461036e578063ce49b4841461038f578063df4a2ecc146103b0578063e13ad980146103c5578063efbe1c1c146103da578063f2fde38b146103ef575b600080fd5b34801561012d57600080fd5b50610142600160a060020a0360043516610410565b6040805163ffffffff88168152600160a060020a0380881660208301528616918101919091526060810184600481111561017857fe5b60ff16815292151560208401525015156040808301919091525190819003606001945092505050f35b3480156101ad57600080fd5b506101c2600160a060020a0360043516610468565b005b3480156101d057600080fd5b506101e5600160a060020a036004351661065d565b604080519115158252519081900360200190f35b34801561020557600080fd5b506101c26106b0565b34801561021a57600080fd5b506101c2600160a060020a0360043516610841565b34801561023b57600080fd5b506101c2600160a060020a036004351660243515156109eb565b34801561026157600080fd5b506101c2600160a060020a036004358116906024351661165d565b34801561028857600080fd5b506101c2600160a060020a0360043516612279565b3480156102a957600080fd5b506101c26122ae565b3480156102be57600080fd5b506102c7612309565b6040805160ff9092168252519081900360200190f35b3480156102e957600080fd5b506102f261230e565b60408051600160a060020a039092168252519081900360200190f35b34801561031a57600080fd5b506101c2600160a060020a036004351661231d565b34801561033b57600080fd5b506102f2612352565b34801561035057600080fd5b506101e5612361565b34801561036557600080fd5b506102f2612372565b34801561037a57600080fd5b506101c2600160a060020a0360043516612381565b34801561039b57600080fd5b50610142600160a060020a03600435166123b6565b3480156103bc57600080fd5b506101e561240e565b3480156103d157600080fd5b506102f2612457565b3480156103e657600080fd5b506101c2612466565b3480156103fb57600080fd5b506101c2600160a060020a036004351661264f565b6005602052600090815260409020805460019091015463ffffffff821691600160a060020a036401000000009091048116919081169060ff60a060020a820481169160a860020a810482169160b060020a9091041686565b600160a060020a0381166000908152600460205260409020600181015460b060020a900460ff16151561049a57600080fd5b6000600182015460a060020a900460ff1660048111156104b657fe5b14806104db57506004600182015460a060020a900460ff1660048111156104d957fe5b145b156104e557610659565b6002548154604080517f4d9171c900000000000000000000000000000000000000000000000000000000815263ffffffff909216600483015251600160a060020a0390921691634d9171c99160248082019260009290919082900301818387803b15801561055257600080fd5b505af1158015610566573d6000803e3d6000fd5b50505050600181015460a860020a900460ff16801561059d575060018082015460a060020a900460ff16600481111561059b57fe5b145b156106385760035481546001830154604080517f6b76484e000000000000000000000000000000000000000000000000000000008152640100000000909304600160a060020a039081166004850152918216602484015251921691636b76484e9160448082019260009290919082900301818387803b15801561061f57600080fd5b505af1158015610633573d6000803e3d6000fd5b505050505b6001810180546004919060a060020a60ff02191660a060020a835b02179055505b5050565b600160a060020a0381166000908152600460205260408120600181015460b060020a900460ff1680156106a957506000600182015460a060020a900460ff1660048111156106a757fe5b145b9392505050565b336000908152600460205260408120600181015490919060b060020a900460ff1615156106dc57600080fd5b6000600183015460a060020a900460ff1660048111156106f857fe5b1461070257610659565b6002548254604080517fc6b22d2200000000000000000000000000000000000000000000000000000000815263ffffffff90921660048301526001602483015251600160a060020a039092169163c6b22d22916044808201926020929091908290030181600087803b15801561077757600080fd5b505af115801561078b573d6000803e3d6000fd5b505050506040513d60208110156107a157600080fd5b5051905060028160058111156107b357fe5b14156107db576001828101805460a060020a60ff02191660a060020a835b0217905550610659565b60038160058111156107e957fe5b141561080e576001820180546002919060a060020a60ff02191660a060020a836107d1565b600481600581111561081c57fe5b1415610659576001820180546003919060a060020a60ff02191660a060020a83610653565b600160a060020a0381166000908152600460205260408120600181015490919060b060020a900460ff16151561087657600080fd5b6000600183015460a060020a900460ff16600481111561089257fe5b1461089c576109e6565b6002548254604080517fc6b22d2200000000000000000000000000000000000000000000000000000000815263ffffffff90921660048301526001602483015251600160a060020a039092169163c6b22d22916044808201926020929091908290030181600087803b15801561091157600080fd5b505af1158015610925573d6000803e3d6000fd5b505050506040513d602081101561093b57600080fd5b50519050600281600581111561094d57fe5b1415610975576001828101805460a060020a60ff02191660a060020a835b02179055506109e6565b600381600581111561098357fe5b14156109a8576001820180546002919060a060020a60ff02191660a060020a8361096b565b60048160058111156109b657fe5b14156109e65760018201805460a060020a60ff021916740300000000000000000000000000000000000000001790555b505050565b60006109f56126d6565b6109fd6126f5565b610a056126f5565b600254604080517ff09a4016000000000000000000000000000000000000000000000000000000008152336004820152600160a060020a0389811660248301529151919092169163f09a40169160448083019260209291908290030181600087803b158015610a7357600080fd5b505af1158015610a87573d6000803e3d6000fd5b505050506040513d6020811015610a9d57600080fd5b50516001546040805160e360020a631dae8aff0281523360048201526000602482018190529151939750600160a060020a039092169263ed7457f892604480820193610160939283900390910190829087803b158015610afc57600080fd5b505af1158015610b10573d6000803e3d6000fd5b505050506040513d601f19601f82011682018060405250610160811015610b3657600080fd5b5060025460405160e160020a635ced7d2302815263ffffffff8716600482019081526000602483018190529396506060808801965060e088019550600160a060020a039093169363b9dafa469389939192899289928992916044019085908083838a5b83811015610bb1578181015183820152602001610b99565b5050505090500183600460200280838360005b83811015610bdc578181015183820152602001610bc4565b5050505090500182600460200280838360005b83811015610c07578181015183820152602001610bef565b5050505090500195505050505050600060405180830381600087803b158015610c2f57600080fd5b505af1158015610c43573d6000803e3d6000fd5b5050600180546040805160e360020a631dae8aff028152336004820152602481019390935251600160a060020a03909116935063ed7457f892506044808301926101609291908290030181600087803b158015610c9f57600080fd5b505af1158015610cb3573d6000803e3d6000fd5b505050506040513d601f19601f82011682018060405250610160811015610cd957600080fd5b5060025460405160e160020a635ced7d2302815263ffffffff8716600482019081526001602483018190529396506060808801965060e088019550600160a060020a039093169363b9dafa4693899391928992899289929160440190859080838360005b83811015610d55578181015183820152602001610d3d565b5050505090500183600460200280838360005b83811015610d80578181015183820152602001610d68565b5050505090500182600460200280838360005b83811015610dab578181015183820152602001610d93565b5050505090500195505050505050600060405180830381600087803b158015610dd357600080fd5b505af1158015610de7573d6000803e3d6000fd5b50506001546040805160e360020a631dae8aff028152336004820152600260248201529051600160a060020a03909216935063ed7457f89250604480820192610160929091908290030181600087803b158015610e4357600080fd5b505af1158015610e57573d6000803e3d6000fd5b505050506040513d601f19601f82011682018060405250610160811015610e7d57600080fd5b506002805460405160e160020a635ced7d2302815263ffffffff881660048201908152602482018490529396506060808801965060e088019550600160a060020a039092169363b9dafa46938993909289928992899260440190859080838360005b83811015610ef7578181015183820152602001610edf565b5050505090500183600460200280838360005b83811015610f22578181015183820152602001610f0a565b5050505090500182600460200280838360005b83811015610f4d578181015183820152602001610f35565b5050505090500195505050505050600060405180830381600087803b158015610f7557600080fd5b505af1158015610f89573d6000803e3d6000fd5b50506001546040805160e360020a631dae8aff028152600160a060020a038b8116600483015260006024830181905292519316945063ed7457f8935060448082019361016093909283900390910190829087803b158015610fe957600080fd5b505af1158015610ffd573d6000803e3d6000fd5b505050506040513d601f19601f8201168201806040525061016081101561102357600080fd5b5060025460405160e160020a635ced7d2302815263ffffffff8716600482019081526003602483018190529396506060808801965060e088019550600160a060020a039093169363b9dafa4693899391928992899289929160440190859080838360005b8381101561109f578181015183820152602001611087565b5050505090500183600460200280838360005b838110156110ca5781810151838201526020016110b2565b5050505090500182600460200280838360005b838110156110f55781810151838201526020016110dd565b5050505090500195505050505050600060405180830381600087803b15801561111d57600080fd5b505af1158015611131573d6000803e3d6000fd5b5050600180546040805160e360020a631dae8aff028152600160a060020a038c811660048301526024820194909452905192909116935063ed7457f89250604480820192610160929091908290030181600087803b15801561119257600080fd5b505af11580156111a6573d6000803e3d6000fd5b505050506040513d601f19601f820116820180604052506101608110156111cc57600080fd5b5060025460405160e160020a635ced7d2302815263ffffffff87166004828101918252602483018190529396506060808801965060e088019550600160a060020a039093169363b9dafa4693899391928992899289929160440190859080838360005b8381101561124757818101518382015260200161122f565b5050505090500183600460200280838360005b8381101561127257818101518382015260200161125a565b5050505090500182600460200280838360005b8381101561129d578181015183820152602001611285565b5050505090500195505050505050600060405180830381600087803b1580156112c557600080fd5b505af11580156112d9573d6000803e3d6000fd5b50506001546040805160e360020a631dae8aff028152600160a060020a038b8116600483015260026024830152915191909216935063ed7457f892506044808301926101609291908290030181600087803b15801561133757600080fd5b505af115801561134b573d6000803e3d6000fd5b505050506040513d601f19601f8201168201806040525061016081101561137157600080fd5b5060025460405160e160020a635ced7d2302815263ffffffff8716600482019081526005602483018190529396506060808801965060e088019550600160a060020a039093169363b9dafa4693899391928992899289929160440190859080838360005b838110156113ed5781810151838201526020016113d5565b5050505090500183600460200280838360005b83811015611418578181015183820152602001611400565b5050505090500182600460200280838360005b8381101561144357818101518382015260200161142b565b5050505090500195505050505050600060405180830381600087803b15801561146b57600080fd5b505af115801561147f573d6000803e3d6000fd5b5050600254604080517fb63e0cd800000000000000000000000000000000000000000000000000000000815263ffffffff891660048201529051600160a060020a03909216935063b63e0cd8925060248082019260009290919082900301818387803b1580156114ee57600080fd5b505af1158015611502573d6000803e3d6000fd5b50506040805160c08101825263ffffffff88168152336020820152600160a060020a038a1691810191909152915050606081016000815286151560208083019190915260016040928301819052336000908152600480845290849020855181549487015163ffffffff1990951663ffffffff9091161777ffffffffffffffffffffffffffffffffffffffff000000001916640100000000600160a060020a0395861602178155938501519184018054600160a060020a03191692909316919091178083556060850151929160a060020a60ff02199091169060a060020a9084908111156115eb57fe5b021790555060808201516001909101805460a090930151151560b060020a0276ff000000000000000000000000000000000000000000001992151560a860020a0275ff000000000000000000000000000000000000000000199094169390931791909116919091179055505050505050565b60006116676126d6565b61166f6126f5565b6116776126f5565b600254604080517ff09a4016000000000000000000000000000000000000000000000000000000008152600160a060020a03898116600483015288811660248301529151919092169163f09a40169160448083019260209291908290030181600087803b1580156116e757600080fd5b505af11580156116fb573d6000803e3d6000fd5b505050506040513d602081101561171157600080fd5b50516001546040805160e360020a631dae8aff028152600160a060020a038a8116600483015260006024830181905292519498509092169263ed7457f892604480820193610160939283900390910190829087803b15801561177257600080fd5b505af1158015611786573d6000803e3d6000fd5b505050506040513d601f19601f820116820180604052506101608110156117ac57600080fd5b5060025460405160e160020a635ced7d2302815263ffffffff8716600482019081526000602483018190529396506060808801965060e088019550600160a060020a039093169363b9dafa469389939192899289928992916044019085908083838a5b8381101561182757818101518382015260200161180f565b5050505090500183600460200280838360005b8381101561185257818101518382015260200161183a565b5050505090500182600460200280838360005b8381101561187d578181015183820152602001611865565b5050505090500195505050505050600060405180830381600087803b1580156118a557600080fd5b505af11580156118b9573d6000803e3d6000fd5b5050600180546040805160e360020a631dae8aff028152600160a060020a038c811660048301526024820194909452905192909116935063ed7457f89250604480820192610160929091908290030181600087803b15801561191a57600080fd5b505af115801561192e573d6000803e3d6000fd5b505050506040513d601f19601f8201168201806040525061016081101561195457600080fd5b5060025460405160e160020a635ced7d2302815263ffffffff8716600482019081526001602483018190529396506060808801965060e088019550600160a060020a039093169363b9dafa4693899391928992899289929160440190859080838360005b838110156119d05781810151838201526020016119b8565b5050505090500183600460200280838360005b838110156119fb5781810151838201526020016119e3565b5050505090500182600460200280838360005b83811015611a26578181015183820152602001611a0e565b5050505090500195505050505050600060405180830381600087803b158015611a4e57600080fd5b505af1158015611a62573d6000803e3d6000fd5b50506001546040805160e360020a631dae8aff028152600160a060020a038b8116600483015260026024830152915191909216935063ed7457f892506044808301926101609291908290030181600087803b158015611ac057600080fd5b505af1158015611ad4573d6000803e3d6000fd5b505050506040513d601f19601f82011682018060405250610160811015611afa57600080fd5b506002805460405160e160020a635ced7d2302815263ffffffff881660048201908152602482018490529396506060808801965060e088019550600160a060020a039092169363b9dafa46938993909289928992899260440190859080838360005b83811015611b74578181015183820152602001611b5c565b5050505090500183600460200280838360005b83811015611b9f578181015183820152602001611b87565b5050505090500182600460200280838360005b83811015611bca578181015183820152602001611bb2565b5050505090500195505050505050600060405180830381600087803b158015611bf257600080fd5b505af1158015611c06573d6000803e3d6000fd5b50506001546040805160e360020a631dae8aff028152600160a060020a038a8116600483015260006024830181905292519316945063ed7457f8935060448082019361016093909283900390910190829087803b158015611c6657600080fd5b505af1158015611c7a573d6000803e3d6000fd5b505050506040513d601f19601f82011682018060405250610160811015611ca057600080fd5b5060025460405160e160020a635ced7d2302815263ffffffff8716600482019081526003602483018190529396506060808801965060e088019550600160a060020a039093169363b9dafa4693899391928992899289929160440190859080838360005b83811015611d1c578181015183820152602001611d04565b5050505090500183600460200280838360005b83811015611d47578181015183820152602001611d2f565b5050505090500182600460200280838360005b83811015611d72578181015183820152602001611d5a565b5050505090500195505050505050600060405180830381600087803b158015611d9a57600080fd5b505af1158015611dae573d6000803e3d6000fd5b5050600180546040805160e360020a631dae8aff028152600160a060020a038b811660048301526024820194909452905192909116935063ed7457f89250604480820192610160929091908290030181600087803b158015611e0f57600080fd5b505af1158015611e23573d6000803e3d6000fd5b505050506040513d601f19601f82011682018060405250610160811015611e4957600080fd5b5060025460405160e160020a635ced7d2302815263ffffffff87166004828101918252602483018190529396506060808801965060e088019550600160a060020a039093169363b9dafa4693899391928992899289929160440190859080838360005b83811015611ec4578181015183820152602001611eac565b5050505090500183600460200280838360005b83811015611eef578181015183820152602001611ed7565b5050505090500182600460200280838360005b83811015611f1a578181015183820152602001611f02565b5050505090500195505050505050600060405180830381600087803b158015611f4257600080fd5b505af1158015611f56573d6000803e3d6000fd5b50506001546040805160e360020a631dae8aff028152600160a060020a038a8116600483015260026024830152915191909216935063ed7457f892506044808301926101609291908290030181600087803b158015611fb457600080fd5b505af1158015611fc8573d6000803e3d6000fd5b505050506040513d601f19601f82011682018060405250610160811015611fee57600080fd5b5060025460405160e160020a635ced7d2302815263ffffffff8716600482019081526005602483018190529396506060808801965060e088019550600160a060020a039093169363b9dafa4693899391928992899289929160440190859080838360005b8381101561206a578181015183820152602001612052565b5050505090500183600460200280838360005b8381101561209557818101518382015260200161207d565b5050505090500182600460200280838360005b838110156120c05781810151838201526020016120a8565b5050505090500195505050505050600060405180830381600087803b1580156120e857600080fd5b505af11580156120fc573d6000803e3d6000fd5b5050600254604080517fb63e0cd800000000000000000000000000000000000000000000000000000000815263ffffffff891660048201529051600160a060020a03909216935063b63e0cd8925060248082019260009290919082900301818387803b15801561216b57600080fd5b505af115801561217f573d6000803e3d6000fd5b5050505060c0604051908101604052808563ffffffff16815260200187600160a060020a0316815260200186600160a060020a03168152602001600060048111156121c657fe5b81526000602080830182905260016040938401819052600160a060020a038b811684526005835292849020855181549387015163ffffffff1990941663ffffffff9091161777ffffffffffffffffffffffffffffffffffffffff00000000191664010000000093851693909302929092178255928401519281018054600160a060020a03191693909216929092178082556060840151919060a060020a60ff02191660a060020a8360048111156115eb57fe5b612281612361565b151561228c57600080fd5b60028054600160a060020a031916600160a060020a0392909216919091179055565b6122b6612361565b15156122c157600080fd5b60008054604051600160a060020a03909116917ff8df31144d9c2f0f6b59d69b8b98abd5459d07f2742c4df920b25aae33c6482091a260008054600160a060020a0319169055565b600181565b600254600160a060020a031681565b612325612361565b151561233057600080fd5b60018054600160a060020a031916600160a060020a0392909216919091179055565b600054600160a060020a031690565b600054600160a060020a0316331490565b600354600160a060020a031681565b612389612361565b151561239457600080fd5b60038054600160a060020a031916600160a060020a0392909216919091179055565b6004602052600090815260409020805460019091015463ffffffff821691600160a060020a036401000000009091048116919081169060ff60a060020a820481169160a860020a810482169160b060020a9091041686565b336000908152600460205260408120600181015460b060020a900460ff16801561245157506000600182015460a060020a900460ff16600481111561244f57fe5b145b91505090565b600154600160a060020a031681565b336000908152600460205260409020600181015460b060020a900460ff16151561248f57600080fd5b6000600182015460a060020a900460ff1660048111156124ab57fe5b14806124d057506004600182015460a060020a900460ff1660048111156124ce57fe5b145b156124da5761264c565b6002548154604080517f4d9171c900000000000000000000000000000000000000000000000000000000815263ffffffff909216600483015251600160a060020a0390921691634d9171c99160248082019260009290919082900301818387803b15801561254757600080fd5b505af115801561255b573d6000803e3d6000fd5b50505050600181015460a860020a900460ff168015612592575060018082015460a060020a900460ff16600481111561259057fe5b145b15612622576003546001820154604080517f6b76484e000000000000000000000000000000000000000000000000000000008152336004820152600160a060020a03928316602482015290519190921691636b76484e91604480830192600092919082900301818387803b15801561260957600080fd5b505af115801561261d573d6000803e3d6000fd5b505050505b60018101805460a060020a60ff021916740400000000000000000000000000000000000000001790555b50565b612657612361565b151561266257600080fd5b61264c81600160a060020a038116151561267b57600080fd5b60008054604051600160a060020a03808516939216917f8be0079c531659141344cd1fd0a4f28419497f9722a3daafe3b4186f6b6457e091a360008054600160a060020a031916600160a060020a0392909216919091179055565b6060604051908101604052806003906020820280388339509192915050565b60806040519081016040528060049060208202803883395091929150505600a165627a7a72305820f2382c327a131dd7810c5c8afd983e3cf10655e6197f78efddd000189ee3e9fc0029",
  "source": "pragma solidity 0.4.24;\n\nimport \"./BattleContext.sol\";\nimport \"./BattleTransaction.sol\";\nimport \"../deck/DeckManager.sol\";\nimport \"../match/Rank.sol\";\nimport \"../hero/Hero.sol\";\nimport \"../extension/Extension.sol\";\nimport \"../lib/openzeppelin-solidity/contracts/ownership/Ownable.sol\";\n\n\ncontract BattleManager is Ownable {\n\n    uint8 public constant TURN_COUNTS = 1;\n\n    DeckManager public deckManager;\n    BattleTransaction public battleTransaction;\n    Rank public rank;\n    \n    mapping(address=>BattleInfo) public addressToBattleInfo;\n    mapping(address=>BattleInfo) public addressToBattleInfoDev;\n    \n    enum State {progress, win, lose, timeUp, finished}\n    \n    struct BattleInfo {\n        uint32 battleId;\n        address attacker;\n        address defender;\n        State state;\n        bool rankBattle;\n        bool exists;\n    }\n\n    function setDeckManagerAddress(address _deckManagerAddress) public onlyOwner {\n        deckManager = DeckManager(_deckManagerAddress);\n    }\n\n    function setBattleTransactionAddress(address _battleTransactionAddress) public onlyOwner {\n        battleTransaction = BattleTransaction(_battleTransactionAddress);\n    }\n\n    function setRankAddress(address _rankAddress) public onlyOwner {\n        rank = Rank(_rankAddress);\n    }\n\n    function start(address _address, bool _rankBattle) public {\n        uint32 battleId = battleTransaction.init(msg.sender, _address);\n        \n        uint256[3] memory ids;\n        int16[4] memory params;\n        uint16[4] memory skills;\n\n        (ids, params, skills) = deckManager.getUnit(msg.sender, 0);\n        battleTransaction.setUnit(battleId, 0, ids, params, skills);\n\n        (ids, params, skills) = deckManager.getUnit(msg.sender, 1);\n        battleTransaction.setUnit(battleId, 1, ids, params, skills);\n\n        (ids, params, skills) = deckManager.getUnit(msg.sender, 2);\n        battleTransaction.setUnit(battleId, 2, ids, params, skills);\n\n        (ids, params, skills) = deckManager.getUnit(_address, 0);\n        battleTransaction.setUnit(battleId, 3, ids, params, skills);\n\n        (ids, params, skills) = deckManager.getUnit(_address, 1);\n        battleTransaction.setUnit(battleId, 4, ids, params, skills);\n\n        (ids, params, skills) = deckManager.getUnit(_address, 2);\n        battleTransaction.setUnit(battleId, 5, ids, params, skills);\n\n        battleTransaction.start(battleId);\n\n        addressToBattleInfo[msg.sender] = BattleInfo(battleId, msg.sender, _address, State.progress, _rankBattle, true);\n    }\n    \n    function next() public {\n        BattleInfo storage battleInfo = addressToBattleInfo[msg.sender];\n        require(battleInfo.exists);\n\n        if (battleInfo.state != State.progress) return;\n        \n        BattleContext.BattleState result = battleTransaction.nexts(battleInfo.battleId, TURN_COUNTS);\n\n        if (result == BattleContext.BattleState.win) {\n            battleInfo.state = State.win;\n        } else if (result == BattleContext.BattleState.lose) {\n            battleInfo.state = State.lose;\n        } else if (result == BattleContext.BattleState.timeUp) {\n            battleInfo.state = State.timeUp;\n        }\n    }\n    \n    function end() public {\n        BattleInfo storage battleInfo = addressToBattleInfo[msg.sender];\n        require(battleInfo.exists);\n        \n        if (battleInfo.state == State.progress || battleInfo.state == State.finished) return;\n\n        battleTransaction.end(battleInfo.battleId);\n        \n        if (battleInfo.rankBattle && battleInfo.state == State.win) {\n            rank.swap(msg.sender, battleInfo.defender);\n        }\n        battleInfo.state = State.finished;\n    }\n\n    function hasNext() public view returns (bool) {\n        BattleInfo storage battleInfo = addressToBattleInfo[msg.sender];\n        return battleInfo.exists && battleInfo.state == State.progress;\n    }\n\n    function battleDev(address _attacker, address _defender) public {\n        uint32 battleId = battleTransaction.init(_attacker, _defender);\n        \n        uint256[3] memory ids;\n        int16[4] memory params;\n        uint16[4] memory skills;\n\n        (ids, params, skills) = deckManager.getUnit(_attacker, 0);\n        battleTransaction.setUnit(battleId, 0, ids, params, skills);\n\n        (ids, params, skills) = deckManager.getUnit(_attacker, 1);\n        battleTransaction.setUnit(battleId, 1, ids, params, skills);\n\n        (ids, params, skills) = deckManager.getUnit(_attacker, 2);\n        battleTransaction.setUnit(battleId, 2, ids, params, skills);\n\n        (ids, params, skills) = deckManager.getUnit(_defender, 0);\n        battleTransaction.setUnit(battleId, 3, ids, params, skills);\n\n        (ids, params, skills) = deckManager.getUnit(_defender, 1);\n        battleTransaction.setUnit(battleId, 4, ids, params, skills);\n\n        (ids, params, skills) = deckManager.getUnit(_defender, 2);\n        battleTransaction.setUnit(battleId, 5, ids, params, skills);\n\n        battleTransaction.start(battleId);\n\n        addressToBattleInfoDev[_attacker] = BattleInfo(battleId, _attacker, _defender, State.progress, false, true);\n    }\n    \n    function nextDev(address _attacker) public {\n        BattleInfo storage battleInfo = addressToBattleInfo[_attacker];\n        require(battleInfo.exists);\n\n        if (battleInfo.state != State.progress) return;\n        \n        BattleContext.BattleState result = battleTransaction.nexts(battleInfo.battleId, TURN_COUNTS);\n\n        if (result == BattleContext.BattleState.win) {\n            battleInfo.state = State.win;\n        } else if (result == BattleContext.BattleState.lose) {\n            battleInfo.state = State.lose;\n        } else if (result == BattleContext.BattleState.timeUp) {\n            battleInfo.state = State.timeUp;\n        }\n    }\n\n    function endDev(address _attacker) public {\n        BattleInfo storage battleInfo = addressToBattleInfo[_attacker];\n        require(battleInfo.exists);\n        \n        if (battleInfo.state == State.progress || battleInfo.state == State.finished) return;\n\n        battleTransaction.end(battleInfo.battleId);\n        \n        if (battleInfo.rankBattle && battleInfo.state == State.win) {\n            rank.swap(battleInfo.attacker, battleInfo.defender);\n        }\n        battleInfo.state = State.finished;\n    }\n\n    function hasNextDev(address _attacker) public view returns (bool) {\n        BattleInfo storage battleInfo = addressToBattleInfo[_attacker];\n        return battleInfo.exists && battleInfo.state == State.progress;\n    }\n\n}\n",
  "sourcePath": "/Users/hironobu/devs/mch-beta/contracts/battle/BattleManager.sol",
  "compiler": {
    "name": "solc",
    "version": "0.4.24+commit.e67f0147.Emscripten.clang"
  },
  "schemaVersion": "2.0.1",
  "updatedAt": "2018-10-01T04:22:13.932Z"
}