{
  "contractName": "BattleManager",
  "abi": [
    {
      "constant": true,
      "inputs": [
        {
          "name": "",
          "type": "address"
        }
      ],
      "name": "addressToBattleInfoDev",
      "outputs": [
        {
          "name": "battleId",
          "type": "uint32"
        },
        {
          "name": "rank",
          "type": "int16"
        },
        {
          "name": "opponent",
          "type": "address"
        },
        {
          "name": "state",
          "type": "uint8"
        },
        {
          "name": "rankBattle",
          "type": "bool"
        },
        {
          "name": "exists",
          "type": "bool"
        }
      ],
      "payable": false,
      "stateMutability": "view",
      "type": "function"
    },
    {
      "constant": false,
      "inputs": [],
      "name": "renounceOwnership",
      "outputs": [],
      "payable": false,
      "stateMutability": "nonpayable",
      "type": "function"
    },
    {
      "constant": true,
      "inputs": [],
      "name": "TURN_COUNTS",
      "outputs": [
        {
          "name": "",
          "type": "uint8"
        }
      ],
      "payable": false,
      "stateMutability": "view",
      "type": "function"
    },
    {
      "constant": true,
      "inputs": [],
      "name": "battleTransaction",
      "outputs": [
        {
          "name": "",
          "type": "address"
        }
      ],
      "payable": false,
      "stateMutability": "view",
      "type": "function"
    },
    {
      "constant": true,
      "inputs": [],
      "name": "owner",
      "outputs": [
        {
          "name": "",
          "type": "address"
        }
      ],
      "payable": false,
      "stateMutability": "view",
      "type": "function"
    },
    {
      "constant": true,
      "inputs": [],
      "name": "isOwner",
      "outputs": [
        {
          "name": "",
          "type": "bool"
        }
      ],
      "payable": false,
      "stateMutability": "view",
      "type": "function"
    },
    {
      "constant": true,
      "inputs": [],
      "name": "rank",
      "outputs": [
        {
          "name": "",
          "type": "address"
        }
      ],
      "payable": false,
      "stateMutability": "view",
      "type": "function"
    },
    {
      "constant": true,
      "inputs": [
        {
          "name": "",
          "type": "address"
        }
      ],
      "name": "addressToBattleInfo",
      "outputs": [
        {
          "name": "battleId",
          "type": "uint32"
        },
        {
          "name": "rank",
          "type": "int16"
        },
        {
          "name": "opponent",
          "type": "address"
        },
        {
          "name": "state",
          "type": "uint8"
        },
        {
          "name": "rankBattle",
          "type": "bool"
        },
        {
          "name": "exists",
          "type": "bool"
        }
      ],
      "payable": false,
      "stateMutability": "view",
      "type": "function"
    },
    {
      "constant": true,
      "inputs": [],
      "name": "deckManager",
      "outputs": [
        {
          "name": "",
          "type": "address"
        }
      ],
      "payable": false,
      "stateMutability": "view",
      "type": "function"
    },
    {
      "constant": false,
      "inputs": [
        {
          "name": "newOwner",
          "type": "address"
        }
      ],
      "name": "transferOwnership",
      "outputs": [],
      "payable": false,
      "stateMutability": "nonpayable",
      "type": "function"
    },
    {
      "anonymous": false,
      "inputs": [
        {
          "indexed": true,
          "name": "previousOwner",
          "type": "address"
        }
      ],
      "name": "OwnershipRenounced",
      "type": "event"
    },
    {
      "anonymous": false,
      "inputs": [
        {
          "indexed": true,
          "name": "previousOwner",
          "type": "address"
        },
        {
          "indexed": true,
          "name": "newOwner",
          "type": "address"
        }
      ],
      "name": "OwnershipTransferred",
      "type": "event"
    },
    {
      "constant": false,
      "inputs": [
        {
          "name": "_deckManagerAddress",
          "type": "address"
        }
      ],
      "name": "setDeckManagerAddress",
      "outputs": [],
      "payable": false,
      "stateMutability": "nonpayable",
      "type": "function"
    },
    {
      "constant": false,
      "inputs": [
        {
          "name": "_battleTransactionAddress",
          "type": "address"
        }
      ],
      "name": "setBattleTransactionAddress",
      "outputs": [],
      "payable": false,
      "stateMutability": "nonpayable",
      "type": "function"
    },
    {
      "constant": false,
      "inputs": [
        {
          "name": "_rankAddress",
          "type": "address"
        }
      ],
      "name": "setRankAddress",
      "outputs": [],
      "payable": false,
      "stateMutability": "nonpayable",
      "type": "function"
    },
    {
      "constant": false,
      "inputs": [
        {
          "name": "_address",
          "type": "address"
        },
        {
          "name": "_rankBattle",
          "type": "bool"
        }
      ],
      "name": "battle",
      "outputs": [],
      "payable": false,
      "stateMutability": "nonpayable",
      "type": "function"
    },
    {
      "constant": false,
      "inputs": [],
      "name": "next",
      "outputs": [],
      "payable": false,
      "stateMutability": "nonpayable",
      "type": "function"
    },
    {
      "constant": true,
      "inputs": [],
      "name": "getState",
      "outputs": [
        {
          "name": "",
          "type": "bool"
        },
        {
          "name": "",
          "type": "uint32"
        },
        {
          "name": "",
          "type": "address"
        },
        {
          "name": "",
          "type": "uint8"
        },
        {
          "name": "",
          "type": "bool"
        }
      ],
      "payable": false,
      "stateMutability": "view",
      "type": "function"
    },
    {
      "constant": false,
      "inputs": [
        {
          "name": "_attacker",
          "type": "address"
        },
        {
          "name": "_defender",
          "type": "address"
        }
      ],
      "name": "battleDev",
      "outputs": [],
      "payable": false,
      "stateMutability": "nonpayable",
      "type": "function"
    },
    {
      "constant": false,
      "inputs": [
        {
          "name": "_attacker",
          "type": "address"
        }
      ],
      "name": "nextDev",
      "outputs": [],
      "payable": false,
      "stateMutability": "nonpayable",
      "type": "function"
    },
    {
      "constant": true,
      "inputs": [
        {
          "name": "_attacker",
          "type": "address"
        }
      ],
      "name": "getStateDev",
      "outputs": [
        {
          "name": "",
          "type": "bool"
        },
        {
          "name": "",
          "type": "uint32"
        },
        {
          "name": "",
          "type": "address"
        },
        {
          "name": "",
          "type": "uint8"
        },
        {
          "name": "",
          "type": "bool"
        }
      ],
      "payable": false,
      "stateMutability": "view",
      "type": "function"
    }
  ],
  "bytecode": "0x608060405260008054600160a060020a03191633179055612813806100256000396000f3006080604052600436106100ed5763ffffffff60e060020a6000350416631865c57d81146100f25780631af83e73146101465780634c8fe526146101b45780634e0b5602146101cb57806352076bd5146101f15780635802a45c1461021257806364cbbd5314610239578063715018a61461025a5780637e9ca2341461026f57806380627f131461029a5780638afded1c146102cb5780638da5cb5b146102ec5780638f32d59b14610301578063934209ce1461032a57806396720bf91461033f578063b3689b1e14610360578063ce49b48414610381578063e13ad980146103a2578063f2fde38b146103b7575b600080fd5b3480156100fe57600080fd5b506101076103d8565b60408051951515865263ffffffff9094166020860152600160a060020a039092168484015260ff16606084015215156080830152519081900360a00190f35b34801561015257600080fd5b50610167600160a060020a036004351661044d565b6040805163ffffffff9097168752600195860b90950b6020870152600160a060020a039093168585015260ff909116606085015215156080840152151560a0830152519081900360c00190f35b3480156101c057600080fd5b506101c96104a6565b005b3480156101d757600080fd5b506101c9600160a060020a03600435166024351515610832565b3480156101fd57600080fd5b506101c9600160a060020a03600435166114af565b34801561021e57600080fd5b506101c9600160a060020a0360043581169060243516611849565b34801561024557600080fd5b506101c9600160a060020a03600435166124b5565b34801561026657600080fd5b506101c96124f7565b34801561027b57600080fd5b5061028461255f565b6040805160ff9092168252519081900360200190f35b3480156102a657600080fd5b506102af612564565b60408051600160a060020a039092168252519081900360200190f35b3480156102d757600080fd5b506101c9600160a060020a0360043516612573565b3480156102f857600080fd5b506102af6125b5565b34801561030d57600080fd5b506103166125c4565b604080519115158252519081900360200190f35b34801561033657600080fd5b506102af6125d5565b34801561034b57600080fd5b50610107600160a060020a03600435166125e4565b34801561036c57600080fd5b506101c9600160a060020a0360043516612663565b34801561038d57600080fd5b50610167600160a060020a03600435166126a5565b3480156103ae57600080fd5b506102af6126fe565b3480156103c357600080fd5b506101c9600160a060020a036004351661270d565b33600090815260046020526040812080548291829182918291829060e060020a900460ff16151561040857600080fd5b5054600260ff60d060020a830481169182109863ffffffff84169850600160a060020a036601000000000000850416975091955060d860020a90920490911692509050565b60056020526000908152604090205463ffffffff811690640100000000810460010b90600160a060020a0366010000000000008204169060ff60d060020a820481169160d860020a810482169160e060020a9091041686565b336000908152600460205260408120805490919060e060020a900460ff1615156104cf57600080fd5b815460d060020a900460ff16151561056b576002548254604080517fb63e0cd800000000000000000000000000000000000000000000000000000000815263ffffffff909216600483015251600160a060020a039092169163b63e0cd89160248082019260009290919082900301818387803b15801561054e57600080fd5b505af1158015610562573d6000803e3d6000fd5b5050505061082e565b815460d060020a900460ff166001146105835761082e565b6002548254604080517fc6b22d2200000000000000000000000000000000000000000000000000000000815263ffffffff90921660048301526014602483015251600160a060020a039092169163c6b22d22916044808201926020929091908290030181600087803b1580156105f857600080fd5b505af115801561060c573d6000803e3d6000fd5b505050506040513d602081101561062257600080fd5b50519050600281600481111561063457fe5b14156107aa57815460d060020a60ff0219167a0200000000000000000000000000000000000000000000000000001780835560ff60d860020a90910416156107a5576003548254604080517f6b76484e0000000000000000000000000000000000000000000000000000000081523360048201526601000000000000909204600160a060020a0390811660248401529051921691636b76484e9160448082019260009290919082900301818387803b1580156106ef57600080fd5b505af1158015610703573d6000803e3d6000fd5b50506003546040805160e260020a63152303bd0281523360048201529051600160a060020a03909216935063548c0ef492506024808201926020929091908290030181600087803b15801561075757600080fd5b505af115801561076b573d6000803e3d6000fd5b505050506040513d602081101561078157600080fd5b5051825460019190910b61ffff166401000000000265ffff00000000199091161782555b61082e565b60038160048111156107b857fe5b14156107ee57815460d060020a60ff0219167a03000000000000000000000000000000000000000000000000000017825561082e565b60048160048111156107fc57fe5b141561082e57815460d060020a60ff0219167a0400000000000000000000000000000000000000000000000000001782555b5050565b600061083c6127a9565b6108446127c8565b61084c6127c8565b600254604080517ff09a4016000000000000000000000000000000000000000000000000000000008152336004820152600160a060020a0389811660248301529151600093929092169163f09a40169160448082019260209290919082900301818787803b1580156108bd57600080fd5b505af11580156108d1573d6000803e3d6000fd5b505050506040513d60208110156108e757600080fd5b50516001546040805160e360020a631dae8aff0281523360048201526000602482018190529151939850600160a060020a039092169263ed7457f892604480820193610160939283900390910190829087803b15801561094657600080fd5b505af115801561095a573d6000803e3d6000fd5b505050506040513d601f19601f8201168201806040525061016081101561098057600080fd5b5060025460405160e160020a635ced7d2302815263ffffffff8816600482019081526000602483018190529397506060808901975060e089019650600160a060020a039093169363b9dafa46938a9391928a928a928a92916044019085908083838a5b838110156109fb5781810151838201526020016109e3565b5050505090500183600460200280838360005b83811015610a26578181015183820152602001610a0e565b5050505090500182600460200280838360005b83811015610a51578181015183820152602001610a39565b5050505090500195505050505050600060405180830381600087803b158015610a7957600080fd5b505af1158015610a8d573d6000803e3d6000fd5b5050600180546040805160e360020a631dae8aff028152336004820152602481019390935251600160a060020a03909116935063ed7457f892506044808301926101609291908290030181600087803b158015610ae957600080fd5b505af1158015610afd573d6000803e3d6000fd5b505050506040513d601f19601f82011682018060405250610160811015610b2357600080fd5b5060025460405160e160020a635ced7d2302815263ffffffff8816600482019081526001602483018190529397506060808901975060e089019650600160a060020a039093169363b9dafa46938a9391928a928a928a929160440190859080838360005b83811015610b9f578181015183820152602001610b87565b5050505090500183600460200280838360005b83811015610bca578181015183820152602001610bb2565b5050505090500182600460200280838360005b83811015610bf5578181015183820152602001610bdd565b5050505090500195505050505050600060405180830381600087803b158015610c1d57600080fd5b505af1158015610c31573d6000803e3d6000fd5b50506001546040805160e360020a631dae8aff028152336004820152600260248201529051600160a060020a03909216935063ed7457f89250604480820192610160929091908290030181600087803b158015610c8d57600080fd5b505af1158015610ca1573d6000803e3d6000fd5b505050506040513d601f19601f82011682018060405250610160811015610cc757600080fd5b506002805460405160e160020a635ced7d2302815263ffffffff891660048201908152602482018490529397506060808901975060e089019650600160a060020a039092169363b9dafa46938a9390928a928a928a9260440190859080838360005b83811015610d41578181015183820152602001610d29565b5050505090500183600460200280838360005b83811015610d6c578181015183820152602001610d54565b5050505090500182600460200280838360005b83811015610d97578181015183820152602001610d7f565b5050505090500195505050505050600060405180830381600087803b158015610dbf57600080fd5b505af1158015610dd3573d6000803e3d6000fd5b50506001546040805160e360020a631dae8aff028152600160a060020a038c8116600483015260006024830181905292519316945063ed7457f8935060448082019361016093909283900390910190829087803b158015610e3357600080fd5b505af1158015610e47573d6000803e3d6000fd5b505050506040513d601f19601f82011682018060405250610160811015610e6d57600080fd5b5060025460405160e160020a635ced7d2302815263ffffffff8816600482019081526003602483018190529397506060808901975060e089019650600160a060020a039093169363b9dafa46938a9391928a928a928a929160440190859080838360005b83811015610ee9578181015183820152602001610ed1565b5050505090500183600460200280838360005b83811015610f14578181015183820152602001610efc565b5050505090500182600460200280838360005b83811015610f3f578181015183820152602001610f27565b5050505090500195505050505050600060405180830381600087803b158015610f6757600080fd5b505af1158015610f7b573d6000803e3d6000fd5b5050600180546040805160e360020a631dae8aff028152600160a060020a038d811660048301526024820194909452905192909116935063ed7457f89250604480820192610160929091908290030181600087803b158015610fdc57600080fd5b505af1158015610ff0573d6000803e3d6000fd5b505050506040513d601f19601f8201168201806040525061016081101561101657600080fd5b5060025460405160e160020a635ced7d2302815263ffffffff88166004828101918252602483018190529397506060808901975060e089019650600160a060020a039093169363b9dafa46938a9391928a928a928a929160440190859080838360005b83811015611091578181015183820152602001611079565b5050505090500183600460200280838360005b838110156110bc5781810151838201526020016110a4565b5050505090500182600460200280838360005b838110156110e75781810151838201526020016110cf565b5050505090500195505050505050600060405180830381600087803b15801561110f57600080fd5b505af1158015611123573d6000803e3d6000fd5b50506001546040805160e360020a631dae8aff028152600160a060020a038c8116600483015260026024830152915191909216935063ed7457f892506044808301926101609291908290030181600087803b15801561118157600080fd5b505af1158015611195573d6000803e3d6000fd5b505050506040513d601f19601f820116820180604052506101608110156111bb57600080fd5b5060025460405160e160020a635ced7d2302815263ffffffff8816600482019081526005602483018190529397506060808901975060e089019650600160a060020a039093169363b9dafa46938a9391928a928a928a929160440190859080838360005b8381101561123757818101518382015260200161121f565b5050505090500183600460200280838360005b8381101561126257818101518382015260200161124a565b5050505090500182600460200280838360005b8381101561128d578181015183820152602001611275565b5050505090500195505050505050600060405180830381600087803b1580156112b557600080fd5b505af11580156112c9573d6000803e3d6000fd5b50506003546040805160e260020a63152303bd0281523360048201529051600160a060020a03909216935063548c0ef492506024808201926020929091908290030181600087803b15801561131d57600080fd5b505af1158015611331573d6000803e3d6000fd5b505050506040513d602081101561134757600080fd5b8101908080519060200190929190505050905060c0604051908101604052808663ffffffff1681526020018260010b815260200188600160a060020a03168152602001600060ff1681526020018715158152602001600115158152506004600033600160a060020a0316600160a060020a0316815260200190815260200160002060008201518160000160006101000a81548163ffffffff021916908363ffffffff16021790555060208201518160000160046101000a81548161ffff021916908360010b61ffff16021790555060408201518160000160066101000a815481600160a060020a030219169083600160a060020a03160217905550606082015181600001601a6101000a81548160ff021916908360ff160217905550608082015181600001601b6101000a81548160ff02191690831515021790555060a082015181600001601c6101000a81548160ff02191690831515021790555090505050505050505050565b600160a060020a0381166000908152600560205260408120805490919060e060020a900460ff1615156114e157600080fd5b815460d060020a900460ff16151561157d576002548254604080517fb63e0cd800000000000000000000000000000000000000000000000000000000815263ffffffff909216600483015251600160a060020a039092169163b63e0cd89160248082019260009290919082900301818387803b15801561156057600080fd5b505af1158015611574573d6000803e3d6000fd5b50505050611844565b815460d060020a900460ff1660011461159557611844565b6002548254604080517fc6b22d2200000000000000000000000000000000000000000000000000000000815263ffffffff90921660048301526014602483015251600160a060020a039092169163c6b22d22916044808201926020929091908290030181600087803b15801561160a57600080fd5b505af115801561161e573d6000803e3d6000fd5b505050506040513d602081101561163457600080fd5b50519050600281600481111561164657fe5b14156117c057815460d060020a60ff0219167a0200000000000000000000000000000000000000000000000000001780835560ff60d860020a90910416156117bb576003548254604080517f6b76484e000000000000000000000000000000000000000000000000000000008152600160a060020a03878116600483015266010000000000009093048316602482015290519190921691636b76484e91604480830192600092919082900301818387803b15801561170357600080fd5b505af1158015611717573d6000803e3d6000fd5b50506003546040805160e260020a63152303bd028152600160a060020a038881166004830152915191909216935063548c0ef4925060248083019260209291908290030181600087803b15801561176d57600080fd5b505af1158015611781573d6000803e3d6000fd5b505050506040513d602081101561179757600080fd5b5051825460019190910b61ffff166401000000000265ffff00000000199091161782555b611844565b60038160048111156117ce57fe5b141561180457815460d060020a60ff0219167a030000000000000000000000000000000000000000000000000000178255611844565b600481600481111561181257fe5b141561184457815460d060020a60ff0219167a0400000000000000000000000000000000000000000000000000001782555b505050565b60006118536127a9565b61185b6127c8565b6118636127c8565b600254604080517ff09a4016000000000000000000000000000000000000000000000000000000008152600160a060020a03898116600483015288811660248301529151600093929092169163f09a40169160448082019260209290919082900301818787803b1580156118d657600080fd5b505af11580156118ea573d6000803e3d6000fd5b505050506040513d602081101561190057600080fd5b50516001546040805160e360020a631dae8aff028152600160a060020a038b8116600483015260006024830181905292519499509092169263ed7457f892604480820193610160939283900390910190829087803b15801561196157600080fd5b505af1158015611975573d6000803e3d6000fd5b505050506040513d601f19601f8201168201806040525061016081101561199b57600080fd5b5060025460405160e160020a635ced7d2302815263ffffffff8816600482019081526000602483018190529397506060808901975060e089019650600160a060020a039093169363b9dafa46938a9391928a928a928a92916044019085908083838a5b83811015611a165781810151838201526020016119fe565b5050505090500183600460200280838360005b83811015611a41578181015183820152602001611a29565b5050505090500182600460200280838360005b83811015611a6c578181015183820152602001611a54565b5050505090500195505050505050600060405180830381600087803b158015611a9457600080fd5b505af1158015611aa8573d6000803e3d6000fd5b5050600180546040805160e360020a631dae8aff028152600160a060020a038d811660048301526024820194909452905192909116935063ed7457f89250604480820192610160929091908290030181600087803b158015611b0957600080fd5b505af1158015611b1d573d6000803e3d6000fd5b505050506040513d601f19601f82011682018060405250610160811015611b4357600080fd5b5060025460405160e160020a635ced7d2302815263ffffffff8816600482019081526001602483018190529397506060808901975060e089019650600160a060020a039093169363b9dafa46938a9391928a928a928a929160440190859080838360005b83811015611bbf578181015183820152602001611ba7565b5050505090500183600460200280838360005b83811015611bea578181015183820152602001611bd2565b5050505090500182600460200280838360005b83811015611c15578181015183820152602001611bfd565b5050505090500195505050505050600060405180830381600087803b158015611c3d57600080fd5b505af1158015611c51573d6000803e3d6000fd5b50506001546040805160e360020a631dae8aff028152600160a060020a038c8116600483015260026024830152915191909216935063ed7457f892506044808301926101609291908290030181600087803b158015611caf57600080fd5b505af1158015611cc3573d6000803e3d6000fd5b505050506040513d601f19601f82011682018060405250610160811015611ce957600080fd5b506002805460405160e160020a635ced7d2302815263ffffffff891660048201908152602482018490529397506060808901975060e089019650600160a060020a039092169363b9dafa46938a9390928a928a928a9260440190859080838360005b83811015611d63578181015183820152602001611d4b565b5050505090500183600460200280838360005b83811015611d8e578181015183820152602001611d76565b5050505090500182600460200280838360005b83811015611db9578181015183820152602001611da1565b5050505090500195505050505050600060405180830381600087803b158015611de157600080fd5b505af1158015611df5573d6000803e3d6000fd5b50506001546040805160e360020a631dae8aff028152600160a060020a038b8116600483015260006024830181905292519316945063ed7457f8935060448082019361016093909283900390910190829087803b158015611e5557600080fd5b505af1158015611e69573d6000803e3d6000fd5b505050506040513d601f19601f82011682018060405250610160811015611e8f57600080fd5b5060025460405160e160020a635ced7d2302815263ffffffff8816600482019081526003602483018190529397506060808901975060e089019650600160a060020a039093169363b9dafa46938a9391928a928a928a929160440190859080838360005b83811015611f0b578181015183820152602001611ef3565b5050505090500183600460200280838360005b83811015611f36578181015183820152602001611f1e565b5050505090500182600460200280838360005b83811015611f61578181015183820152602001611f49565b5050505090500195505050505050600060405180830381600087803b158015611f8957600080fd5b505af1158015611f9d573d6000803e3d6000fd5b5050600180546040805160e360020a631dae8aff028152600160a060020a038c811660048301526024820194909452905192909116935063ed7457f89250604480820192610160929091908290030181600087803b158015611ffe57600080fd5b505af1158015612012573d6000803e3d6000fd5b505050506040513d601f19601f8201168201806040525061016081101561203857600080fd5b5060025460405160e160020a635ced7d2302815263ffffffff88166004828101918252602483018190529397506060808901975060e089019650600160a060020a039093169363b9dafa46938a9391928a928a928a929160440190859080838360005b838110156120b357818101518382015260200161209b565b5050505090500183600460200280838360005b838110156120de5781810151838201526020016120c6565b5050505090500182600460200280838360005b838110156121095781810151838201526020016120f1565b5050505090500195505050505050600060405180830381600087803b15801561213157600080fd5b505af1158015612145573d6000803e3d6000fd5b50506001546040805160e360020a631dae8aff028152600160a060020a038b8116600483015260026024830152915191909216935063ed7457f892506044808301926101609291908290030181600087803b1580156121a357600080fd5b505af11580156121b7573d6000803e3d6000fd5b505050506040513d601f19601f820116820180604052506101608110156121dd57600080fd5b5060025460405160e160020a635ced7d2302815263ffffffff8816600482019081526005602483018190529397506060808901975060e089019650600160a060020a039093169363b9dafa46938a9391928a928a928a929160440190859080838360005b83811015612259578181015183820152602001612241565b5050505090500183600460200280838360005b8381101561228457818101518382015260200161226c565b5050505090500182600460200280838360005b838110156122af578181015183820152602001612297565b5050505090500195505050505050600060405180830381600087803b1580156122d757600080fd5b505af11580156122eb573d6000803e3d6000fd5b50506003546040805160e260020a63152303bd028152600160a060020a038c81166004830152915191909216935063548c0ef4925060248083019260209291908290030181600087803b15801561234157600080fd5b505af1158015612355573d6000803e3d6000fd5b505050506040513d602081101561236b57600080fd5b50516040805160c08101825263ffffffff9788168152600192830b6020828101918252600160a060020a039a8b168385019081526000606085018181526080860182815260a087018981529f8f16835260059094529590209351845493519151955192519d51151560e060020a027fffffff00ffffffffffffffffffffffffffffffffffffffffffffffffffffffff9e151560d860020a027fffffffff00ffffffffffffffffffffffffffffffffffffffffffffffffffffff60ff9590951660d060020a0260d060020a60ff021998909f1666010000000000000279ffffffffffffffffffffffffffffffffffffffff000000000000199490990b61ffff166401000000000265ffff000000001993909e1663ffffffff1990961695909517919091169b909b17169490941792909216989098179190911617969096169390931790935550505050565b6124bd6125c4565b15156124c857600080fd5b6002805473ffffffffffffffffffffffffffffffffffffffff1916600160a060020a0392909216919091179055565b6124ff6125c4565b151561250a57600080fd5b60008054604051600160a060020a03909116917ff8df31144d9c2f0f6b59d69b8b98abd5459d07f2742c4df920b25aae33c6482091a26000805473ffffffffffffffffffffffffffffffffffffffff19169055565b601481565b600254600160a060020a031681565b61257b6125c4565b151561258657600080fd5b6001805473ffffffffffffffffffffffffffffffffffffffff1916600160a060020a0392909216919091179055565b600054600160a060020a031690565b600054600160a060020a0316331490565b600354600160a060020a031681565b600160a060020a038116600090815260056020526040812080548291829182918291829060e060020a900460ff16151561261d57600080fd5b5054600260ff60d060020a830481169182109963ffffffff84169950600160a060020a036601000000000000850416985091965060d860020a9092049091169350915050565b61266b6125c4565b151561267657600080fd5b6003805473ffffffffffffffffffffffffffffffffffffffff1916600160a060020a0392909216919091179055565b60046020526000908152604090205463ffffffff811690640100000000810460010b90600160a060020a0366010000000000008204169060ff60d060020a820481169160d860020a810482169160e060020a9091041686565b600154600160a060020a031681565b6127156125c4565b151561272057600080fd5b6127298161272c565b50565b600160a060020a038116151561274157600080fd5b60008054604051600160a060020a03808516939216917f8be0079c531659141344cd1fd0a4f28419497f9722a3daafe3b4186f6b6457e091a36000805473ffffffffffffffffffffffffffffffffffffffff1916600160a060020a0392909216919091179055565b6060604051908101604052806003906020820280388339509192915050565b60806040519081016040528060049060208202803883395091929150505600a165627a7a723058204488e1ca26209edeec09775c4eff9cd41a1bbeef936e750de85ec71ec54bc2ae0029",
  "source": "pragma solidity 0.4.24;\n\nimport \"./BattleContext.sol\";\nimport \"./BattleTransaction.sol\";\nimport \"../deck/DeckManager.sol\";\nimport \"../match/Rank.sol\";\nimport \"../hero/Hero.sol\";\nimport \"../extension/Extension.sol\";\nimport \"../lib/openzeppelin-solidity/contracts/ownership/Ownable.sol\";\n\n\ncontract BattleManager is Ownable {\n\n    uint8 public constant TURN_COUNTS = 20;\n\n    DeckManager public deckManager;\n    BattleTransaction public battleTransaction;\n    Rank public rank;\n    \n    mapping(address=>BattleInfo) public addressToBattleInfo;\n    mapping(address=>BattleInfo) public addressToBattleInfoDev;\n    \n    struct BattleInfo {\n        uint32 battleId;\n        int16 rank;\n        address opponent;\n        uint8 state; // 0:none, 1:progress, 2:win, 3:lose, 4:timeup\n        bool rankBattle;\n        bool exists;\n    }\n\n    function setDeckManagerAddress(address _deckManagerAddress) public onlyOwner {\n        deckManager = DeckManager(_deckManagerAddress);\n    }\n\n    function setBattleTransactionAddress(address _battleTransactionAddress) public onlyOwner {\n        battleTransaction = BattleTransaction(_battleTransactionAddress);\n    }\n\n    function setRankAddress(address _rankAddress) public onlyOwner {\n        rank = Rank(_rankAddress);\n    }\n\n    function battle(address _address, bool _rankBattle) public {\n        uint32 battleId = battleTransaction.init(msg.sender, _address);\n        \n        uint256[3] memory ids;\n        int16[4] memory params;\n        uint16[4] memory skills;\n\n        (ids, params, skills) = deckManager.getUnit(msg.sender, 0);\n        battleTransaction.setUnit(battleId, 0, ids, params, skills);\n\n        (ids, params, skills) = deckManager.getUnit(msg.sender, 1);\n        battleTransaction.setUnit(battleId, 1, ids, params, skills);\n\n        (ids, params, skills) = deckManager.getUnit(msg.sender, 2);\n        battleTransaction.setUnit(battleId, 2, ids, params, skills);\n\n        (ids, params, skills) = deckManager.getUnit(_address, 0);\n        battleTransaction.setUnit(battleId, 3, ids, params, skills);\n\n        (ids, params, skills) = deckManager.getUnit(_address, 1);\n        battleTransaction.setUnit(battleId, 4, ids, params, skills);\n\n        (ids, params, skills) = deckManager.getUnit(_address, 2);\n        battleTransaction.setUnit(battleId, 5, ids, params, skills);\n\n        int16 _rank = rank.getRank(msg.sender);\n        addressToBattleInfo[msg.sender] = BattleInfo(battleId, _rank, _address, 0, _rankBattle, true);\n    }\n    \n    function next() public {\n        BattleInfo storage battleInfo = addressToBattleInfo[msg.sender];\n        require(battleInfo.exists);\n\n        if (battleInfo.state == 0) {\n            battleTransaction.start(battleInfo.battleId);\n            return;\n        } else if (battleInfo.state != 1) {\n            return;\n        }\n        \n        BattleContext.BattleState result = battleTransaction.nexts(battleInfo.battleId, TURN_COUNTS);\n        if (result == BattleContext.BattleState.win) {\n            battleInfo.state = 2;\n            if (battleInfo.rankBattle) {\n                rank.swap(msg.sender, battleInfo.opponent);\n                battleInfo.rank = rank.getRank(msg.sender);\n            }\n        } else if (result == BattleContext.BattleState.lose) {\n            battleInfo.state = 3;\n        } else if (result == BattleContext.BattleState.timeUp) {\n            battleInfo.state = 4;\n        }\n    }\n\n    function getState() public view returns (bool, uint32, address, uint8, bool) {\n        BattleInfo storage battleInfo = addressToBattleInfo[msg.sender];\n        require(battleInfo.exists);\n        bool hasNext = battleInfo.state < 2;\n        return (hasNext, battleInfo.battleId, battleInfo.opponent, battleInfo.state, battleInfo.rankBattle);\n    }\n\n    // ----- dev\n\n    function battleDev(address _attacker, address _defender) public {\n        uint32 battleId = battleTransaction.init(_attacker, _defender);\n        \n        uint256[3] memory ids;\n        int16[4] memory params;\n        uint16[4] memory skills;\n\n        (ids, params, skills) = deckManager.getUnit(_attacker, 0);\n        battleTransaction.setUnit(battleId, 0, ids, params, skills);\n\n        (ids, params, skills) = deckManager.getUnit(_attacker, 1);\n        battleTransaction.setUnit(battleId, 1, ids, params, skills);\n\n        (ids, params, skills) = deckManager.getUnit(_attacker, 2);\n        battleTransaction.setUnit(battleId, 2, ids, params, skills);\n\n        (ids, params, skills) = deckManager.getUnit(_defender, 0);\n        battleTransaction.setUnit(battleId, 3, ids, params, skills);\n\n        (ids, params, skills) = deckManager.getUnit(_defender, 1);\n        battleTransaction.setUnit(battleId, 4, ids, params, skills);\n\n        (ids, params, skills) = deckManager.getUnit(_defender, 2);\n        battleTransaction.setUnit(battleId, 5, ids, params, skills);\n\n        int16 _rank = rank.getRank(_attacker);\n        addressToBattleInfoDev[_attacker] = BattleInfo(battleId, _rank, _defender, 0, false, true);\n    }\n    \n    function nextDev(address _attacker) public {\n        BattleInfo storage battleInfo = addressToBattleInfoDev[_attacker];\n        require(battleInfo.exists);\n\n        if (battleInfo.state == 0) {\n            battleTransaction.start(battleInfo.battleId);\n            return;\n        } else if (battleInfo.state != 1) {\n            return;\n        }\n        \n        BattleContext.BattleState result = battleTransaction.nexts(battleInfo.battleId, TURN_COUNTS);\n        if (result == BattleContext.BattleState.win) {\n            battleInfo.state = 2;\n            if (battleInfo.rankBattle) {\n                rank.swap(_attacker, battleInfo.opponent);\n                battleInfo.rank = rank.getRank(_attacker);\n            }\n        } else if (result == BattleContext.BattleState.lose) {\n            battleInfo.state = 3;\n        } else if (result == BattleContext.BattleState.timeUp) {\n            battleInfo.state = 4;\n        }\n    }\n\n    function getStateDev(address _attacker) public view returns (bool, uint32, address, uint8, bool) {\n        BattleInfo storage battleInfo = addressToBattleInfoDev[_attacker];\n        require(battleInfo.exists);\n        bool hasNext = battleInfo.state < 2;\n        return (hasNext, battleInfo.battleId, battleInfo.opponent, battleInfo.state, battleInfo.rankBattle);\n    }\n\n}\n",
  "sourcePath": "/Users/hironobu/devs/mch-beta/contracts/battle/BattleManager.sol",
  "compiler": {
    "name": "solc",
    "version": "0.4.24+commit.e67f0147.Emscripten.clang"
  },
  "schemaVersion": "2.0.1",
  "updatedAt": "2018-09-24T16:07:29.809Z"
}