{
  "contractName": "BattleManager3",
  "abi": [
    {
      "constant": true,
      "inputs": [],
      "name": "currentBattleId",
      "outputs": [
        {
          "name": "",
          "type": "uint32"
        }
      ],
      "payable": false,
      "stateMutability": "view",
      "type": "function"
    },
    {
      "constant": true,
      "inputs": [
        {
          "name": "account",
          "type": "address"
        }
      ],
      "name": "isSigner",
      "outputs": [
        {
          "name": "",
          "type": "bool"
        }
      ],
      "payable": false,
      "stateMutability": "view",
      "type": "function"
    },
    {
      "constant": true,
      "inputs": [],
      "name": "rank",
      "outputs": [
        {
          "name": "",
          "type": "address"
        }
      ],
      "payable": false,
      "stateMutability": "view",
      "type": "function"
    },
    {
      "constant": true,
      "inputs": [],
      "name": "deckManager",
      "outputs": [
        {
          "name": "",
          "type": "address"
        }
      ],
      "payable": false,
      "stateMutability": "view",
      "type": "function"
    },
    {
      "constant": false,
      "inputs": [],
      "name": "renounceSigner",
      "outputs": [],
      "payable": false,
      "stateMutability": "nonpayable",
      "type": "function"
    },
    {
      "constant": false,
      "inputs": [
        {
          "name": "account",
          "type": "address"
        }
      ],
      "name": "addSigner",
      "outputs": [],
      "payable": false,
      "stateMutability": "nonpayable",
      "type": "function"
    },
    {
      "anonymous": false,
      "inputs": [
        {
          "indexed": true,
          "name": "battleId",
          "type": "uint32"
        },
        {
          "indexed": true,
          "name": "attacker",
          "type": "address"
        },
        {
          "indexed": true,
          "name": "defender",
          "type": "address"
        },
        {
          "indexed": false,
          "name": "data",
          "type": "uint256[7]"
        },
        {
          "indexed": false,
          "name": "randomSeed",
          "type": "uint16"
        }
      ],
      "name": "BattleStart3",
      "type": "event"
    },
    {
      "anonymous": false,
      "inputs": [
        {
          "indexed": true,
          "name": "battleId",
          "type": "uint32"
        },
        {
          "indexed": true,
          "name": "attacker",
          "type": "address"
        },
        {
          "indexed": true,
          "name": "defender",
          "type": "address"
        },
        {
          "indexed": false,
          "name": "win",
          "type": "bool"
        }
      ],
      "name": "BattleEnd3",
      "type": "event"
    },
    {
      "anonymous": false,
      "inputs": [
        {
          "indexed": true,
          "name": "account",
          "type": "address"
        }
      ],
      "name": "SignerAdded",
      "type": "event"
    },
    {
      "anonymous": false,
      "inputs": [
        {
          "indexed": true,
          "name": "account",
          "type": "address"
        }
      ],
      "name": "SignerRemoved",
      "type": "event"
    },
    {
      "constant": false,
      "inputs": [
        {
          "name": "_deckManagerAddress",
          "type": "address"
        }
      ],
      "name": "setDeckManagerAddress",
      "outputs": [],
      "payable": false,
      "stateMutability": "nonpayable",
      "type": "function"
    },
    {
      "constant": false,
      "inputs": [
        {
          "name": "_rankAddress",
          "type": "address"
        }
      ],
      "name": "setRankAddress",
      "outputs": [],
      "payable": false,
      "stateMutability": "nonpayable",
      "type": "function"
    },
    {
      "constant": false,
      "inputs": [
        {
          "name": "_defender",
          "type": "address"
        },
        {
          "name": "_rankBattle",
          "type": "bool"
        }
      ],
      "name": "start",
      "outputs": [],
      "payable": false,
      "stateMutability": "nonpayable",
      "type": "function"
    },
    {
      "constant": false,
      "inputs": [
        {
          "name": "_winnerCode",
          "type": "uint16"
        }
      ],
      "name": "end",
      "outputs": [],
      "payable": false,
      "stateMutability": "nonpayable",
      "type": "function"
    },
    {
      "constant": true,
      "inputs": [
        {
          "name": "attacker",
          "type": "address"
        }
      ],
      "name": "getBattleInfo",
      "outputs": [
        {
          "name": "battleId",
          "type": "uint32"
        },
        {
          "name": "data",
          "type": "uint256[7]"
        },
        {
          "name": "randomSeed",
          "type": "uint16"
        },
        {
          "name": "winnerCode",
          "type": "uint16"
        }
      ],
      "payable": false,
      "stateMutability": "view",
      "type": "function"
    },
    {
      "constant": true,
      "inputs": [
        {
          "name": "position",
          "type": "uint8"
        },
        {
          "name": "ids",
          "type": "uint256[3]"
        },
        {
          "name": "params",
          "type": "int16[4]"
        },
        {
          "name": "skills",
          "type": "uint16[4]"
        }
      ],
      "name": "getEventData",
      "outputs": [
        {
          "name": "",
          "type": "uint256"
        }
      ],
      "payable": false,
      "stateMutability": "pure",
      "type": "function"
    },
    {
      "constant": true,
      "inputs": [],
      "name": "getSender",
      "outputs": [
        {
          "name": "",
          "type": "address"
        }
      ],
      "payable": false,
      "stateMutability": "view",
      "type": "function"
    },
    {
      "constant": true,
      "inputs": [],
      "name": "getData",
      "outputs": [
        {
          "name": "results",
          "type": "uint256[7]"
        }
      ],
      "payable": false,
      "stateMutability": "pure",
      "type": "function"
    },
    {
      "constant": false,
      "inputs": [
        {
          "name": "attacker",
          "type": "address"
        },
        {
          "name": "defender",
          "type": "address"
        },
        {
          "name": "rankBattle",
          "type": "bool"
        }
      ],
      "name": "initBattle",
      "outputs": [],
      "payable": false,
      "stateMutability": "nonpayable",
      "type": "function"
    }
  ],
  "bytecode": "0x60806040526001805463ffffffff191661ea6017905561002d6000336401000000006115f661003282021704565b61006c565b600160a060020a038116151561004757600080fd5b600160a060020a0316600090815260209190915260409020805460ff19166001179055565b6117238061007b6000396000f3006080604052600436106100da5763ffffffff7c01000000000000000000000000000000000000000000000000000000006000350416632a499ee781146100df578063313e4078146100fd5780633716631e146101295780633bc5de30146101ad57806352ca2926146101fa57806354e04b72146102285780635e01eb5a1461024e5780637df73e271461027f5780638410ab59146102b45780638afded1c1461035b578063934209ce1461037c578063b3689b1e14610391578063e13ad980146103b2578063e5c8b03d146103c7578063eb12d61e146103dc575b600080fd5b3480156100eb57600080fd5b506100fb61ffff600435166103fd565b005b34801561010957600080fd5b506100fb600160a060020a036004358116906024351660443515156105c1565b34801561013557600080fd5b5061014a600160a060020a0360043516610931565b60405163ffffffff85168152602081018460e080838360005b8381101561017b578181015183820152602001610163565b505050509050018361ffff1661ffff1681526020018261ffff1661ffff16815260200194505050505060405180910390f35b3480156101b957600080fd5b506101c26109e4565b604051808260e080838360005b838110156101e75781810151838201526020016101cf565b5050505090500191505060405180910390f35b34801561020657600080fd5b5061020f610ad7565b6040805163ffffffff9092168252519081900360200190f35b34801561023457600080fd5b506100fb600160a060020a03600435166024351515610ae3565b34801561025a57600080fd5b506102636112ba565b60408051600160a060020a039092168252519081900360200190f35b34801561028b57600080fd5b506102a0600160a060020a03600435166112bf565b604080519115158252519081900360200190f35b3480156102c057600080fd5b50604080516060808201909252610349916004803560ff1692369260849190602490600390839083908082843750506040805160808181019092529497969581810195945092506004915083908390808284375050604080516080818101909252949796958181019594509250600491508390839080828437509396506112d795505050505050565b60408051918252519081900360200190f35b34801561036757600080fd5b506100fb600160a060020a0360043516611475565b34801561038857600080fd5b506102636114b8565b34801561039d57600080fd5b506100fb600160a060020a03600435166114c7565b3480156103be57600080fd5b5061026361150a565b3480156103d357600080fd5b506100fb611519565b3480156103e857600080fd5b506100fb600160a060020a036004351661152c565b336000908152600260205260408120600981015490919065010000000000900460ff16151561042b576105bc565b50600981015462010000810461ffff908116908416149060ff6401000000009091041680156104575750805b156104f3576004805483546001850154604080517f6b76484e000000000000000000000000000000000000000000000000000000008152600160a060020a03640100000000909404841695810195909552908216602485015251911691636b76484e91604480830192600092919082900301818387803b1580156104da57600080fd5b505af11580156104ee573d6000803e3d6000fd5b505050505b600182015482546040805184151581529051600160a060020a03938416936401000000008404169263ffffffff16917fc6398057c3a10e4a22dc013d02366aa9525bb2916a176f16bded9fac782eac8d919081900360200190a43360009081526002602081905260408220805477ffffffffffffffffffffffffffffffffffffffffffffffff1916815560018101805473ffffffffffffffffffffffffffffffffffffffff1916905591906105aa90830182611630565b50600901805465ffffffffffff191690555b505050565b6105c9611642565b7f16217702a452db7a09e0739fd48bc447612118313d53b316767c04895922800081527f1857735311f39519a8cd4cf3ef98eafb0ed0fd75431cd093595f5665cfd100006020808301919091527f1a8d6fa37f7bc7b38ab7831ef2e01a18cde06d4230bd9bb73e382f7736df80006040808401919091527f1cd46ded0133450265d86e7cdf21a7cf627700852fe436ea458944fba5a7000060608401527f1f0a65e5f7c2a9919dcc52fee4b76e626c489467ed7b9abfcc4a890d0a9a000060808401527f21405ddf0b177add88b9e8f21b605e7de1048f9f8117ad442ea02d21e9c5000060a0840152600060c0840181905281514360001901408185015282518082038501815290830192839052805191938493919282918401908083835b602083106107075780518252601f1990920191602091820191016106e8565b51815160209384036101000a600019018019909216911617905260408051929094018290038220613ddf810161ffff167e0100000000000000000000000000000000000000000000000000000000000002838301528451600281850301815260229093019485905282519098509195509293508392850191508083835b602083106107a35780518252601f199092019160209182019101610784565b518151602093840361010090810a600019018019909316929091169190911790915260408051939095018390038320908301855260648352600160a060020a038d81168484018181528e8316868901908152606087018e815261ffff8e811660808a0152861660a08901528f151560c0890152600160e0890181905260009485526002978890529990932087518154935163ffffffff1990941663ffffffff9091161777ffffffffffffffffffffffffffffffffffffffff0000000019166401000000009386169390930292909217825551978101805473ffffffffffffffffffffffffffffffffffffffff19169890931697909717909155519097509195509293506108b592840191506007611661565b5060808201516009909101805460a084015160c085015160e0909501511515650100000000000265ff0000000000199515156401000000000264ff000000001961ffff938416620100000263ffff0000199490971661ffff19909516949094179290921694909417919091161792909216179055505050505050565b600061093b611642565b6000806000610949336112bf565b151561095457600080fd5b50600160a060020a0385166000908152600260205260409020600981015465010000000000900460ff16151561098957600080fd5b80546040805160e081019182905263ffffffff9092169650600283019060079082845b8154815260200190600101908083116109ac5750505060099093015496989197505061ffff8087169662010000900416945092505050565b6109ec611642565b7f16217702a452db7a09e0739fd48bc447612118313d53b316767c04895922800081527f1857735311f39519a8cd4cf3ef98eafb0ed0fd75431cd093595f5665cfd1000060208201527f1a8d6fa37f7bc7b38ab7831ef2e01a18cde06d4230bd9bb73e382f7736df800060408201527f1cd46ded0133450265d86e7cdf21a7cf627700852fe436ea458944fba5a7000060608201527f1f0a65e5f7c2a9919dcc52fee4b76e626c489467ed7b9abfcc4a890d0a9a000060808201527f21405ddf0b177add88b9e8f21b605e7de1048f9f8117ad442ea02d21e9c5000060a0820152600060c082015290565b60015463ffffffff1681565b6000610aed61169f565b610af56116be565b610afd6116be565b610b05611642565b6003546040805160e360020a631dae8aff0281523360048201819052600060248301819052925190985091928392600160a060020a039091169163ed7457f89160448083019261016092919082900301818787803b158015610b6657600080fd5b505af1158015610b7a573d6000803e3d6000fd5b505050506040513d601f19601f82011682018060405250610160811015610ba057600080fd5b50955060608601945060e086019350610bbc60008787876112d7565b83526003546040805160e360020a631dae8aff028152600160a060020a038a81166004830152600160248301529151919092169163ed7457f8916044808301926101609291908290030181600087803b158015610c1857600080fd5b505af1158015610c2c573d6000803e3d6000fd5b505050506040513d601f19601f82011682018060405250610160811015610c5257600080fd5b50955060608601945060e086019350610c6e60018787876112d7565b60208401526003546040805160e360020a631dae8aff028152600160a060020a038a81166004830152600260248301529151919092169163ed7457f8916044808301926101609291908290030181600087803b158015610ccd57600080fd5b505af1158015610ce1573d6000803e3d6000fd5b505050506040513d601f19601f82011682018060405250610160811015610d0757600080fd5b50955060608601945060e086019350610d2360028787876112d7565b83600260200201526003546040805160e360020a631dae8aff028152600160a060020a038c81166004830152600060248301819052925193169263ed7457f89260448084019361016093929083900390910190829087803b158015610d8757600080fd5b505af1158015610d9b573d6000803e3d6000fd5b505050506040513d601f19601f82011682018060405250610160811015610dc157600080fd5b50955060608601945060e086019350610ddd60038787876112d7565b60608401526003546040805160e360020a631dae8aff028152600160a060020a038c81166004830152600160248301529151919092169163ed7457f8916044808301926101609291908290030181600087803b158015610e3c57600080fd5b505af1158015610e50573d6000803e3d6000fd5b505050506040513d601f19601f82011682018060405250610160811015610e7657600080fd5b50955060608601945060e086019350610e9260048787876112d7565b60808401526003546040805160e360020a631dae8aff028152600160a060020a038c81166004830152600260248301529151919092169163ed7457f8916044808301926101609291908290030181600087803b158015610ef157600080fd5b505af1158015610f05573d6000803e3d6000fd5b505050506040513d601f19601f82011682018060405250610160811015610f2b57600080fd5b50955060608601945060e086019350610f4760058787876112d7565b60a08401526001805463ffffffff80821683011663ffffffff199091161790556040805160001943014060208083019190915282518083038201815291830192839052815191929182918401908083835b60208310610fb75780518252601f199092019160209182019101610f98565b51815160209384036101000a600019018019909216911617905260408051929094018290038220613ddf810161ffff167e0100000000000000000000000000000000000000000000000000000000000002838301528451600281850301815260229093019485905282519098509195509293508392850191508083835b602083106110535780518252601f199092019160209182019101611034565b6001836020036101000a038019825116818451168082178552505050505050905001915050604051809103902060019004905061010060405190810160405280600160009054906101000a900463ffffffff1663ffffffff16815260200188600160a060020a031681526020018a600160a060020a031681526020018481526020018361ffff1681526020018261ffff1681526020018915158152602001600115158152506002600089600160a060020a0316600160a060020a0316815260200190815260200160002060008201518160000160006101000a81548163ffffffff021916908363ffffffff16021790555060208201518160000160046101000a815481600160a060020a030219169083600160a060020a0316021790555060408201518160010160006101000a815481600160a060020a030219169083600160a060020a031602179055506060820151816002019060076111b5929190611661565b5060808201516009909101805460a084015160c085015160e0958601511515650100000000000265ff0000000000199115156401000000000264ff000000001961ffff948516620100000263ffff0000199590981661ffff19909616959095179390931695909517929092161716919091179055600154604051600160a060020a03808d1693908b169263ffffffff16917fadab5a59894c5b4745574144b0d300c493869da2f6372907115c9b5a271cd72291889188918190849080838360005b8381101561128e578181015183820152602001611276565b505050509050018261ffff1661ffff1681526020019250505060405180910390a4505050505050505050565b335b90565b60006112d1818363ffffffff61158816565b92915050565b8251602080850151604095860151855186840151878901516060988901518851968901519a890151989099015161ffff90811666038d7ea4c6800002988116678ac7230489e80000029a811669152d02c7e14af68000000296166b033b2e3c9fd0803ce8000000026001998a0b6c7e37be2022c0914b268000000002918a0b6e01ed09bead87c0378d8e640000000002928a0b6f0785ee10d5da46d900f436a0000000000260ff9c909c167f0235fadd81c2822bb3f07877973d50f28bf22a31be8ee8000000000000000000027b097edd871cfda3a5697758bf0e3cbb5ac5741c640000000000000000909802979097017728c87cb5c89a2571ebfdcb54864ada834a000000000000009095029490940173af298d050e4395d69670b12b7f410000000000009093029290920172047bf19673df52e37f2410011d1000000000009190970b90810296909601701d6329f1c35ca4bfabb9f56100000000009690960295909501969096019390930194909401939093010101017f161bcca7119915b50764b4abe86529797775a5f17195100000000000000000000190565b61147e336112bf565b151561148957600080fd5b6003805473ffffffffffffffffffffffffffffffffffffffff1916600160a060020a0392909216919091179055565b600454600160a060020a031681565b6114d0336112bf565b15156114db57600080fd5b6004805473ffffffffffffffffffffffffffffffffffffffff1916600160a060020a0392909216919091179055565b600354600160a060020a031681565b61152a60003363ffffffff6115bf16565b565b611535336112bf565b151561154057600080fd5b61155160008263ffffffff6115f616565b604051600160a060020a038216907f47d1c22a25bb3a5d4e481b9b1e6944c2eade3181a0a20b495ed61d35b5323f2490600090a250565b6000600160a060020a038216151561159f57600080fd5b50600160a060020a03166000908152602091909152604090205460ff1690565b600160a060020a03811615156115d457600080fd5b600160a060020a0316600090815260209190915260409020805460ff19169055565b600160a060020a038116151561160b57600080fd5b600160a060020a0316600090815260209190915260409020805460ff19166001179055565b5061163f9060078101906116dd565b50565b60e0604051908101604052806007906020820280388339509192915050565b826007810192821561168f579160200282015b8281111561168f578251825591602001919060010190611674565b5061169b9291506116dd565b5090565b6060604051908101604052806003906020820280388339509192915050565b6080604051908101604052806004906020820280388339509192915050565b6112bc91905b8082111561169b57600081556001016116e35600a165627a7a7230582043d7a7aabdd0aaf9d27ec05dcddab8b8c125049bc669aba19e8426fc187f058e0029",
  "source": "pragma solidity 0.4.24;\n\nimport \"../deck/DeckManager.sol\";\nimport \"../match/Rank.sol\";\nimport \"../hero/Hero.sol\";\nimport \"../extension/Extension.sol\";\nimport \"../lib/openzeppelin-solidity/contracts/access/roles/SignerRole.sol\";\n\n\ncontract BattleManager3 is SignerRole {\n\n    event BattleStart3(uint32 indexed battleId, address indexed attacker, address indexed defender, uint256[7] data, uint16 randomSeed);\n    event BattleEnd3(uint32 indexed battleId, address indexed attacker, address indexed defender, bool win);\n\n    uint16 constant private WINNER_CODE_SALT = 15839;\n\n    uint32 public currentBattleId = 60000;\n    mapping(address=>BattleInfo) battles;\n    DeckManager public deckManager;\n    Rank public rank;\n\n    struct BattleInfo {\n        uint32 battleId;\n        address attacker;\n        address defender;\n        uint256[7] data;\n        uint16 randomSeed;\n        uint16 winnerCode;\n        bool rankBattle;\n        bool exists;\n    }\n\n    function setDeckManagerAddress(address _deckManagerAddress) public onlySigner {\n        deckManager = DeckManager(_deckManagerAddress);\n    }\n\n    function setRankAddress(address _rankAddress) public onlySigner {\n        rank = Rank(_rankAddress);\n    }\n\n    function start(address _defender, bool _rankBattle) public {\n        address _attacker = msg.sender;\n\n        uint256[3] memory ids;\n        int16[4] memory params;\n        uint16[4] memory skills;\n        uint256[7] memory eventDatas;\n\n        (ids, params, skills) = deckManager.getUnit(_attacker, 0);\n        eventDatas[0] = getEventData(0, ids, params, skills);\n\n        (ids, params, skills) = deckManager.getUnit(_attacker, 1);\n        eventDatas[1] = getEventData(1, ids, params, skills);\n\n        (ids, params, skills) = deckManager.getUnit(_attacker, 2);\n        eventDatas[2] = getEventData(2, ids, params, skills);\n\n        (ids, params, skills) = deckManager.getUnit(_defender, 0);\n        eventDatas[3] = getEventData(3, ids, params, skills);\n\n        (ids, params, skills) = deckManager.getUnit(_defender, 1);\n        eventDatas[4] = getEventData(4, ids, params, skills);\n\n        (ids, params, skills) = deckManager.getUnit(_defender, 2);\n        eventDatas[5] = getEventData(5, ids, params, skills);\n\n        currentBattleId++;\n        uint16 randomSeed = uint16(keccak256(abi.encodePacked(blockhash(block.number-1))));\n        uint16 winnerCode = uint16(keccak256(abi.encodePacked(randomSeed + WINNER_CODE_SALT)));\n        battles[_attacker] = BattleInfo(\n            currentBattleId,\n            _attacker,\n            _defender,\n            eventDatas,\n            randomSeed,\n            winnerCode,\n            _rankBattle,\n            true\n        );\n\n        emit BattleStart3(currentBattleId, _attacker, _defender, eventDatas, randomSeed);\n    }\n    \n    function end(uint16 _winnerCode) public {\n        BattleInfo storage battleInfo = battles[msg.sender];\n        if (!battleInfo.exists) return;\n\n        bool win = battleInfo.winnerCode == _winnerCode;\n\n        if (battleInfo.rankBattle && win) {\n            rank.swap(battleInfo.attacker, battleInfo.defender);\n        }\n        \n        emit BattleEnd3(battleInfo.battleId, battleInfo.attacker, battleInfo.defender, win);\n        \n        delete battles[msg.sender];\n    }\n\n    function getBattleInfo(address attacker) public view onlySigner returns (uint32 battleId, uint256[7] data, uint16 randomSeed, uint16 winnerCode) {\n        BattleInfo storage battleInfo = battles[attacker];\n        require(battleInfo.exists);\n        \n        battleId = battleInfo.battleId;\n        data = battleInfo.data;\n        randomSeed = battleInfo.randomSeed;\n        winnerCode = battleInfo.winnerCode;\n    }\n\n    /*\n      highest digit(tmp): 1\n      position          : 1\n      hero id           : 9\n      item id 1         : 9\n      item id 2         : 9\n      max hp            : 4\n      hp                : 4\n      phy               : 3\n      int               : 3\n      agi               : 3\n      active skill id 1 : 4\n      active skill id 2 : 4\n      active skill id 3 : 4\n      passive skill id  : 4\n    */\n    function getEventData(uint8 position, uint256[3] ids, int16[4] params, uint16[4] skills) public pure returns (uint256) {\n        uint256 digit = 77;\n        uint256 result = 0;\n        \n        digit -= 1; result += uint256(1) * (10**digit); // 1\n        digit -= 1; result += uint256(position) * (10**digit); // 1\n        digit -= 9; result += uint256(ids[0]) * (10**digit); // 9\n        digit -= 9; result += uint256(ids[1]) * (10**digit); // 9\n        digit -= 9; result += uint256(ids[2]) * (10**digit); // 9\n        digit -= 4; result += uint256(params[0]) * (10**digit); // 4\n        digit -= 4; result += uint256(params[0]) * (10**digit); // 4\n        digit -= 3; result += uint256(params[1]) * (10**digit); // 3\n        digit -= 3; result += uint256(params[2]) * (10**digit); // 3\n        digit -= 3; result += uint256(params[3]) * (10**digit); // 3\n        digit -= 4; result += uint256(skills[0]) * (10**digit); // 4\n        digit -= 4; result += uint256(skills[1]) * (10**digit); // 4\n        digit -= 4; result += uint256(skills[2]) * (10**digit); // 4\n        digit -= 4; result += uint256(skills[3]) * (10**digit); // 4\n\n        return result;\n    }\n\n    // following code for dev\n\n    function getSender() public view returns (address) {\n        return msg.sender;\n    }\n    \n    function getData() public pure returns (uint256[7] results) {\n        results[0] = 10010010001010010001030110001015601560570250342011200120091033000000000000000;\n        results[1] = 11010020001030080001030070001012601260310770342008200120101034000000000000000;\n        results[2] = 12010030001040060001030100001017401740340660342004200120071035000000000000000;\n        results[3] = 13040090018050040007030100007019201920810260492007200220011014000000000000000;\n        results[4] = 14040070053030070007050060007018001800300870432010200320011012000000000000000;\n        results[5] = 15040050091040060007030060007013201320390800492005200120041010000000000000000;\n        results[6] = 0;\n    }\n\n    function initBattle(address attacker, address defender, bool rankBattle) public {\n        uint256[7] memory data;\n        data[0] = 10010010001010010001030110001015601560570250342011200120091033000000000000000;\n        data[1] = 11010020001030080001030070001012601260310770342008200120101034000000000000000;\n        data[2] = 12010030001040060001030100001017401740340660342004200120071035000000000000000;\n        data[3] = 13040090018050040007030100007019201920810260492007200220011014000000000000000;\n        data[4] = 14040070053030070007050060007018001800300870432010200320011012000000000000000;\n        data[5] = 15040050091040060007030060007013201320390800492005200120041010000000000000000;\n        data[6] = 0;\n\n        uint16 randomSeed = uint16(keccak256(abi.encodePacked(blockhash(block.number-1))));\n        uint16 winnerCode = uint16(keccak256(abi.encodePacked(randomSeed + WINNER_CODE_SALT)));\n        battles[attacker] = BattleInfo(\n            100,\n            attacker,\n            defender,\n            data,\n            randomSeed,\n            winnerCode,\n            rankBattle,\n            true\n        );\n    }\n\n}\n",
  "sourcePath": "/Users/hironobu/devs/mch-beta/contracts/battle3/BattleManager3.sol",
  "compiler": {
    "name": "solc",
    "version": "0.4.24+commit.e67f0147.Emscripten.clang"
  },
  "schemaVersion": "2.0.1",
  "updatedAt": "2018-10-17T02:00:06.844Z"
}