{
  "contractName": "BattleTransaction2",
  "abi": [
    {
      "constant": true,
      "inputs": [],
      "name": "finishedCounts",
      "outputs": [
        {
          "name": "",
          "type": "uint32"
        }
      ],
      "payable": false,
      "stateMutability": "view",
      "type": "function"
    },
    {
      "constant": true,
      "inputs": [],
      "name": "progressCounts",
      "outputs": [
        {
          "name": "",
          "type": "uint32"
        }
      ],
      "payable": false,
      "stateMutability": "view",
      "type": "function"
    },
    {
      "constant": true,
      "inputs": [
        {
          "name": "",
          "type": "uint256"
        }
      ],
      "name": "battleIds",
      "outputs": [
        {
          "name": "",
          "type": "uint32"
        }
      ],
      "payable": false,
      "stateMutability": "view",
      "type": "function"
    },
    {
      "inputs": [],
      "payable": false,
      "stateMutability": "nonpayable",
      "type": "constructor"
    },
    {
      "anonymous": false,
      "inputs": [
        {
          "indexed": true,
          "name": "battleId",
          "type": "uint32"
        },
        {
          "indexed": false,
          "name": "actionCounts",
          "type": "uint8"
        },
        {
          "indexed": false,
          "name": "skillId",
          "type": "uint16"
        },
        {
          "indexed": false,
          "name": "actionPosition",
          "type": "uint8"
        },
        {
          "indexed": false,
          "name": "effectPositions",
          "type": "bool[7]"
        },
        {
          "indexed": false,
          "name": "poisonDamage",
          "type": "int16"
        },
        {
          "indexed": false,
          "name": "data",
          "type": "uint128[7]"
        }
      ],
      "name": "BattleAction2",
      "type": "event"
    },
    {
      "anonymous": false,
      "inputs": [
        {
          "indexed": true,
          "name": "battleId",
          "type": "uint32"
        },
        {
          "indexed": false,
          "name": "result",
          "type": "uint8"
        },
        {
          "indexed": false,
          "name": "actionCounts",
          "type": "uint8"
        }
      ],
      "name": "BattleCompleted2",
      "type": "event"
    },
    {
      "constant": false,
      "inputs": [
        {
          "name": "_battleId",
          "type": "uint32"
        },
        {
          "name": "_data",
          "type": "uint256[7]"
        },
        {
          "name": "_randomSeed",
          "type": "uint16"
        }
      ],
      "name": "setBattle",
      "outputs": [],
      "payable": false,
      "stateMutability": "nonpayable",
      "type": "function"
    },
    {
      "constant": false,
      "inputs": [
        {
          "name": "_battleId",
          "type": "uint32"
        }
      ],
      "name": "next",
      "outputs": [
        {
          "name": "",
          "type": "uint8"
        }
      ],
      "payable": false,
      "stateMutability": "nonpayable",
      "type": "function"
    },
    {
      "constant": false,
      "inputs": [
        {
          "name": "counts",
          "type": "uint8"
        }
      ],
      "name": "nexts",
      "outputs": [
        {
          "name": "result",
          "type": "uint8"
        }
      ],
      "payable": false,
      "stateMutability": "nonpayable",
      "type": "function"
    },
    {
      "constant": false,
      "inputs": [
        {
          "name": "id",
          "type": "uint16"
        },
        {
          "name": "condition",
          "type": "uint8"
        },
        {
          "name": "rate",
          "type": "int16"
        }
      ],
      "name": "initSkill",
      "outputs": [],
      "payable": false,
      "stateMutability": "nonpayable",
      "type": "function"
    },
    {
      "constant": false,
      "inputs": [
        {
          "name": "id",
          "type": "uint16"
        },
        {
          "name": "target",
          "type": "uint8"
        },
        {
          "name": "param",
          "type": "uint8"
        },
        {
          "name": "calc",
          "type": "uint8"
        },
        {
          "name": "rate",
          "type": "int16"
        },
        {
          "name": "minRate",
          "type": "int16"
        },
        {
          "name": "damage",
          "type": "bool"
        }
      ],
      "name": "addSkillEffect",
      "outputs": [],
      "payable": false,
      "stateMutability": "nonpayable",
      "type": "function"
    },
    {
      "constant": true,
      "inputs": [
        {
          "name": "id",
          "type": "uint16"
        }
      ],
      "name": "getSkill",
      "outputs": [
        {
          "name": "exist",
          "type": "bool"
        },
        {
          "name": "condition",
          "type": "uint8"
        },
        {
          "name": "conditionRate",
          "type": "int16"
        },
        {
          "name": "effects",
          "type": "uint8"
        },
        {
          "name": "target",
          "type": "uint8[3]"
        },
        {
          "name": "param",
          "type": "uint8[3]"
        },
        {
          "name": "calc",
          "type": "uint8[3]"
        },
        {
          "name": "rate",
          "type": "int16[3]"
        },
        {
          "name": "minRate",
          "type": "int16[3]"
        },
        {
          "name": "damage",
          "type": "bool[3]"
        }
      ],
      "payable": false,
      "stateMutability": "view",
      "type": "function"
    }
  ],
  "bytecode": "0x60806040523480156200001157600080fd5b506200002b60016000606464010000000062000051810204565b6200004b60016006600160006064806001640100000000620000f5810204565b62000379565b61ffff83166000908152600360205260408120805460ff1916600190811782556200007e910182620002e1565b5061ffff80841660009081526003602052604090208054600184900b909216620100000263ffff00001990921691909117905560ff82166007811115620000c157fe5b61ffff84166000908152600360205260409020805461ff001916610100836007811115620000eb57fe5b0217905550505050565b620000ff6200030d565b6001815260ff871660068111156200011357fe5b816020019060068111156200012457fe5b908160068111156200013257fe5b90525060ff861660078111156200014557fe5b816040019060078111156200015657fe5b908160078111156200016457fe5b90525060ff851660058111156200017757fe5b816060019060058111156200018857fe5b908160058111156200019657fe5b905250600184810b810b608083015283810b810b60a083015282151560c083015261ffff891660009081526003602090815260408220830180549384018082559083529181902084519301805460ff19169315159390931780845590840151919284929091829061ff0019166101008360068111156200021257fe5b021790555060408201518154829062ff00001916620100008360078111156200023757fe5b021790555060608201518154829063ff000000191663010000008360058111156200025e57fe5b02179055506080820151815460a084015160c09094015115156801000000000000000002604060020a60ff0219600195860b61ffff90811666010000000000000267ffff000000000000199590970b166401000000000265ffff000000001990931692909217929092169390931792909216919091179055505050505050505050565b8154818355818111156200030857600083815260209020620003089181019083016200034b565b505050565b6040805160e0810190915260008082526020820190815260200160008152602001600081526000602082018190526040820181905260609091015290565b6200037691905b80821115620003725780546001604860020a031916815560010162000352565b5090565b90565b61329280620003896000396000f3006080604052600436106100985763ffffffff7c0100000000000000000000000000000000000000000000000000000000600035041663067ffda1811461009d5780630d6c18ac146100cb578063178f4203146100e057806335aa36d11461012257806351a2441e146102875780636a2e65b4146102dc578063a13477d2146102f7578063d8768ad91461030f578063ddfc248514610337575b600080fd5b3480156100a957600080fd5b506100b2610378565b6040805163ffffffff9092168252519081900360200190f35b3480156100d757600080fd5b506100b261038c565b3480156100ec57600080fd5b506100fe63ffffffff60043516610398565b6040518082600581111561010e57fe5b60ff16815260200191505060405180910390f35b34801561012e57600080fd5b5061013e61ffff6004351661081e565b604051808b1515151581526020018a60ff1660ff1681526020018960010b60010b81526020018860ff1660ff16815260200187600360200280838360005b8381101561019457818101518382015260200161017c565b5050505090500186600360200280838360005b838110156101bf5781810151838201526020016101a7565b5050505090500185600360200280838360005b838110156101ea5781810151838201526020016101d2565b5050505090500184600360200280838360005b838110156102155781810151838201526020016101fd565b5050505090500183600360200280838360005b83811015610240578181015183820152602001610228565b5050505090500182600360200280838360005b8381101561026b578181015183820152602001610253565b505050509050019a505050505050505050505060405180910390f35b34801561029357600080fd5b506040805160e08082019092526102da916004803563ffffffff1692369261010491906024906007908390839080828437509396505050913561ffff169250610aa5915050565b005b3480156102e857600080fd5b506100fe60ff60043516611008565b34801561030357600080fd5b506100b26004356110e0565b34801561031b57600080fd5b506102da61ffff6004351660ff6024351660443560010b611118565b34801561034357600080fd5b506102da61ffff6004351660ff60243581169060443581169060643516608435600190810b9060a435900b60c43515156111b8565b600154640100000000900463ffffffff1681565b60015463ffffffff1681565b63ffffffff8116600090815260026020526040812080548290819081908190819060ff1615156103c757600080fd5b602e8601805460ff8082166001011660ff19909116179055600093508392505b60078360ff161015610593576002860160ff84166007811061040557fe5b600602015460ff16151561041857610588565b602c8601805461ff00191661010060ff86169081029190911790915560028701906007811061044357fe5b600602016005015461ffff16600081815260036020526040902090955061046b908790611398565b15610588578554600187810154602c89015491965063ffffffff6101009384900416927f3e8346021d48c796b34795a1af434bf29578eb4c1b964d21f9f03601a449b2ce9260ff60a860020a9093048316928a9260028d01920416600781106104d057fe5b6006020154610100900460ff166104e68b611875565b60006104f18d611907565b6040805160ff808916825261ffff88166020830152861691810191909152606081018460e080838360005b8381101561053457818101518382015260200161051c565b505050509050018360010b815260200182600760200280838360005b83811015610568578181015183820152602001610550565b50505050905001965050505050505060405180910390a261058886611ae3565b6001909201916103e7565b831561059e576103c7565b602e8601805460ff191690556105b386611b3e565b1561064a578554600187015461010090910463ffffffff16907f89c381bcb7ff6e4dd45d036f97b14266a82bccbb76c866752a9d4ddade3dd6ec9060a060020a900460ff16600581111561060357fe5b60018901546040805160ff938416815260a860020a909204831660001901909216602082015281519081900390910190a2600186015460a060020a900460ff169650610813565b61065386611cb2565b602c86015461066c90879060ff1663ffffffff611ef516565b9150600282600381111561067c57fe5b1461080157600382600381111561068f57fe5b141561069e57600194506106ba565b602c8601546106b790879060ff1663ffffffff611fa316565b94505b61ffff851660009081526003602052604090206106de90879063ffffffff61203d16565b6106e786612097565b86546001880154602c89015492935063ffffffff6101009283900416927f3e8346021d48c796b34795a1af434bf29578eb4c1b964d21f9f03601a449b2ce9260ff60a860020a9093048316928a9260028d01929004166007811061074757fe5b6006020154610100900460ff1661075d8b611875565b866107678d611907565b6040805160ff808916825261ffff88166020830152861691810191909152606081018460e080838360005b838110156107aa578181015183820152602001610792565b505050509050018360010b60010b815260200182600760200280838360005b838110156107e15781810151838201526020016107c9565b50505050905001965050505050505060405180910390a261080186611ae3565b600186015460a060020a900460ff1696505b505050505050919050565b60008060008061082c613173565b610834613173565b61083c613173565b610844613173565b61084c613173565b610854613173565b61ffff8b166000908152600360205260408120805460ff8082169d5091929161010090910416600781111561088557fe5b8254600180850154929d5062010000909104900b9a509850600090505b600182015460ff82161015610a965760018201805460ff83169081106108c457fe5b600091825260209091200154610100900460ff1660068111156108e357fe5b8860ff8316600381106108f257fe5b602002019060ff16908160ff1681525050816001018160ff1681548110151561091757fe5b60009182526020909120015462010000900460ff16600781111561093757fe5b8760ff83166003811061094657fe5b602002019060ff16908160ff1681525050816001018160ff1681548110151561096b57fe5b6000918252602090912001546301000000900460ff16600581111561098c57fe5b8660ff83166003811061099b57fe5b602002019060ff16908160ff1681525050816001018160ff168154811015156109c057fe5b600091825260209091200154640100000000900460010b8560ff8316600381106109e657fe5b602002019060010b908160010b81525050816001018160ff16815481101515610a0b57fe5b6000918252602090912001546601000000000000900460010b8460ff831660038110610a3357fe5b602002019060010b908160010b81525050816001018160ff16815481101515610a5857fe5b60009182526020909120015460ff680100000000000000009091048116908490831660038110610a8457fe5b911515602090920201526001016108a2565b50509193959799509193959799565b63ffffffff83166000908152600260205260408120805490919081908190819060ff1615610ad257600080fd5b8454600160ff19909116811764ffffffff00191661010063ffffffff8b1602178655808601805460a860020a75ff000000000000000000000000000000000000000000199091161780825574ff0000000000000000000000000000000000000000191660a060020a830217905550602c85018054600660ff199091161790556001808601805477ffff00000000000000000000000000000000000000000000191676010000000000000000000000000000000000000000000061ffff8a16021790556000805480830182558180527f290decd9548b62a8d60345a988386fc84ba6bc95484008f6362f93160ef3e5636008820401805460079092166004026101000a63ffffffff818102199093168d841691909102179055825463ffffffff19811690821684019091161790915593505b60078460ff161015610ffe578660ff851660078110610c1e57fe5b60200201519250821515610c3157610ff3565b6002850160ff851660078110610c4357fe5b60060201805460ff191660011761ff0019166101007f0235fadd81c2822bb3f07877973d50f28bf22a31be8ee80000000000000000007f161bcca7119915b50764b4abe86529797775a5f171951000000000000000000090960686810460ff16919091029190911782557b097edd871cfda3a5697758bf0e3cbb5ac5741c64000000000000000094900693909306929150603990507728c87cb5c89a2571ebfdcb54864ada834a000000000000008306925060081901600a81900a83811515610d0857fe5b06925060031901600a81900a83811515610d1e57fe5b6001848101805461ffff191661ffff9490930490910b92909216179055600a81900a83811515610d4a57fe5b06925060031901600a81900a83811515610d6057fe5b60028401805461ffff191661ffff9390920460010b92909216179055600a81900a83811515610d8b57fe5b06925060021901600a81900a83811515610da157fe5b048260010160000160026101000a81548161ffff021916908360010b61ffff16021790555080600a0a83811515610dd457fe5b06925060021901600a81900a83811515610dea57fe5b048260010160000160046101000a81548161ffff021916908360010b61ffff16021790555080600a0a83811515610e1d57fe5b06925060021901600a81900a83811515610e3357fe5b048260010160000160066101000a81548161ffff021916908360010b61ffff16021790555080600a0a83811515610e6657fe5b06925060031901600a81900a83811515610e7c57fe5b60048401805461ffff19169290910461ffff16919091179055600a81900a83811515610ea457fe5b06925060031901600a81900a83811515610eba57fe5b60048401805463ffff00001916620100009390920461ffff1692909202179055600a81900a83811515610ee957fe5b06925060031901600a81900a83811515610eff57fe5b60048401805465ffff0000000019166401000000009390920461ffff1692909202179055600a81900a83811515610f3257fe5b06925060031901600a81900a83811515610f4857fe5b60058401805461ffff19169290910461ffff16919091179055600a81900a83811515610f7057fe5b60018481015460028601805463ffff0000191662010000808404850b850b61ffff90811682029290921765ffff000000001916640100000000808604870b870b8416021767ffff0000000000001916660100000000000094859004860b90950b919091169092029290921790915560058501805462ff0000191690911790550692505b600190930192610c03565b5050505050505050565b6001546000908190819063ffffffff808216640100000000909204161061102e576110d9565b600154600080549091640100000000900463ffffffff1690811061104e57fe5b60009182526020822060088204015460079091166004026101000a900463ffffffff16925090505b8360ff168160ff1610156110d95761108d82610398565b9250600183600581111561109d57fe5b146110d1576001805463ffffffff640100000000808304821684019091160267ffffffff00000000199091161790556110d9565b600101611076565b5050919050565b60008054829081106110ee57fe5b9060005260206000209060089182820401919006600402915054906101000a900463ffffffff1681565b61ffff83166000908152600360205260408120805460ff191660019081178255611143910182613192565b5061ffff80841660009081526003602052604090208054600184900b909216620100000263ffff00001990921691909117905560ff8216600781111561118557fe5b61ffff84166000908152600360205260409020805461ff0019166101008360078111156111ae57fe5b0217905550505050565b6111c06131b6565b6001815260ff871660068111156111d357fe5b816020019060068111156111e357fe5b908160068111156111f057fe5b90525060ff8616600781111561120257fe5b8160400190600781111561121257fe5b9081600781111561121f57fe5b90525060ff8516600581111561123157fe5b8160600190600581111561124157fe5b9081600581111561124e57fe5b905250600184810b810b608083015283810b810b60a083015282151560c083015261ffff891660009081526003602090815260408220830180549384018082559083529181902084519301805460ff19169315159390931780845590840151919284929091829061ff0019166101008360068111156112c957fe5b021790555060408201518154829062ff00001916620100008360078111156112ed57fe5b021790555060608201518154829063ff0000001916630100000083600581111561131357fe5b02179055506080820151815460a084015160c0909401511515680100000000000000000268ff000000000000000019600195860b61ffff90811666010000000000000267ffff000000000000199590970b166401000000000265ffff000000001990931692909217929092169390931792909216919091179055505050505050505050565b80546000908190819081908190819060ff1615156113b557600080fd5b602c8801546002890190610100900460ff16600781106113d157fe5b60060201805490955060ff1615806113f45750600585015462010000900460ff16155b8061140a57508454600661010090910460ff1610155b8061142e5750600260058601546301000000900460ff16600381111561142c57fe5b145b806114525750600360058601546301000000900460ff16600381111561145057fe5b145b15611460576000955061186a565b6002850154600190810b900b15801561148e575060068754610100900460ff16600781111561148b57fe5b14155b1561149c576000955061186a565b60018754610100900460ff1660078111156114b357fe5b141561152157602e88015460ff1660011480156114de5750602c88015460ff80821661010090920416145b801561150457508654620100009004600190810b900b6114ff8960646121ea565b60010b125b1561151c57611513888861203d565b6001955061186a565b611865565b60028754610100900460ff16600781111561153857fe5b14156115665760058501805462ff0000191690558654620100009004600190810b900b6114ff8960646121ea565b60038754610100900460ff16600781111561157d57fe5b14156115e057602e88015460ff1660011480156115af57506005850154600065010000000000909104600190810b900b135b1561151c5760058501805466ffff0000000000191690558654620100009004600190810b900b6114ff8960646121ea565b60048754610100900460ff1660078111156115f757fe5b14156116445786546001868101546002880154606491830b62010000909404830b93909302820b05810b91810b900b121561151c5760058501805462ff000019169055611513888861203d565b60058754610100900460ff16600781111561165b57fe5b14156117b1578454600361010090910460ff1610156116f857600091505b60038260ff1610156116f35761168f8883612319565b905060008160000b12156116a2576116e8565b6002880160ff8216600781106116b457fe5b60060201600190810154900b93909301926002880160ff8216600781106116d757fe5b600602016002015460010b92909201915b600190910190611679565b611777565b600391505b60068260ff161015611777576117138883612319565b905060008160000b12156117265761176c565b6002880160ff82166007811061173857fe5b60060201600190810154900b93909301926002880160ff82166007811061175b57fe5b600602016002015460010b92909201915b6001909101906116fd565b8654606490620100009004600190810b8602900b0560010b8360010b121561151c5760058501805462ff000019169055611513888861203d565b60068754610100900460ff1660078111156117c857fe5b1415611808576002850154600190810b900b151561151c5760058501805462ff0000191690558654620100009004600190810b900b6114ff8960646121ea565b60078754610100900460ff16600781111561181f57fe5b141561186557602e88015460ff16600114801561185657508654620100009004600190810b900b6118518960646121ea565b60010b125b1561186557611513888861203d565b600095505b505050505092915050565b61187d6131f4565b6118856131f4565b60005b60078160ff16101561190057602d840160ff8216600781106118a657fe5b602081049091015460ff601f9092166101000a900416156118f8576001826002860160ff8416600781106118d657fe5b6006020154610100900460ff16600781106118ed57fe5b911515602090920201525b600101611888565b5092915050565b61190f6131f4565b6119176131f4565b60028301600080805b60078360ff161015611ad8576002870160ff84166007811061193e57fe5b60060201805490945060ff1615611acd575050815460028301546003808501546005860154601294600192830b830b678ac7230489e800000266010000000000008604840b840b69152d02c7e14af6800000026401000000008704850b850b6a52b7d2dcc80cd2e400000002620100008804860b860b6c01431e0fae6d7217caa00000000297860b90950b6d04ee2d6d415b85acef81000000000260ff61010090940484166ec097ce7bc90715b34b9f10000000000201969096019390930194909401919091016f0785ee10d5da46d900f436a0000000000192670de0b6b3a76400009263010000009092041690811115611a3557fe5b6003860154600587015460031986019560ff62010000938490048116600219909201600a0a9190910294909302949094019290920192919091041615611a7c57600a82900a015b60058401546000199092019160ff6401000000009091048116600a84900a02919091019081908690851660078110611ab057fe5b6fffffffffffffffffffffffffffffffff90921660209290920201525b600190920191611920565b509295945050505050565b6001808201805460ff60a860020a80830482169094011690920275ff00000000000000000000000000000000000000000019909216919091179055602c8101805463ffff000019169055611b3b602d82016000613213565b50565b600181015460009081908190819060c860a860020a90910460ff161115611b96576001850180546004919074ff0000000000000000000000000000000000000000191660a060020a835b021790555060019350611caa565b506001915081905060005b60078160ff161015611c3f5760006002860160ff831660078110611bc157fe5b6006020160020154600190810b900b1315611c375760036002860160ff831660078110611bea57fe5b6006020154610100900460ff161080611c2457506002850160ff821660078110611c1057fe5b60069081029190910154610100900460ff16145b15611c325760009250611c37565b600091505b600101611ba1565b8215611c72576001850180546003919074ff0000000000000000000000000000000000000000191660a060020a83611b88565b8115611ca5576001850180546002919074ff0000000000000000000000000000000000000000191660a060020a83611b88565b600093505b505050919050565b6000600282016103e882808060ff815b600760ff89161015611d94576002890160ff891660078110611ce057fe5b60060201805490975060ff161580611d0357508654600661010090910460ff1610155b80611d1757506002870154600190810b900b155b15611d2157611d89565b6003870154600190810b6103e803955060009086900b13611d455760009350611d77565b8660020160000160069054906101000a900460010b60640160010b6001860360010b811515611d7057fe5b0560010193505b8560010b8460010b1215611d89578395505b600190970196611cc2565b600097505b600760ff89161015611e95576002890160ff891660078110611db757fe5b60060201805490975060ff161580611dda57508654600661010090910460ff1610155b80611dee57506002870154600190810b900b155b15611df857611e8a565b6002870154600388018054600181810b60646601000000000000909504820b949094018a0293909301830b61ffff1661ffff19909116179081905584820b90820b90910b1380611e6a57506003870154600184810b91810b900b148015611e6a5750865460ff80841661010090920416105b15611e8a575050506003840154845460019190910b90610100900460ff16865b600190970196611d99565b602c8901805460ff191660ff831690811761ff00191661010082021790915560009060028b019060078110611ec657fe5b6006020160030160006101000a81548161ffff021916908360010b61ffff160217905550505050505050505050565b6000806002840160ff841660078110611f0a57fe5b60060201805490915060ff161515611f2157600080fd5b600260058201546301000000900460ff166003811115611f3d57fe5b1480611f625750600360058201546301000000900460ff166003811115611f6057fe5b145b15611f8e576032611f748560646121ea565b61ffff161015611f8e5760058101805463ff000000191690555b600501546301000000900460ff169392505050565b60008060036002850160ff851660078110611fba57fe5b60060201600301805462ff0000198116620100009182900460ff9081166001810190911690920217909155811515611fee57fe5b0690506002840160ff84166007811061200357fe5b600602016004018160ff1660038110151561201a57fe5b601091828204019190066002029054906101000a900461ffff1691505092915050565b805460009060ff16151561205057600080fd5b5060005b600182015460ff821610156120925761208a83836001018360ff1681548110151561207b57fe5b9060005260206000200161236f565b600101612054565b505050565b602c81015460009081908190600285019060ff16600781106120b557fe5b60060201805490925060ff1615156120cc57600080fd5b600160058301546301000000900460ff1660038111156120e857fe5b14156121e35760018281015460649190810b600502900b60028401549190059150600190810b810b9082900b13156121245750600281015460010b5b60028201805461ffff19811661ffff600192830b859003830b16179182905590810b900b15156121e35760018281015460028401805463ffff0000191662010000808404850b850b61ffff9081169091029190911765ffff000000001916640100000000808504860b860b8316021767ffff0000000000001916660100000000000093849004850b90940b1690910291909117905560038201805461ffff191690556005820180546000919063ff000000191663010000008302179055505b9392505050565b6001828101805479ffff00000000000000000000000000000000000000000000000019811661ffff78010000000000000000000000000000000000000000000000008084048216958601821602919091179092556040805176010000000000000000000000000000000000000000000090920483167e0100000000000000000000000000000000000000000000000000000000000090810260208085019190915294026022830152805180830360040181526024909201908190528151600094938616938291908401908083835b602083106122d75780518252601f1990920191602091820191016122b8565b5181516020939093036101000a6000190180199091169216919091179052604051920182900390912061ffff169250505081151561231157fe5b069392505050565b6000805b600760ff82161015612364578260ff16846002018260ff1660078110151561234157fe5b6006020154610100900460ff16141561235c57809150611900565b60010161231d565b506000199392505050565b60008061237a61321a565b835460009081908190819081908190819060ff16151561239957600080fd5b602c8c015460028d0190610100900460ff16600781106123b557fe5b8c54600691909102919091019a5060028d0199506123dc908d90610100900460ff16612c1f565b9098509650600095505b8660ff168660ff161015612c115760028c018860ff88166006811061240757fe5b602002015160ff166007811061241957fe5b60060201985060018c602d01898860ff1660068110151561243657fe5b602002015160ff166007811061244857fe5b602091828204019190066101000a81548160ff0219169083151502179055506005600781111561247457fe5b8b5462010000900460ff16600781111561248a57fe5b14806124ab575060068b5462010000900460ff1660078111156124a957fe5b145b806124cb575060078b5462010000900460ff1660078111156124c957fe5b145b1561260c57600060058a01546301000000900460ff1660038111156124ec57fe5b146124f657612c06565b600289810154908b01548c5464010000000092839004600190810b810b9392839004810b810b92909104810b900b0260030b81151561253157fe5b0594508460030b6125438d60646121ea565b60010b131561255157612c06565b60058b5462010000900460ff16600781111561256957fe5b1415612591576005890180546001919063ff00000019166301000000835b0217905550612607565b60068b5462010000900460ff1660078111156125a957fe5b14156125cb576005890180546002919063ff0000001916630100000083612587565b60078b5462010000900460ff1660078111156125e357fe5b1415612607576005890180546003919063ff00000019166301000000835b02179055505b612c06565b8a546401000000008104600190810b810b6601000000000000909204810b900b1415612646578a54640100000000900460010b9350612681565b8a5461266e908d9066010000000000008104600190810b640100000000909204900b036121ea565b8b546601000000000000900460010b0193505b8a5468010000000000000000900460ff161561269f57600019840293505b60008b546301000000900460ff1660058111156126b857fe5b14156126e35760028a0154606490600186810b62010000909204810b900b0260030b5b059250612836565b60018b546301000000900460ff1660058111156126fc57fe5b14156127255760028a0154606490600186810b640100000000909204810b900b0260030b6126db565b60028b546301000000900460ff16600581111561273e57fe5b14156127695760028a0154606490600186810b6601000000000000909204810b900b0260030b6126db565b60038b546301000000900460ff16600581111561278257fe5b14156127be57600289810154908b015460c891600187810b62010000909204810b640100000000909304810b9290920190910b0260030b6126db565b60048b546301000000900460ff1660058111156127d757fe5b14156127fe57602c8c0154606490600186810b62010000909204810b900b0260030b6126db565b60058b546301000000900460ff16600581111561281757fe5b14156128365760018a81015460649186810b91810b900b0260030b0592505b50600060018b5462010000900460ff16600781111561285157fe5b1415612ab15760008360030b128015612880575060008b546301000000900460ff16600581111561287e57fe5b145b156128b057600289810154620100009004600190810b900b05905060288160010b13156128ab575060285b612906565b60008360030b1280156128d9575060018b546301000000900460ff1660058111156128d757fe5b145b15612906576002898101546401000000009004600190810b900b05905060288160010b1315612906575060285b606481810360010b840260030b60028b015491900592506000600191820b840190910b121561294157600289015460010b6000039150612974565b6001808a015460028b015490820b820b90820b840190910b13156129745760028901546001808b015491810b91900b0391505b600289018054600181810b8501900b61ffff1661ffff19909116179055602e8c015460ff161580156129a9575060008260010b125b15612a0b57602c8c01805463ffff000019811661ffff6201000092839004600190810b879003810b82169093029190911790925560058b01805466ffff00000000001981166501000000000091829004840b87900390930b9093169092021790555b6002890154600190810b900b15156126075760018981015460028b01805463ffff0000191662010000808404850b850b61ffff9081169091029190911765ffff000000001916640100000000808504860b860b8316021767ffff0000000000001916660100000000000093849004850b90940b1690910291909117905560038901805461ffff191690556005890180546000919063ff0000001916630100000083612601565b60028b5462010000900460ff166007811115612ac957fe5b1415612b1e5760028901805462010000808204600190810b8701810b61ffff16820263ffff000019909316929092179283905560009204810b900b12156126075760028901805463ffff000019169055612c06565b60038b5462010000900460ff166007811115612b3657fe5b1415612b9157600289018054640100000000808204600190810b8701810b61ffff16820265ffff0000000019909316929092179283905560009204810b900b12156126075760028901805465ffff0000000019169055612c06565b60048b5462010000900460ff166007811115612ba957fe5b1415612c06576002890180546601000000000000808204600190810b8701810b61ffff16820267ffff00000000000019909316929092179283905560009204810b900b1215612c065760028901805467ffff000000000000191690555b6001909501946123e6565b505050505050505050505050565b612c2761321a565b600080600080612c3561321a565b600080612c40613173565b602c8b01546000908190819060028f0190610100900460ff1660078110612c6357fe5b60060201805490985060ff161515612c7a57613162565b60008d6006811115612c8857fe5b1415612cb557602c8e0154610100900460ff168c60005b60ff909216602092909202015260019a50613162565b60068d6006811115612cc357fe5b1415612d865760009550600099505b600760ff8b161015612d5e5760028e0160ff8b1660078110612cf057fe5b60060201805490985060ff168015612d1257508754600661010090910460ff16105b8015612d2a575060028801546000600191820b90910b135b15612d535760018601958a90889060ff1660068110612d4557fe5b60ff90921660209290920201525b600190990198612cd2565b86612d6c8f8860ff166121ea565b60ff1660068110612d7957fe5b60200201518c6000612c9f565b875460009550600361010090910460ff161015612da257600194505b848015612dcf575060018d6006811115612db857fe5b1480612dcf575060028d6006811115612dcd57fe5b145b80612e19575084158015612e19575060038d6006811115612dec57fe5b1480612e03575060048d6006811115612e0157fe5b145b80612e19575060058d6006811115612e1757fe5b145b15612e6557612e298e6003612319565b600090810b900b8452612e3d8e6004612319565b600090810b900b6020850152612e548e6005612319565b600090810b900b6040850152612ea8565b612e708e6000612319565b600090810b900b8452612e848e6001612319565b600090810b900b6020850152612e9b8e6002612319565b600090810b900b60408501525b60018d6006811115612eb657fe5b1480612ecd575060038d6006811115612ecb57fe5b145b15612f8d57600099505b60038a60ff161015612f885760008460ff8c1660038110612ef457fe5b602002015160000b1215612f0757612f7d565b600060028f018560ff8d1660038110612f1c57fe5b602002015160ff1660078110612f2e57fe5b6006020160020154600190810b900b1315612f7d578360ff8b1660038110612f5257fe5b602002015160018a01998d9060ff1660068110612f6b57fe5b60ff9092166020929092020152612f88565b600190990198612ed7565b61315c565b60028d6006811115612f9b57fe5b1480612fb2575060048d6006811115612fb057fe5b145b1561306957600099505b60038a60ff161015612f885760008460ff8c1660038110612fd957fe5b602002015160000b1215612fec5761305e565b600060028f018560ff8d166003811061300157fe5b602002015160ff166007811061301357fe5b6006020160020154600190810b900b131561305e578360ff8b166003811061303757fe5b602002015160018a01998d9060ff166006811061305057fe5b60ff90921660209290920201525b600190990198612fbc565b60058d600681111561307757fe5b141561315c57617fff9250600099505b60038a60ff1610156131385760008460ff8c16600381106130a457fe5b602002015160000b12156130b75761312d565b60028e018460ff8c16600381106130ca57fe5b602002015160ff16600781106130dc57fe5b6006020160020160000160009054906101000a900460010b905060008160010b13801561310e57508060010b8360010b135b1561312d579150818360ff8b166003811061312557fe5b602002015191505b600190990198613087565b600189019882908d9060ff166006811061314e57fe5b60ff90921660209290920201525b97995089975b505050505050505050509250929050565b6060604051908101604052806003906020820280388339509192915050565b81548183558181111561209257600083815260209020612092918101908301613239565b6040805160e0810190915260008082526020820190815260200160008152602001600081526000602082018190526040820181905260609091015290565b60e0604051908101604052806007906020820280388339509192915050565b5060009055565b60c0604051908101604052806006906020820280388339509192915050565b61326391905b8082111561325f57805468ffffffffffffffffff1916815560010161323f565b5090565b905600a165627a7a7230582020465a6194381a317bf0ea421253ce0634c4c50894df5a00ff8fb8d319368c200029",
  "source": "pragma solidity 0.4.24;\n\nimport {BattleContext as BC} from \"./BattleContext.sol\";\nimport \"./BattleCharge.sol\";\nimport \"./BattleSkill.sol\";\nimport \"./BattleUtil.sol\";\n\n\ncontract BattleTransaction2 {\n\n    event BattleAction2(uint32 indexed battleId, uint8 actionCounts, uint16 skillId, uint8 actionPosition, bool[7] effectPositions, int16 poisonDamage, uint128[7] data);\n    event BattleCompleted2(uint32 indexed battleId, uint8 result, uint8 actionCounts);\n\n    using BattleCharge for BC.Battle;\n    using BattleSkill for BC.Battle;\n    using BattleUtil for BC.Battle;\n\n    uint32[] public battleIds;\n    uint32 public progressCounts;\n    uint32 public finishedCounts;\n    mapping(uint32 => BC.Battle) internal battles;\n    mapping(uint16 => BC.Skill) internal skills;\n    \n    constructor() public {\n        initSkill(1, uint8(BC.SkillCondition.none), 100);\n        addSkillEffect(1, uint8(BC.EffectTarget.random), uint8(BC.EffectParam.hp), uint8(BC.EffectCalc.myPhy), 100, 100, true);\n    }\n    \n    function setBattle(uint32 _battleId, uint256[7] _data, uint16 _randomSeed) public {\n        BC.Battle storage battle = battles[_battleId];\n        require(!battle.exists);\n\n        battle.exists = true;\n        battle.id = _battleId;\n        battle.actionCounts = 1;\n        battle.state = BC.BattleState.progress;\n        battle.activeUnit = 6;\n        battle.randomSeed = _randomSeed;\n        battleIds.push(_battleId);\n        progressCounts++;\n\n        for (uint8 i = 0; i < 7; i++) {\n            uint256 data = _data[i];\n            if (data == 0) continue;\n            \n            BC.Unit storage unit = battle.units[i];\n            unit.exists = true;\n\n            uint256 digit = 77;\n            digit -= 1; data %= 10**digit;\n            digit -= 1; unit.position = uint8(data/10**digit); data %= 10**digit;\n            digit -= 9; data %= 10**digit;\n            digit -= 9; data %= 10**digit;\n            digit -= 9; data %= 10**digit;\n            digit -= 4; unit.original.hp = int16(data/10**digit); data %= 10**digit;\n            digit -= 4; unit.current.hp = int16(data/10**digit); data %= 10**digit;\n            digit -= 3; unit.original.phy = int16(data/10**digit); data %= 10**digit;\n            digit -= 3; unit.original.intl = int16(data/10**digit); data %= 10**digit;\n            digit -= 3; unit.original.agi = int16(data/10**digit); data %= 10**digit;\n            digit -= 4; unit.activeIds[0] = uint16(data/10**digit); data %= 10**digit;\n            digit -= 4; unit.activeIds[1] = uint16(data/10**digit); data %= 10**digit;\n            digit -= 4; unit.activeIds[2] = uint16(data/10**digit); data %= 10**digit;\n            digit -= 4; unit.passiveId = uint16(data/10**digit); data %= 10**digit;\n            unit.current.phy = unit.original.phy;\n            unit.current.intl = unit.original.intl;\n            unit.current.agi = unit.original.agi;\n            unit.passiveEnabled = true;\n        }\n    }\n\n    function next(uint32 _battleId) public returns (BC.BattleState) {\n        BC.Battle storage battle = battles[_battleId];\n        require(battle.exists);\n\n        uint16 skillId;\n\n        bool occurePassiveSkill;\n        do {\n            occurePassiveSkill = false;\n            battle.passiveLoop++;\n            for (uint8 i = 0; i < 7; i++) {\n                if (!battle.units[i].exists) continue;\n                battle.actionUnit = i;\n                skillId = battle.units[i].passiveId;\n                if (battle.usePassiveSkill(skills[skillId])) {\n                    occurePassiveSkill = true;\n                    emit BattleAction2(battle.id, battle.actionCounts, skillId, battle.units[battle.actionUnit].position, battle.getEffectPositions(), 0, battle.getActionUnitData());\n                    battle.nextActionInit();\n                }\n            }\n        } while (occurePassiveSkill);\n        battle.passiveLoop = 0;\n\n        if (battle.checkEnd()) {\n            emit BattleCompleted2(battle.id, uint8(battle.state), battle.actionCounts - 1);\n            return battle.state;\n        }\n\n        battle.charge();\n        BC.UnitState state = battle.checkState(battle.activeUnit);\n        if (state != BC.UnitState.sleep) {\n            if (state == BC.UnitState.confusion) skillId = 1;\n            else skillId = battle.nextActiveSkillId(battle.activeUnit);\n            battle.useSkill(skills[skillId]);\n            int16 poisonDamage = battle.poisonDamage();\n            emit BattleAction2(battle.id, battle.actionCounts, skillId, battle.units[battle.actionUnit].position, battle.getEffectPositions(), poisonDamage, battle.getActionUnitData());\n            battle.nextActionInit();\n        }\n        \n        return battle.state;\n    }\n\n    function nexts(uint8 counts) public returns (BC.BattleState result) {\n        if (finishedCounts >= progressCounts) return;\n        uint32 battleId = battleIds[finishedCounts];\n        for (uint8 i = 0; i < counts; i++) {\n            result = next(battleId);\n            if (result != BC.BattleState.progress) {\n                finishedCounts++;\n                break;\n            }\n        }\n    }\n\n    function initSkill(uint16 id, uint8 condition, int16 rate) public {\n        skills[id].exists = true;\n        skills[id].effects.length = 0;\n        skills[id].rate = rate;\n        skills[id].condition = BC.SkillCondition(condition);\n    }\n    \n    function addSkillEffect(uint16 id, uint8 target, uint8 param, uint8 calc, int16 rate, int16 minRate, bool damage) public {\n        BC.Effect memory effect;\n        effect.exists = true;\n        effect.target = BC.EffectTarget(target);\n        effect.param = BC.EffectParam(param);\n        effect.calc = BC.EffectCalc(calc);\n        effect.rate = rate;\n        effect.minRate = minRate;\n        effect.damage = damage;\n        skills[id].effects.push(effect);\n    }\n\n    function getSkill(uint16 id) public view returns (bool exist, uint8 condition, int16 conditionRate, uint8 effects, uint8[3] target, uint8[3] param, uint8[3] calc, int16[3] rate, int16[3] minRate, bool[3] damage) {\n        BC.Skill storage skill = skills[id];\n        exist = skill.exists;\n        condition = uint8(skill.condition);\n        conditionRate = int16(skill.rate);\n        effects = uint8(skill.effects.length);\n        for (uint8 i = 0; i < skill.effects.length; i++) {\n            target[i] = uint8(skill.effects[i].target);\n            param[i] = uint8(skill.effects[i].param);\n            calc[i] = uint8(skill.effects[i].calc);\n            rate[i] = skill.effects[i].rate;\n            minRate[i] = skill.effects[i].minRate;\n            damage[i] = skill.effects[i].damage;\n        }\n    }\n\n}\n",
  "sourcePath": "/Users/hironobu/devs/mch-beta/contracts/battle2/BattleTransaction2.sol",
  "compiler": {
    "name": "solc",
    "version": "0.4.24+commit.e67f0147.Emscripten.clang"
  },
  "schemaVersion": "2.0.1",
  "updatedAt": "2018-10-01T11:36:07.507Z"
}