{
  "contractName": "BattleManager",
  "abi": [
    {
      "constant": true,
      "inputs": [
        {
          "name": "",
          "type": "address"
        }
      ],
      "name": "addressToBattleMatch",
      "outputs": [
        {
          "name": "battleId",
          "type": "uint32"
        },
        {
          "name": "rank",
          "type": "int16"
        },
        {
          "name": "opponent",
          "type": "address"
        },
        {
          "name": "state",
          "type": "uint8"
        },
        {
          "name": "exists",
          "type": "bool"
        }
      ],
      "payable": false,
      "stateMutability": "view",
      "type": "function"
    },
    {
      "constant": false,
      "inputs": [],
      "name": "renounceOwnership",
      "outputs": [],
      "payable": false,
      "stateMutability": "nonpayable",
      "type": "function"
    },
    {
      "constant": true,
      "inputs": [],
      "name": "TURN_COUNTS",
      "outputs": [
        {
          "name": "",
          "type": "uint8"
        }
      ],
      "payable": false,
      "stateMutability": "view",
      "type": "function"
    },
    {
      "constant": true,
      "inputs": [],
      "name": "battleTransaction",
      "outputs": [
        {
          "name": "",
          "type": "address"
        }
      ],
      "payable": false,
      "stateMutability": "view",
      "type": "function"
    },
    {
      "constant": true,
      "inputs": [],
      "name": "owner",
      "outputs": [
        {
          "name": "",
          "type": "address"
        }
      ],
      "payable": false,
      "stateMutability": "view",
      "type": "function"
    },
    {
      "constant": true,
      "inputs": [],
      "name": "isOwner",
      "outputs": [
        {
          "name": "",
          "type": "bool"
        }
      ],
      "payable": false,
      "stateMutability": "view",
      "type": "function"
    },
    {
      "constant": true,
      "inputs": [],
      "name": "rank",
      "outputs": [
        {
          "name": "",
          "type": "address"
        }
      ],
      "payable": false,
      "stateMutability": "view",
      "type": "function"
    },
    {
      "constant": true,
      "inputs": [],
      "name": "deckManager",
      "outputs": [
        {
          "name": "",
          "type": "address"
        }
      ],
      "payable": false,
      "stateMutability": "view",
      "type": "function"
    },
    {
      "constant": false,
      "inputs": [
        {
          "name": "newOwner",
          "type": "address"
        }
      ],
      "name": "transferOwnership",
      "outputs": [],
      "payable": false,
      "stateMutability": "nonpayable",
      "type": "function"
    },
    {
      "anonymous": false,
      "inputs": [
        {
          "indexed": true,
          "name": "previousOwner",
          "type": "address"
        }
      ],
      "name": "OwnershipRenounced",
      "type": "event"
    },
    {
      "anonymous": false,
      "inputs": [
        {
          "indexed": true,
          "name": "previousOwner",
          "type": "address"
        },
        {
          "indexed": true,
          "name": "newOwner",
          "type": "address"
        }
      ],
      "name": "OwnershipTransferred",
      "type": "event"
    },
    {
      "constant": false,
      "inputs": [
        {
          "name": "_deckManagerAddress",
          "type": "address"
        }
      ],
      "name": "setDeckManagerAddress",
      "outputs": [],
      "payable": false,
      "stateMutability": "nonpayable",
      "type": "function"
    },
    {
      "constant": false,
      "inputs": [
        {
          "name": "_battleTransactionAddress",
          "type": "address"
        }
      ],
      "name": "setBattleTransactionAddress",
      "outputs": [],
      "payable": false,
      "stateMutability": "nonpayable",
      "type": "function"
    },
    {
      "constant": false,
      "inputs": [
        {
          "name": "_rankAddress",
          "type": "address"
        }
      ],
      "name": "setRankAddress",
      "outputs": [],
      "payable": false,
      "stateMutability": "nonpayable",
      "type": "function"
    },
    {
      "constant": false,
      "inputs": [
        {
          "name": "_address",
          "type": "address"
        }
      ],
      "name": "battle",
      "outputs": [],
      "payable": false,
      "stateMutability": "nonpayable",
      "type": "function"
    },
    {
      "constant": false,
      "inputs": [],
      "name": "next",
      "outputs": [],
      "payable": false,
      "stateMutability": "nonpayable",
      "type": "function"
    },
    {
      "constant": true,
      "inputs": [],
      "name": "getState",
      "outputs": [
        {
          "name": "",
          "type": "bool"
        },
        {
          "name": "",
          "type": "uint32"
        },
        {
          "name": "",
          "type": "address"
        },
        {
          "name": "",
          "type": "uint8"
        }
      ],
      "payable": false,
      "stateMutability": "view",
      "type": "function"
    }
  ],
  "bytecode": "0x608060405260008054600160a060020a03191633179055611669806100256000396000f3006080604052600436106100da5763ffffffff7c01000000000000000000000000000000000000000000000000000000006000350416631865c57d81146100df5780634c8fe5261461012c57806364cbbd5314610143578063710c557714610164578063715018a6146101c957806371c95281146101de5780637e9ca234146101ff57806380627f131461022a5780638afded1c1461025b5780638da5cb5b1461027c5780638f32d59b14610291578063934209ce146102ba578063b3689b1e146102cf578063e13ad980146102f0578063f2fde38b14610305575b600080fd5b3480156100eb57600080fd5b506100f4610326565b60408051941515855263ffffffff9093166020850152600160a060020a039091168383015260ff166060830152519081900360800190f35b34801561013857600080fd5b5061014161038c565b005b34801561014f57600080fd5b50610141600160a060020a0360043516610758565b34801561017057600080fd5b50610185600160a060020a036004351661079a565b6040805163ffffffff9096168652600194850b90940b6020860152600160a060020a039092168484015260ff16606084015215156080830152519081900360a00190f35b3480156101d557600080fd5b506101416107e8565b3480156101ea57600080fd5b50610141600160a060020a0360043516610850565b34801561020b57600080fd5b5061021461148d565b6040805160ff9092168252519081900360200190f35b34801561023657600080fd5b5061023f611492565b60408051600160a060020a039092168252519081900360200190f35b34801561026757600080fd5b50610141600160a060020a03600435166114a1565b34801561028857600080fd5b5061023f6114e3565b34801561029d57600080fd5b506102a66114f2565b604080519115158252519081900360200190f35b3480156102c657600080fd5b5061023f611503565b3480156102db57600080fd5b50610141600160a060020a0360043516611512565b3480156102fc57600080fd5b5061023f611554565b34801561031157600080fd5b50610141600160a060020a0360043516611563565b336000908152600460205260408120805482918291829190829060d860020a900460ff16151561035557600080fd5b5054600260d060020a820460ff169081109663ffffffff831696506601000000000000909204600160a060020a0316945092509050565b336000908152600460205260408120805490919060d860020a900460ff1615156103b557600080fd5b815460d060020a900460ff161515610451576002548254604080517fb63e0cd800000000000000000000000000000000000000000000000000000000815263ffffffff909216600483015251600160a060020a039092169163b63e0cd89160248082019260009290919082900301818387803b15801561043457600080fd5b505af1158015610448573d6000803e3d6000fd5b50505050610469565b815460d060020a900460ff1660011461046957610754565b6002548254604080517fc6b22d2200000000000000000000000000000000000000000000000000000000815263ffffffff90921660048301526014602483015251600160a060020a039092169163c6b22d22916044808201926020929091908290030181600087803b1580156104de57600080fd5b505af11580156104f2573d6000803e3d6000fd5b505050506040513d602081101561050857600080fd5b50519050600281600481111561051a57fe5b14156106a85781547a0200000000000000000000000000000000000000000000000000007aff00000000000000000000000000000000000000000000000000001990911617808355600354604080517f6b76484e0000000000000000000000000000000000000000000000000000000081523360048201526601000000000000909304600160a060020a0390811660248501529051911691636b76484e91604480830192600092919082900301818387803b1580156105d857600080fd5b505af11580156105ec573d6000803e3d6000fd5b5050600354604080517f548c0ef40000000000000000000000000000000000000000000000000000000081523360048201529051600160a060020a03909216935063548c0ef492506024808201926020929091908290030181600087803b15801561065657600080fd5b505af115801561066a573d6000803e3d6000fd5b505050506040513d602081101561068057600080fd5b5051825460019190910b61ffff166401000000000265ffff0000000019909116178255610754565b60038160048111156106b657fe5b14156107005781547aff000000000000000000000000000000000000000000000000000019167a030000000000000000000000000000000000000000000000000000178255610754565b600481600481111561070e57fe5b14156107545781547aff000000000000000000000000000000000000000000000000000019167a0400000000000000000000000000000000000000000000000000001782555b5050565b6107606114f2565b151561076b57600080fd5b6002805473ffffffffffffffffffffffffffffffffffffffff1916600160a060020a0392909216919091179055565b60046020526000908152604090205463ffffffff811690640100000000810460010b90600160a060020a0366010000000000008204169060ff60d060020a820481169160d860020a90041685565b6107f06114f2565b15156107fb57600080fd5b60008054604051600160a060020a03909116917ff8df31144d9c2f0f6b59d69b8b98abd5459d07f2742c4df920b25aae33c6482091a26000805473ffffffffffffffffffffffffffffffffffffffff19169055565b600061085a6115ff565b61086261161e565b61086a61161e565b600254604080517fe1c7392a0000000000000000000000000000000000000000000000000000000081529051600092600160a060020a03169163e1c7392a91600480830192602092919082900301818787803b1580156108c957600080fd5b505af11580156108dd573d6000803e3d6000fd5b505050506040513d60208110156108f357600080fd5b50516001546040805160e360020a631dae8aff0281523360048201526000602482018190529151939850600160a060020a039092169263ed7457f892604480820193610160939283900390910190829087803b15801561095257600080fd5b505af1158015610966573d6000803e3d6000fd5b505050506040513d601f19601f8201168201806040525061016081101561098c57600080fd5b5060025460405160e160020a635ced7d2302815263ffffffff8816600482019081526000602483018190529397506060808901975060e089019650600160a060020a039093169363b9dafa46938a9391928a928a928a92916044019085908083838a5b83811015610a075781810151838201526020016109ef565b5050505090500183600460200280838360005b83811015610a32578181015183820152602001610a1a565b5050505090500182600460200280838360005b83811015610a5d578181015183820152602001610a45565b5050505090500195505050505050600060405180830381600087803b158015610a8557600080fd5b505af1158015610a99573d6000803e3d6000fd5b5050600180546040805160e360020a631dae8aff028152336004820152602481019390935251600160a060020a03909116935063ed7457f892506044808301926101609291908290030181600087803b158015610af557600080fd5b505af1158015610b09573d6000803e3d6000fd5b505050506040513d601f19601f82011682018060405250610160811015610b2f57600080fd5b5060025460405160e160020a635ced7d2302815263ffffffff8816600482019081526001602483018190529397506060808901975060e089019650600160a060020a039093169363b9dafa46938a9391928a928a928a929160440190859080838360005b83811015610bab578181015183820152602001610b93565b5050505090500183600460200280838360005b83811015610bd6578181015183820152602001610bbe565b5050505090500182600460200280838360005b83811015610c01578181015183820152602001610be9565b5050505090500195505050505050600060405180830381600087803b158015610c2957600080fd5b505af1158015610c3d573d6000803e3d6000fd5b50506001546040805160e360020a631dae8aff028152336004820152600260248201529051600160a060020a03909216935063ed7457f89250604480820192610160929091908290030181600087803b158015610c9957600080fd5b505af1158015610cad573d6000803e3d6000fd5b505050506040513d601f19601f82011682018060405250610160811015610cd357600080fd5b506002805460405160e160020a635ced7d2302815263ffffffff891660048201908152602482018490529397506060808901975060e089019650600160a060020a039092169363b9dafa46938a9390928a928a928a9260440190859080838360005b83811015610d4d578181015183820152602001610d35565b5050505090500183600460200280838360005b83811015610d78578181015183820152602001610d60565b5050505090500182600460200280838360005b83811015610da3578181015183820152602001610d8b565b5050505090500195505050505050600060405180830381600087803b158015610dcb57600080fd5b505af1158015610ddf573d6000803e3d6000fd5b50506001546040805160e360020a631dae8aff028152600160a060020a038b8116600483015260006024830181905292519316945063ed7457f8935060448082019361016093909283900390910190829087803b158015610e3f57600080fd5b505af1158015610e53573d6000803e3d6000fd5b505050506040513d601f19601f82011682018060405250610160811015610e7957600080fd5b5060025460405160e160020a635ced7d2302815263ffffffff8816600482019081526003602483018190529397506060808901975060e089019650600160a060020a039093169363b9dafa46938a9391928a928a928a929160440190859080838360005b83811015610ef5578181015183820152602001610edd565b5050505090500183600460200280838360005b83811015610f20578181015183820152602001610f08565b5050505090500182600460200280838360005b83811015610f4b578181015183820152602001610f33565b5050505090500195505050505050600060405180830381600087803b158015610f7357600080fd5b505af1158015610f87573d6000803e3d6000fd5b5050600180546040805160e360020a631dae8aff028152600160a060020a038c811660048301526024820194909452905192909116935063ed7457f89250604480820192610160929091908290030181600087803b158015610fe857600080fd5b505af1158015610ffc573d6000803e3d6000fd5b505050506040513d601f19601f8201168201806040525061016081101561102257600080fd5b5060025460405160e160020a635ced7d2302815263ffffffff88166004828101918252602483018190529397506060808901975060e089019650600160a060020a039093169363b9dafa46938a9391928a928a928a929160440190859080838360005b8381101561109d578181015183820152602001611085565b5050505090500183600460200280838360005b838110156110c85781810151838201526020016110b0565b5050505090500182600460200280838360005b838110156110f35781810151838201526020016110db565b5050505090500195505050505050600060405180830381600087803b15801561111b57600080fd5b505af115801561112f573d6000803e3d6000fd5b50506001546040805160e360020a631dae8aff028152600160a060020a038b8116600483015260026024830152915191909216935063ed7457f892506044808301926101609291908290030181600087803b15801561118d57600080fd5b505af11580156111a1573d6000803e3d6000fd5b505050506040513d601f19601f820116820180604052506101608110156111c757600080fd5b5060025460405160e160020a635ced7d2302815263ffffffff8816600482019081526005602483018190529397506060808901975060e089019650600160a060020a039093169363b9dafa46938a9391928a928a928a929160440190859080838360005b8381101561124357818101518382015260200161122b565b5050505090500183600460200280838360005b8381101561126e578181015183820152602001611256565b5050505090500182600460200280838360005b83811015611299578181015183820152602001611281565b5050505090500195505050505050600060405180830381600087803b1580156112c157600080fd5b505af11580156112d5573d6000803e3d6000fd5b5050600354604080517f548c0ef40000000000000000000000000000000000000000000000000000000081523360048201529051600160a060020a03909216935063548c0ef492506024808201926020929091908290030181600087803b15801561133f57600080fd5b505af1158015611353573d6000803e3d6000fd5b505050506040513d602081101561136957600080fd5b50516040805160a08101825263ffffffff9788168152600192830b6020828101918252600160a060020a039a8b16838501908152600060608501818152608086018881523383526004909452959020935184549351915195519251151560d860020a027fffffffff00ffffffffffffffffffffffffffffffffffffffffffffffffffffff60ff9490941660d060020a027aff00000000000000000000000000000000000000000000000000001997909e1666010000000000000279ffffffffffffffffffffffffffffffffffffffff000000000000199390980b61ffff166401000000000265ffff000000001992909d1663ffffffff1990951694909417169a909a1799909916939093179190911697909717959095169490941790945550505050565b601481565b600254600160a060020a031681565b6114a96114f2565b15156114b457600080fd5b6001805473ffffffffffffffffffffffffffffffffffffffff1916600160a060020a0392909216919091179055565b600054600160a060020a031690565b600054600160a060020a0316331490565b600354600160a060020a031681565b61151a6114f2565b151561152557600080fd5b6003805473ffffffffffffffffffffffffffffffffffffffff1916600160a060020a0392909216919091179055565b600154600160a060020a031681565b61156b6114f2565b151561157657600080fd5b61157f81611582565b50565b600160a060020a038116151561159757600080fd5b60008054604051600160a060020a03808516939216917f8be0079c531659141344cd1fd0a4f28419497f9722a3daafe3b4186f6b6457e091a36000805473ffffffffffffffffffffffffffffffffffffffff1916600160a060020a0392909216919091179055565b6060604051908101604052806003906020820280388339509192915050565b60806040519081016040528060049060208202803883395091929150505600a165627a7a7230582055557f8e7a68b90696b39ed333b7907d492d67c55522317192da15a131c676640029",
  "source": "pragma solidity 0.4.24;\n\nimport \"./BattleContext.sol\";\nimport \"./BattleTransaction.sol\";\nimport \"../deck/DeckManager.sol\";\nimport \"../match/Rank.sol\";\nimport \"../hero/Hero.sol\";\nimport \"../extension/Extension.sol\";\nimport \"../lib/openzeppelin-solidity/contracts/ownership/Ownable.sol\";\n\n\ncontract BattleManager is Ownable {\n\n    uint8 public constant TURN_COUNTS = 20;\n\n    DeckManager public deckManager;\n    BattleTransaction public battleTransaction;\n    Rank public rank;\n    \n    mapping(address=>BattleMatch) public addressToBattleMatch;\n    \n    struct BattleMatch {\n        uint32 battleId;\n        int16 rank;\n        address opponent;\n        uint8 state; // 0:none, 1:progress, 2:win, 3:lose, 4:timeup\n        bool exists;\n    }\n\n    function setDeckManagerAddress(address _deckManagerAddress) public onlyOwner {\n        deckManager = DeckManager(_deckManagerAddress);\n    }\n\n    function setBattleTransactionAddress(address _battleTransactionAddress) public onlyOwner {\n        battleTransaction = BattleTransaction(_battleTransactionAddress);\n    }\n\n    function setRankAddress(address _rankAddress) public onlyOwner {\n        rank = Rank(_rankAddress);\n    }\n    \n    function battle(address _address) public {\n        uint32 battleId = battleTransaction.init();\n        \n        uint256[3] memory ids;\n        int16[4] memory params;\n        uint16[4] memory skills;\n\n        (ids, params, skills) = deckManager.getUnit(msg.sender, 0);\n        battleTransaction.setUnit(battleId, 0, ids, params, skills);\n\n        (ids, params, skills) = deckManager.getUnit(msg.sender, 1);\n        battleTransaction.setUnit(battleId, 1, ids, params, skills);\n\n        (ids, params, skills) = deckManager.getUnit(msg.sender, 2);\n        battleTransaction.setUnit(battleId, 2, ids, params, skills);\n\n        (ids, params, skills) = deckManager.getUnit(_address, 0);\n        battleTransaction.setUnit(battleId, 3, ids, params, skills);\n\n        (ids, params, skills) = deckManager.getUnit(_address, 1);\n        battleTransaction.setUnit(battleId, 4, ids, params, skills);\n\n        (ids, params, skills) = deckManager.getUnit(_address, 2);\n        battleTransaction.setUnit(battleId, 5, ids, params, skills);\n\n        int16 _rank = rank.getRank(msg.sender);\n        addressToBattleMatch[msg.sender] = BattleMatch(battleId, _rank, _address, 0, true);\n    }\n    \n    function next() public {\n        BattleMatch storage battleMatch = addressToBattleMatch[msg.sender];\n        require(battleMatch.exists);\n\n        if (battleMatch.state == 0) {\n            battleTransaction.start(battleMatch.battleId);\n        } else if (battleMatch.state != 1) {\n            return;\n        }\n        \n        BattleContext.BattleState result = battleTransaction.nexts(battleMatch.battleId, TURN_COUNTS);\n        if (result == BattleContext.BattleState.win) {\n            battleMatch.state = 2;\n            rank.swap(msg.sender, battleMatch.opponent);\n            battleMatch.rank = rank.getRank(msg.sender);\n        } else if (result == BattleContext.BattleState.lose) {\n            battleMatch.state = 3;\n        } else if (result == BattleContext.BattleState.timeUp) {\n            battleMatch.state = 4;\n        }\n    }\n\n    function getState() public view returns (bool, uint32, address, uint8) {\n        BattleMatch storage battleMatch = addressToBattleMatch[msg.sender];\n        require(battleMatch.exists);\n        bool hasNext = battleMatch.state < 2;\n        return (hasNext, battleMatch.battleId, battleMatch.opponent, battleMatch.state);\n    }\n\n}",
  "sourcePath": "/Users/hironobu/devs/mch-beta/contracts/battle/BattleManager.sol",
  "compiler": {
    "name": "solc",
    "version": "0.4.24+commit.e67f0147.Emscripten.clang"
  },
  "schemaVersion": "2.0.1",
  "updatedAt": "2018-09-24T02:33:25.512Z"
}