{
  "contractName": "BattleManager2",
  "abi": [
    {
      "constant": true,
      "inputs": [],
      "name": "battleId",
      "outputs": [
        {
          "name": "",
          "type": "uint32"
        }
      ],
      "payable": false,
      "stateMutability": "view",
      "type": "function"
    },
    {
      "constant": true,
      "inputs": [
        {
          "name": "",
          "type": "address"
        }
      ],
      "name": "addressToBattleId",
      "outputs": [
        {
          "name": "",
          "type": "uint32"
        }
      ],
      "payable": false,
      "stateMutability": "view",
      "type": "function"
    },
    {
      "constant": true,
      "inputs": [],
      "name": "State$win",
      "outputs": [
        {
          "name": "",
          "type": "uint8"
        }
      ],
      "payable": false,
      "stateMutability": "view",
      "type": "function"
    },
    {
      "constant": true,
      "inputs": [
        {
          "name": "account",
          "type": "address"
        }
      ],
      "name": "isSigner",
      "outputs": [
        {
          "name": "",
          "type": "bool"
        }
      ],
      "payable": false,
      "stateMutability": "view",
      "type": "function"
    },
    {
      "constant": true,
      "inputs": [],
      "name": "rank",
      "outputs": [
        {
          "name": "",
          "type": "address"
        }
      ],
      "payable": false,
      "stateMutability": "view",
      "type": "function"
    },
    {
      "constant": true,
      "inputs": [],
      "name": "State$progress",
      "outputs": [
        {
          "name": "",
          "type": "uint8"
        }
      ],
      "payable": false,
      "stateMutability": "view",
      "type": "function"
    },
    {
      "constant": true,
      "inputs": [
        {
          "name": "",
          "type": "uint32"
        }
      ],
      "name": "battleIdToBattleInfo",
      "outputs": [
        {
          "name": "attacker",
          "type": "address"
        },
        {
          "name": "defender",
          "type": "address"
        },
        {
          "name": "actionCounts",
          "type": "uint8"
        },
        {
          "name": "state",
          "type": "uint8"
        },
        {
          "name": "rankBattle",
          "type": "bool"
        },
        {
          "name": "exists",
          "type": "bool"
        }
      ],
      "payable": false,
      "stateMutability": "view",
      "type": "function"
    },
    {
      "constant": true,
      "inputs": [],
      "name": "deckManager",
      "outputs": [
        {
          "name": "",
          "type": "address"
        }
      ],
      "payable": false,
      "stateMutability": "view",
      "type": "function"
    },
    {
      "constant": false,
      "inputs": [],
      "name": "renounceSigner",
      "outputs": [],
      "payable": false,
      "stateMutability": "nonpayable",
      "type": "function"
    },
    {
      "constant": false,
      "inputs": [
        {
          "name": "account",
          "type": "address"
        }
      ],
      "name": "addSigner",
      "outputs": [],
      "payable": false,
      "stateMutability": "nonpayable",
      "type": "function"
    },
    {
      "anonymous": false,
      "inputs": [
        {
          "indexed": true,
          "name": "battleId",
          "type": "uint32"
        },
        {
          "indexed": true,
          "name": "attacker",
          "type": "address"
        },
        {
          "indexed": true,
          "name": "defender",
          "type": "address"
        },
        {
          "indexed": false,
          "name": "data",
          "type": "uint256[7]"
        },
        {
          "indexed": false,
          "name": "randomSeed",
          "type": "uint16"
        }
      ],
      "name": "BattleStart2",
      "type": "event"
    },
    {
      "anonymous": false,
      "inputs": [
        {
          "indexed": true,
          "name": "battleId",
          "type": "uint32"
        },
        {
          "indexed": true,
          "name": "attacker",
          "type": "address"
        },
        {
          "indexed": true,
          "name": "defender",
          "type": "address"
        },
        {
          "indexed": false,
          "name": "result",
          "type": "uint8"
        },
        {
          "indexed": false,
          "name": "actionCounts",
          "type": "uint8"
        }
      ],
      "name": "BattleEnd2",
      "type": "event"
    },
    {
      "anonymous": false,
      "inputs": [
        {
          "indexed": true,
          "name": "account",
          "type": "address"
        }
      ],
      "name": "SignerAdded",
      "type": "event"
    },
    {
      "anonymous": false,
      "inputs": [
        {
          "indexed": true,
          "name": "account",
          "type": "address"
        }
      ],
      "name": "SignerRemoved",
      "type": "event"
    },
    {
      "constant": false,
      "inputs": [
        {
          "name": "_deckManagerAddress",
          "type": "address"
        }
      ],
      "name": "setDeckManagerAddress",
      "outputs": [],
      "payable": false,
      "stateMutability": "nonpayable",
      "type": "function"
    },
    {
      "constant": false,
      "inputs": [
        {
          "name": "_rankAddress",
          "type": "address"
        }
      ],
      "name": "setRankAddress",
      "outputs": [],
      "payable": false,
      "stateMutability": "nonpayable",
      "type": "function"
    },
    {
      "constant": false,
      "inputs": [
        {
          "name": "_address",
          "type": "address"
        },
        {
          "name": "_rankBattle",
          "type": "bool"
        }
      ],
      "name": "start",
      "outputs": [
        {
          "name": "",
          "type": "uint32"
        }
      ],
      "payable": false,
      "stateMutability": "nonpayable",
      "type": "function"
    },
    {
      "constant": false,
      "inputs": [
        {
          "name": "_battleId",
          "type": "uint32"
        },
        {
          "name": "_result",
          "type": "uint8"
        },
        {
          "name": "_actionCounts",
          "type": "uint8"
        }
      ],
      "name": "setResult",
      "outputs": [],
      "payable": false,
      "stateMutability": "nonpayable",
      "type": "function"
    },
    {
      "constant": false,
      "inputs": [],
      "name": "end",
      "outputs": [],
      "payable": false,
      "stateMutability": "nonpayable",
      "type": "function"
    },
    {
      "constant": true,
      "inputs": [
        {
          "name": "position",
          "type": "uint8"
        },
        {
          "name": "ids",
          "type": "uint256[3]"
        },
        {
          "name": "params",
          "type": "int16[4]"
        },
        {
          "name": "skills",
          "type": "uint16[4]"
        }
      ],
      "name": "getEventData",
      "outputs": [
        {
          "name": "",
          "type": "uint256"
        }
      ],
      "payable": false,
      "stateMutability": "pure",
      "type": "function"
    }
  ],
  "bytecode": "0x60806040526002805460a060020a63ffffffff021916757530000000000000000000000000000000000000000017905561004760003364010000000061004c81026111751704565b610086565b600160a060020a038116151561006157600080fd5b600160a060020a0316600090815260209190915260409020805460ff19166001179055565b611238806100956000396000f3006080604052600436106100e55763ffffffff7c010000000000000000000000000000000000000000000000000000000060003504166301a1b77881146100ea578063052674661461011857806346a9957e1461013957806354e04b7214610164578063718b866b1461018a5780637df73e27146101b65780638410ab59146101eb5780638afded1c14610292578063934209ce146102b3578063b3689b1e146102e4578063b3f8d8c714610305578063ba0904e91461031a578063e13ad9801461037f578063e5c8b03d14610394578063eb12d61e146103a9578063efbe1c1c146103ca575b600080fd5b3480156100f657600080fd5b506100ff6103df565b6040805163ffffffff9092168252519081900360200190f35b34801561012457600080fd5b506100ff600160a060020a03600435166103f2565b34801561014557600080fd5b5061014e61040a565b6040805160ff9092168252519081900360200190f35b34801561017057600080fd5b506100ff600160a060020a0360043516602435151561040f565b34801561019657600080fd5b506101b463ffffffff6004351660ff60243581169060443516610b48565b005b3480156101c257600080fd5b506101d7600160a060020a0360043516610bfd565b604080519115158252519081900360200190f35b3480156101f757600080fd5b50604080516060808201909252610280916004803560ff169236926084919060249060039083908390808284375050604080516080818101909252949796958181019594509250600491508390839080828437505060408051608081810190925294979695818101959450925060049150839083908082843750939650610c1595505050505050565b60408051918252519081900360200190f35b34801561029e57600080fd5b506101b4600160a060020a0360043516610db3565b3480156102bf57600080fd5b506102c8610df6565b60408051600160a060020a039092168252519081900360200190f35b3480156102f057600080fd5b506101b4600160a060020a0360043516610e05565b34801561031157600080fd5b5061014e610e48565b34801561032657600080fd5b5061033863ffffffff60043516610e4d565b60408051600160a060020a03978816815295909616602086015260ff938416858701529190921660608401529015156080830152151560a082015290519081900360c00190f35b34801561038b57600080fd5b506102c8610ec4565b3480156103a057600080fd5b506101b4610ed3565b3480156103b557600080fd5b506101b4600160a060020a0360043516610ee6565b3480156103d657600080fd5b506101b4610f42565b60025460a060020a900463ffffffff1681565b60036020526000908152604090205463ffffffff1681565b600281565b60006104196111af565b6104216111ce565b6104296111ce565b6104316111ed565b60028054600163ffffffff60a060020a808404821683019091160277ffffffff00000000000000000000000000000000000000001990921691909117909155546040805160e360020a631dae8aff02815233600482015260006024820181905291519192600160a060020a03169163ed7457f8916044808201926101609290919082900301818787803b1580156104c757600080fd5b505af11580156104db573d6000803e3d6000fd5b505050506040513d601f19601f8201168201806040525061016081101561050157600080fd5b50945060608501935060e08501925061051d6000868686610c15565b8252600180546040805160e360020a631dae8aff028152336004820152602481019390935251600160a060020a039091169163ed7457f8916044808301926101609291908290030181600087803b15801561057757600080fd5b505af115801561058b573d6000803e3d6000fd5b505050506040513d601f19601f820116820180604052506101608110156105b157600080fd5b50945060608501935060e0850192506105cd6001868686610c15565b60208301526001546040805160e360020a631dae8aff028152336004820152600260248201529051600160a060020a039092169163ed7457f891604480820192610160929091908290030181600087803b15801561062a57600080fd5b505af115801561063e573d6000803e3d6000fd5b505050506040513d601f19601f8201168201806040525061016081101561066457600080fd5b50945060608501935060e0850192506106806002868686610c15565b82600260200201526001546040805160e360020a631dae8aff028152600160a060020a038b81166004830152600060248301819052925193169263ed7457f89260448084019361016093929083900390910190829087803b1580156106e457600080fd5b505af11580156106f8573d6000803e3d6000fd5b505050506040513d601f19601f8201168201806040525061016081101561071e57600080fd5b50945060608501935060e08501925061073a6003868686610c15565b6060830152600180546040805160e360020a631dae8aff028152600160a060020a038c8116600483015260248201949094529051929091169163ed7457f891604480820192610160929091908290030181600087803b15801561079c57600080fd5b505af11580156107b0573d6000803e3d6000fd5b505050506040513d601f19601f820116820180604052506101608110156107d657600080fd5b50945060608501935060e0850192506107f26004868686610c15565b60808301526001546040805160e360020a631dae8aff028152600160a060020a038b81166004830152600260248301529151919092169163ed7457f8916044808301926101609291908290030181600087803b15801561085157600080fd5b505af1158015610865573d6000803e3d6000fd5b505050506040513d601f19601f8201168201806040525061016081101561088b57600080fd5b50945060608501935060e0850192506108a76005868686610c15565b60a08301526040805143600019014060208281019190915282518083038201815291830192839052815191929182918401908083835b602083106108fc5780518252601f1990920191602091820191016108dd565b5181516020939093036101000a600019018019909116921691909117905260405192018290038220600254909550600160a060020a038d16945033935060a060020a900463ffffffff16917fcc22171b38ec51213fff72a8a777428ea09f8b1e140406e632206810f0de0e92915086908690808360e080838360005b83811015610990578181015183820152602001610978565b505050509050018261ffff1661ffff1681526020019250505060405180910390a4505060028054336000818152600360209081526040808320805463ffffffff191663ffffffff60a060020a97889004811691909117909155815160c081018352948552600160a060020a039c8d16858401908152858301858152606087018681529d151560808801908152600160a089018181529a548a9004909416875260049095529290942094518554908e1673ffffffffffffffffffffffffffffffffffffffff1991821617865593519401805491519b51925196511515770100000000000000000000000000000000000000000000000277ff0000000000000000000000000000000000000000000000199715157601000000000000000000000000000000000000000000000276ff000000000000000000000000000000000000000000001960ff95861660a860020a0275ff000000000000000000000000000000000000000000199f90961690980274ff00000000000000000000000000000000000000001997909f169390951692909217949094169b909b179990991698909817919091169690961716959095179093555092915050565b6000610b5333610bfd565b1515610b5e57600080fd5b5063ffffffff83166000908152600460205260409020600181015477010000000000000000000000000000000000000000000000900460ff161515610ba257610bf7565b60018101805460ff84811660a060020a0274ff00000000000000000000000000000000000000001991871660a860020a0275ff0000000000000000000000000000000000000000001990931692909217161790555b50505050565b6000610c0f818363ffffffff61110716565b92915050565b8251602080850151604095860151855186840151878901516060988901518851968901519a890151989099015161ffff90811666038d7ea4c6800002988116678ac7230489e80000029a811669152d02c7e14af68000000296166b033b2e3c9fd0803ce8000000026001998a0b6c7e37be2022c0914b268000000002918a0b6e01ed09bead87c0378d8e640000000002928a0b6f0785ee10d5da46d900f436a0000000000260ff9c909c167f0235fadd81c2822bb3f07877973d50f28bf22a31be8ee8000000000000000000027b097edd871cfda3a5697758bf0e3cbb5ac5741c640000000000000000909802979097017728c87cb5c89a2571ebfdcb54864ada834a000000000000009095029490940173af298d050e4395d69670b12b7f410000000000009093029290920172047bf19673df52e37f2410011d1000000000009190970b90810296909601701d6329f1c35ca4bfabb9f56100000000009690960295909501969096019390930194909401939093010101017f161bcca7119915b50764b4abe86529797775a5f17195100000000000000000000190565b610dbc33610bfd565b1515610dc757600080fd5b6001805473ffffffffffffffffffffffffffffffffffffffff1916600160a060020a0392909216919091179055565b600254600160a060020a031681565b610e0e33610bfd565b1515610e1957600080fd5b6002805473ffffffffffffffffffffffffffffffffffffffff1916600160a060020a0392909216919091179055565b600081565b60046020526000908152604090208054600190910154600160a060020a039182169181169060ff60a060020a820481169160a860020a810482169176010000000000000000000000000000000000000000000082048116917701000000000000000000000000000000000000000000000090041686565b600154600160a060020a031681565b610ee460003363ffffffff61113e16565b565b610eef33610bfd565b1515610efa57600080fd5b610f0b60008263ffffffff61117516565b604051600160a060020a038216907f47d1c22a25bb3a5d4e481b9b1e6944c2eade3181a0a20b495ed61d35b5323f2490600090a250565b3360009081526003602090815260408083205463ffffffff1680845260049092529091206001810154760100000000000000000000000000000000000000000000900460ff168015610fa25750600181015460a860020a900460ff166002145b15611032576002546001820154604080517f6b76484e000000000000000000000000000000000000000000000000000000008152336004820152600160a060020a03928316602482015290519190921691636b76484e91604480830192600092919082900301818387803b15801561101957600080fd5b505af115801561102d573d6000803e3d6000fd5b505050505b600181015481546040805160ff60a860020a85048116825260a060020a85041660208201528151600160a060020a0394851694939093169263ffffffff8716927fba6b1b08ac122b4bd8dacadefb4cf338ac51d73f977ad29d6db5d55c1e1fb326928290030190a450336000908152600360209081526040808320805463ffffffff1916905563ffffffff9390931682526004905220805473ffffffffffffffffffffffffffffffffffffffff19168155600101805477ffffffffffffffffffffffffffffffffffffffffffffffff19169055565b6000600160a060020a038216151561111e57600080fd5b50600160a060020a03166000908152602091909152604090205460ff1690565b600160a060020a038116151561115357600080fd5b600160a060020a0316600090815260209190915260409020805460ff19169055565b600160a060020a038116151561118a57600080fd5b600160a060020a0316600090815260209190915260409020805460ff19166001179055565b6060604051908101604052806003906020820280388339509192915050565b6080604051908101604052806004906020820280388339509192915050565b60e06040519081016040528060079060208202803883395091929150505600a165627a7a72305820f42d4d302465b7ff3d92fb78ca3e633686b8738c167a522fdc214296358854ff0029",
  "source": "pragma solidity 0.4.24;\n\nimport \"../deck/DeckManager.sol\";\nimport \"../match/Rank.sol\";\nimport \"../hero/Hero.sol\";\nimport \"../extension/Extension.sol\";\nimport \"../lib/openzeppelin-solidity/contracts/access/roles/SignerRole.sol\";\n\n\ncontract BattleManager2 is SignerRole {\n\n    event BattleStart2(uint32 indexed battleId, address indexed attacker, address indexed defender, uint256[7] data, uint16 randomSeed);\n    event BattleEnd2(uint32 indexed battleId, address indexed attacker, address indexed defender, uint8 result, uint8 actionCounts);\n\n    uint8 constant public State$progress = 0;\n    uint8 constant public State$win = 2;\n\n    DeckManager public deckManager;\n    Rank public rank;\n    \n    uint32 public battleId = 30000;\n    mapping(address=>uint32) public addressToBattleId;\n    mapping(uint32=>BattleInfo) public battleIdToBattleInfo;\n\n    struct BattleInfo {\n        address attacker;\n        address defender;\n        uint8 actionCounts;\n        uint8 state;\n        bool rankBattle;\n        bool exists;\n    }\n\n    function setDeckManagerAddress(address _deckManagerAddress) public onlySigner {\n        deckManager = DeckManager(_deckManagerAddress);\n    }\n\n    function setRankAddress(address _rankAddress) public onlySigner {\n        rank = Rank(_rankAddress);\n    }\n\n    function start(address _address, bool _rankBattle) public returns (uint32) {\n        battleId++;\n        \n        uint256[3] memory ids;\n        int16[4] memory params;\n        uint16[4] memory skills;\n        uint256[7] memory eventDatas;\n\n        (ids, params, skills) = deckManager.getUnit(msg.sender, 0);\n        eventDatas[0] = getEventData(0, ids, params, skills);\n\n        (ids, params, skills) = deckManager.getUnit(msg.sender, 1);\n        eventDatas[1] = getEventData(1, ids, params, skills);\n\n        (ids, params, skills) = deckManager.getUnit(msg.sender, 2);\n        eventDatas[2] = getEventData(2, ids, params, skills);\n\n        (ids, params, skills) = deckManager.getUnit(_address, 0);\n        eventDatas[3] = getEventData(3, ids, params, skills);\n\n        (ids, params, skills) = deckManager.getUnit(_address, 1);\n        eventDatas[4] = getEventData(4, ids, params, skills);\n\n        (ids, params, skills) = deckManager.getUnit(_address, 2);\n        eventDatas[5] = getEventData(5, ids, params, skills);\n\n        uint16 randomSeed = uint16(keccak256(abi.encodePacked(blockhash(block.number-1))));\n\n        emit BattleStart2(battleId, msg.sender, _address, eventDatas, randomSeed);\n\n        addressToBattleId[msg.sender] = battleId;\n        battleIdToBattleInfo[battleId] = BattleInfo(msg.sender, _address, 0, State$progress, _rankBattle, true);\n    }\n    \n    function setResult(uint32 _battleId, uint8 _result, uint8 _actionCounts) public onlySigner {\n        BattleInfo storage battleInfo = battleIdToBattleInfo[_battleId];\n        if (!battleInfo.exists) return;\n        \n        battleInfo.state = _result;\n        battleInfo.actionCounts = _actionCounts;\n    }\n    \n    function end() public {\n        uint32 _battleId = addressToBattleId[msg.sender];\n        BattleInfo storage battleInfo = battleIdToBattleInfo[_battleId];\n        // if (!battleInfo.exists || battleInfo.state == State$progress) return;\n\n        if (battleInfo.rankBattle && battleInfo.state == State$win) {\n            rank.swap(msg.sender, battleInfo.defender);\n        }\n        \n        emit BattleEnd2(_battleId, battleInfo.attacker, battleInfo.defender, battleInfo.state, battleInfo.actionCounts);\n        \n        delete addressToBattleId[msg.sender];\n        delete battleIdToBattleInfo[_battleId];\n    }\n\n    /*\n      highest digit(tmp): 1\n      position          : 1\n      hero id           : 9\n      item id 1         : 9\n      item id 2         : 9\n      max hp            : 4\n      hp                : 4\n      phy               : 3\n      int               : 3\n      agi               : 3\n      active skill id 1 : 4\n      active skill id 2 : 4\n      active skill id 3 : 4\n      passive skill id  : 4\n    */\n    function getEventData(uint8 position, uint256[3] ids, int16[4] params, uint16[4] skills) public pure returns (uint256) {\n        uint256 digit = 77;\n        uint256 result = 0;\n        \n        digit -= 1; result += uint256(1) * (10**digit); // 1\n        digit -= 1; result += uint256(position) * (10**digit); // 1\n        digit -= 9; result += uint256(ids[0]) * (10**digit); // 9\n        digit -= 9; result += uint256(ids[1]) * (10**digit); // 9\n        digit -= 9; result += uint256(ids[2]) * (10**digit); // 9\n        digit -= 4; result += uint256(params[0]) * (10**digit); // 4\n        digit -= 4; result += uint256(params[0]) * (10**digit); // 4\n        digit -= 3; result += uint256(params[1]) * (10**digit); // 3\n        digit -= 3; result += uint256(params[2]) * (10**digit); // 3\n        digit -= 3; result += uint256(params[3]) * (10**digit); // 3\n        digit -= 4; result += uint256(skills[0]) * (10**digit); // 4\n        digit -= 4; result += uint256(skills[1]) * (10**digit); // 4\n        digit -= 4; result += uint256(skills[2]) * (10**digit); // 4\n        digit -= 4; result += uint256(skills[3]) * (10**digit); // 4\n\n        return result;\n    }\n}\n",
  "sourcePath": "/Users/hironobu/devs/mch-beta/contracts/battle2/BattleManager2.sol",
  "compiler": {
    "name": "solc",
    "version": "0.4.24+commit.e67f0147.Emscripten.clang"
  },
  "schemaVersion": "2.0.1",
  "updatedAt": "2018-10-01T11:45:55.979Z"
}