{
  "contractName": "DeckManager",
  "abi": [
    {
      "constant": true,
      "inputs": [
        {
          "name": "account",
          "type": "address"
        }
      ],
      "name": "isSigner",
      "outputs": [
        {
          "name": "",
          "type": "bool"
        }
      ],
      "payable": false,
      "stateMutability": "view",
      "type": "function"
    },
    {
      "constant": false,
      "inputs": [],
      "name": "renounceSigner",
      "outputs": [],
      "payable": false,
      "stateMutability": "nonpayable",
      "type": "function"
    },
    {
      "constant": false,
      "inputs": [
        {
          "name": "account",
          "type": "address"
        }
      ],
      "name": "addSigner",
      "outputs": [],
      "payable": false,
      "stateMutability": "nonpayable",
      "type": "function"
    },
    {
      "anonymous": false,
      "inputs": [
        {
          "indexed": true,
          "name": "account",
          "type": "address"
        }
      ],
      "name": "SignerAdded",
      "type": "event"
    },
    {
      "anonymous": false,
      "inputs": [
        {
          "indexed": true,
          "name": "account",
          "type": "address"
        }
      ],
      "name": "SignerRemoved",
      "type": "event"
    },
    {
      "constant": false,
      "inputs": [
        {
          "name": "_heroAssetAddress",
          "type": "address"
        }
      ],
      "name": "setHeroAssetAddress",
      "outputs": [],
      "payable": false,
      "stateMutability": "nonpayable",
      "type": "function"
    },
    {
      "constant": false,
      "inputs": [
        {
          "name": "_heroAddress",
          "type": "address"
        }
      ],
      "name": "setHeroAddress",
      "outputs": [],
      "payable": false,
      "stateMutability": "nonpayable",
      "type": "function"
    },
    {
      "constant": false,
      "inputs": [
        {
          "name": "_extensionAssetAddress",
          "type": "address"
        }
      ],
      "name": "setExtensionAssetAddress",
      "outputs": [],
      "payable": false,
      "stateMutability": "nonpayable",
      "type": "function"
    },
    {
      "constant": false,
      "inputs": [
        {
          "name": "_extensionAddress",
          "type": "address"
        }
      ],
      "name": "setExtensionAddress",
      "outputs": [],
      "payable": false,
      "stateMutability": "nonpayable",
      "type": "function"
    },
    {
      "constant": false,
      "inputs": [
        {
          "name": "_address",
          "type": "address"
        },
        {
          "name": "_unit1",
          "type": "uint256[6]"
        },
        {
          "name": "_unit2",
          "type": "uint256[6]"
        },
        {
          "name": "_unit3",
          "type": "uint256[6]"
        }
      ],
      "name": "setInitialDeck",
      "outputs": [],
      "payable": false,
      "stateMutability": "nonpayable",
      "type": "function"
    },
    {
      "constant": false,
      "inputs": [
        {
          "name": "_unit1",
          "type": "uint256[6]"
        },
        {
          "name": "_unit2",
          "type": "uint256[6]"
        },
        {
          "name": "_unit3",
          "type": "uint256[6]"
        }
      ],
      "name": "setDeck",
      "outputs": [],
      "payable": false,
      "stateMutability": "nonpayable",
      "type": "function"
    },
    {
      "constant": true,
      "inputs": [],
      "name": "getDeck",
      "outputs": [
        {
          "name": "_unit1",
          "type": "uint256[6]"
        },
        {
          "name": "_unit2",
          "type": "uint256[6]"
        },
        {
          "name": "_unit3",
          "type": "uint256[6]"
        }
      ],
      "payable": false,
      "stateMutability": "view",
      "type": "function"
    }
  ],
  "bytecode": "0x608060405261001c600033640100000000610e6161002182021704565b61005b565b600160a060020a038116151561003657600080fd5b600160a060020a0316600090815260209190915260409020805460ff19166001179055565b610f058061006a6000396000f30060806040526004361061008a5763ffffffff60e060020a60003504166333943474811461008f57806344ab91d4146101345780634c52e190146101d15780637b0640e9146101f25780637df73e2714610281578063985df3a7146102b6578063be926c80146102d7578063e5c8b03d146102f8578063eaab1c701461030d578063eb12d61e1461032e575b600080fd5b34801561009b57600080fd5b506100a461034f565b604051808460c080838360005b838110156100c95781810151838201526020016100b1565b5050505090500183600660200280838360005b838110156100f45781810151838201526020016100dc565b5050505090500182600660200280838360005b8381101561011f578181015183820152602001610107565b50505050905001935050505060405180910390f35b34801561014057600080fd5b506040805160c08082019092526101cf9160048035600160a060020a031692369260e49190602490600690839083908082843750506040805160c081810190925294979695818101959450925060069150839083908082843750506040805160c08181019092529497969581810195945092506006915083908390808284375093965061043095505050505050565b005b3480156101dd57600080fd5b506101cf600160a060020a0360043516610508565b3480156101fe57600080fd5b506040805160c08181019092526101cf91369160049160c491908390600690839083908082843750506040805160c081810190925294979695818101959450925060069150839083908082843750506040805160c08181019092529497969581810195945092506006915083908390808284375093965061054b95505050505050565b34801561028d57600080fd5b506102a2600160a060020a0360043516610620565b604080519115158252519081900360200190f35b3480156102c257600080fd5b506101cf600160a060020a0360043516610638565b3480156102e357600080fd5b506101cf600160a060020a036004351661067b565b34801561030457600080fd5b506101cf6106be565b34801561031957600080fd5b506101cf600160a060020a03600435166106d1565b34801561033a57600080fd5b506101cf600160a060020a0360043516610714565b610357610e9b565b61035f610e9b565b610367610e9b565b3360009081526001602081815260409283902080548752918201548682015260028201548684015260038201546060808801919091526004830154608080890191909152600584015460a0808a019190915260068501548852600785015488850152600885015488870152600985015488840152600a85015488830152600b85015488820152600c8501548752600d85015493870193909352600e84015494860194909452600f8301549085015260108201549284019290925260110154908201529192909190565b600061043b33610620565b151561044657600080fd5b50600160a060020a03939093166000908152600160208181526040928390208551815585820151928101929092558483015160028301556060808601516003840155608080870151600485015560a09687015160058501558551600685015585830151600785015585850151600885015585820151600985015585810151600a85015594860151600b8401558651600c84015590860151600d83015591850151600e82015590840151600f820155908301516010820155910151601190910155565b61051133610620565b151561051c57600080fd5b6005805473ffffffffffffffffffffffffffffffffffffffff1916600160a060020a0392909216919091179055565b600061055684610770565b61055f83610770565b61056882610770565b50336000908152600160208181526040928390208651815586820151928101929092558583015160028301556060808701516003840155608080880151600485015560a09788015160058501558651600685015586830151600785015586850151600885015586820151600985015586810151600a85015595870151600b8401558451600c84015590840151600d83015591830151600e82015590820151600f82015591810151601083015590910151601190910155565b6000610632818363ffffffff610df316565b92915050565b61064133610620565b151561064c57600080fd5b6002805473ffffffffffffffffffffffffffffffffffffffff1916600160a060020a0392909216919091179055565b61068433610620565b151561068f57600080fd5b6003805473ffffffffffffffffffffffffffffffffffffffff1916600160a060020a0392909216919091179055565b6106cf60003363ffffffff610e2a16565b565b6106da33610620565b15156106e557600080fd5b6004805473ffffffffffffffffffffffffffffffffffffffff1916600160a060020a0392909216919091179055565b61071d33610620565b151561072857600080fd5b61073960008263ffffffff610e6116565b604051600160a060020a038216907f47d1c22a25bb3a5d4e481b9b1e6944c2eade3181a0a20b495ed61d35b5323f2490600090a250565b610778610eba565b610780610eba565b6002548351604080517f6352211e000000000000000000000000000000000000000000000000000000008152600481019290925251600092839283928392600160a060020a031691636352211e91602480830192602092919082900301818787803b1580156107ee57600080fd5b505af1158015610802573d6000803e3d6000fd5b505050506040513d602081101561081857600080fd5b5051600160a060020a0316331461082e57600080fd5b600454600160a060020a0316636352211e88600160200201516040518263ffffffff1660e060020a02815260040180828152602001915050602060405180830381600087803b15801561088057600080fd5b505af1158015610894573d6000803e3d6000fd5b505050506040513d60208110156108aa57600080fd5b5051600160a060020a031633146108c057600080fd5b600454600160a060020a0316636352211e88600260200201516040518263ffffffff1660e060020a02815260040180828152602001915050602060405180830381600087803b15801561091257600080fd5b505af1158015610926573d6000803e3d6000fd5b505050506040513d602081101561093c57600080fd5b5051600160a060020a0316331461095257600080fd5b600354600160a060020a03166321d8011188600060200201516040518263ffffffff1660e060020a02815260040180828152602001915050600060405180830381600087803b1580156109a457600080fd5b505af11580156109b8573d6000803e3d6000fd5b505050506040513d6000823e601f3d908101601f191682016040526101208110156109e257600080fd5b8151602083015160408401516060850151608086015160a087015160c088015160e08901805197999698959794969395929491939283019291640100000000811115610a2d57600080fd5b82016020810184811115610a4057600080fd5b8151640100000000811182820187101715610a5a57600080fd5b50509291906020018051640100000000811115610a7657600080fd5b82016020810184811115610a8957600080fd5b8151640100000000811182820187101715610aa357600080fd5b505092919050505090919293949596975090919293949596509091929394955090919293945090919293508361ffff169350909150905050866000600381101515610aea57fe5b6020020152600554600160a060020a031663f61eab7a88600160200201516040518263ffffffff1660e060020a02815260040180828152602001915050600060405180830381600087803b158015610b4157600080fd5b505af1158015610b55573d6000803e3d6000fd5b505050506040513d6000823e601f3d908101601f1916820160405260e0811015610b7e57600080fd5b8151602083015160408401516060850151608086015160a087015160c0880180519698959794969395929491939183019291640100000000811115610bc257600080fd5b82016020810184811115610bd557600080fd5b8151640100000000811182820187101715610bef57600080fd5b505061ffff90941698508e975060019650610c0c95505050505050565b6020020152600554600160a060020a031663f61eab7a88600260200201516040518263ffffffff1660e060020a02815260040180828152602001915050600060405180830381600087803b158015610c6357600080fd5b505af1158015610c77573d6000803e3d6000fd5b505050506040513d6000823e601f3d908101601f1916820160405260e0811015610ca057600080fd5b8151602083015160408401516060850151608086015160a087015160c0880180519698959794969395929491939183019291640100000000811115610ce457600080fd5b82016020810184811115610cf757600080fd5b8151640100000000811182820187101715610d1157600080fd5b505061ffff90941698508e975060029650610d2e95505050505050565b6020020152600393505b60068460ff161015610dea578660ff851660068110610d5357fe5b6020020151925060009150600090505b60038160ff161015610dd3578460ff821660038110610d7e57fe5b6020020151158015610da25750828660ff831660038110610d9b57fe5b6020020151145b15610dcb5760018560ff831660038110610db857fe5b9115156020909202015260019150610dd3565b600101610d63565b811515610ddf57600080fd5b600190930192610d38565b50505050505050565b6000600160a060020a0382161515610e0a57600080fd5b50600160a060020a03166000908152602091909152604090205460ff1690565b600160a060020a0381161515610e3f57600080fd5b600160a060020a0316600090815260209190915260409020805460ff19169055565b600160a060020a0381161515610e7657600080fd5b600160a060020a0316600090815260209190915260409020805460ff19166001179055565b60c0604051908101604052806006906020820280388339509192915050565b60606040519081016040528060039060208202803883395091929150505600a165627a7a723058207c74160d179ea908b1685584a24409f8cc0613201a757fab8f129a0ec9fd7fc20029",
  "source": "pragma solidity 0.4.24;\n\nimport \"../hero/HeroAsset.sol\";\nimport \"../hero/Hero.sol\";\nimport \"../extension/ExtensionAsset.sol\";\nimport \"../extension/Extension.sol\";\nimport \"../lib/openzeppelin-solidity/contracts/access/roles/SignerRole.sol\";\n\n\ncontract DeckManager is SignerRole {\n\n    mapping(address => Deck) decks;\n\n    HeroAsset heroAsset;\n    Hero hero;\n    ExtensionAsset extensionAsset;\n    Extension extension;\n\n    struct Deck {\n        Unit unit1;\n        Unit unit2;\n        Unit unit3;\n    }\n\n    struct Unit {\n        uint256 heroId;\n        uint256 extensionId1;\n        uint256 extensionId2;\n        uint256 activeSkillId1;\n        uint256 activeSkillId2;\n        uint256 activeSkillId3;\n    }\n    \n    function setHeroAssetAddress(address _heroAssetAddress) public onlySigner {\n        heroAsset = HeroAsset(_heroAssetAddress);\n    }\n\n    function setHeroAddress(address _heroAddress) public onlySigner {\n        hero = Hero(_heroAddress);\n    }\n\n    function setExtensionAssetAddress(address _extensionAssetAddress) public onlySigner {\n        extensionAsset = ExtensionAsset(_extensionAssetAddress);\n    }\n\n    function setExtensionAddress(address _extensionAddress) public onlySigner {\n        extension = Extension(_extensionAddress);\n    }\n    \n    function setInitialDeck(\n        address _address,\n        uint256[6] _unit1,\n        uint256[6] _unit2,\n        uint256[6] _unit3\n    ) public onlySigner {\n        Deck storage deck = decks[_address];\n\n        deck.unit1.heroId = _unit1[0];\n        deck.unit1.extensionId1 = _unit1[1];\n        deck.unit1.extensionId2 = _unit1[2];\n        deck.unit1.activeSkillId1 = _unit1[3];\n        deck.unit1.activeSkillId2 = _unit1[4];\n        deck.unit1.activeSkillId3 = _unit1[5];\n\n        deck.unit2.heroId = _unit2[0];\n        deck.unit2.extensionId1 = _unit2[1];\n        deck.unit2.extensionId2 = _unit2[2];\n        deck.unit2.activeSkillId1 = _unit2[3];\n        deck.unit2.activeSkillId2 = _unit2[4];\n        deck.unit2.activeSkillId3 = _unit2[5];\n\n        deck.unit3.heroId = _unit3[0];\n        deck.unit3.extensionId1 = _unit3[1];\n        deck.unit3.extensionId2 = _unit3[2];\n        deck.unit3.activeSkillId1 = _unit3[3];\n        deck.unit3.activeSkillId2 = _unit3[4];\n        deck.unit3.activeSkillId3 = _unit3[5];\n    }\n\n    function setDeck(\n        uint256[6] _unit1,\n        uint256[6] _unit2,\n        uint256[6] _unit3\n    ) public {\n        check(_unit1);\n        check(_unit2);\n        check(_unit3);\n\n        Deck storage deck = decks[msg.sender];\n\n        deck.unit1.heroId = _unit1[0];\n        deck.unit1.extensionId1 = _unit1[1];\n        deck.unit1.extensionId2 = _unit1[2];\n        deck.unit1.activeSkillId1 = _unit1[3];\n        deck.unit1.activeSkillId2 = _unit1[4];\n        deck.unit1.activeSkillId3 = _unit1[5];\n\n        deck.unit2.heroId = _unit2[0];\n        deck.unit2.extensionId1 = _unit2[1];\n        deck.unit2.extensionId2 = _unit2[2];\n        deck.unit2.activeSkillId1 = _unit2[3];\n        deck.unit2.activeSkillId2 = _unit2[4];\n        deck.unit2.activeSkillId3 = _unit2[5];\n\n        deck.unit3.heroId = _unit3[0];\n        deck.unit3.extensionId1 = _unit3[1];\n        deck.unit3.extensionId2 = _unit3[2];\n        deck.unit3.activeSkillId1 = _unit3[3];\n        deck.unit3.activeSkillId2 = _unit3[4];\n        deck.unit3.activeSkillId3 = _unit3[5];\n    }\n\n    function check (\n        uint256[6] _unit\n    ) internal view {\n        require(msg.sender == heroAsset.ownerOf(_unit[0]));\n        require(msg.sender == extensionAsset.ownerOf(_unit[1]));\n        require(msg.sender == extensionAsset.ownerOf(_unit[2]));\n        uint256[3] memory activeSkills;\n        (,,,,,activeSkills[0],,,) = hero.getHero(_unit[0]);\n        (,,,,,activeSkills[1],) = extension.getExtension(_unit[1]);\n        (,,,,,activeSkills[2],) = extension.getExtension(_unit[2]);\n        bool[3] memory used;\n        for (uint8 i = 3; i < 6; i++) {\n            uint256 activeSkill = _unit[i];\n            bool checked = false;\n            for (uint8 j = 0; j < 3; j++) {\n                if (!used[j] && activeSkills[j] == activeSkill) {\n                    used[j] = true;\n                    checked = true;\n                    break;\n                }\n            }\n            require(checked);\n        }\n    }\n\n    function getDeck() public view returns (\n        uint256[6] _unit1,\n        uint256[6] _unit2,\n        uint256[6] _unit3          \n    ) {\n        Deck storage deck = decks[msg.sender];\n\n        _unit1[0] = deck.unit1.heroId;\n        _unit1[1] = deck.unit1.extensionId1;\n        _unit1[2] = deck.unit1.extensionId2;\n        _unit1[3] = deck.unit1.activeSkillId1;\n        _unit1[4] = deck.unit1.activeSkillId2;\n        _unit1[5] = deck.unit1.activeSkillId3;\n        \n        _unit2[0] = deck.unit2.heroId;\n        _unit2[1] = deck.unit2.extensionId1;\n        _unit2[2] = deck.unit2.extensionId2;\n        _unit2[3] = deck.unit2.activeSkillId1;\n        _unit2[4] = deck.unit2.activeSkillId2;\n        _unit2[5] = deck.unit2.activeSkillId3;\n\n        _unit3[0] = deck.unit3.heroId;\n        _unit3[1] = deck.unit3.extensionId1;\n        _unit3[2] = deck.unit3.extensionId2;\n        _unit3[3] = deck.unit3.activeSkillId1;\n        _unit3[4] = deck.unit3.activeSkillId2;\n        _unit3[5] = deck.unit3.activeSkillId3;\n    }\n\n}",
  "sourcePath": "/Users/hironobu/devs/mch-beta/contracts/deck/DeckManager.sol",
  "compiler": {
    "name": "solc",
    "version": "0.4.24+commit.e67f0147.Emscripten.clang"
  },
  "schemaVersion": "2.0.1",
  "updatedAt": "2018-09-23T07:17:31.813Z"
}