{
  "contractName": "DeckManager",
  "abi": [
    {
      "constant": true,
      "inputs": [
        {
          "name": "account",
          "type": "address"
        }
      ],
      "name": "isSigner",
      "outputs": [
        {
          "name": "",
          "type": "bool"
        }
      ],
      "payable": false,
      "stateMutability": "view",
      "type": "function"
    },
    {
      "constant": false,
      "inputs": [],
      "name": "renounceSigner",
      "outputs": [],
      "payable": false,
      "stateMutability": "nonpayable",
      "type": "function"
    },
    {
      "constant": false,
      "inputs": [
        {
          "name": "account",
          "type": "address"
        }
      ],
      "name": "addSigner",
      "outputs": [],
      "payable": false,
      "stateMutability": "nonpayable",
      "type": "function"
    },
    {
      "anonymous": false,
      "inputs": [
        {
          "indexed": true,
          "name": "account",
          "type": "address"
        }
      ],
      "name": "SignerAdded",
      "type": "event"
    },
    {
      "anonymous": false,
      "inputs": [
        {
          "indexed": true,
          "name": "account",
          "type": "address"
        }
      ],
      "name": "SignerRemoved",
      "type": "event"
    },
    {
      "constant": false,
      "inputs": [
        {
          "name": "_heroAssetAddress",
          "type": "address"
        }
      ],
      "name": "setHeroAssetAddress",
      "outputs": [],
      "payable": false,
      "stateMutability": "nonpayable",
      "type": "function"
    },
    {
      "constant": false,
      "inputs": [
        {
          "name": "_heroAddress",
          "type": "address"
        }
      ],
      "name": "setHeroAddress",
      "outputs": [],
      "payable": false,
      "stateMutability": "nonpayable",
      "type": "function"
    },
    {
      "constant": false,
      "inputs": [
        {
          "name": "_extensionAssetAddress",
          "type": "address"
        }
      ],
      "name": "setExtensionAssetAddress",
      "outputs": [],
      "payable": false,
      "stateMutability": "nonpayable",
      "type": "function"
    },
    {
      "constant": false,
      "inputs": [
        {
          "name": "_extensionAddress",
          "type": "address"
        }
      ],
      "name": "setExtensionAddress",
      "outputs": [],
      "payable": false,
      "stateMutability": "nonpayable",
      "type": "function"
    },
    {
      "constant": false,
      "inputs": [
        {
          "name": "_address",
          "type": "address"
        },
        {
          "name": "_unit1",
          "type": "uint256[6]"
        },
        {
          "name": "_unit2",
          "type": "uint256[6]"
        },
        {
          "name": "_unit3",
          "type": "uint256[6]"
        }
      ],
      "name": "setInitialDeck",
      "outputs": [],
      "payable": false,
      "stateMutability": "nonpayable",
      "type": "function"
    },
    {
      "constant": false,
      "inputs": [
        {
          "name": "_unit1",
          "type": "uint256[6]"
        },
        {
          "name": "_unit2",
          "type": "uint256[6]"
        },
        {
          "name": "_unit3",
          "type": "uint256[6]"
        }
      ],
      "name": "setDeck",
      "outputs": [],
      "payable": false,
      "stateMutability": "nonpayable",
      "type": "function"
    },
    {
      "constant": true,
      "inputs": [
        {
          "name": "_address",
          "type": "address"
        }
      ],
      "name": "getDeck",
      "outputs": [
        {
          "name": "unit1",
          "type": "uint256[6]"
        },
        {
          "name": "unit2",
          "type": "uint256[6]"
        },
        {
          "name": "unit3",
          "type": "uint256[6]"
        }
      ],
      "payable": false,
      "stateMutability": "view",
      "type": "function"
    },
    {
      "constant": true,
      "inputs": [
        {
          "name": "_address",
          "type": "address"
        },
        {
          "name": "_index",
          "type": "uint8"
        }
      ],
      "name": "getUnit",
      "outputs": [
        {
          "name": "ids",
          "type": "uint256[3]"
        },
        {
          "name": "sumParams",
          "type": "int16[4]"
        },
        {
          "name": "skills",
          "type": "uint16[4]"
        }
      ],
      "payable": false,
      "stateMutability": "view",
      "type": "function"
    },
    {
      "constant": true,
      "inputs": [
        {
          "name": "_address",
          "type": "address"
        },
        {
          "name": "_index",
          "type": "uint8"
        }
      ],
      "name": "getUnit10",
      "outputs": [
        {
          "name": "",
          "type": "uint256[3]"
        }
      ],
      "payable": false,
      "stateMutability": "view",
      "type": "function"
    },
    {
      "constant": true,
      "inputs": [
        {
          "name": "_address",
          "type": "address"
        },
        {
          "name": "_index",
          "type": "uint8"
        }
      ],
      "name": "getUnit9",
      "outputs": [
        {
          "name": "ids",
          "type": "uint256[3]"
        },
        {
          "name": "sumParams",
          "type": "int16[4]"
        },
        {
          "name": "skills",
          "type": "uint16[4]"
        }
      ],
      "payable": false,
      "stateMutability": "view",
      "type": "function"
    },
    {
      "constant": true,
      "inputs": [
        {
          "name": "_address",
          "type": "address"
        },
        {
          "name": "_index",
          "type": "uint8"
        }
      ],
      "name": "getUnit0",
      "outputs": [
        {
          "name": "ids",
          "type": "uint256[3]"
        },
        {
          "name": "sumParams",
          "type": "int16[4]"
        },
        {
          "name": "skills",
          "type": "uint16[4]"
        }
      ],
      "payable": false,
      "stateMutability": "view",
      "type": "function"
    },
    {
      "constant": true,
      "inputs": [
        {
          "name": "_address",
          "type": "address"
        },
        {
          "name": "_index",
          "type": "uint8"
        }
      ],
      "name": "getUnit1",
      "outputs": [
        {
          "name": "ids",
          "type": "uint256[3]"
        },
        {
          "name": "sumParams",
          "type": "int16[4]"
        },
        {
          "name": "skills",
          "type": "uint16[4]"
        }
      ],
      "payable": false,
      "stateMutability": "view",
      "type": "function"
    },
    {
      "constant": true,
      "inputs": [
        {
          "name": "_address",
          "type": "address"
        },
        {
          "name": "_index",
          "type": "uint8"
        }
      ],
      "name": "getUnit2",
      "outputs": [
        {
          "name": "ids",
          "type": "uint256[3]"
        },
        {
          "name": "sumParams",
          "type": "int16[4]"
        },
        {
          "name": "skills",
          "type": "uint16[4]"
        }
      ],
      "payable": false,
      "stateMutability": "view",
      "type": "function"
    }
  ],
  "bytecode": "0x608060405261001c60003364010000000061196861002182021704565b61005b565b600160a060020a038116151561003657600080fd5b600160a060020a0316600090815260209190915260409020805460ff19166001179055565b611ab38061006a6000396000f3006080604052600436106100cc5763ffffffff60e060020a600035041663319b2a8181146100d157806344ab91d4146101305780634c5077a2146101cd5780634c52e19014610284578063760452c6146102a55780637b0640e9146102cc5780637df73e271461035b578063985df3a714610390578063b7eb96cc146103b1578063be926c80146103d8578063e3913d6c146103f9578063e5c8b03d14610487578063eaab1c701461049c578063eb12d61e146104bd578063ed7457f8146104de578063fd8e1a7514610505575b600080fd5b3480156100dd57600080fd5b506100f8600160a060020a036004351660ff6024351661052c565b6040518082606080838360005b8381101561011d578181015183820152602001610105565b5050505090500191505060405180910390f35b34801561013c57600080fd5b506040805160c08082019092526101cb9160048035600160a060020a031692369260e49190602490600690839083908082843750506040805160c081810190925294979695818101959450925060069150839083908082843750506040805160c08181019092529497969581810195945092506006915083908390808284375093965061061995505050505050565b005b3480156101d957600080fd5b506101f4600160a060020a036004351660ff602435166106fc565b6040518084606080838360005b83811015610219578181015183820152602001610201565b5050505090500183600460200280838360005b8381101561024457818101518382015260200161022c565b5050505090500182600460200280838360005b8381101561026f578181015183820152602001610257565b50505050905001935050505060405180910390f35b34801561029057600080fd5b506101cb600160a060020a03600435166107a3565b3480156102b157600080fd5b506101f4600160a060020a036004351660ff602435166107e6565b3480156102d857600080fd5b506040805160c08181019092526101cb91369160049160c491908390600690839083908082843750506040805160c081810190925294979695818101959450925060069150839083908082843750506040805160c081810190925294979695818101959450925060069150839083908082843750939650610b0495505050505050565b34801561036757600080fd5b5061037c600160a060020a0360043516610beb565b604080519115158252519081900360200190f35b34801561039c57600080fd5b506101cb600160a060020a0360043516610c03565b3480156103bd57600080fd5b506101f4600160a060020a036004351660ff60243516610c46565b3480156103e457600080fd5b506101cb600160a060020a0360043516610d39565b34801561040557600080fd5b5061041a600160a060020a0360043516610d7c565b604051808460c080838360005b8381101561043f578181015183820152602001610427565b5050505090500183600660200280838360005b8381101561046a578181015183820152602001610452565b505086519290940191825250915083905060c08083836020610257565b34801561049357600080fd5b506101cb610e68565b3480156104a857600080fd5b506101cb600160a060020a0360043516610e7b565b3480156104c957600080fd5b506101cb600160a060020a0360043516610ebe565b3480156104ea57600080fd5b506101f4600160a060020a036004351660ff60243516610f1a565b34801561051157600080fd5b506101f4600160a060020a036004351660ff6024351661169d565b6105346119a2565b61053c6119c1565b6105446119a2565b600160a060020a038516600090815260016020526040808220815160a0810183529290918391908201908390600390835b828210156105da5783826006020160c06040519081016040529081600082015481526020016001820154815260200160028201548152602001600382015481526020016004820154815260200160058201548152505081526020019060010190610575565b505050908252506012919091015460ff9081161515602090920191909152815191935085166003811061060957fe5b6020020151518152949350505050565b600061062433610beb565b151561062f57600080fd5b50600160a060020a03939093166000908152600160208181526040928390208551815585820151818401558584015160028201556060808701516003830155608080880151600484015560a09788015160058401558651600684015586840151600784015586860151600884015586820151600984015586810151600a84015595870151600b8301558751600c83015591870151600d82015592860151600e840155850151600f83015591840151601082015591909201516011820155601201805460ff19169091179055565b6107046119a2565b61070c6119e3565b6107146119e3565b600160a060020a03851660009081526001602052604090208060ff86166003811061073b57fe5b600602015484528060ff86166003811061075157fe5b600602016001015484600160038110151561076857fe5b60200201528060ff86166003811061077c57fe5b600602016002015484600260038110151561079357fe5b6020020152509194909350909150565b6107ac33610beb565b15156107b757600080fd5b6005805473ffffffffffffffffffffffffffffffffffffffff1916600160a060020a0392909216919091179055565b6107ee6119a2565b6107f66119e3565b6107fe6119e3565b60006108086119e3565b6108106119a2565b600160a060020a0388166000908152600160205260409020601281015490935060ff16151561083e57600080fd5b8260ff88166003811061084d57fe5b600602015486528260ff88166003811061086357fe5b600602016001015486600160038110151561087a57fe5b60200201528260ff88166003811061088e57fe5b60060201600201548660026003811015156108a557fe5b602002015260038054600160a060020a0316906321d8011190859060ff8b169081106108cd57fe5b60060201600001546040518263ffffffff1660e060020a02815260040180828152602001915050600060405180830381600087803b15801561090e57600080fd5b505af1158015610922573d6000803e3d6000fd5b505050506040513d6000823e601f3d908101601f1916820160405261012081101561094c57600080fd5b8151602083015160408401516060850151608086015160a087015160c088015160e0890180519799969895979496939592949193928301929164010000000081111561099757600080fd5b820160208101848111156109aa57600080fd5b81516401000000008111828201871017156109c457600080fd5b505092919060200180516401000000008111156109e057600080fd5b820160208101848111156109f357600080fd5b8151640100000000811182820187101715610a0d57600080fd5b509a9b5098995096975094955092935090915088905060006020020188600160200201896002602002018a6003602002018a6000602002018e600361ffff978816602091909102919091015295909416909452600194850b850b90925293830b830b90915292810b810b90925291810b900b90528160006020020151856000602002018051909101600190810b810b90915282906020020151856001602002018051909101600190810b900b90528160026020020151856002602002018051909101600190810b900b90528160036020020151856003602002018181510191509060010b908160010b815250505050509250925092565b6000610b1033856116e9565b610b1a33846116e9565b610b2433836116e9565b50336000908152600160205260409020601281015460ff161515610b4757600080fd5b83518155602080850151600183015560408086015160028401556060808701516003850155608080880151600486015560a09788015160058601558651600686015586840151600786015586830151600886015586820151600986015586810151600a86015595870151600b8501558451600c85015591840151600d840155830151600e830155820151600f82015591810151601083015590910151601190910155565b6000610bfd818363ffffffff6118fa16565b92915050565b610c0c33610beb565b1515610c1757600080fd5b6002805473ffffffffffffffffffffffffffffffffffffffff1916600160a060020a0392909216919091179055565b610c4e6119a2565b610c566119e3565b610c5e6119e3565b610c666119c1565b600160a060020a038616600090815260016020526040808220815160a0810183529290918391908201908390600390835b82821015610cfc5783826006020160c06040519081016040529081600082015481526020016001820154815260200160028201548152602001600382015481526020016004820154815260200160058201548152505081526020019060010190610c97565b505050908252506012919091015460ff90811615156020909201919091528151919250861660038110610d2b57fe5b602002015151846000610793565b610d4233610beb565b1515610d4d57600080fd5b6003805473ffffffffffffffffffffffffffffffffffffffff1916600160a060020a0392909216919091179055565b610d84611a02565b610d8c611a02565b610d94611a02565b600160a060020a039390931660009081526001602081815260409283902080548652918201548582015260028201548584015260038201546060808701919091526004830154608080880191909152600584015460a08089019190915260068501548752600785015487850152600885015487870152600985015487840152600a85015487830152600b85015487820152600c8501548952600d85015493890193909352600e84015494880194909452600f8301549087015260108201549286019290925260110154908401529092909190565b610e7960003363ffffffff61193116565b565b610e8433610beb565b1515610e8f57600080fd5b6004805473ffffffffffffffffffffffffffffffffffffffff1916600160a060020a0392909216919091179055565b610ec733610beb565b1515610ed257600080fd5b610ee360008263ffffffff61196816565b604051600160a060020a038216907f47d1c22a25bb3a5d4e481b9b1e6944c2eade3181a0a20b495ed61d35b5323f2490600090a250565b610f226119a2565b610f2a6119e3565b610f326119e3565b6000610f3c6119e3565b610f446119a2565b600160a060020a0388166000908152600160205260409020601281015490935060ff161515610f7257600080fd5b8260ff881660038110610f8157fe5b600602015486528260ff881660038110610f9757fe5b6006020160010154866001600381101515610fae57fe5b60200201528260ff881660038110610fc257fe5b6006020160020154866002600381101515610fd957fe5b602002015260038054600160a060020a0316906321d8011190859060ff8b1690811061100157fe5b60060201600001546040518263ffffffff1660e060020a02815260040180828152602001915050600060405180830381600087803b15801561104257600080fd5b505af1158015611056573d6000803e3d6000fd5b505050506040513d6000823e601f3d908101601f1916820160405261012081101561108057600080fd5b8151602083015160408401516060850151608086015160a087015160c088015160e089018051979996989597949693959294919392830192916401000000008111156110cb57600080fd5b820160208101848111156110de57600080fd5b81516401000000008111828201871017156110f857600080fd5b5050929190602001805164010000000081111561111457600080fd5b8201602081018481111561112757600080fd5b815164010000000081118282018710171561114157600080fd5b509a9b5098995096975094955092935090915088905060006020020188600160200201896002602002018a6003602002018a6000602002018e600361ffff978816602091909102919091015295909416909452600194850b850b90925293830b830b90915292810b810b90925291810b900b90528160006020020151856000602002018051909101600190810b810b90915282906020020151856001602002018051909101600190810b900b90528160026020020151856002602002018051909101600190810b900b90528160036020020151856003602002018051909101600190810b900b9052600554600160a060020a031663f61eab7a8460ff8a166003811061124957fe5b60060201600101546040518263ffffffff1660e060020a02815260040180828152602001915050600060405180830381600087803b15801561128a57600080fd5b505af115801561129e573d6000803e3d6000fd5b505050506040513d6000823e601f3d908101601f1916820160405260e08110156112c757600080fd5b8151602083015160408401516060850151608086015160a087015160c088018051969895979496939592949193918301929164010000000081111561130b57600080fd5b8201602081018481111561131e57600080fd5b815164010000000081118282018710171561133857600080fd5b5098995096975094955092935090915087905060006020020187600160200201886002602002018960036020020189600161ffff9096166020969096020194909452600194850b850b90935293830b830b90915292810b810b90915291820b90910b90528160006020020151856000602002018051909101600190810b810b90915282906020020151856001602002018051909101600190810b900b90528160026020020151856002602002018051909101600190810b900b90528160036020020151856003602002018051909101600190810b900b9052600554600160a060020a031663f61eab7a8460ff8a166003811061143057fe5b60060201600201546040518263ffffffff1660e060020a02815260040180828152602001915050600060405180830381600087803b15801561147157600080fd5b505af1158015611485573d6000803e3d6000fd5b505050506040513d6000823e601f3d908101601f1916820160405260e08110156114ae57600080fd5b8151602083015160408401516060850151608086015160a087015160c08801805196989597949693959294919391830192916401000000008111156114f257600080fd5b8201602081018481111561150557600080fd5b815164010000000081118282018710171561151f57600080fd5b5098995096975094955092935090915087905060006020020187600160200201886002602002018960036020020189600261ffff9096166020969096020194909452600194850b850b90935293830b830b90915292810b810b90915291820b90910b90528160006020020151856000602002018051909101600190810b810b90915282906020020151856001602002018051909101600190810b900b90528160026020020151856002602002018051909101600190810b900b90528160036020020151856003602002018051909101600190810b900b9052808360ff89166003811061160757fe5b600602016003015460038110151561161b57fe5b602002015161ffff168452808360ff89166003811061163657fe5b600602016004015460038110151561164a57fe5b6020908102919091015161ffff1690850152808360ff89166003811061166c57fe5b600602016005015460038110151561168057fe5b602002015161ffff16604085015250939692955090935090915050565b6116a56119a2565b6116ad6119e3565b6116b56119e3565b600160a060020a03851660009081526001602052604090208060ff8616600381106116dc57fe5b6006020154846000610793565b600254600160a060020a0316636352211e82600060200201516040518263ffffffff1660e060020a02815260040180828152602001915050602060405180830381600087803b15801561173b57600080fd5b505af115801561174f573d6000803e3d6000fd5b505050506040513d602081101561176557600080fd5b5051600160a060020a0383811691161461177e57600080fd5b600454600160a060020a0316636352211e82600160200201516040518263ffffffff1660e060020a02815260040180828152602001915050602060405180830381600087803b1580156117d057600080fd5b505af11580156117e4573d6000803e3d6000fd5b505050506040513d60208110156117fa57600080fd5b5051600160a060020a0383811691161461181357600080fd5b600454600160a060020a0316636352211e82600260200201516040518263ffffffff1660e060020a02815260040180828152602001915050602060405180830381600087803b15801561186557600080fd5b505af1158015611879573d6000803e3d6000fd5b505050506040513d602081101561188f57600080fd5b5051600160a060020a038381169116146118a857600080fd5b60a08101516080820151606083015101016003146118c557600080fd5b806005602002015160010181600460200201516001018260036020020151600101020260061415156118f657600080fd5b5050565b6000600160a060020a038216151561191157600080fd5b50600160a060020a03166000908152602091909152604090205460ff1690565b600160a060020a038116151561194657600080fd5b600160a060020a0316600090815260209190915260409020805460ff19169055565b600160a060020a038116151561197d57600080fd5b600160a060020a0316600090815260209190915260409020805460ff19166001179055565b6060604051908101604052806003906020820280388339509192915050565b610260604051908101604052806119d6611a21565b8152600060209091015290565b6080604051908101604052806004906020820280388339509192915050565b60c0604051908101604052806006906020820280388339509192915050565b610240604051908101604052806003905b611a3a611a50565b815260200190600190039081611a325790505090565b60c06040519081016040528060008152602001600081526020016000815260200160008152602001600081526020016000815250905600a165627a7a723058203369d78bba76ffcd0372e0a968220a128f4a3d5a41df56d0c65fe35e85332e620029",
  "source": "pragma solidity 0.4.24;\n\nimport \"../hero/HeroAsset.sol\";\nimport \"../hero/Hero.sol\";\nimport \"../extension/ExtensionAsset.sol\";\nimport \"../extension/Extension.sol\";\nimport \"../lib/openzeppelin-solidity/contracts/access/roles/SignerRole.sol\";\n\n\ncontract DeckManager is SignerRole {\n\n    mapping(address => Deck) decks;\n\n    HeroAsset heroAsset;\n    Hero hero;\n    ExtensionAsset extensionAsset;\n    Extension extension;\n\n    struct Deck {\n        Unit[3] units;\n        bool exists;\n    }\n\n    struct Unit {\n        uint256 hero;\n        uint256 extension1;\n        uint256 extension2;\n        uint256 skillOrder1;\n        uint256 skillOrder2;\n        uint256 skillOrder3;\n    }\n    \n    function setHeroAssetAddress(address _heroAssetAddress) public onlySigner {\n        heroAsset = HeroAsset(_heroAssetAddress);\n    }\n\n    function setHeroAddress(address _heroAddress) public onlySigner {\n        hero = Hero(_heroAddress);\n    }\n\n    function setExtensionAssetAddress(address _extensionAssetAddress) public onlySigner {\n        extensionAsset = ExtensionAsset(_extensionAssetAddress);\n    }\n\n    function setExtensionAddress(address _extensionAddress) public onlySigner {\n        extension = Extension(_extensionAddress);\n    }\n    \n    function setInitialDeck(\n        address _address,\n        uint256[6] _unit1,\n        uint256[6] _unit2,\n        uint256[6] _unit3\n    ) public onlySigner {\n        Deck storage deck = decks[_address];\n\n        deck.units[0].hero = _unit1[0];\n        deck.units[0].extension1 = _unit1[1];\n        deck.units[0].extension2 = _unit1[2];\n        deck.units[0].skillOrder1 = _unit1[3];\n        deck.units[0].skillOrder2 = _unit1[4];\n        deck.units[0].skillOrder3 = _unit1[5];\n\n        deck.units[1].hero = _unit2[0];\n        deck.units[1].extension1 = _unit2[1];\n        deck.units[1].extension2 = _unit2[2];\n        deck.units[1].skillOrder1 = _unit2[3];\n        deck.units[1].skillOrder2 = _unit2[4];\n        deck.units[1].skillOrder3 = _unit2[5];\n\n        deck.units[2].hero = _unit3[0];\n        deck.units[2].extension1 = _unit3[1];\n        deck.units[2].extension2 = _unit3[2];\n        deck.units[2].skillOrder1 = _unit3[3];\n        deck.units[2].skillOrder2 = _unit3[4];\n        deck.units[2].skillOrder3 = _unit3[5];\n\n        deck.exists = true;\n    }\n\n    function setDeck(\n        uint256[6] _unit1,\n        uint256[6] _unit2,\n        uint256[6] _unit3\n    ) public {\n        check(msg.sender, _unit1);\n        check(msg.sender, _unit2);\n        check(msg.sender, _unit3);\n\n        Deck storage deck = decks[msg.sender];\n        require(deck.exists);\n\n        deck.units[0].hero = _unit1[0];\n        deck.units[0].extension1 = _unit1[1];\n        deck.units[0].extension2 = _unit1[2];\n        deck.units[0].skillOrder1 = _unit1[3];\n        deck.units[0].skillOrder2 = _unit1[4];\n        deck.units[0].skillOrder3 = _unit1[5];\n\n        deck.units[1].hero = _unit2[0];\n        deck.units[1].extension1 = _unit2[1];\n        deck.units[1].extension2 = _unit2[2];\n        deck.units[1].skillOrder1 = _unit2[3];\n        deck.units[1].skillOrder2 = _unit2[4];\n        deck.units[1].skillOrder3 = _unit2[5];\n\n        deck.units[2].hero = _unit3[0];\n        deck.units[2].extension1 = _unit3[1];\n        deck.units[2].extension2 = _unit3[2];\n        deck.units[2].skillOrder1 = _unit3[3];\n        deck.units[2].skillOrder2 = _unit3[4];\n        deck.units[2].skillOrder3 = _unit3[5];\n    }\n\n    function check (\n        address _owner, uint256[6] _unit\n    ) internal view {\n        require(_owner == heroAsset.ownerOf(_unit[0]));\n        require(_owner == extensionAsset.ownerOf(_unit[1]));\n        require(_owner == extensionAsset.ownerOf(_unit[2]));\n        require(_unit[3] + _unit[4] + _unit[5] == 3);\n        require((_unit[3] + 1) * (_unit[4] + 1 ) * (_unit[5] + 1) == 6);\n    }\n\n    function getDeck(address _address) public view returns (\n        uint256[6] unit1,\n        uint256[6] unit2,\n        uint256[6] unit3\n    ) {\n        Deck storage deck = decks[_address];\n\n        unit1[0] = deck.units[0].hero;\n        unit1[1] = deck.units[0].extension1;\n        unit1[2] = deck.units[0].extension2;\n        unit1[3] = deck.units[0].skillOrder1;\n        unit1[4] = deck.units[0].skillOrder2;\n        unit1[5] = deck.units[0].skillOrder3;\n        \n        unit2[0] = deck.units[1].hero;\n        unit2[1] = deck.units[1].extension1;\n        unit2[2] = deck.units[1].extension2;\n        unit2[3] = deck.units[1].skillOrder1;\n        unit2[4] = deck.units[1].skillOrder2;\n        unit2[5] = deck.units[1].skillOrder3;\n\n        unit3[0] = deck.units[2].hero;\n        unit3[1] = deck.units[2].extension1;\n        unit3[2] = deck.units[2].extension2;\n        unit3[3] = deck.units[2].skillOrder1;\n        unit3[4] = deck.units[2].skillOrder2;\n        unit3[5] = deck.units[2].skillOrder3;\n    }\n\n    function getUnit(address _address, uint8 _index) public view returns (\n        uint256[3] ids, int16[4] sumParams, uint16[4] skills\n    ) {\n        Deck storage deck = decks[_address];\n        require(deck.exists);\n\n        ids[0] = deck.units[_index].hero;\n        ids[1] = deck.units[_index].extension1;\n        ids[2] = deck.units[_index].extension2;\n\n        int16[4] memory params;\n        uint16[3] memory activeSkills;\n\n        (,params[0],params[1],params[2],params[3],activeSkills[0],skills[3],,) = hero.getHero(deck.units[_index].hero);\n        sumParams[0] += params[0]; sumParams[1] += params[1]; sumParams[2] += params[2]; sumParams[3] += params[3];\n\n        (,params[0],params[1],params[2],params[3],activeSkills[1],) = extension.getExtension(deck.units[_index].extension1);\n        sumParams[0] += params[0]; sumParams[1] += params[1]; sumParams[2] += params[2]; sumParams[3] += params[3];\n\n        (,params[0],params[1],params[2],params[3],activeSkills[2],) = extension.getExtension(deck.units[_index].extension2);\n        sumParams[0] += params[0]; sumParams[1] += params[1]; sumParams[2] += params[2]; sumParams[3] += params[3];\n        \n        skills[0] = activeSkills[deck.units[_index].skillOrder1];\n        skills[1] = activeSkills[deck.units[_index].skillOrder2];\n        skills[2] = activeSkills[deck.units[_index].skillOrder3];\n    }\n\n    function getUnit10(address _address, uint8 _index) public view returns (\n        uint256[3]\n    ) {\n        Deck memory deck = decks[_address];\n//        require(deck.exists);\n\n        uint256[3] memory ids;\n        ids[0] = deck.units[_index].hero;\n        return(ids);\n    }\n\n\n    function getUnit9(address _address, uint8 _index) public view returns (\n        uint256[3] ids, int16[4] sumParams, uint16[4] skills\n    ) {\n        Deck memory deck = decks[_address];\n//        require(deck.exists);\n\n        ids[0] = deck.units[_index].hero;\n    }\n\n    function getUnit0(address _address, uint8 _index) public view returns (\n        uint256[3] ids, int16[4] sumParams, uint16[4] skills\n    ) {\n        Deck storage deck = decks[_address];\n//        require(deck.exists);\n\n        ids[0] = deck.units[_index].hero;\n    }\n    \n    function getUnit1(address _address, uint8 _index) public view returns (\n        uint256[3] ids, int16[4] sumParams, uint16[4] skills\n    ) {\n        Deck storage deck = decks[_address];\n//        require(deck.exists);\n\n        ids[0] = deck.units[_index].hero;\n        ids[1] = deck.units[_index].extension1;\n        ids[2] = deck.units[_index].extension2;\n    }\n    \n    function getUnit2(address _address, uint8 _index) public view returns (\n        uint256[3] ids, int16[4] sumParams, uint16[4] skills\n    ) {\n        Deck storage deck = decks[_address];\n        require(deck.exists);\n\n        ids[0] = deck.units[_index].hero;\n        ids[1] = deck.units[_index].extension1;\n        ids[2] = deck.units[_index].extension2;\n\n        int16[4] memory params;\n        uint16[3] memory activeSkills;\n\n        (,params[0],params[1],params[2],params[3],activeSkills[0],skills[3],,) = hero.getHero(deck.units[_index].hero);\n        sumParams[0] += params[0]; sumParams[1] += params[1]; sumParams[2] += params[2]; sumParams[3] += params[3];\n    }\n\n    \n    \n    \n}",
  "sourcePath": "/Users/hironobu/devs/mch-beta/contracts/deck/DeckManager.sol",
  "compiler": {
    "name": "solc",
    "version": "0.4.24+commit.e67f0147.Emscripten.clang"
  },
  "schemaVersion": "2.0.1",
  "updatedAt": "2018-09-24T08:58:05.999Z"
}