{
  "contractName": "DeckManager",
  "abi": [
    {
      "constant": true,
      "inputs": [
        {
          "name": "account",
          "type": "address"
        }
      ],
      "name": "isSigner",
      "outputs": [
        {
          "name": "",
          "type": "bool"
        }
      ],
      "payable": false,
      "stateMutability": "view",
      "type": "function"
    },
    {
      "constant": false,
      "inputs": [],
      "name": "renounceSigner",
      "outputs": [],
      "payable": false,
      "stateMutability": "nonpayable",
      "type": "function"
    },
    {
      "constant": false,
      "inputs": [
        {
          "name": "account",
          "type": "address"
        }
      ],
      "name": "addSigner",
      "outputs": [],
      "payable": false,
      "stateMutability": "nonpayable",
      "type": "function"
    },
    {
      "anonymous": false,
      "inputs": [
        {
          "indexed": true,
          "name": "user",
          "type": "address"
        },
        {
          "indexed": false,
          "name": "unit1",
          "type": "uint256[6]"
        },
        {
          "indexed": false,
          "name": "unit2",
          "type": "uint256[6]"
        },
        {
          "indexed": false,
          "name": "unit3",
          "type": "uint256[6]"
        }
      ],
      "name": "DeckSetting",
      "type": "event"
    },
    {
      "anonymous": false,
      "inputs": [
        {
          "indexed": true,
          "name": "account",
          "type": "address"
        }
      ],
      "name": "SignerAdded",
      "type": "event"
    },
    {
      "anonymous": false,
      "inputs": [
        {
          "indexed": true,
          "name": "account",
          "type": "address"
        }
      ],
      "name": "SignerRemoved",
      "type": "event"
    },
    {
      "constant": false,
      "inputs": [
        {
          "name": "_heroAssetAddress",
          "type": "address"
        }
      ],
      "name": "setHeroAssetAddress",
      "outputs": [],
      "payable": false,
      "stateMutability": "nonpayable",
      "type": "function"
    },
    {
      "constant": false,
      "inputs": [
        {
          "name": "_heroAddress",
          "type": "address"
        }
      ],
      "name": "setHeroAddress",
      "outputs": [],
      "payable": false,
      "stateMutability": "nonpayable",
      "type": "function"
    },
    {
      "constant": false,
      "inputs": [
        {
          "name": "_extensionAssetAddress",
          "type": "address"
        }
      ],
      "name": "setExtensionAssetAddress",
      "outputs": [],
      "payable": false,
      "stateMutability": "nonpayable",
      "type": "function"
    },
    {
      "constant": false,
      "inputs": [
        {
          "name": "_extensionAddress",
          "type": "address"
        }
      ],
      "name": "setExtensionAddress",
      "outputs": [],
      "payable": false,
      "stateMutability": "nonpayable",
      "type": "function"
    },
    {
      "constant": false,
      "inputs": [
        {
          "name": "_address",
          "type": "address"
        },
        {
          "name": "_unit1",
          "type": "uint256[6]"
        },
        {
          "name": "_unit2",
          "type": "uint256[6]"
        },
        {
          "name": "_unit3",
          "type": "uint256[6]"
        }
      ],
      "name": "setInitialDeck",
      "outputs": [],
      "payable": false,
      "stateMutability": "nonpayable",
      "type": "function"
    },
    {
      "constant": false,
      "inputs": [
        {
          "name": "_unit1",
          "type": "uint256[6]"
        },
        {
          "name": "_unit2",
          "type": "uint256[6]"
        },
        {
          "name": "_unit3",
          "type": "uint256[6]"
        }
      ],
      "name": "setDeck",
      "outputs": [],
      "payable": false,
      "stateMutability": "nonpayable",
      "type": "function"
    },
    {
      "constant": true,
      "inputs": [
        {
          "name": "_address",
          "type": "address"
        }
      ],
      "name": "getDeck",
      "outputs": [
        {
          "name": "unit1",
          "type": "uint256[6]"
        },
        {
          "name": "unit2",
          "type": "uint256[6]"
        },
        {
          "name": "unit3",
          "type": "uint256[6]"
        }
      ],
      "payable": false,
      "stateMutability": "view",
      "type": "function"
    },
    {
      "constant": true,
      "inputs": [
        {
          "name": "_address",
          "type": "address"
        },
        {
          "name": "_index",
          "type": "uint8"
        }
      ],
      "name": "getUnit",
      "outputs": [
        {
          "name": "ids",
          "type": "uint256[3]"
        },
        {
          "name": "sumParams",
          "type": "int16[4]"
        },
        {
          "name": "skills",
          "type": "uint16[4]"
        }
      ],
      "payable": false,
      "stateMutability": "view",
      "type": "function"
    }
  ],
  "bytecode": "0x608060405261001c60003364010000000061153661002182021704565b61005b565b600160a060020a038116151561003657600080fd5b600160a060020a0316600090815260209190915260409020805460ff19166001179055565b6115f98061006a6000396000f3006080604052600436106100955763ffffffff60e060020a60003504166344ab91d4811461009a5780634c52e190146101375780637b0640e9146101585780637df73e27146101e7578063985df3a71461021c578063be926c801461023d578063e3913d6c1461025e578063e5c8b03d1461030f578063eaab1c7014610324578063eb12d61e14610345578063ed7457f814610366575b600080fd5b3480156100a657600080fd5b506040805160c08082019092526101359160048035600160a060020a031692369260e49190602490600690839083908082843750506040805160c081810190925294979695818101959450925060069150839083908082843750506040805160c0818101909252949796958181019594509250600691508390839080828437509396506103fa95505050505050565b005b34801561014357600080fd5b50610135600160a060020a036004351661059d565b34801561016457600080fd5b506040805160c081810190925261013591369160049160c491908390600690839083908082843750506040805160c081810190925294979695818101959450925060069150839083908082843750506040805160c0818101909252949796958181019594509250600691508390839080828437509396506105e095505050505050565b3480156101f357600080fd5b50610208600160a060020a036004351661078d565b604080519115158252519081900360200190f35b34801561022857600080fd5b50610135600160a060020a03600435166107a5565b34801561024957600080fd5b50610135600160a060020a03600435166107e8565b34801561026a57600080fd5b5061027f600160a060020a036004351661082b565b604051808460c080838360005b838110156102a457818101518382015260200161028c565b5050505090500183600660200280838360005b838110156102cf5781810151838201526020016102b7565b5050505090500182600660200280838360005b838110156102fa5781810151838201526020016102e2565b50505050905001935050505060405180910390f35b34801561031b57600080fd5b50610135610917565b34801561033057600080fd5b50610135600160a060020a036004351661092a565b34801561035157600080fd5b50610135600160a060020a036004351661096d565b34801561037257600080fd5b5061038d600160a060020a036004351660ff602435166109c9565b6040518084606080838360005b838110156103b257818101518382015260200161039a565b5050505090500183600460200280838360005b838110156103dd5781810151838201526020016103c5565b5050865192909401918252509150839050608080838360206102e2565b60006104053361078d565b151561041057600080fd5b50600160a060020a03841660008181526001602081815260408084208851815588830151818501558882015160028201556060808a015160038301556080808b0151600484015560a0808c015160058501558a5160068501558a86015160078501558a85015160088501558a83015160098501558a820151600a8501558a810151600b8501558951600c85015594890151600d84015588840151600e84015590880151600f830155870151601082015591860151601183015560128201805460ff191690931790925590519092917ff5a47fb231da72066c71003ca141cfeef7718562438d69c1f6898f7c07f42a17918791879187918190859060c0908190849084905b8381101561052c578181015183820152602001610514565b5050505090500183600660200280838360005b8381101561055757818101518382015260200161053f565b5050505090500182600660200280838360005b8381101561058257818101518382015260200161056a565b50505050905001935050505060405180910390a25050505050565b6105a63361078d565b15156105b157600080fd5b6005805473ffffffffffffffffffffffffffffffffffffffff1916600160a060020a0392909216919091179055565b60006105ec338561114c565b6105f6338461114c565b610600338361114c565b61060b84848461135d565b50336000908152600160205260409020601281015460ff16151561062e57600080fd5b83518155602080850151600183015560408086015160028401556060808701516003850155608080880151600486015560a08089015160058701558751600687015587850151600787015587840151600887015587830151600987015587820151600a87015587810151600b8701558651600c87015593860151600d86015585830151600e86015590850151600f85015584015160108401559083015160118301555133907ff5a47fb231da72066c71003ca141cfeef7718562438d69c1f6898f7c07f42a1790869086908690808460c080838360005b8381101561071d578181015183820152602001610705565b5050505090500183600660200280838360005b83811015610748578181015183820152602001610730565b5050505090500182600660200280838360005b8381101561077357818101518382015260200161075b565b50505050905001935050505060405180910390a250505050565b600061079f818363ffffffff6114c816565b92915050565b6107ae3361078d565b15156107b957600080fd5b6002805473ffffffffffffffffffffffffffffffffffffffff1916600160a060020a0392909216919091179055565b6107f13361078d565b15156107fc57600080fd5b6003805473ffffffffffffffffffffffffffffffffffffffff1916600160a060020a0392909216919091179055565b610833611570565b61083b611570565b610843611570565b600160a060020a039390931660009081526001602081815260409283902080548652918201548582015260028201548584015260038201546060808701919091526004830154608080880191909152600584015460a08089019190915260068501548752600785015487850152600885015487870152600985015487840152600a85015487830152600b85015487820152600c8501548952600d85015493890193909352600e84015494880194909452600f8301549087015260108201549286019290925260110154908401529092909190565b61092860003363ffffffff6114ff16565b565b6109333361078d565b151561093e57600080fd5b6004805473ffffffffffffffffffffffffffffffffffffffff1916600160a060020a0392909216919091179055565b6109763361078d565b151561098157600080fd5b61099260008263ffffffff61153616565b604051600160a060020a038216907f47d1c22a25bb3a5d4e481b9b1e6944c2eade3181a0a20b495ed61d35b5323f2490600090a250565b6109d161158f565b6109d96115ae565b6109e16115ae565b60006109eb6115ae565b6109f361158f565b600160a060020a0388166000908152600160205260409020601281015490935060ff161515610a2157600080fd5b8260ff881660038110610a3057fe5b600602015486528260ff881660038110610a4657fe5b6006020160010154866001600381101515610a5d57fe5b60200201528260ff881660038110610a7157fe5b6006020160020154866002600381101515610a8857fe5b602002015260038054600160a060020a0316906321d8011190859060ff8b16908110610ab057fe5b60060201600001546040518263ffffffff1660e060020a02815260040180828152602001915050600060405180830381600087803b158015610af157600080fd5b505af1158015610b05573d6000803e3d6000fd5b505050506040513d6000823e601f3d908101601f19168201604052610120811015610b2f57600080fd5b8151602083015160408401516060850151608086015160a087015160c088015160e08901805197999698959794969395929491939283019291640100000000811115610b7a57600080fd5b82016020810184811115610b8d57600080fd5b8151640100000000811182820187101715610ba757600080fd5b50509291906020018051640100000000811115610bc357600080fd5b82016020810184811115610bd657600080fd5b8151640100000000811182820187101715610bf057600080fd5b509a9b5098995096975094955092935090915088905060006020020188600160200201896002602002018a6003602002018a6000602002018e600361ffff978816602091909102919091015295909416909452600194850b850b90925293830b830b90915292810b810b90925291810b900b90528160006020020151856000602002018051909101600190810b810b90915282906020020151856001602002018051909101600190810b900b90528160026020020151856002602002018051909101600190810b900b90528160036020020151856003602002018051909101600190810b900b9052600554600160a060020a031663f61eab7a8460ff8a1660038110610cf857fe5b60060201600101546040518263ffffffff1660e060020a02815260040180828152602001915050600060405180830381600087803b158015610d3957600080fd5b505af1158015610d4d573d6000803e3d6000fd5b505050506040513d6000823e601f3d908101601f1916820160405260e0811015610d7657600080fd5b8151602083015160408401516060850151608086015160a087015160c0880180519698959794969395929491939183019291640100000000811115610dba57600080fd5b82016020810184811115610dcd57600080fd5b8151640100000000811182820187101715610de757600080fd5b5098995096975094955092935090915087905060006020020187600160200201886002602002018960036020020189600161ffff9096166020969096020194909452600194850b850b90935293830b830b90915292810b810b90915291820b90910b90528160006020020151856000602002018051909101600190810b810b90915282906020020151856001602002018051909101600190810b900b90528160026020020151856002602002018051909101600190810b900b90528160036020020151856003602002018051909101600190810b900b9052600554600160a060020a031663f61eab7a8460ff8a1660038110610edf57fe5b60060201600201546040518263ffffffff1660e060020a02815260040180828152602001915050600060405180830381600087803b158015610f2057600080fd5b505af1158015610f34573d6000803e3d6000fd5b505050506040513d6000823e601f3d908101601f1916820160405260e0811015610f5d57600080fd5b8151602083015160408401516060850151608086015160a087015160c0880180519698959794969395929491939183019291640100000000811115610fa157600080fd5b82016020810184811115610fb457600080fd5b8151640100000000811182820187101715610fce57600080fd5b5098995096975094955092935090915087905060006020020187600160200201886002602002018960036020020189600261ffff9096166020969096020194909452600194850b850b90935293830b830b90915292810b810b90915291820b90910b90528160006020020151856000602002018051909101600190810b810b90915282906020020151856001602002018051909101600190810b900b90528160026020020151856002602002018051909101600190810b900b90528160036020020151856003602002018051909101600190810b900b9052808360ff8916600381106110b657fe5b60060201600301546003811015156110ca57fe5b602002015161ffff168452808360ff8916600381106110e557fe5b60060201600401546003811015156110f957fe5b6020908102919091015161ffff1690850152808360ff89166003811061111b57fe5b600602016005015460038110151561112f57fe5b602002015161ffff16604085015250939692955090935090915050565b600254600160a060020a0316636352211e82600060200201516040518263ffffffff1660e060020a02815260040180828152602001915050602060405180830381600087803b15801561119e57600080fd5b505af11580156111b2573d6000803e3d6000fd5b505050506040513d60208110156111c857600080fd5b5051600160a060020a038381169116146111e157600080fd5b600454600160a060020a0316636352211e82600160200201516040518263ffffffff1660e060020a02815260040180828152602001915050602060405180830381600087803b15801561123357600080fd5b505af1158015611247573d6000803e3d6000fd5b505050506040513d602081101561125d57600080fd5b5051600160a060020a0383811691161461127657600080fd5b600454600160a060020a0316636352211e82600260200201516040518263ffffffff1660e060020a02815260040180828152602001915050602060405180830381600087803b1580156112c857600080fd5b505af11580156112dc573d6000803e3d6000fd5b505050506040513d60208110156112f257600080fd5b5051600160a060020a0383811691161461130b57600080fd5b60a081015160808201516060830151010160031461132857600080fd5b8060056020020151600101816004602002015160010182600360200201516001010202600614151561135957600080fd5b5050565b815183511480159061137157508051825114155b801561137f57508251815114155b151561138a57600080fd5b60408301516020840151148015906113aa57506020808301519084015114155b80156113be57506040820151602084015114155b80156113d257506020808201519084015114155b80156113e657506040810151602084015114155b15156113f157600080fd5b602082015160408401511480159061141157506040808301519084015114155b801561142557506020810151604084015114155b801561143957506040808201519084015114155b151561144457600080fd5b604082015160208301511480159061146457506020808201519083015114155b801561147857506040810151602083015114155b151561148357600080fd5b60208101516040830151148015906114a357506040808201519083015114155b15156114ae57600080fd5b6040810151602082015114156114c357600080fd5b505050565b6000600160a060020a03821615156114df57600080fd5b50600160a060020a03166000908152602091909152604090205460ff1690565b600160a060020a038116151561151457600080fd5b600160a060020a0316600090815260209190915260409020805460ff19169055565b600160a060020a038116151561154b57600080fd5b600160a060020a0316600090815260209190915260409020805460ff19166001179055565b60c0604051908101604052806006906020820280388339509192915050565b6060604051908101604052806003906020820280388339509192915050565b60806040519081016040528060049060208202803883395091929150505600a165627a7a72305820e8dfdbba91cf4e276dba847bc9a54086332766d759e778d0861cd1f557d43d100029",
  "source": "pragma solidity 0.4.24;\n\nimport \"../hero/HeroAsset.sol\";\nimport \"../hero/Hero.sol\";\nimport \"../extension/ExtensionAsset.sol\";\nimport \"../extension/Extension.sol\";\nimport \"../lib/openzeppelin-solidity/contracts/access/roles/SignerRole.sol\";\n\n\ncontract DeckManager is SignerRole {\n\n    event DeckSetting (address indexed user, uint256[6] unit1, uint256[6] unit2, uint256[6] unit3);\n\n    mapping(address => Deck) decks;\n\n    HeroAsset heroAsset;\n    Hero hero;\n    ExtensionAsset extensionAsset;\n    Extension extension;\n\n    struct Deck {\n        Unit[3] units;\n        bool exists;\n    }\n\n    struct Unit {\n        uint256 hero;\n        uint256 extension1;\n        uint256 extension2;\n        uint256 skillOrder1;\n        uint256 skillOrder2;\n        uint256 skillOrder3;\n    }\n    \n    function setHeroAssetAddress(address _heroAssetAddress) public onlySigner {\n        heroAsset = HeroAsset(_heroAssetAddress);\n    }\n\n    function setHeroAddress(address _heroAddress) public onlySigner {\n        hero = Hero(_heroAddress);\n    }\n\n    function setExtensionAssetAddress(address _extensionAssetAddress) public onlySigner {\n        extensionAsset = ExtensionAsset(_extensionAssetAddress);\n    }\n\n    function setExtensionAddress(address _extensionAddress) public onlySigner {\n        extension = Extension(_extensionAddress);\n    }\n    \n    function setInitialDeck(\n        address _address,\n        uint256[6] _unit1,\n        uint256[6] _unit2,\n        uint256[6] _unit3\n    ) public onlySigner {\n        Deck storage deck = decks[_address];\n\n        deck.units[0].hero = _unit1[0];\n        deck.units[0].extension1 = _unit1[1];\n        deck.units[0].extension2 = _unit1[2];\n        deck.units[0].skillOrder1 = _unit1[3];\n        deck.units[0].skillOrder2 = _unit1[4];\n        deck.units[0].skillOrder3 = _unit1[5];\n\n        deck.units[1].hero = _unit2[0];\n        deck.units[1].extension1 = _unit2[1];\n        deck.units[1].extension2 = _unit2[2];\n        deck.units[1].skillOrder1 = _unit2[3];\n        deck.units[1].skillOrder2 = _unit2[4];\n        deck.units[1].skillOrder3 = _unit2[5];\n\n        deck.units[2].hero = _unit3[0];\n        deck.units[2].extension1 = _unit3[1];\n        deck.units[2].extension2 = _unit3[2];\n        deck.units[2].skillOrder1 = _unit3[3];\n        deck.units[2].skillOrder2 = _unit3[4];\n        deck.units[2].skillOrder3 = _unit3[5];\n\n        deck.exists = true;\n        \n        emit DeckSetting (_address, _unit1, _unit2, _unit3);\n    }\n\n    function setDeck(\n        uint256[6] _unit1,\n        uint256[6] _unit2,\n        uint256[6] _unit3\n    ) public {\n        check(msg.sender, _unit1);\n        check(msg.sender, _unit2);\n        check(msg.sender, _unit3);\n        checkDuplicate(_unit1, _unit2, _unit3);\n\n        Deck storage deck = decks[msg.sender];\n        require(deck.exists);\n\n        deck.units[0].hero = _unit1[0];\n        deck.units[0].extension1 = _unit1[1];\n        deck.units[0].extension2 = _unit1[2];\n        deck.units[0].skillOrder1 = _unit1[3];\n        deck.units[0].skillOrder2 = _unit1[4];\n        deck.units[0].skillOrder3 = _unit1[5];\n\n        deck.units[1].hero = _unit2[0];\n        deck.units[1].extension1 = _unit2[1];\n        deck.units[1].extension2 = _unit2[2];\n        deck.units[1].skillOrder1 = _unit2[3];\n        deck.units[1].skillOrder2 = _unit2[4];\n        deck.units[1].skillOrder3 = _unit2[5];\n\n        deck.units[2].hero = _unit3[0];\n        deck.units[2].extension1 = _unit3[1];\n        deck.units[2].extension2 = _unit3[2];\n        deck.units[2].skillOrder1 = _unit3[3];\n        deck.units[2].skillOrder2 = _unit3[4];\n        deck.units[2].skillOrder3 = _unit3[5];\n\n        emit DeckSetting (msg.sender, _unit1, _unit2, _unit3);\n    }\n\n    function check (\n        address _owner, uint256[6] _unit\n    ) internal view {\n        require(_owner == heroAsset.ownerOf(_unit[0]));\n        require(_owner == extensionAsset.ownerOf(_unit[1]));\n        require(_owner == extensionAsset.ownerOf(_unit[2]));\n        require(_unit[3] + _unit[4] + _unit[5] == 3);\n        require((_unit[3] + 1) * (_unit[4] + 1 ) * (_unit[5] + 1) == 6);\n    }\n\n    function checkDuplicate (\n        uint256[6] _unit1,\n        uint256[6] _unit2,\n        uint256[6] _unit3\n    ) internal pure {\n        require(_unit1[0] != _unit2[0] && _unit2[0] != _unit3[0] && _unit3[0] != _unit1[0]);\n        require(_unit1[1] != _unit1[2] && _unit1[1] != _unit2[1] && _unit1[1] != _unit2[2] && _unit1[1] != _unit3[1] && _unit1[1] != _unit3[2]);\n        require(_unit1[2] != _unit2[1] && _unit1[2] != _unit2[2] && _unit1[2] != _unit3[1] && _unit1[2] != _unit3[2]);\n        require(_unit2[1] != _unit2[2] && _unit2[1] != _unit3[1] && _unit2[1] != _unit3[2]);\n        require(_unit2[2] != _unit3[1] && _unit2[2] != _unit3[2]);\n        require(_unit3[1] != _unit3[2]);\n    }    \n\n    function getDeck(address _address) public view returns (\n        uint256[6] unit1,\n        uint256[6] unit2,\n        uint256[6] unit3\n    ) {\n        Deck storage deck = decks[_address];\n\n        unit1[0] = deck.units[0].hero;\n        unit1[1] = deck.units[0].extension1;\n        unit1[2] = deck.units[0].extension2;\n        unit1[3] = deck.units[0].skillOrder1;\n        unit1[4] = deck.units[0].skillOrder2;\n        unit1[5] = deck.units[0].skillOrder3;\n        \n        unit2[0] = deck.units[1].hero;\n        unit2[1] = deck.units[1].extension1;\n        unit2[2] = deck.units[1].extension2;\n        unit2[3] = deck.units[1].skillOrder1;\n        unit2[4] = deck.units[1].skillOrder2;\n        unit2[5] = deck.units[1].skillOrder3;\n\n        unit3[0] = deck.units[2].hero;\n        unit3[1] = deck.units[2].extension1;\n        unit3[2] = deck.units[2].extension2;\n        unit3[3] = deck.units[2].skillOrder1;\n        unit3[4] = deck.units[2].skillOrder2;\n        unit3[5] = deck.units[2].skillOrder3;\n    }\n\n    function getUnit(address _address, uint8 _index) public view returns (\n        uint256[3] ids, int16[4] sumParams, uint16[4] skills\n    ) {\n        Deck storage deck = decks[_address];\n        require(deck.exists);\n\n        ids[0] = deck.units[_index].hero;\n        ids[1] = deck.units[_index].extension1;\n        ids[2] = deck.units[_index].extension2;\n\n        int16[4] memory params;\n        uint16[3] memory activeSkills;\n\n        (,params[0],params[1],params[2],params[3],activeSkills[0],skills[3],,) = hero.getHero(deck.units[_index].hero);\n        sumParams[0] += params[0]; sumParams[1] += params[1]; sumParams[2] += params[2]; sumParams[3] += params[3];\n\n        (,params[0],params[1],params[2],params[3],activeSkills[1],) = extension.getExtension(deck.units[_index].extension1);\n        sumParams[0] += params[0]; sumParams[1] += params[1]; sumParams[2] += params[2]; sumParams[3] += params[3];\n\n        (,params[0],params[1],params[2],params[3],activeSkills[2],) = extension.getExtension(deck.units[_index].extension2);\n        sumParams[0] += params[0]; sumParams[1] += params[1]; sumParams[2] += params[2]; sumParams[3] += params[3];\n        \n        skills[0] = activeSkills[deck.units[_index].skillOrder1];\n        skills[1] = activeSkills[deck.units[_index].skillOrder2];\n        skills[2] = activeSkills[deck.units[_index].skillOrder3];\n    }\n\n}\n",
  "sourcePath": "/Users/hironobu/devs/mch-beta/contracts/deck/DeckManager.sol",
  "compiler": {
    "name": "solc",
    "version": "0.4.24+commit.e67f0147.Emscripten.clang"
  },
  "schemaVersion": "2.0.1",
  "updatedAt": "2018-10-01T04:22:14.011Z"
}