{
  "contractName": "DeckManager",
  "abi": [
    {
      "constant": true,
      "inputs": [
        {
          "name": "account",
          "type": "address"
        }
      ],
      "name": "isSigner",
      "outputs": [
        {
          "name": "",
          "type": "bool"
        }
      ],
      "payable": false,
      "stateMutability": "view",
      "type": "function"
    },
    {
      "constant": false,
      "inputs": [],
      "name": "renounceSigner",
      "outputs": [],
      "payable": false,
      "stateMutability": "nonpayable",
      "type": "function"
    },
    {
      "constant": false,
      "inputs": [
        {
          "name": "account",
          "type": "address"
        }
      ],
      "name": "addSigner",
      "outputs": [],
      "payable": false,
      "stateMutability": "nonpayable",
      "type": "function"
    },
    {
      "anonymous": false,
      "inputs": [
        {
          "indexed": true,
          "name": "account",
          "type": "address"
        }
      ],
      "name": "SignerAdded",
      "type": "event"
    },
    {
      "anonymous": false,
      "inputs": [
        {
          "indexed": true,
          "name": "account",
          "type": "address"
        }
      ],
      "name": "SignerRemoved",
      "type": "event"
    },
    {
      "constant": false,
      "inputs": [
        {
          "name": "_heroAssetAddress",
          "type": "address"
        }
      ],
      "name": "setHeroAssetAddress",
      "outputs": [],
      "payable": false,
      "stateMutability": "nonpayable",
      "type": "function"
    },
    {
      "constant": false,
      "inputs": [
        {
          "name": "_heroAddress",
          "type": "address"
        }
      ],
      "name": "setHeroAddress",
      "outputs": [],
      "payable": false,
      "stateMutability": "nonpayable",
      "type": "function"
    },
    {
      "constant": false,
      "inputs": [
        {
          "name": "_extensionAssetAddress",
          "type": "address"
        }
      ],
      "name": "setExtensionAssetAddress",
      "outputs": [],
      "payable": false,
      "stateMutability": "nonpayable",
      "type": "function"
    },
    {
      "constant": false,
      "inputs": [
        {
          "name": "_extensionAddress",
          "type": "address"
        }
      ],
      "name": "setExtensionAddress",
      "outputs": [],
      "payable": false,
      "stateMutability": "nonpayable",
      "type": "function"
    },
    {
      "constant": false,
      "inputs": [
        {
          "name": "_address",
          "type": "address"
        },
        {
          "name": "_unit1",
          "type": "uint256[6]"
        },
        {
          "name": "_unit2",
          "type": "uint256[6]"
        },
        {
          "name": "_unit3",
          "type": "uint256[6]"
        }
      ],
      "name": "setInitialDeck",
      "outputs": [],
      "payable": false,
      "stateMutability": "nonpayable",
      "type": "function"
    },
    {
      "constant": false,
      "inputs": [
        {
          "name": "_unit1",
          "type": "uint256[6]"
        },
        {
          "name": "_unit2",
          "type": "uint256[6]"
        },
        {
          "name": "_unit3",
          "type": "uint256[6]"
        }
      ],
      "name": "setDeck",
      "outputs": [],
      "payable": false,
      "stateMutability": "nonpayable",
      "type": "function"
    },
    {
      "constant": true,
      "inputs": [
        {
          "name": "_address",
          "type": "address"
        }
      ],
      "name": "getDeck",
      "outputs": [
        {
          "name": "unit1",
          "type": "uint256[6]"
        },
        {
          "name": "unit2",
          "type": "uint256[6]"
        },
        {
          "name": "unit3",
          "type": "uint256[6]"
        }
      ],
      "payable": false,
      "stateMutability": "view",
      "type": "function"
    },
    {
      "constant": true,
      "inputs": [
        {
          "name": "_address",
          "type": "address"
        },
        {
          "name": "_index",
          "type": "uint8"
        }
      ],
      "name": "getUnit",
      "outputs": [
        {
          "name": "ids",
          "type": "uint256[3]"
        },
        {
          "name": "sumParams",
          "type": "int16[4]"
        },
        {
          "name": "skills",
          "type": "uint16[4]"
        }
      ],
      "payable": false,
      "stateMutability": "view",
      "type": "function"
    },
    {
      "constant": true,
      "inputs": [
        {
          "name": "_address",
          "type": "address"
        },
        {
          "name": "_index",
          "type": "uint8"
        }
      ],
      "name": "getUnit10",
      "outputs": [
        {
          "name": "",
          "type": "uint256[3]"
        }
      ],
      "payable": false,
      "stateMutability": "view",
      "type": "function"
    },
    {
      "constant": true,
      "inputs": [
        {
          "name": "_address",
          "type": "address"
        },
        {
          "name": "_index",
          "type": "uint8"
        }
      ],
      "name": "getUnit9",
      "outputs": [
        {
          "name": "ids",
          "type": "uint256[3]"
        },
        {
          "name": "sumParams",
          "type": "int16[4]"
        },
        {
          "name": "skills",
          "type": "uint16[4]"
        }
      ],
      "payable": false,
      "stateMutability": "view",
      "type": "function"
    },
    {
      "constant": true,
      "inputs": [
        {
          "name": "_address",
          "type": "address"
        },
        {
          "name": "_index",
          "type": "uint8"
        }
      ],
      "name": "getUnit0",
      "outputs": [
        {
          "name": "ids",
          "type": "uint256[3]"
        },
        {
          "name": "sumParams",
          "type": "int16[4]"
        },
        {
          "name": "skills",
          "type": "uint16[4]"
        }
      ],
      "payable": false,
      "stateMutability": "view",
      "type": "function"
    },
    {
      "constant": true,
      "inputs": [
        {
          "name": "_address",
          "type": "address"
        },
        {
          "name": "_index",
          "type": "uint8"
        }
      ],
      "name": "getUnit1",
      "outputs": [
        {
          "name": "ids",
          "type": "uint256[3]"
        },
        {
          "name": "sumParams",
          "type": "int16[4]"
        },
        {
          "name": "skills",
          "type": "uint16[4]"
        }
      ],
      "payable": false,
      "stateMutability": "view",
      "type": "function"
    },
    {
      "constant": true,
      "inputs": [
        {
          "name": "_address",
          "type": "address"
        },
        {
          "name": "_index",
          "type": "uint8"
        }
      ],
      "name": "getUnit2",
      "outputs": [
        {
          "name": "ids",
          "type": "uint256[3]"
        },
        {
          "name": "sumParams",
          "type": "int16[4]"
        },
        {
          "name": "skills",
          "type": "uint16[4]"
        }
      ],
      "payable": false,
      "stateMutability": "view",
      "type": "function"
    }
  ],
  "bytecode": "0x608060405261001c6000336401000000006118c561002182021704565b61005b565b600160a060020a038116151561003657600080fd5b600160a060020a0316600090815260209190915260409020805460ff19166001179055565b611a108061006a6000396000f3006080604052600436106100cc5763ffffffff60e060020a600035041663319b2a8181146100d157806344ab91d4146101305780634c5077a2146101cd5780634c52e19014610284578063760452c6146102a55780637b0640e9146102cc5780637df73e271461035b578063985df3a714610390578063b7eb96cc146103b1578063be926c80146103d8578063e3913d6c146103f9578063e5c8b03d14610487578063eaab1c701461049c578063eb12d61e146104bd578063ed7457f8146104de578063fd8e1a7514610505575b600080fd5b3480156100dd57600080fd5b506100f8600160a060020a036004351660ff6024351661052c565b6040518082606080838360005b8381101561011d578181015183820152602001610105565b5050505090500191505060405180910390f35b34801561013c57600080fd5b506040805160c08082019092526101cb9160048035600160a060020a031692369260e49190602490600690839083908082843750506040805160c081810190925294979695818101959450925060069150839083908082843750506040805160c08181019092529497969581810195945092506006915083908390808284375093965061057695505050505050565b005b3480156101d957600080fd5b506101f4600160a060020a036004351660ff60243516610659565b6040518084606080838360005b83811015610219578181015183820152602001610201565b5050505090500183600460200280838360005b8381101561024457818101518382015260200161022c565b5050505090500182600460200280838360005b8381101561026f578181015183820152602001610257565b50505050905001935050505060405180910390f35b34801561029057600080fd5b506101cb600160a060020a0360043516610700565b3480156102b157600080fd5b506101f4600160a060020a036004351660ff60243516610743565b3480156102d857600080fd5b506040805160c08181019092526101cb91369160049160c491908390600690839083908082843750506040805160c081810190925294979695818101959450925060069150839083908082843750506040805160c081810190925294979695818101959450925060069150839083908082843750939650610a6195505050505050565b34801561036757600080fd5b5061037c600160a060020a0360043516610b48565b604080519115158252519081900360200190f35b34801561039c57600080fd5b506101cb600160a060020a0360043516610b60565b3480156103bd57600080fd5b506101f4600160a060020a036004351660ff60243516610ba3565b3480156103e457600080fd5b506101cb600160a060020a0360043516610c96565b34801561040557600080fd5b5061041a600160a060020a0360043516610cd9565b604051808460c080838360005b8381101561043f578181015183820152602001610427565b5050505090500183600660200280838360005b8381101561046a578181015183820152602001610452565b505086519290940191825250915083905060c08083836020610257565b34801561049357600080fd5b506101cb610dc5565b3480156104a857600080fd5b506101cb600160a060020a0360043516610dd8565b3480156104c957600080fd5b506101cb600160a060020a0360043516610e1b565b3480156104ea57600080fd5b506101f4600160a060020a036004351660ff60243516610e77565b34801561051157600080fd5b506101f4600160a060020a036004351660ff602435166115fa565b6105346118ff565b600061053e6118ff565b600160a060020a038516600090815260016020526040902091508160ff85166003811061056757fe5b60060201548152949350505050565b600061058133610b48565b151561058c57600080fd5b50600160a060020a03939093166000908152600160208181526040928390208551815585820151818401558584015160028201556060808701516003830155608080880151600484015560a09788015160058401558651600684015586840151600784015586860151600884015586820151600984015586810151600a84015595870151600b8301558751600c83015591870151600d82015592860151600e840155850151600f83015591840151601082015591909201516011820155601201805460ff19169091179055565b6106616118ff565b61066961191e565b61067161191e565b600160a060020a03851660009081526001602052604090208060ff86166003811061069857fe5b600602015484528060ff8616600381106106ae57fe5b60060201600101548460016003811015156106c557fe5b60200201528060ff8616600381106106d957fe5b60060201600201548460026003811015156106f057fe5b6020020152509194909350909150565b61070933610b48565b151561071457600080fd5b6005805473ffffffffffffffffffffffffffffffffffffffff1916600160a060020a0392909216919091179055565b61074b6118ff565b61075361191e565b61075b61191e565b600061076561191e565b61076d6118ff565b600160a060020a0388166000908152600160205260409020601281015490935060ff16151561079b57600080fd5b8260ff8816600381106107aa57fe5b600602015486528260ff8816600381106107c057fe5b60060201600101548660016003811015156107d757fe5b60200201528260ff8816600381106107eb57fe5b600602016002015486600260038110151561080257fe5b602002015260038054600160a060020a0316906321d8011190859060ff8b1690811061082a57fe5b60060201600001546040518263ffffffff1660e060020a02815260040180828152602001915050600060405180830381600087803b15801561086b57600080fd5b505af115801561087f573d6000803e3d6000fd5b505050506040513d6000823e601f3d908101601f191682016040526101208110156108a957600080fd5b8151602083015160408401516060850151608086015160a087015160c088015160e089018051979996989597949693959294919392830192916401000000008111156108f457600080fd5b8201602081018481111561090757600080fd5b815164010000000081118282018710171561092157600080fd5b5050929190602001805164010000000081111561093d57600080fd5b8201602081018481111561095057600080fd5b815164010000000081118282018710171561096a57600080fd5b509a9b5098995096975094955092935090915088905060006020020188600160200201896002602002018a6003602002018a6000602002018e600361ffff978816602091909102919091015295909416909452600194850b850b90925293830b830b90915292810b810b90925291810b900b90528160006020020151856000602002018051909101600190810b810b90915282906020020151856001602002018051909101600190810b900b90528160026020020151856002602002018051909101600190810b900b90528160036020020151856003602002018181510191509060010b908160010b815250505050509250925092565b6000610a6d3385611646565b610a773384611646565b610a813383611646565b50336000908152600160205260409020601281015460ff161515610aa457600080fd5b83518155602080850151600183015560408086015160028401556060808701516003850155608080880151600486015560a09788015160058601558651600686015586840151600786015586830151600886015586820151600986015586810151600a86015595870151600b8501558451600c85015591840151600d840155830151600e830155820151600f82015591810151601083015590910151601190910155565b6000610b5a818363ffffffff61185716565b92915050565b610b6933610b48565b1515610b7457600080fd5b6002805473ffffffffffffffffffffffffffffffffffffffff1916600160a060020a0392909216919091179055565b610bab6118ff565b610bb361191e565b610bbb61191e565b610bc361193d565b600160a060020a038616600090815260016020526040808220815160a0810183529290918391908201908390600390835b82821015610c595783826006020160c06040519081016040529081600082015481526020016001820154815260200160028201548152602001600382015481526020016004820154815260200160058201548152505081526020019060010190610bf4565b505050908252506012919091015460ff90811615156020909201919091528151919250861660038110610c8857fe5b6020020151518460006106f0565b610c9f33610b48565b1515610caa57600080fd5b6003805473ffffffffffffffffffffffffffffffffffffffff1916600160a060020a0392909216919091179055565b610ce161195f565b610ce961195f565b610cf161195f565b600160a060020a039390931660009081526001602081815260409283902080548652918201548582015260028201548584015260038201546060808701919091526004830154608080880191909152600584015460a08089019190915260068501548752600785015487850152600885015487870152600985015487840152600a85015487830152600b85015487820152600c8501548952600d85015493890193909352600e84015494880194909452600f8301549087015260108201549286019290925260110154908401529092909190565b610dd660003363ffffffff61188e16565b565b610de133610b48565b1515610dec57600080fd5b6004805473ffffffffffffffffffffffffffffffffffffffff1916600160a060020a0392909216919091179055565b610e2433610b48565b1515610e2f57600080fd5b610e4060008263ffffffff6118c516565b604051600160a060020a038216907f47d1c22a25bb3a5d4e481b9b1e6944c2eade3181a0a20b495ed61d35b5323f2490600090a250565b610e7f6118ff565b610e8761191e565b610e8f61191e565b6000610e9961191e565b610ea16118ff565b600160a060020a0388166000908152600160205260409020601281015490935060ff161515610ecf57600080fd5b8260ff881660038110610ede57fe5b600602015486528260ff881660038110610ef457fe5b6006020160010154866001600381101515610f0b57fe5b60200201528260ff881660038110610f1f57fe5b6006020160020154866002600381101515610f3657fe5b602002015260038054600160a060020a0316906321d8011190859060ff8b16908110610f5e57fe5b60060201600001546040518263ffffffff1660e060020a02815260040180828152602001915050600060405180830381600087803b158015610f9f57600080fd5b505af1158015610fb3573d6000803e3d6000fd5b505050506040513d6000823e601f3d908101601f19168201604052610120811015610fdd57600080fd5b8151602083015160408401516060850151608086015160a087015160c088015160e0890180519799969895979496939592949193928301929164010000000081111561102857600080fd5b8201602081018481111561103b57600080fd5b815164010000000081118282018710171561105557600080fd5b5050929190602001805164010000000081111561107157600080fd5b8201602081018481111561108457600080fd5b815164010000000081118282018710171561109e57600080fd5b509a9b5098995096975094955092935090915088905060006020020188600160200201896002602002018a6003602002018a6000602002018e600361ffff978816602091909102919091015295909416909452600194850b850b90925293830b830b90915292810b810b90925291810b900b90528160006020020151856000602002018051909101600190810b810b90915282906020020151856001602002018051909101600190810b900b90528160026020020151856002602002018051909101600190810b900b90528160036020020151856003602002018051909101600190810b900b9052600554600160a060020a031663f61eab7a8460ff8a16600381106111a657fe5b60060201600101546040518263ffffffff1660e060020a02815260040180828152602001915050600060405180830381600087803b1580156111e757600080fd5b505af11580156111fb573d6000803e3d6000fd5b505050506040513d6000823e601f3d908101601f1916820160405260e081101561122457600080fd5b8151602083015160408401516060850151608086015160a087015160c088018051969895979496939592949193918301929164010000000081111561126857600080fd5b8201602081018481111561127b57600080fd5b815164010000000081118282018710171561129557600080fd5b5098995096975094955092935090915087905060006020020187600160200201886002602002018960036020020189600161ffff9096166020969096020194909452600194850b850b90935293830b830b90915292810b810b90915291820b90910b90528160006020020151856000602002018051909101600190810b810b90915282906020020151856001602002018051909101600190810b900b90528160026020020151856002602002018051909101600190810b900b90528160036020020151856003602002018051909101600190810b900b9052600554600160a060020a031663f61eab7a8460ff8a166003811061138d57fe5b60060201600201546040518263ffffffff1660e060020a02815260040180828152602001915050600060405180830381600087803b1580156113ce57600080fd5b505af11580156113e2573d6000803e3d6000fd5b505050506040513d6000823e601f3d908101601f1916820160405260e081101561140b57600080fd5b8151602083015160408401516060850151608086015160a087015160c088018051969895979496939592949193918301929164010000000081111561144f57600080fd5b8201602081018481111561146257600080fd5b815164010000000081118282018710171561147c57600080fd5b5098995096975094955092935090915087905060006020020187600160200201886002602002018960036020020189600261ffff9096166020969096020194909452600194850b850b90935293830b830b90915292810b810b90915291820b90910b90528160006020020151856000602002018051909101600190810b810b90915282906020020151856001602002018051909101600190810b900b90528160026020020151856002602002018051909101600190810b900b90528160036020020151856003602002018051909101600190810b900b9052808360ff89166003811061156457fe5b600602016003015460038110151561157857fe5b602002015161ffff168452808360ff89166003811061159357fe5b60060201600401546003811015156115a757fe5b6020908102919091015161ffff1690850152808360ff8916600381106115c957fe5b60060201600501546003811015156115dd57fe5b602002015161ffff16604085015250939692955090935090915050565b6116026118ff565b61160a61191e565b61161261191e565b600160a060020a03851660009081526001602052604090208060ff86166003811061163957fe5b60060201548460006106f0565b600254600160a060020a0316636352211e82600060200201516040518263ffffffff1660e060020a02815260040180828152602001915050602060405180830381600087803b15801561169857600080fd5b505af11580156116ac573d6000803e3d6000fd5b505050506040513d60208110156116c257600080fd5b5051600160a060020a038381169116146116db57600080fd5b600454600160a060020a0316636352211e82600160200201516040518263ffffffff1660e060020a02815260040180828152602001915050602060405180830381600087803b15801561172d57600080fd5b505af1158015611741573d6000803e3d6000fd5b505050506040513d602081101561175757600080fd5b5051600160a060020a0383811691161461177057600080fd5b600454600160a060020a0316636352211e82600260200201516040518263ffffffff1660e060020a02815260040180828152602001915050602060405180830381600087803b1580156117c257600080fd5b505af11580156117d6573d6000803e3d6000fd5b505050506040513d60208110156117ec57600080fd5b5051600160a060020a0383811691161461180557600080fd5b60a081015160808201516060830151010160031461182257600080fd5b8060056020020151600101816004602002015160010182600360200201516001010202600614151561185357600080fd5b5050565b6000600160a060020a038216151561186e57600080fd5b50600160a060020a03166000908152602091909152604090205460ff1690565b600160a060020a03811615156118a357600080fd5b600160a060020a0316600090815260209190915260409020805460ff19169055565b600160a060020a03811615156118da57600080fd5b600160a060020a0316600090815260209190915260409020805460ff19166001179055565b6060604051908101604052806003906020820280388339509192915050565b6080604051908101604052806004906020820280388339509192915050565b6102606040519081016040528061195261197e565b8152600060209091015290565b60c0604051908101604052806006906020820280388339509192915050565b610240604051908101604052806003905b6119976119ad565b81526020019060019003908161198f5790505090565b60c06040519081016040528060008152602001600081526020016000815260200160008152602001600081526020016000815250905600a165627a7a72305820953416bf1f7c00646c291a40803532a8a7d33179206bd752e42b306e9b7bb79c0029",
  "source": "pragma solidity 0.4.24;\n\nimport \"../hero/HeroAsset.sol\";\nimport \"../hero/Hero.sol\";\nimport \"../extension/ExtensionAsset.sol\";\nimport \"../extension/Extension.sol\";\nimport \"../lib/openzeppelin-solidity/contracts/access/roles/SignerRole.sol\";\n\n\ncontract DeckManager is SignerRole {\n\n    mapping(address => Deck) decks;\n\n    HeroAsset heroAsset;\n    Hero hero;\n    ExtensionAsset extensionAsset;\n    Extension extension;\n\n    struct Deck {\n        Unit[3] units;\n        bool exists;\n    }\n\n    struct Unit {\n        uint256 hero;\n        uint256 extension1;\n        uint256 extension2;\n        uint256 skillOrder1;\n        uint256 skillOrder2;\n        uint256 skillOrder3;\n    }\n    \n    function setHeroAssetAddress(address _heroAssetAddress) public onlySigner {\n        heroAsset = HeroAsset(_heroAssetAddress);\n    }\n\n    function setHeroAddress(address _heroAddress) public onlySigner {\n        hero = Hero(_heroAddress);\n    }\n\n    function setExtensionAssetAddress(address _extensionAssetAddress) public onlySigner {\n        extensionAsset = ExtensionAsset(_extensionAssetAddress);\n    }\n\n    function setExtensionAddress(address _extensionAddress) public onlySigner {\n        extension = Extension(_extensionAddress);\n    }\n    \n    function setInitialDeck(\n        address _address,\n        uint256[6] _unit1,\n        uint256[6] _unit2,\n        uint256[6] _unit3\n    ) public onlySigner {\n        Deck storage deck = decks[_address];\n\n        deck.units[0].hero = _unit1[0];\n        deck.units[0].extension1 = _unit1[1];\n        deck.units[0].extension2 = _unit1[2];\n        deck.units[0].skillOrder1 = _unit1[3];\n        deck.units[0].skillOrder2 = _unit1[4];\n        deck.units[0].skillOrder3 = _unit1[5];\n\n        deck.units[1].hero = _unit2[0];\n        deck.units[1].extension1 = _unit2[1];\n        deck.units[1].extension2 = _unit2[2];\n        deck.units[1].skillOrder1 = _unit2[3];\n        deck.units[1].skillOrder2 = _unit2[4];\n        deck.units[1].skillOrder3 = _unit2[5];\n\n        deck.units[2].hero = _unit3[0];\n        deck.units[2].extension1 = _unit3[1];\n        deck.units[2].extension2 = _unit3[2];\n        deck.units[2].skillOrder1 = _unit3[3];\n        deck.units[2].skillOrder2 = _unit3[4];\n        deck.units[2].skillOrder3 = _unit3[5];\n\n        deck.exists = true;\n    }\n\n    function setDeck(\n        uint256[6] _unit1,\n        uint256[6] _unit2,\n        uint256[6] _unit3\n    ) public {\n        check(msg.sender, _unit1);\n        check(msg.sender, _unit2);\n        check(msg.sender, _unit3);\n\n        Deck storage deck = decks[msg.sender];\n        require(deck.exists);\n\n        deck.units[0].hero = _unit1[0];\n        deck.units[0].extension1 = _unit1[1];\n        deck.units[0].extension2 = _unit1[2];\n        deck.units[0].skillOrder1 = _unit1[3];\n        deck.units[0].skillOrder2 = _unit1[4];\n        deck.units[0].skillOrder3 = _unit1[5];\n\n        deck.units[1].hero = _unit2[0];\n        deck.units[1].extension1 = _unit2[1];\n        deck.units[1].extension2 = _unit2[2];\n        deck.units[1].skillOrder1 = _unit2[3];\n        deck.units[1].skillOrder2 = _unit2[4];\n        deck.units[1].skillOrder3 = _unit2[5];\n\n        deck.units[2].hero = _unit3[0];\n        deck.units[2].extension1 = _unit3[1];\n        deck.units[2].extension2 = _unit3[2];\n        deck.units[2].skillOrder1 = _unit3[3];\n        deck.units[2].skillOrder2 = _unit3[4];\n        deck.units[2].skillOrder3 = _unit3[5];\n    }\n\n    function check (\n        address _owner, uint256[6] _unit\n    ) internal view {\n        require(_owner == heroAsset.ownerOf(_unit[0]));\n        require(_owner == extensionAsset.ownerOf(_unit[1]));\n        require(_owner == extensionAsset.ownerOf(_unit[2]));\n        require(_unit[3] + _unit[4] + _unit[5] == 3);\n        require((_unit[3] + 1) * (_unit[4] + 1 ) * (_unit[5] + 1) == 6);\n    }\n\n    function checkDuplicate (\n        uint256[6] _unit1,\n        uint256[6] _unit2,\n        uint256[6] _unit3\n    ) internal view {\n        require(_unit1[0] != _unit2[0] && _unit2[0] != _unit3[0] && _unit3[0] != _unit1[0]);\n        require(_unit1[1] != _unit1[2] && _unit1[1] != _unit2[1] && _unit1[1] != _unit2[2] && _unit1[1] != _unit3[1] && _unit1[1] != _unit3[2]);\n        require(_unit1[2] != _unit2[1] && _unit1[2] != _unit2[2] && _unit1[2] != _unit3[1] && _unit1[2] != _unit3[2]);\n        require(_unit2[1] != _unit2[2] && _unit2[1] != _unit3[1] && _unit2[1] != _unit3[2]);\n        require(_unit2[2] != _unit3[1] && _unit2[2] != _unit3[2]);\n        require(_unit3[1] != _unit3[2]);\n    }    \n\n    function getDeck(address _address) public view returns (\n        uint256[6] unit1,\n        uint256[6] unit2,\n        uint256[6] unit3\n    ) {\n        Deck storage deck = decks[_address];\n\n        unit1[0] = deck.units[0].hero;\n        unit1[1] = deck.units[0].extension1;\n        unit1[2] = deck.units[0].extension2;\n        unit1[3] = deck.units[0].skillOrder1;\n        unit1[4] = deck.units[0].skillOrder2;\n        unit1[5] = deck.units[0].skillOrder3;\n        \n        unit2[0] = deck.units[1].hero;\n        unit2[1] = deck.units[1].extension1;\n        unit2[2] = deck.units[1].extension2;\n        unit2[3] = deck.units[1].skillOrder1;\n        unit2[4] = deck.units[1].skillOrder2;\n        unit2[5] = deck.units[1].skillOrder3;\n\n        unit3[0] = deck.units[2].hero;\n        unit3[1] = deck.units[2].extension1;\n        unit3[2] = deck.units[2].extension2;\n        unit3[3] = deck.units[2].skillOrder1;\n        unit3[4] = deck.units[2].skillOrder2;\n        unit3[5] = deck.units[2].skillOrder3;\n    }\n\n    function getUnit(address _address, uint8 _index) public view returns (\n        uint256[3] ids, int16[4] sumParams, uint16[4] skills\n    ) {\n        Deck storage deck = decks[_address];\n        require(deck.exists);\n\n        ids[0] = deck.units[_index].hero;\n        ids[1] = deck.units[_index].extension1;\n        ids[2] = deck.units[_index].extension2;\n\n        int16[4] memory params;\n        uint16[3] memory activeSkills;\n\n        (,params[0],params[1],params[2],params[3],activeSkills[0],skills[3],,) = hero.getHero(deck.units[_index].hero);\n        sumParams[0] += params[0]; sumParams[1] += params[1]; sumParams[2] += params[2]; sumParams[3] += params[3];\n\n        (,params[0],params[1],params[2],params[3],activeSkills[1],) = extension.getExtension(deck.units[_index].extension1);\n        sumParams[0] += params[0]; sumParams[1] += params[1]; sumParams[2] += params[2]; sumParams[3] += params[3];\n\n        (,params[0],params[1],params[2],params[3],activeSkills[2],) = extension.getExtension(deck.units[_index].extension2);\n        sumParams[0] += params[0]; sumParams[1] += params[1]; sumParams[2] += params[2]; sumParams[3] += params[3];\n        \n        skills[0] = activeSkills[deck.units[_index].skillOrder1];\n        skills[1] = activeSkills[deck.units[_index].skillOrder2];\n        skills[2] = activeSkills[deck.units[_index].skillOrder3];\n    }\n\n    function getUnit10(address _address, uint8 _index) public view returns (\n        uint256[3]\n    ) {\n        Deck storage deck = decks[_address];\n//        require(deck.exists);\n\n        uint256[3] memory ids;\n        ids[0] = deck.units[_index].hero;\n        return(ids);\n    }\n\n\n    function getUnit9(address _address, uint8 _index) public view returns (\n        uint256[3] ids, int16[4] sumParams, uint16[4] skills\n    ) {\n        Deck memory deck = decks[_address];\n//        require(deck.exists);\n\n        ids[0] = deck.units[_index].hero;\n    }\n\n    function getUnit0(address _address, uint8 _index) public view returns (\n        uint256[3] ids, int16[4] sumParams, uint16[4] skills\n    ) {\n        Deck storage deck = decks[_address];\n//        require(deck.exists);\n\n        ids[0] = deck.units[_index].hero;\n    }\n    \n    function getUnit1(address _address, uint8 _index) public view returns (\n        uint256[3] ids, int16[4] sumParams, uint16[4] skills\n    ) {\n        Deck storage deck = decks[_address];\n//        require(deck.exists);\n\n        ids[0] = deck.units[_index].hero;\n        ids[1] = deck.units[_index].extension1;\n        ids[2] = deck.units[_index].extension2;\n    }\n    \n    function getUnit2(address _address, uint8 _index) public view returns (\n        uint256[3] ids, int16[4] sumParams, uint16[4] skills\n    ) {\n        Deck storage deck = decks[_address];\n        require(deck.exists);\n\n        ids[0] = deck.units[_index].hero;\n        ids[1] = deck.units[_index].extension1;\n        ids[2] = deck.units[_index].extension2;\n\n        int16[4] memory params;\n        uint16[3] memory activeSkills;\n\n        (,params[0],params[1],params[2],params[3],activeSkills[0],skills[3],,) = hero.getHero(deck.units[_index].hero);\n        sumParams[0] += params[0]; sumParams[1] += params[1]; sumParams[2] += params[2]; sumParams[3] += params[3];\n    }\n\n    \n    \n    \n}",
  "sourcePath": "/Users/hironobu/devs/mch-beta/contracts/deck/DeckManager.sol",
  "compiler": {
    "name": "solc",
    "version": "0.4.24+commit.e67f0147.Emscripten.clang"
  },
  "schemaVersion": "2.0.1",
  "updatedAt": "2018-09-24T09:04:10.959Z"
}