{
  "contractName": "DeckManager",
  "abi": [
    {
      "constant": true,
      "inputs": [
        {
          "name": "account",
          "type": "address"
        }
      ],
      "name": "isSigner",
      "outputs": [
        {
          "name": "",
          "type": "bool"
        }
      ],
      "payable": false,
      "stateMutability": "view",
      "type": "function"
    },
    {
      "constant": false,
      "inputs": [],
      "name": "renounceSigner",
      "outputs": [],
      "payable": false,
      "stateMutability": "nonpayable",
      "type": "function"
    },
    {
      "constant": false,
      "inputs": [
        {
          "name": "account",
          "type": "address"
        }
      ],
      "name": "addSigner",
      "outputs": [],
      "payable": false,
      "stateMutability": "nonpayable",
      "type": "function"
    },
    {
      "anonymous": false,
      "inputs": [
        {
          "indexed": true,
          "name": "account",
          "type": "address"
        }
      ],
      "name": "SignerAdded",
      "type": "event"
    },
    {
      "anonymous": false,
      "inputs": [
        {
          "indexed": true,
          "name": "account",
          "type": "address"
        }
      ],
      "name": "SignerRemoved",
      "type": "event"
    },
    {
      "constant": false,
      "inputs": [
        {
          "name": "_heroAssetAddress",
          "type": "address"
        }
      ],
      "name": "setHeroAssetAddress",
      "outputs": [],
      "payable": false,
      "stateMutability": "nonpayable",
      "type": "function"
    },
    {
      "constant": false,
      "inputs": [
        {
          "name": "_heroAddress",
          "type": "address"
        }
      ],
      "name": "setHeroAddress",
      "outputs": [],
      "payable": false,
      "stateMutability": "nonpayable",
      "type": "function"
    },
    {
      "constant": false,
      "inputs": [
        {
          "name": "_extensionAssetAddress",
          "type": "address"
        }
      ],
      "name": "setExtensionAssetAddress",
      "outputs": [],
      "payable": false,
      "stateMutability": "nonpayable",
      "type": "function"
    },
    {
      "constant": false,
      "inputs": [
        {
          "name": "_extensionAddress",
          "type": "address"
        }
      ],
      "name": "setExtensionAddress",
      "outputs": [],
      "payable": false,
      "stateMutability": "nonpayable",
      "type": "function"
    },
    {
      "constant": false,
      "inputs": [
        {
          "name": "_address",
          "type": "address"
        },
        {
          "name": "_unit1",
          "type": "uint256[6]"
        },
        {
          "name": "_unit2",
          "type": "uint256[6]"
        },
        {
          "name": "_unit3",
          "type": "uint256[6]"
        }
      ],
      "name": "setInitialDeck",
      "outputs": [],
      "payable": false,
      "stateMutability": "nonpayable",
      "type": "function"
    },
    {
      "constant": false,
      "inputs": [
        {
          "name": "_unit1",
          "type": "uint256[6]"
        },
        {
          "name": "_unit2",
          "type": "uint256[6]"
        },
        {
          "name": "_unit3",
          "type": "uint256[6]"
        }
      ],
      "name": "setDeck",
      "outputs": [],
      "payable": false,
      "stateMutability": "nonpayable",
      "type": "function"
    },
    {
      "constant": true,
      "inputs": [
        {
          "name": "_address",
          "type": "address"
        }
      ],
      "name": "getDeck",
      "outputs": [
        {
          "name": "_unit1",
          "type": "uint256[6]"
        },
        {
          "name": "_unit2",
          "type": "uint256[6]"
        },
        {
          "name": "_unit3",
          "type": "uint256[6]"
        }
      ],
      "payable": false,
      "stateMutability": "view",
      "type": "function"
    },
    {
      "constant": true,
      "inputs": [
        {
          "name": "_address",
          "type": "address"
        },
        {
          "name": "_index",
          "type": "uint8"
        }
      ],
      "name": "getUnit",
      "outputs": [
        {
          "name": "ids",
          "type": "uint256[3]"
        },
        {
          "name": "sumParams",
          "type": "int16[4]"
        },
        {
          "name": "skills",
          "type": "uint16[4]"
        }
      ],
      "payable": false,
      "stateMutability": "view",
      "type": "function"
    }
  ],
  "bytecode": "0x608060405261001c6000336401000000006115f061002182021704565b61005b565b600160a060020a038116151561003657600080fd5b600160a060020a0316600090815260209190915260409020805460ff19166001179055565b6116b38061006a6000396000f3006080604052600436106100955763ffffffff60e060020a60003504166344ab91d4811461009a5780634c52e190146101375780637b0640e9146101585780637df73e27146101e7578063985df3a71461021c578063be926c801461023d578063e3913d6c1461025e578063e5c8b03d1461030f578063eaab1c7014610324578063eb12d61e14610345578063ed7457f814610366575b600080fd5b3480156100a657600080fd5b506040805160c08082019092526101359160048035600160a060020a031692369260e49190602490600690839083908082843750506040805160c081810190925294979695818101959450925060069150839083908082843750506040805160c0818101909252949796958181019594509250600691508390839080828437509396506103fa95505050505050565b005b34801561014357600080fd5b50610135600160a060020a03600435166104f3565b34801561016457600080fd5b506040805160c081810190925261013591369160049160c491908390600690839083908082843750506040805160c081810190925294979695818101959450925060069150839083908082843750506040805160c08181019092529497969581810195945092506006915083908390808284375093965061053695505050505050565b3480156101f357600080fd5b50610208600160a060020a036004351661061a565b604080519115158252519081900360200190f35b34801561022857600080fd5b50610135600160a060020a0360043516610632565b34801561024957600080fd5b50610135600160a060020a0360043516610675565b34801561026a57600080fd5b5061027f600160a060020a03600435166106b8565b604051808460c080838360005b838110156102a457818101518382015260200161028c565b5050505090500183600660200280838360005b838110156102cf5781810151838201526020016102b7565b5050505090500182600660200280838360005b838110156102fa5781810151838201526020016102e2565b50505050905001935050505060405180910390f35b34801561031b57600080fd5b506101356107a4565b34801561033057600080fd5b50610135600160a060020a03600435166107b7565b34801561035157600080fd5b50610135600160a060020a03600435166107fa565b34801561037257600080fd5b5061038d600160a060020a036004351660ff60243516610856565b6040518084606080838360005b838110156103b257818101518382015260200161039a565b5050505090500183600460200280838360005b838110156103dd5781810151838201526020016103c5565b5050865192909401918252509150839050608080838360206102e2565b60006104053361061a565b151561041057600080fd5b50600160a060020a0384166000908152600160205260409020601281015460ff161561043b57600080fd5b8351815560208085015160018084019190915560408087015160028501556060808801516003860155608080890151600487015560a09889015160058701558751600687015587850151600787015587830151600887015587820151600987015587810151600a87015596880151600b8601558551600c86015592850151600d850155840151600e84015590830151600f83015592820151601082015592015160118301556012909101805460ff1916909117905550565b6104fc3361061a565b151561050757600080fd5b6005805473ffffffffffffffffffffffffffffffffffffffff1916600160a060020a0392909216919091179055565b600061054184610eff565b61054a83610eff565b61055382610eff565b50336000908152600160205260409020601281015460ff16151561057657600080fd5b83518155602080850151600183015560408086015160028401556060808701516003850155608080880151600486015560a09788015160058601558651600686015586840151600786015586830151600886015586820151600986015586810151600a86015595870151600b8501558451600c85015591840151600d840155830151600e830155820151600f82015591810151601083015590910151601190910155565b600061062c818363ffffffff61158216565b92915050565b61063b3361061a565b151561064657600080fd5b6002805473ffffffffffffffffffffffffffffffffffffffff1916600160a060020a0392909216919091179055565b61067e3361061a565b151561068957600080fd5b6003805473ffffffffffffffffffffffffffffffffffffffff1916600160a060020a0392909216919091179055565b6106c061162a565b6106c861162a565b6106d061162a565b600160a060020a039390931660009081526001602081815260409283902080548652918201548582015260028201548584015260038201546060808701919091526004830154608080880191909152600584015460a08089019190915260068501548752600785015487850152600885015487870152600985015487840152600a85015487830152600b85015487820152600c8501548952600d85015493890193909352600e84015494880194909452600f8301549087015260108201549286019290925260110154908401529092909190565b6107b560003363ffffffff6115b916565b565b6107c03361061a565b15156107cb57600080fd5b6004805473ffffffffffffffffffffffffffffffffffffffff1916600160a060020a0392909216919091179055565b6108033361061a565b151561080e57600080fd5b61081f60008263ffffffff6115f016565b604051600160a060020a038216907f47d1c22a25bb3a5d4e481b9b1e6944c2eade3181a0a20b495ed61d35b5323f2490600090a250565b61085e611649565b610866611668565b61086e611668565b6000610878611668565b600160a060020a0387166000908152600160205260409020601281015490925060ff1615156108a657600080fd5b8160ff8716600381106108b557fe5b600602015485528160ff8716600381106108cb57fe5b60060201600101548560016003811015156108e257fe5b60200201528160ff8716600381106108f657fe5b600602016002015485600260038110151561090d57fe5b602002015260038054600160a060020a0316906321d8011190849060ff8a1690811061093557fe5b60060201600001546040518263ffffffff1660e060020a02815260040180828152602001915050600060405180830381600087803b15801561097657600080fd5b505af115801561098a573d6000803e3d6000fd5b505050506040513d6000823e601f3d908101601f191682016040526101208110156109b457600080fd5b8151602083015160408401516060850151608086015160a087015160c088015160e089018051979996989597949693959294919392830192916401000000008111156109ff57600080fd5b82016020810184811115610a1257600080fd5b8151640100000000811182820187101715610a2c57600080fd5b50509291906020018051640100000000811115610a4857600080fd5b82016020810184811115610a5b57600080fd5b8151640100000000811182820187101715610a7557600080fd5b509a9b5098995096975094955091935088925060009150610a939050565b61ffff9290921660608a810191909152600193840b840b81890190815294840b840b6040808a0191825296850b850b60208a810191825298860b860b948902939093019390935287518b5101840b840b8b529051958a018051909601830b830b909552519288018051909301810b810b909252519186018051909201810b900b9052600554600160a060020a031663f61eab7a8360ff891660038110610b3557fe5b60060201600101546040518263ffffffff1660e060020a02815260040180828152602001915050600060405180830381600087803b158015610b7657600080fd5b505af1158015610b8a573d6000803e3d6000fd5b505050506040513d6000823e601f3d908101601f1916820160405260e0811015610bb357600080fd5b8151602083015160408401516060850151608086015160a087015160c0880180519698959794969395929491939183019291640100000000811115610bf757600080fd5b82016020810184811115610c0a57600080fd5b8151640100000000811182820187101715610c2457600080fd5b5098995096975094955092935087925060009150610c3f9050565b600192830b830b606080890191825294840b840b6040808a0191825296850b850b60208a810191825298860b860b938902949094019290925287518b5101840b840b8b529151958a018051909601830b830b90955293519288018051909301810b810b90925291519186018051909201810b900b9052600554600160a060020a031663f61eab7a8360ff891660038110610cd557fe5b60060201600201546040518263ffffffff1660e060020a02815260040180828152602001915050600060405180830381600087803b158015610d1657600080fd5b505af1158015610d2a573d6000803e3d6000fd5b505050506040513d6000823e601f3d908101601f1916820160405260e0811015610d5357600080fd5b8151602083015160408401516060850151608086015160a087015160c0880180519698959794969395929491939183019291640100000000811115610d9757600080fd5b82016020810184811115610daa57600080fd5b8151640100000000811182820187101715610dc457600080fd5b5098995096975094955092935087925060009150610ddf9050565b600192830b830b606080890191825294840b840b6040808a0191825296850b850b60208a810191825298860b860b938902949094019290925287518b5101840b840b8b529151958a018051909601830b830b90955293519288018051909301810b810b90925291519186018051909201810b900b90528160ff871660038110610e6457fe5b6006020160030154836000600481101515610e7b57fe5b61ffff90921660209290920201528160ff871660038110610e9857fe5b6006020160040154836001600481101515610eaf57fe5b61ffff90921660209290920201528160ff871660038110610ecc57fe5b6006020160050154836002600481101515610ee357fe5b602002019061ffff16908161ffff168152505050509250925092565b610f07611649565b610f0f611649565b6002548351604080517f6352211e000000000000000000000000000000000000000000000000000000008152600481019290925251600092839283928392600160a060020a031691636352211e91602480830192602092919082900301818787803b158015610f7d57600080fd5b505af1158015610f91573d6000803e3d6000fd5b505050506040513d6020811015610fa757600080fd5b5051600160a060020a03163314610fbd57600080fd5b600454600160a060020a0316636352211e88600160200201516040518263ffffffff1660e060020a02815260040180828152602001915050602060405180830381600087803b15801561100f57600080fd5b505af1158015611023573d6000803e3d6000fd5b505050506040513d602081101561103957600080fd5b5051600160a060020a0316331461104f57600080fd5b600454600160a060020a0316636352211e88600260200201516040518263ffffffff1660e060020a02815260040180828152602001915050602060405180830381600087803b1580156110a157600080fd5b505af11580156110b5573d6000803e3d6000fd5b505050506040513d60208110156110cb57600080fd5b5051600160a060020a031633146110e157600080fd5b600354600160a060020a03166321d8011188600060200201516040518263ffffffff1660e060020a02815260040180828152602001915050600060405180830381600087803b15801561113357600080fd5b505af1158015611147573d6000803e3d6000fd5b505050506040513d6000823e601f3d908101601f1916820160405261012081101561117157600080fd5b8151602083015160408401516060850151608086015160a087015160c088015160e089018051979996989597949693959294919392830192916401000000008111156111bc57600080fd5b820160208101848111156111cf57600080fd5b81516401000000008111828201871017156111e957600080fd5b5050929190602001805164010000000081111561120557600080fd5b8201602081018481111561121857600080fd5b815164010000000081118282018710171561123257600080fd5b505092919050505090919293949596975090919293949596509091929394955090919293945090919293508361ffff16935090915090505086600060038110151561127957fe5b6020020152600554600160a060020a031663f61eab7a88600160200201516040518263ffffffff1660e060020a02815260040180828152602001915050600060405180830381600087803b1580156112d057600080fd5b505af11580156112e4573d6000803e3d6000fd5b505050506040513d6000823e601f3d908101601f1916820160405260e081101561130d57600080fd5b8151602083015160408401516060850151608086015160a087015160c088018051969895979496939592949193918301929164010000000081111561135157600080fd5b8201602081018481111561136457600080fd5b815164010000000081118282018710171561137e57600080fd5b505061ffff90941698508e97506001965061139b95505050505050565b6020020152600554600160a060020a031663f61eab7a88600260200201516040518263ffffffff1660e060020a02815260040180828152602001915050600060405180830381600087803b1580156113f257600080fd5b505af1158015611406573d6000803e3d6000fd5b505050506040513d6000823e601f3d908101601f1916820160405260e081101561142f57600080fd5b8151602083015160408401516060850151608086015160a087015160c088018051969895979496939592949193918301929164010000000081111561147357600080fd5b8201602081018481111561148657600080fd5b81516401000000008111828201871017156114a057600080fd5b505061ffff90941698508e9750600296506114bd95505050505050565b6020020152600393505b60068460ff161015611579578660ff8516600681106114e257fe5b6020020151925060009150600090505b60038160ff161015611562578460ff82166003811061150d57fe5b60200201511580156115315750828660ff83166003811061152a57fe5b6020020151145b1561155a5760018560ff83166003811061154757fe5b9115156020909202015260019150611562565b6001016114f2565b81151561156e57600080fd5b6001909301926114c7565b50505050505050565b6000600160a060020a038216151561159957600080fd5b50600160a060020a03166000908152602091909152604090205460ff1690565b600160a060020a03811615156115ce57600080fd5b600160a060020a0316600090815260209190915260409020805460ff19169055565b600160a060020a038116151561160557600080fd5b600160a060020a0316600090815260209190915260409020805460ff19166001179055565b60c0604051908101604052806006906020820280388339509192915050565b6060604051908101604052806003906020820280388339509192915050565b60806040519081016040528060049060208202803883395091929150505600a165627a7a7230582010eb887000050f16e5de7916e4b1434a2b5fcaee05060f61405a296777c7c11d0029",
  "source": "pragma solidity 0.4.24;\n\nimport \"../hero/HeroAsset.sol\";\nimport \"../hero/Hero.sol\";\nimport \"../extension/ExtensionAsset.sol\";\nimport \"../extension/Extension.sol\";\nimport \"../lib/openzeppelin-solidity/contracts/access/roles/SignerRole.sol\";\n\n\ncontract DeckManager is SignerRole {\n\n    mapping(address => Deck) decks;\n\n    HeroAsset heroAsset;\n    Hero hero;\n    ExtensionAsset extensionAsset;\n    Extension extension;\n\n    struct Deck {\n        Unit[3] units;\n        bool exists;\n    }\n\n    struct Unit {\n        uint256 hero;\n        uint256 extension1;\n        uint256 extension2;\n        uint256 active1;\n        uint256 active2;\n        uint256 active3;\n    }\n    \n    function setHeroAssetAddress(address _heroAssetAddress) public onlySigner {\n        heroAsset = HeroAsset(_heroAssetAddress);\n    }\n\n    function setHeroAddress(address _heroAddress) public onlySigner {\n        hero = Hero(_heroAddress);\n    }\n\n    function setExtensionAssetAddress(address _extensionAssetAddress) public onlySigner {\n        extensionAsset = ExtensionAsset(_extensionAssetAddress);\n    }\n\n    function setExtensionAddress(address _extensionAddress) public onlySigner {\n        extension = Extension(_extensionAddress);\n    }\n    \n    function setInitialDeck(\n        address _address,\n        uint256[6] _unit1,\n        uint256[6] _unit2,\n        uint256[6] _unit3\n    ) public onlySigner {\n        Deck storage deck = decks[_address];\n        require(!deck.exists);\n\n        deck.units[0].hero = _unit1[0];\n        deck.units[0].extension1 = _unit1[1];\n        deck.units[0].extension2 = _unit1[2];\n        deck.units[0].active1 = _unit1[3];\n        deck.units[0].active2 = _unit1[4];\n        deck.units[0].active3 = _unit1[5];\n\n        deck.units[1].hero = _unit2[0];\n        deck.units[1].extension1 = _unit2[1];\n        deck.units[1].extension2 = _unit2[2];\n        deck.units[1].active1 = _unit2[3];\n        deck.units[1].active2 = _unit2[4];\n        deck.units[1].active3 = _unit2[5];\n\n        deck.units[2].hero = _unit3[0];\n        deck.units[2].extension1 = _unit3[1];\n        deck.units[2].extension2 = _unit3[2];\n        deck.units[2].active1 = _unit3[3];\n        deck.units[2].active2 = _unit3[4];\n        deck.units[2].active3 = _unit3[5];\n\n        deck.exists = true;\n    }\n\n    function setDeck(\n        uint256[6] _unit1,\n        uint256[6] _unit2,\n        uint256[6] _unit3\n    ) public {\n        check(_unit1);\n        check(_unit2);\n        check(_unit3);\n\n        Deck storage deck = decks[msg.sender];\n        require(deck.exists);\n\n        deck.units[0].hero = _unit1[0];\n        deck.units[0].extension1 = _unit1[1];\n        deck.units[0].extension2 = _unit1[2];\n        deck.units[0].active1 = _unit1[3];\n        deck.units[0].active2 = _unit1[4];\n        deck.units[0].active3 = _unit1[5];\n\n        deck.units[1].hero = _unit2[0];\n        deck.units[1].extension1 = _unit2[1];\n        deck.units[1].extension2 = _unit2[2];\n        deck.units[1].active1 = _unit2[3];\n        deck.units[1].active2 = _unit2[4];\n        deck.units[1].active3 = _unit2[5];\n\n        deck.units[2].hero = _unit3[0];\n        deck.units[2].extension1 = _unit3[1];\n        deck.units[2].extension2 = _unit3[2];\n        deck.units[2].active1 = _unit3[3];\n        deck.units[2].active2 = _unit3[4];\n        deck.units[2].active3 = _unit3[5];\n    }\n\n    function check (\n        uint256[6] _unit\n    ) internal view {\n        require(msg.sender == heroAsset.ownerOf(_unit[0]));\n        require(msg.sender == extensionAsset.ownerOf(_unit[1]));\n        require(msg.sender == extensionAsset.ownerOf(_unit[2]));\n        uint256[3] memory activeSkills;\n        (,,,,,activeSkills[0],,,) = hero.getHero(_unit[0]);\n        (,,,,,activeSkills[1],) = extension.getExtension(_unit[1]);\n        (,,,,,activeSkills[2],) = extension.getExtension(_unit[2]);\n        bool[3] memory used;\n        for (uint8 i = 3; i < 6; i++) {\n            uint256 activeSkill = _unit[i];\n            bool checked = false;\n            for (uint8 j = 0; j < 3; j++) {\n                if (!used[j] && activeSkills[j] == activeSkill) {\n                    used[j] = true;\n                    checked = true;\n                    break;\n                }\n            }\n            require(checked);\n        }\n    }\n\n    function getDeck(address _address) public view returns (\n        uint256[6] _unit1,\n        uint256[6] _unit2,\n        uint256[6] _unit3\n    ) {\n        Deck storage deck = decks[_address];\n\n        _unit1[0] = deck.units[0].hero;\n        _unit1[1] = deck.units[0].extension1;\n        _unit1[2] = deck.units[0].extension2;\n        _unit1[3] = deck.units[0].active1;\n        _unit1[4] = deck.units[0].active2;\n        _unit1[5] = deck.units[0].active3;\n        \n        _unit2[0] = deck.units[1].hero;\n        _unit2[1] = deck.units[1].extension1;\n        _unit2[2] = deck.units[1].extension2;\n        _unit2[3] = deck.units[1].active1;\n        _unit2[4] = deck.units[1].active2;\n        _unit2[5] = deck.units[1].active3;\n\n        _unit3[0] = deck.units[2].hero;\n        _unit3[1] = deck.units[2].extension1;\n        _unit3[2] = deck.units[2].extension2;\n        _unit3[3] = deck.units[2].active1;\n        _unit3[4] = deck.units[2].active2;\n        _unit3[5] = deck.units[2].active3;\n    }\n\n    function getUnit(address _address, uint8 _index) public view returns (\n        uint256[3] ids, int16[4] sumParams, uint16[4] skills\n    ) {\n        Deck storage deck = decks[_address];\n        require(deck.exists);\n\n        ids[0] = deck.units[_index].hero;\n        ids[1] = deck.units[_index].extension1;\n        ids[2] = deck.units[_index].extension2;\n\n        int16[4] memory params;\n\n        (,params[0],params[1],params[2],params[3],,skills[3],,) = hero.getHero(deck.units[_index].hero);\n        sumParams[0] += params[0]; sumParams[1] += params[1]; sumParams[2] += params[2]; sumParams[3] += params[3];\n\n        (,params[0],params[1],params[2],params[3],,) = extension.getExtension(deck.units[_index].extension1);\n        sumParams[0] += params[0]; sumParams[1] += params[1]; sumParams[2] += params[2]; sumParams[3] += params[3];\n\n        (,params[0],params[1],params[2],params[3],,) = extension.getExtension(deck.units[_index].extension2);\n        sumParams[0] += params[0]; sumParams[1] += params[1]; sumParams[2] += params[2]; sumParams[3] += params[3];\n        \n        skills[0] = uint16(deck.units[_index].active1);\n        skills[1] = uint16(deck.units[_index].active2);\n        skills[2] = uint16(deck.units[_index].active3);\n    }\n}",
  "sourcePath": "/Users/hironobu/devs/mch-beta/contracts/deck/DeckManager.sol",
  "compiler": {
    "name": "solc",
    "version": "0.4.24+commit.e67f0147.Emscripten.clang"
  },
  "schemaVersion": "2.0.1",
  "updatedAt": "2018-09-23T10:28:17.338Z"
}