{
  "contractName": "Extension",
  "abi": [
    {
      "constant": true,
      "inputs": [],
      "name": "extensionManagerAddress",
      "outputs": [
        {
          "name": "",
          "type": "address"
        }
      ],
      "payable": false,
      "stateMutability": "view",
      "type": "function"
    },
    {
      "constant": false,
      "inputs": [
        {
          "name": "_type",
          "type": "uint16"
        },
        {
          "name": "_name",
          "type": "string"
        },
        {
          "name": "_hp",
          "type": "int16"
        },
        {
          "name": "_phy",
          "type": "int16"
        },
        {
          "name": "_intl",
          "type": "int16"
        },
        {
          "name": "_agi",
          "type": "int16"
        },
        {
          "name": "_activeSkillId",
          "type": "uint16"
        },
        {
          "name": "_rarity",
          "type": "uint16"
        }
      ],
      "name": "setExtensionType",
      "outputs": [],
      "payable": false,
      "stateMutability": "nonpayable",
      "type": "function"
    },
    {
      "constant": false,
      "inputs": [
        {
          "name": "account",
          "type": "address"
        }
      ],
      "name": "addMinter",
      "outputs": [],
      "payable": false,
      "stateMutability": "nonpayable",
      "type": "function"
    },
    {
      "constant": false,
      "inputs": [],
      "name": "renounceMinter",
      "outputs": [],
      "payable": false,
      "stateMutability": "nonpayable",
      "type": "function"
    },
    {
      "constant": true,
      "inputs": [
        {
          "name": "",
          "type": "uint16"
        },
        {
          "name": "",
          "type": "uint256"
        }
      ],
      "name": "extensionTypeIds",
      "outputs": [
        {
          "name": "",
          "type": "uint256"
        }
      ],
      "payable": false,
      "stateMutability": "view",
      "type": "function"
    },
    {
      "constant": true,
      "inputs": [
        {
          "name": "account",
          "type": "address"
        }
      ],
      "name": "isMinter",
      "outputs": [
        {
          "name": "",
          "type": "bool"
        }
      ],
      "payable": false,
      "stateMutability": "view",
      "type": "function"
    },
    {
      "constant": true,
      "inputs": [
        {
          "name": "_type",
          "type": "uint16"
        }
      ],
      "name": "getExtensionType",
      "outputs": [
        {
          "name": "name",
          "type": "string"
        },
        {
          "name": "hp",
          "type": "int16"
        },
        {
          "name": "phy",
          "type": "int16"
        },
        {
          "name": "intl",
          "type": "int16"
        },
        {
          "name": "agi",
          "type": "int16"
        },
        {
          "name": "activeSkillId",
          "type": "uint16"
        },
        {
          "name": "rarity",
          "type": "uint16"
        }
      ],
      "payable": false,
      "stateMutability": "view",
      "type": "function"
    },
    {
      "constant": true,
      "inputs": [],
      "name": "EXTENSION_TYPE_OFFSET",
      "outputs": [
        {
          "name": "",
          "type": "uint16"
        }
      ],
      "payable": false,
      "stateMutability": "view",
      "type": "function"
    },
    {
      "constant": true,
      "inputs": [
        {
          "name": "",
          "type": "uint16"
        }
      ],
      "name": "extensionTypes",
      "outputs": [
        {
          "name": "name",
          "type": "bytes"
        },
        {
          "name": "hp",
          "type": "int16"
        },
        {
          "name": "phy",
          "type": "int16"
        },
        {
          "name": "intl",
          "type": "int16"
        },
        {
          "name": "agi",
          "type": "int16"
        },
        {
          "name": "activeSkillId",
          "type": "uint16"
        },
        {
          "name": "rarity",
          "type": "uint16"
        },
        {
          "name": "exists",
          "type": "bool"
        }
      ],
      "payable": false,
      "stateMutability": "view",
      "type": "function"
    },
    {
      "constant": true,
      "inputs": [
        {
          "name": "",
          "type": "uint256"
        }
      ],
      "name": "extensions",
      "outputs": [
        {
          "name": "extensionType",
          "type": "uint16"
        },
        {
          "name": "hp",
          "type": "int16"
        },
        {
          "name": "phy",
          "type": "int16"
        },
        {
          "name": "intl",
          "type": "int16"
        },
        {
          "name": "agi",
          "type": "int16"
        },
        {
          "name": "activeSkillId",
          "type": "uint16"
        },
        {
          "name": "aliasName",
          "type": "bytes"
        },
        {
          "name": "exists",
          "type": "bool"
        }
      ],
      "payable": false,
      "stateMutability": "view",
      "type": "function"
    },
    {
      "anonymous": false,
      "inputs": [
        {
          "indexed": false,
          "name": "extensionType",
          "type": "uint16"
        },
        {
          "indexed": false,
          "name": "name",
          "type": "string"
        },
        {
          "indexed": false,
          "name": "hp",
          "type": "int16"
        },
        {
          "indexed": false,
          "name": "phy",
          "type": "int16"
        },
        {
          "indexed": false,
          "name": "intl",
          "type": "int16"
        },
        {
          "indexed": false,
          "name": "agi",
          "type": "int16"
        },
        {
          "indexed": false,
          "name": "activeSkillId",
          "type": "uint16"
        },
        {
          "indexed": false,
          "name": "rarity",
          "type": "uint16"
        }
      ],
      "name": "ExtensionTypeSetting",
      "type": "event"
    },
    {
      "anonymous": false,
      "inputs": [
        {
          "indexed": true,
          "name": "account",
          "type": "address"
        }
      ],
      "name": "MinterAdded",
      "type": "event"
    },
    {
      "anonymous": false,
      "inputs": [
        {
          "indexed": true,
          "name": "account",
          "type": "address"
        }
      ],
      "name": "MinterRemoved",
      "type": "event"
    },
    {
      "constant": false,
      "inputs": [
        {
          "name": "_extensionId",
          "type": "uint256"
        },
        {
          "name": "_aliasName",
          "type": "string"
        }
      ],
      "name": "setAliasName",
      "outputs": [],
      "payable": false,
      "stateMutability": "nonpayable",
      "type": "function"
    },
    {
      "constant": false,
      "inputs": [
        {
          "name": "_extensionId",
          "type": "uint256"
        }
      ],
      "name": "createExtension",
      "outputs": [],
      "payable": false,
      "stateMutability": "nonpayable",
      "type": "function"
    },
    {
      "constant": false,
      "inputs": [
        {
          "name": "_extensionId",
          "type": "uint256"
        }
      ],
      "name": "updateExtension",
      "outputs": [],
      "payable": false,
      "stateMutability": "nonpayable",
      "type": "function"
    },
    {
      "constant": true,
      "inputs": [
        {
          "name": "_extensionId",
          "type": "uint256"
        }
      ],
      "name": "getExtension",
      "outputs": [
        {
          "name": "extensionType",
          "type": "uint16"
        },
        {
          "name": "hp",
          "type": "int16"
        },
        {
          "name": "phy",
          "type": "int16"
        },
        {
          "name": "intl",
          "type": "int16"
        },
        {
          "name": "agi",
          "type": "int16"
        },
        {
          "name": "activeSkillId",
          "type": "uint16"
        },
        {
          "name": "aliasName",
          "type": "string"
        }
      ],
      "payable": false,
      "stateMutability": "view",
      "type": "function"
    },
    {
      "constant": true,
      "inputs": [
        {
          "name": "_extensionType",
          "type": "uint16"
        }
      ],
      "name": "getExtensionTypeLength",
      "outputs": [
        {
          "name": "",
          "type": "uint16"
        }
      ],
      "payable": false,
      "stateMutability": "view",
      "type": "function"
    }
  ],
  "bytecode": "0x608060405261001c60003364010000000061137261002182021704565b61005b565b600160a060020a038116151561003657600080fd5b600160a060020a0316600090815260209190915260409020805460ff19166001179055565b6115688061006a6000396000f3006080604052600436106100da5763ffffffff7c01000000000000000000000000000000000000000000000000000000006000350416632c6bc54c81146100df578063457ba5621461013f578063648adfb7146101705780638daf5a63146101885780638f19f797146101bb578063983b2d561461024e578063986502751461026f5780639905a15b14610284578063aa271e1a146102b5578063b7ec0ffb146102ea578063c0eac446146103d0578063c2975e45146103e5578063ce9547da146104d6578063db85d59c146104ee578063f61eab7a14610598575b600080fd5b3480156100eb57600080fd5b5060408051602060046024803582810135601f810185900485028601850190965285855261013d9583359536956044949193909101919081908401838280828437509497506106389650505050505050565b005b34801561014b57600080fd5b5061015461068d565b60408051600160a060020a039092168252519081900360200190f35b34801561017c57600080fd5b5061013d60043561069c565b34801561019457600080fd5b506101a461ffff600435166108fd565b6040805161ffff9092168252519081900360200190f35b3480156101c757600080fd5b5060408051602060046024803582810135601f810185900485028601850190965285855261013d95833561ffff1695369560449491939091019190819084018382808284375094975050508335600190810b95506020850135810b946040810135820b9450606081013590910b925061ffff60808201358116925060a09091013516610913565b34801561025a57600080fd5b5061013d600160a060020a0360043516610b42565b34801561027b57600080fd5b5061013d610b9e565b34801561029057600080fd5b506102a361ffff60043516602435610bb1565b60408051918252519081900360200190f35b3480156102c157600080fd5b506102d6600160a060020a0360043516610be1565b604080519115158252519081900360200190f35b3480156102f657600080fd5b5061030661ffff60043516610bf9565b60405180806020018860010b60010b81526020018760010b60010b81526020018660010b60010b81526020018560010b60010b81526020018461ffff1661ffff1681526020018361ffff1661ffff168152602001828103825289818151815260200191508051906020019080838360005b8381101561038f578181015183820152602001610377565b50505050905090810190601f1680156103bc5780820380516001836020036101000a031916815260200191505b509850505050505050505060405180910390f35b3480156103dc57600080fd5b506101a4610d94565b3480156103f157600080fd5b5061040161ffff60043516610d9a565b60405180806020018960010b60010b81526020018860010b60010b81526020018760010b60010b81526020018660010b60010b81526020018561ffff1661ffff1681526020018461ffff1661ffff1681526020018315151515815260200182810382528a818151815260200191508051906020019080838360005b8381101561049457818101518382015260200161047c565b50505050905090810190601f1680156104c15780820380516001836020036101000a031916815260200191505b50995050505050505050505060405180910390f35b3480156104e257600080fd5b5061013d600435610e99565b3480156104fa57600080fd5b50610506600435611126565b604051808961ffff1661ffff1681526020018860010b60010b81526020018760010b60010b81526020018660010b60010b81526020018560010b60010b81526020018461ffff1661ffff1681526020018060200183151515158152602001828103825284818151815260200191508051906020019080838360008381101561049457818101518382015260200161047c565b3480156105a457600080fd5b506105b060043561121d565b604051808861ffff1661ffff1681526020018760010b60010b81526020018660010b60010b81526020018560010b60010b81526020018460010b60010b81526020018361ffff1661ffff16815260200180602001828103825283818151815260200191508051906020019080838360008381101561038f578181015183820152602001610377565b600061064333610be1565b151561064e57600080fd5b5060008281526002602081905260409091209081015460ff16151561067257600080fd5b8151610687906001830190602085019061141a565b50505050565b600454600160a060020a031681565b6000806106a7611498565b6106b033610be1565b15156106bb57600080fd5b60008481526002602081905260409091209081015490935060ff1615156106e157600080fd5b612710840461ffff81166000908152600160208181526040928390208351815460026101009582161586026000190190911604601f8101849004909302810161012090810190955292830182815294965091939192849291849184018282801561078c5780601f106107615761010080835404028352916020019161078c565b820191906000526020600020905b81548152906001019060200180831161076f57829003601f168201915b505050918352505060019182015480830b830b830b6020830152620100008104830b830b830b60408301526401000000008104830b830b830b606083015266010000000000008104830b830b90920b608082015268010000000000000000820461ffff90811660a08301526a010000000000000000000083041660c08201526c0100000000000000000000000090910460ff16151560e091820152810151909150151561083857600080fd5b8254602082015160408301516060840151608085015160a09095015161ffff1990941661ffff9687161763ffff0000191662010000600194850b8816021765ffff00000000191664010000000092840b8716929092029190911767ffff0000000000001916660100000000000091830b8616919091021769ffff00000000000000001916680100000000000000009390910b841692909202919091176bffff0000000000000000000019166a0100000000000000000000929091169190910217905550565b61ffff1660009081526003602052604090205490565b600061091e33610be1565b151561092957600080fd5b5061ffff88166000908152600160209081526040909120885190916109529183918b019061141a565b50868160010160006101000a81548161ffff021916908360010b61ffff160217905550858160010160026101000a81548161ffff021916908360010b61ffff160217905550848160010160046101000a81548161ffff021916908360010b61ffff160217905550838160010160066101000a81548161ffff021916908360010b61ffff160217905550828160010160086101000a81548161ffff021916908361ffff1602179055508181600101600a6101000a81548161ffff021916908361ffff160217905550600181600101600c6101000a81548160ff0219169083151502179055507f5583df688785b42512bde12ec85e2e312660f3233e9d1a7b91080b759c0bc3888989898989898989604051808961ffff1661ffff168152602001806020018860010b60010b81526020018760010b60010b81526020018660010b60010b81526020018560010b60010b81526020018461ffff1661ffff1681526020018361ffff1661ffff168152602001828103825289818151815260200191508051906020019080838360005b83811015610af6578181015183820152602001610ade565b50505050905090810190601f168015610b235780820380516001836020036101000a031916815260200191505b50995050505050505050505060405180910390a1505050505050505050565b610b4b33610be1565b1515610b5657600080fd5b610b6760008263ffffffff61137216565b604051600160a060020a038216907f6ae172837ea30b801fbfcdd4108aa1d5bf8ff775444fd70256b44e6bf3dfc3f690600090a250565b610baf60003363ffffffff6113ac16565b565b600360205281600052604060002081815481101515610bcc57fe5b90600052602060002001600091509150505481565b6000610bf3818363ffffffff6113e316565b92915050565b6060600080600080600080610c0c611498565b61ffff89166000908152600160208181526040928390208351815460026101009582161586026000190190911604601f810184900490930281016101209081019095529283018281529293909284929091849190840182828015610cb15780601f10610c8657610100808354040283529160200191610cb1565b820191906000526020600020905b815481529060010190602001808311610c9457829003601f168201915b505050918352505060019182015480830b830b830b6020830152620100008104830b830b830b60408301526401000000008104830b830b830b606083015266010000000000008104830b830b90920b608082015268010000000000000000820461ffff90811660a08301526a010000000000000000000083041660c08201526c0100000000000000000000000090910460ff16151560e0918201528101519091501515610d5d57600080fd5b8051602082015160408301516060840151608085015160a086015160c090960151949e939d50919b50995097509195509350915050565b61271081565b60016020818152600092835260409283902080548451600294821615610100026000190190911693909304601f8101839004830284018301909452838352928391830182828015610e2c5780601f10610e0157610100808354040283529160200191610e2c565b820191906000526020600020905b815481529060010190602001808311610e0f57829003601f168201915b50505050600192830154919282810b92620100008104820b92506401000000008104820b9166010000000000008204900b9068010000000000000000810461ffff908116916a01000000000000000000008104909116906c01000000000000000000000000900460ff1688565b600080610ea4611498565b610ead33610be1565b1515610eb857600080fd5b60008481526002602081905260409091209081015490935060ff1615610edd57600080fd5b612710840461ffff81166000908152600160208181526040928390208351815460026101009582161586026000190190911604601f81018490049093028101610120908101909552928301828152949650919391928492918491840182828015610f885780601f10610f5d57610100808354040283529160200191610f88565b820191906000526020600020905b815481529060010190602001808311610f6b57829003601f168201915b505050918352505060019182015480830b830b830b6020830152620100008104830b830b830b60408301526401000000008104830b830b830b606083015266010000000000008104830b830b90920b608082015268010000000000000000820461ffff90811660a08301526a010000000000000000000083041660c08201526c0100000000000000000000000090910460ff16151560e091820152810151909150151561103457600080fd5b82546020828101516040808501516060860151608087015160a09097015161ffff9081166a0100000000000000000000026bffff00000000000000000000196001998a0b8316680100000000000000000269ffff000000000000000019948b0b841666010000000000000267ffff00000000000019968c0b85166401000000000265ffff0000000019998d0b8616620100000263ffff0000199e90961661ffff19909c168c179d909d1694909417979097169a909a1793909316171692909217959095161785556002909401805460ff1916831790556000908152600384529182208054918201815582529190200155565b600260208181526000928352604092839020805460018083018054875161010082851615026000190190911696909604601f810186900486028701860190975286865261ffff80841697620100008504840b976401000000008604850b9766010000000000008704860b9768010000000000000000880490960b966a010000000000000000000090049093169493909290919083018282801561120a5780601f106111df5761010080835404028352916020019161120a565b820191906000526020600020905b8154815290600101906020018083116111ed57829003601f168201915b5050506002909301549192505060ff1688565b60008060008060008060606112306114dc565b60008981526002602081815260409283902083516101008082018652825461ffff8082168452620100008204600190810b810b810b858801526401000000008304810b810b810b858a015266010000000000008304810b810b810b6060860152680100000000000000008304810b810b810b60808601526a01000000000000000000009092041660a084015280840180548851928116159093026000190190921695909504601f81018590048502860185019096528585529094919360c08601939092908301828280156113455780601f1061131a57610100808354040283529160200191611345565b820191906000526020600020905b81548152906001019060200180831161132857829003601f168201915b50505091835250506002919091015460ff16151560209091015260e08101519091501515610d5d57600080fd5b600160a060020a038116151561138757600080fd5b600160a060020a0316600090815260209190915260409020805460ff19166001179055565b600160a060020a03811615156113c157600080fd5b600160a060020a0316600090815260209190915260409020805460ff19169055565b6000600160a060020a03821615156113fa57600080fd5b50600160a060020a03166000908152602091909152604090205460ff1690565b828054600181600116156101000203166002900490600052602060002090601f016020900481019282601f1061145b57805160ff1916838001178555611488565b82800160010185558215611488579182015b8281111561148857825182559160200191906001019061146d565b5061149492915061151f565b5090565b6040805161010081018252606080825260006020830181905292820183905281018290526080810182905260a0810182905260c0810182905260e081019190915290565b604080516101008101825260008082526020820181905291810182905260608082018390526080820183905260a0820183905260c082015260e081019190915290565b61153991905b808211156114945760008155600101611525565b905600a165627a7a72305820b78957298d4b834483004d5b14c9b35e065a5080d4acb41bbdb56ad71df197b20029",
  "source": "pragma solidity 0.4.24;\n\nimport \"./ExtensionType.sol\";\n\n\ncontract Extension is ExtensionType {\n\n    uint16 public constant EXTENSION_TYPE_OFFSET = 10000;\n\n    mapping(uint256 => ExtensionData) public extensions;\n    mapping(uint16 => uint256[]) public extensionTypeIds;\n    address public extensionManagerAddress;\n\n    struct ExtensionData {\n        uint16 extensionType;\n        int16 hp;\n        int16 phy;\n        int16 intl;\n        int16 agi;\n        uint16 activeSkillId;\n        bytes  aliasName;\n        bool   exists;\n    }\n\n    function setAliasName(uint256 _extensionId, string _aliasName) public onlyMinter {\n        ExtensionData storage data = extensions[_extensionId];\n        require(data.exists);\n        data.aliasName = bytes(_aliasName);\n    }\n\n    function createExtension(uint256 _extensionId) public onlyMinter {\n        ExtensionData storage data = extensions[_extensionId];\n        require(!data.exists);\n        \n        uint16 _type = uint16(_extensionId / EXTENSION_TYPE_OFFSET);\n        ExtensionTypeData memory typeData = extensionTypes[_type];\n        require(typeData.exists);\n\n        data.extensionType = _type;\n        data.hp = typeData.hp;\n        data.phy = typeData.phy;\n        data.intl = typeData.intl;\n        data.agi = typeData.agi;\n        data.activeSkillId = typeData.activeSkillId;\n        data.exists = true;\n        \n        extensionTypeIds[_type].push(_extensionId);\n    } \n\n    function updateExtension(uint256 _extensionId) public onlyMinter {\n        ExtensionData storage data = extensions[_extensionId];\n        require(data.exists);\n        \n        uint16 _type = uint16(_extensionId / EXTENSION_TYPE_OFFSET);\n        ExtensionTypeData memory typeData = extensionTypes[_type];\n        require(typeData.exists);\n\n        data.extensionType = _type;\n        data.hp = typeData.hp;\n        data.phy = typeData.phy;\n        data.intl = typeData.intl;\n        data.agi = typeData.agi;\n        data.activeSkillId = typeData.activeSkillId;\n    } \n\n    function getExtension(uint256 _extensionId) public view returns (\n        uint16  extensionType,\n        int16   hp,\n        int16   phy,\n        int16   intl,\n        int16   agi,\n        uint16  activeSkillId,\n        string  aliasName\n    ) {\n        ExtensionData memory data = extensions[_extensionId];\n        require(data.exists);\n        extensionType = data.extensionType;\n        hp = data.hp;\n        phy = data.phy;\n        intl = data.intl;\n        agi = data.agi;\n        activeSkillId = data.activeSkillId;\n        aliasName = string(data.aliasName);\n    }\n\n    function getExtensionTypeLength(uint16 _extensionType) public view returns (uint16) {\n        return uint16(extensionTypeIds[_extensionType].length);\n    }\n\n}\n",
  "sourcePath": "/Users/hironobu/devs/mch-beta/contracts/extension/Extension.sol",
  "compiler": {
    "name": "solc",
    "version": "0.4.24+commit.e67f0147.Emscripten.clang"
  },
  "schemaVersion": "2.0.1",
  "updatedAt": "2018-10-01T07:55:27.781Z"
}