{
  "contractName": "ExtensionManager",
  "abi": [
    {
      "constant": true,
      "inputs": [],
      "name": "extension",
      "outputs": [
        {
          "name": "",
          "type": "address"
        }
      ],
      "payable": false,
      "stateMutability": "view",
      "type": "function"
    },
    {
      "constant": false,
      "inputs": [],
      "name": "renounceOwnership",
      "outputs": [],
      "payable": false,
      "stateMutability": "nonpayable",
      "type": "function"
    },
    {
      "constant": true,
      "inputs": [],
      "name": "owner",
      "outputs": [
        {
          "name": "",
          "type": "address"
        }
      ],
      "payable": false,
      "stateMutability": "view",
      "type": "function"
    },
    {
      "constant": true,
      "inputs": [],
      "name": "isOwner",
      "outputs": [
        {
          "name": "",
          "type": "bool"
        }
      ],
      "payable": false,
      "stateMutability": "view",
      "type": "function"
    },
    {
      "constant": false,
      "inputs": [
        {
          "name": "account",
          "type": "address"
        }
      ],
      "name": "addMinter",
      "outputs": [],
      "payable": false,
      "stateMutability": "nonpayable",
      "type": "function"
    },
    {
      "constant": false,
      "inputs": [],
      "name": "renounceMinter",
      "outputs": [],
      "payable": false,
      "stateMutability": "nonpayable",
      "type": "function"
    },
    {
      "constant": true,
      "inputs": [
        {
          "name": "account",
          "type": "address"
        }
      ],
      "name": "isMinter",
      "outputs": [
        {
          "name": "",
          "type": "bool"
        }
      ],
      "payable": false,
      "stateMutability": "view",
      "type": "function"
    },
    {
      "constant": true,
      "inputs": [],
      "name": "extensionAsset",
      "outputs": [
        {
          "name": "",
          "type": "address"
        }
      ],
      "payable": false,
      "stateMutability": "view",
      "type": "function"
    },
    {
      "constant": true,
      "inputs": [],
      "name": "EXTENSION_TYPE_OFFSET",
      "outputs": [
        {
          "name": "",
          "type": "uint16"
        }
      ],
      "payable": false,
      "stateMutability": "view",
      "type": "function"
    },
    {
      "constant": false,
      "inputs": [
        {
          "name": "newOwner",
          "type": "address"
        }
      ],
      "name": "transferOwnership",
      "outputs": [],
      "payable": false,
      "stateMutability": "nonpayable",
      "type": "function"
    },
    {
      "anonymous": false,
      "inputs": [
        {
          "indexed": true,
          "name": "account",
          "type": "address"
        }
      ],
      "name": "MinterAdded",
      "type": "event"
    },
    {
      "anonymous": false,
      "inputs": [
        {
          "indexed": true,
          "name": "account",
          "type": "address"
        }
      ],
      "name": "MinterRemoved",
      "type": "event"
    },
    {
      "anonymous": false,
      "inputs": [
        {
          "indexed": true,
          "name": "previousOwner",
          "type": "address"
        }
      ],
      "name": "OwnershipRenounced",
      "type": "event"
    },
    {
      "anonymous": false,
      "inputs": [
        {
          "indexed": true,
          "name": "previousOwner",
          "type": "address"
        },
        {
          "indexed": true,
          "name": "newOwner",
          "type": "address"
        }
      ],
      "name": "OwnershipTransferred",
      "type": "event"
    },
    {
      "constant": false,
      "inputs": [
        {
          "name": "_extensionAddress",
          "type": "address"
        }
      ],
      "name": "setExtensionAddress",
      "outputs": [],
      "payable": false,
      "stateMutability": "nonpayable",
      "type": "function"
    },
    {
      "constant": false,
      "inputs": [
        {
          "name": "_extensionAssetAddress",
          "type": "address"
        }
      ],
      "name": "setExtensionAssetAddress",
      "outputs": [],
      "payable": false,
      "stateMutability": "nonpayable",
      "type": "function"
    },
    {
      "constant": false,
      "inputs": [
        {
          "name": "_type",
          "type": "uint16"
        },
        {
          "name": "_name",
          "type": "string"
        },
        {
          "name": "_hp",
          "type": "int16"
        },
        {
          "name": "_phy",
          "type": "int16"
        },
        {
          "name": "_intl",
          "type": "int16"
        },
        {
          "name": "_agi",
          "type": "int16"
        },
        {
          "name": "_activeSkillId",
          "type": "uint16"
        },
        {
          "name": "_rarity",
          "type": "uint16"
        },
        {
          "name": "_supplyLimit",
          "type": "uint16"
        }
      ],
      "name": "setExtensionType",
      "outputs": [],
      "payable": false,
      "stateMutability": "nonpayable",
      "type": "function"
    },
    {
      "constant": false,
      "inputs": [
        {
          "name": "_owner",
          "type": "address"
        },
        {
          "name": "_extensionType",
          "type": "uint16"
        }
      ],
      "name": "mintExtensionByType",
      "outputs": [
        {
          "name": "",
          "type": "uint256"
        }
      ],
      "payable": false,
      "stateMutability": "nonpayable",
      "type": "function"
    },
    {
      "constant": false,
      "inputs": [
        {
          "name": "_owner",
          "type": "address"
        },
        {
          "name": "_extensionId",
          "type": "uint256"
        }
      ],
      "name": "mintExtension",
      "outputs": [],
      "payable": false,
      "stateMutability": "nonpayable",
      "type": "function"
    },
    {
      "constant": false,
      "inputs": [
        {
          "name": "_extensionId",
          "type": "uint256"
        },
        {
          "name": "_aliasName",
          "type": "string"
        }
      ],
      "name": "setAliasName",
      "outputs": [],
      "payable": false,
      "stateMutability": "nonpayable",
      "type": "function"
    }
  ],
  "bytecode": "0x608060405260008054600160a060020a0319163390811790915561003290600190640100000000610ade61003782021704565b610071565b600160a060020a038116151561004c57600080fd5b600160a060020a0316600090815260209190915260409020805460ff19166001179055565b610c2f806100806000396000f3006080604052600436106100e55763ffffffff7c01000000000000000000000000000000000000000000000000000000006000350416632c6bc54c81146100ea5780632d5537b01461014a578063488bc9b61461017b5780634c52e19014610214578063715018a6146102355780638da5cb5b1461024a5780638f32d59b1461025f578063983b2d561461028857806398650275146102a9578063a1064b82146102be578063a65b09f5146102f8578063aa271e1a1461031c578063bea78b8d1461033d578063c0eac44614610352578063eaab1c701461037e578063f2fde38b1461039f575b600080fd5b3480156100f657600080fd5b5060408051602060046024803582810135601f81018590048502860185019096528585526101489583359536956044949193909101919081908401838280828437509497506103c09650505050505050565b005b34801561015657600080fd5b5061015f610551565b60408051600160a060020a039092168252519081900360200190f35b34801561018757600080fd5b5060408051602060046024803582810135601f810185900485028601850190965285855261014895833561ffff1695369560449491939091019190819084018382808284375094975050508335600190810b95506020850135810b946040810135820b9450606081013590910b925061ffff60808201358116925060a082013581169160c0013516610560565b34801561022057600080fd5b50610148600160a060020a0360043516610741565b34801561024157600080fd5b50610148610783565b34801561025657600080fd5b5061015f6107eb565b34801561026b57600080fd5b506102746107fa565b604080519115158252519081900360200190f35b34801561029457600080fd5b50610148600160a060020a036004351661080b565b3480156102b557600080fd5b50610148610867565b3480156102ca57600080fd5b506102e6600160a060020a036004351661ffff6024351661087a565b60408051918252519081900360200190f35b34801561030457600080fd5b50610148600160a060020a036004351660243561094f565b34801561032857600080fd5b50610274600160a060020a0360043516610a4f565b34801561034957600080fd5b5061015f610a68565b34801561035e57600080fd5b50610367610a77565b6040805161ffff9092168252519081900360200190f35b34801561038a57600080fd5b50610148600160a060020a0360043516610a7d565b3480156103ab57600080fd5b50610148600160a060020a0360043516610abf565b600354604080517f6352211e000000000000000000000000000000000000000000000000000000008152600481018590529051600160a060020a0390921691636352211e916024808201926020929091908290030181600087803b15801561042757600080fd5b505af115801561043b573d6000803e3d6000fd5b505050506040513d602081101561045157600080fd5b5051600160a060020a0316331461046757600080fd5b600254604080517f2c6bc54c0000000000000000000000000000000000000000000000000000000081526004810185815260248201928352845160448301528451600160a060020a0390941693632c6bc54c938793879392606490910190602085019080838360005b838110156104e85781810151838201526020016104d0565b50505050905090810190601f1680156105155780820380516001836020036101000a031916815260200191505b509350505050600060405180830381600087803b15801561053557600080fd5b505af1158015610549573d6000803e3d6000fd5b505050505050565b600254600160a060020a031681565b61056933610a4f565b151561057457600080fd5b6002546040517f8f19f79700000000000000000000000000000000000000000000000000000000815261ffff808c166004830190815260018b810b810b60448501528a810b810b606485015289810b810b608485015288810b900b60a484015281871660c484015290851660e4830152610100602483019081528b516101048401528b51600160a060020a0390941693638f19f797938e938e938e938e938e938e938e938e93610124019060208b019080838360005b8381101561064257818101518382015260200161062a565b50505050905090810190601f16801561066f5780820380516001836020036101000a031916815260200191505b509950505050505050505050600060405180830381600087803b15801561069557600080fd5b505af11580156106a9573d6000803e3d6000fd5b5050600354604080517f6fa23f7300000000000000000000000000000000000000000000000000000000815261ffff808f166004830152861660248201529051600160a060020a039092169350636fa23f73925060448082019260009290919082900301818387803b15801561071e57600080fd5b505af1158015610732573d6000803e3d6000fd5b50505050505050505050505050565b6107496107fa565b151561075457600080fd5b6002805473ffffffffffffffffffffffffffffffffffffffff1916600160a060020a0392909216919091179055565b61078b6107fa565b151561079657600080fd5b60008054604051600160a060020a03909116917ff8df31144d9c2f0f6b59d69b8b98abd5459d07f2742c4df920b25aae33c6482091a26000805473ffffffffffffffffffffffffffffffffffffffff19169055565b600054600160a060020a031690565b600054600160a060020a0316331490565b61081433610a4f565b151561081f57600080fd5b61083060018263ffffffff610ade16565b604051600160a060020a038216907f6ae172837ea30b801fbfcdd4108aa1d5bf8ff775444fd70256b44e6bf3dfc3f690600090a250565b61087860013363ffffffff610b1816565b565b600080600061088833610a4f565b151561089357600080fd5b600254604080517f8daf5a6300000000000000000000000000000000000000000000000000000000815261ffff871660048201529051600160a060020a0390921691638daf5a63916024808201926020929091908290030181600087803b1580156108fd57600080fd5b505af1158015610911573d6000803e3d6000fd5b505050506040513d602081101561092757600080fd5b505160010191505061ffff8381166127100290821601610947858261094f565b949350505050565b61095833610a4f565b151561096357600080fd5b600254604080517fce9547da000000000000000000000000000000000000000000000000000000008152600481018490529051600160a060020a039092169163ce9547da9160248082019260009290919082900301818387803b1580156109c957600080fd5b505af11580156109dd573d6000803e3d6000fd5b5050600354604080517fd7455ec0000000000000000000000000000000000000000000000000000000008152600160a060020a03878116600483015260248201879052915191909216935063d7455ec09250604480830192600092919082900301818387803b15801561053557600080fd5b6000610a6260018363ffffffff610b4f16565b92915050565b600354600160a060020a031681565b61271081565b610a856107fa565b1515610a9057600080fd5b6003805473ffffffffffffffffffffffffffffffffffffffff1916600160a060020a0392909216919091179055565b610ac76107fa565b1515610ad257600080fd5b610adb81610b86565b50565b600160a060020a0381161515610af357600080fd5b600160a060020a0316600090815260209190915260409020805460ff19166001179055565b600160a060020a0381161515610b2d57600080fd5b600160a060020a0316600090815260209190915260409020805460ff19169055565b6000600160a060020a0382161515610b6657600080fd5b50600160a060020a03166000908152602091909152604090205460ff1690565b600160a060020a0381161515610b9b57600080fd5b60008054604051600160a060020a03808516939216917f8be0079c531659141344cd1fd0a4f28419497f9722a3daafe3b4186f6b6457e091a36000805473ffffffffffffffffffffffffffffffffffffffff1916600160a060020a03929092169190911790555600a165627a7a72305820a75c852625106a6d4eb450e2032107d59fd0d66123fe077b200f0e7ff8f70c6c0029",
  "source": "pragma solidity 0.4.24;\n\nimport \"./Extension.sol\";\nimport \"./ExtensionAsset.sol\";\nimport \"../lib/openzeppelin-solidity/contracts/ownership/Ownable.sol\";\nimport \"../lib/openzeppelin-solidity/contracts/access/roles/MinterRole.sol\";\n\n\ncontract ExtensionManager is Ownable, MinterRole {\n\n    uint16 public constant EXTENSION_TYPE_OFFSET = 10000;\n\n    Extension public extension;\n    ExtensionAsset public extensionAsset;\n\n    function setExtensionAddress(address _extensionAddress) public onlyOwner {\n        extension = Extension(_extensionAddress);\n    }\n\n    function setExtensionAssetAddress(address _extensionAssetAddress) public onlyOwner {\n        extensionAsset = ExtensionAsset(_extensionAssetAddress);\n    }\n\n    function setExtensionType(\n        uint16 _type,\n        string _name,\n        int16  _hp,\n        int16  _phy,\n        int16  _intl,\n        int16  _agi,\n        uint16 _activeSkillId,\n        uint16 _rarity,\n        uint16 _supplyLimit\n    ) public onlyMinter {\n        extension.setExtensionType(\n            _type,\n            _name,\n            _hp,\n            _phy,\n            _intl,\n            _agi,\n            _activeSkillId,\n            _rarity\n        );\n        extensionAsset.setSupplyLimit(_type, _supplyLimit);\n    }\n\n\n    function mintExtensionByType(address _owner, uint16 _extensionType) public onlyMinter returns (uint256) {\n        uint16 current = extension.getExtensionTypeLength(_extensionType);\n        current++;\n        uint256 _extensionId = uint256(_extensionType) * EXTENSION_TYPE_OFFSET + current;\n        mintExtension(_owner, _extensionId);\n        return _extensionId;\n    }    \n\n    function mintExtension(address _owner, uint256 _extensionId) public onlyMinter {\n        extension.createExtension(_extensionId);\n        extensionAsset.mintExtensionAsset(_owner, _extensionId);\n    }    \n\n    function setAliasName(uint256 _extensionId, string _aliasName) public {\n        require(msg.sender == extensionAsset.ownerOf(_extensionId));\n        extension.setAliasName(_extensionId, _aliasName);\n    }\n\n}\n",
  "sourcePath": "/Users/hironobu/devs/mch-beta/contracts/extension/ExtensionManager.sol",
  "compiler": {
    "name": "solc",
    "version": "0.4.24+commit.e67f0147.Emscripten.clang"
  },
  "schemaVersion": "2.0.1",
  "updatedAt": "2018-09-23T07:31:29.261Z"
}