{
  "contractName": "ExtensionAsset",
  "abi": [
    {
      "constant": true,
      "inputs": [
        {
          "name": "interfaceId",
          "type": "bytes4"
        }
      ],
      "name": "supportsInterface",
      "outputs": [
        {
          "name": "",
          "type": "bool"
        }
      ],
      "payable": false,
      "stateMutability": "view",
      "type": "function"
    },
    {
      "constant": true,
      "inputs": [],
      "name": "mintingFinished",
      "outputs": [
        {
          "name": "",
          "type": "bool"
        }
      ],
      "payable": false,
      "stateMutability": "view",
      "type": "function"
    },
    {
      "constant": true,
      "inputs": [],
      "name": "name",
      "outputs": [
        {
          "name": "",
          "type": "string"
        }
      ],
      "payable": false,
      "stateMutability": "view",
      "type": "function"
    },
    {
      "constant": true,
      "inputs": [
        {
          "name": "tokenId",
          "type": "uint256"
        }
      ],
      "name": "getApproved",
      "outputs": [
        {
          "name": "",
          "type": "address"
        }
      ],
      "payable": false,
      "stateMutability": "view",
      "type": "function"
    },
    {
      "constant": false,
      "inputs": [
        {
          "name": "to",
          "type": "address"
        },
        {
          "name": "tokenId",
          "type": "uint256"
        }
      ],
      "name": "approve",
      "outputs": [],
      "payable": false,
      "stateMutability": "nonpayable",
      "type": "function"
    },
    {
      "constant": true,
      "inputs": [],
      "name": "totalSupply",
      "outputs": [
        {
          "name": "",
          "type": "uint256"
        }
      ],
      "payable": false,
      "stateMutability": "view",
      "type": "function"
    },
    {
      "constant": false,
      "inputs": [
        {
          "name": "from",
          "type": "address"
        },
        {
          "name": "to",
          "type": "address"
        },
        {
          "name": "tokenId",
          "type": "uint256"
        }
      ],
      "name": "transferFrom",
      "outputs": [],
      "payable": false,
      "stateMutability": "nonpayable",
      "type": "function"
    },
    {
      "constant": true,
      "inputs": [
        {
          "name": "owner",
          "type": "address"
        },
        {
          "name": "index",
          "type": "uint256"
        }
      ],
      "name": "tokenOfOwnerByIndex",
      "outputs": [
        {
          "name": "",
          "type": "uint256"
        }
      ],
      "payable": false,
      "stateMutability": "view",
      "type": "function"
    },
    {
      "constant": false,
      "inputs": [],
      "name": "unpause",
      "outputs": [],
      "payable": false,
      "stateMutability": "nonpayable",
      "type": "function"
    },
    {
      "constant": false,
      "inputs": [
        {
          "name": "to",
          "type": "address"
        },
        {
          "name": "tokenId",
          "type": "uint256"
        }
      ],
      "name": "mint",
      "outputs": [
        {
          "name": "",
          "type": "bool"
        }
      ],
      "payable": false,
      "stateMutability": "nonpayable",
      "type": "function"
    },
    {
      "constant": false,
      "inputs": [
        {
          "name": "from",
          "type": "address"
        },
        {
          "name": "to",
          "type": "address"
        },
        {
          "name": "tokenId",
          "type": "uint256"
        }
      ],
      "name": "safeTransferFrom",
      "outputs": [],
      "payable": false,
      "stateMutability": "nonpayable",
      "type": "function"
    },
    {
      "constant": true,
      "inputs": [
        {
          "name": "account",
          "type": "address"
        }
      ],
      "name": "isPauser",
      "outputs": [
        {
          "name": "",
          "type": "bool"
        }
      ],
      "payable": false,
      "stateMutability": "view",
      "type": "function"
    },
    {
      "constant": true,
      "inputs": [
        {
          "name": "index",
          "type": "uint256"
        }
      ],
      "name": "tokenByIndex",
      "outputs": [
        {
          "name": "",
          "type": "uint256"
        }
      ],
      "payable": false,
      "stateMutability": "view",
      "type": "function"
    },
    {
      "constant": false,
      "inputs": [
        {
          "name": "to",
          "type": "address"
        },
        {
          "name": "tokenId",
          "type": "uint256"
        },
        {
          "name": "tokenURI",
          "type": "string"
        }
      ],
      "name": "mintWithTokenURI",
      "outputs": [
        {
          "name": "",
          "type": "bool"
        }
      ],
      "payable": false,
      "stateMutability": "nonpayable",
      "type": "function"
    },
    {
      "constant": true,
      "inputs": [],
      "name": "paused",
      "outputs": [
        {
          "name": "",
          "type": "bool"
        }
      ],
      "payable": false,
      "stateMutability": "view",
      "type": "function"
    },
    {
      "constant": true,
      "inputs": [
        {
          "name": "tokenId",
          "type": "uint256"
        }
      ],
      "name": "ownerOf",
      "outputs": [
        {
          "name": "",
          "type": "address"
        }
      ],
      "payable": false,
      "stateMutability": "view",
      "type": "function"
    },
    {
      "constant": false,
      "inputs": [],
      "name": "renouncePauser",
      "outputs": [],
      "payable": false,
      "stateMutability": "nonpayable",
      "type": "function"
    },
    {
      "constant": true,
      "inputs": [
        {
          "name": "owner",
          "type": "address"
        }
      ],
      "name": "balanceOf",
      "outputs": [
        {
          "name": "",
          "type": "uint256"
        }
      ],
      "payable": false,
      "stateMutability": "view",
      "type": "function"
    },
    {
      "constant": false,
      "inputs": [],
      "name": "finishMinting",
      "outputs": [
        {
          "name": "",
          "type": "bool"
        }
      ],
      "payable": false,
      "stateMutability": "nonpayable",
      "type": "function"
    },
    {
      "constant": false,
      "inputs": [
        {
          "name": "account",
          "type": "address"
        }
      ],
      "name": "addPauser",
      "outputs": [],
      "payable": false,
      "stateMutability": "nonpayable",
      "type": "function"
    },
    {
      "constant": false,
      "inputs": [],
      "name": "pause",
      "outputs": [],
      "payable": false,
      "stateMutability": "nonpayable",
      "type": "function"
    },
    {
      "constant": true,
      "inputs": [],
      "name": "symbol",
      "outputs": [
        {
          "name": "",
          "type": "string"
        }
      ],
      "payable": false,
      "stateMutability": "view",
      "type": "function"
    },
    {
      "constant": false,
      "inputs": [
        {
          "name": "account",
          "type": "address"
        }
      ],
      "name": "addMinter",
      "outputs": [],
      "payable": false,
      "stateMutability": "nonpayable",
      "type": "function"
    },
    {
      "constant": false,
      "inputs": [],
      "name": "renounceMinter",
      "outputs": [],
      "payable": false,
      "stateMutability": "nonpayable",
      "type": "function"
    },
    {
      "constant": false,
      "inputs": [
        {
          "name": "to",
          "type": "address"
        },
        {
          "name": "approved",
          "type": "bool"
        }
      ],
      "name": "setApprovalForAll",
      "outputs": [],
      "payable": false,
      "stateMutability": "nonpayable",
      "type": "function"
    },
    {
      "constant": true,
      "inputs": [
        {
          "name": "account",
          "type": "address"
        }
      ],
      "name": "isMinter",
      "outputs": [
        {
          "name": "",
          "type": "bool"
        }
      ],
      "payable": false,
      "stateMutability": "view",
      "type": "function"
    },
    {
      "constant": false,
      "inputs": [
        {
          "name": "from",
          "type": "address"
        },
        {
          "name": "to",
          "type": "address"
        },
        {
          "name": "tokenId",
          "type": "uint256"
        },
        {
          "name": "_data",
          "type": "bytes"
        }
      ],
      "name": "safeTransferFrom",
      "outputs": [],
      "payable": false,
      "stateMutability": "nonpayable",
      "type": "function"
    },
    {
      "constant": true,
      "inputs": [],
      "name": "tokenURIPrefix",
      "outputs": [
        {
          "name": "",
          "type": "string"
        }
      ],
      "payable": false,
      "stateMutability": "view",
      "type": "function"
    },
    {
      "constant": true,
      "inputs": [],
      "name": "EXTENSION_TYPE_OFFSET",
      "outputs": [
        {
          "name": "",
          "type": "uint16"
        }
      ],
      "payable": false,
      "stateMutability": "view",
      "type": "function"
    },
    {
      "constant": true,
      "inputs": [
        {
          "name": "owner",
          "type": "address"
        },
        {
          "name": "operator",
          "type": "address"
        }
      ],
      "name": "isApprovedForAll",
      "outputs": [
        {
          "name": "",
          "type": "bool"
        }
      ],
      "payable": false,
      "stateMutability": "view",
      "type": "function"
    },
    {
      "inputs": [],
      "payable": false,
      "stateMutability": "nonpayable",
      "type": "constructor"
    },
    {
      "anonymous": false,
      "inputs": [],
      "name": "Paused",
      "type": "event"
    },
    {
      "anonymous": false,
      "inputs": [],
      "name": "Unpaused",
      "type": "event"
    },
    {
      "anonymous": false,
      "inputs": [
        {
          "indexed": true,
          "name": "account",
          "type": "address"
        }
      ],
      "name": "PauserAdded",
      "type": "event"
    },
    {
      "anonymous": false,
      "inputs": [
        {
          "indexed": true,
          "name": "account",
          "type": "address"
        }
      ],
      "name": "PauserRemoved",
      "type": "event"
    },
    {
      "anonymous": false,
      "inputs": [],
      "name": "MintingFinished",
      "type": "event"
    },
    {
      "anonymous": false,
      "inputs": [
        {
          "indexed": true,
          "name": "account",
          "type": "address"
        }
      ],
      "name": "MinterAdded",
      "type": "event"
    },
    {
      "anonymous": false,
      "inputs": [
        {
          "indexed": true,
          "name": "account",
          "type": "address"
        }
      ],
      "name": "MinterRemoved",
      "type": "event"
    },
    {
      "anonymous": false,
      "inputs": [
        {
          "indexed": true,
          "name": "from",
          "type": "address"
        },
        {
          "indexed": true,
          "name": "to",
          "type": "address"
        },
        {
          "indexed": true,
          "name": "tokenId",
          "type": "uint256"
        }
      ],
      "name": "Transfer",
      "type": "event"
    },
    {
      "anonymous": false,
      "inputs": [
        {
          "indexed": true,
          "name": "owner",
          "type": "address"
        },
        {
          "indexed": true,
          "name": "approved",
          "type": "address"
        },
        {
          "indexed": true,
          "name": "tokenId",
          "type": "uint256"
        }
      ],
      "name": "Approval",
      "type": "event"
    },
    {
      "anonymous": false,
      "inputs": [
        {
          "indexed": true,
          "name": "owner",
          "type": "address"
        },
        {
          "indexed": true,
          "name": "operator",
          "type": "address"
        },
        {
          "indexed": false,
          "name": "approved",
          "type": "bool"
        }
      ],
      "name": "ApprovalForAll",
      "type": "event"
    },
    {
      "constant": false,
      "inputs": [
        {
          "name": "_extensionType",
          "type": "uint16"
        },
        {
          "name": "_supplyLimit",
          "type": "uint16"
        }
      ],
      "name": "setSupplyLimit",
      "outputs": [],
      "payable": false,
      "stateMutability": "nonpayable",
      "type": "function"
    },
    {
      "constant": false,
      "inputs": [
        {
          "name": "_tokenURIPrefix",
          "type": "string"
        }
      ],
      "name": "setTokenURIPrefix",
      "outputs": [],
      "payable": false,
      "stateMutability": "nonpayable",
      "type": "function"
    },
    {
      "constant": true,
      "inputs": [
        {
          "name": "_extensionType",
          "type": "uint16"
        }
      ],
      "name": "getSupplyLimit",
      "outputs": [
        {
          "name": "",
          "type": "uint16"
        }
      ],
      "payable": false,
      "stateMutability": "view",
      "type": "function"
    },
    {
      "constant": false,
      "inputs": [
        {
          "name": "_owner",
          "type": "address"
        },
        {
          "name": "_tokenId",
          "type": "uint256"
        }
      ],
      "name": "mintExtensionAsset",
      "outputs": [],
      "payable": false,
      "stateMutability": "nonpayable",
      "type": "function"
    },
    {
      "constant": true,
      "inputs": [
        {
          "name": "tokenId",
          "type": "uint256"
        }
      ],
      "name": "tokenURI",
      "outputs": [
        {
          "name": "",
          "type": "string"
        }
      ],
      "payable": false,
      "stateMutability": "view",
      "type": "function"
    }
  ],
  "bytecode": "0x600d805460ff19908116909155600f8054909116905560e0604052603260808190527f68747470733a2f2f7777772e6d7963727970746f6865726f65732e6e65742f6d60a09081527f657461646174612f657874656e73696f6e2f000000000000000000000000000060c0526200007a9160109190620002db565b503480156200008857600080fd5b50604080518082018252601881527f4d7943727970746f4865726f65733a457874656e73696f6e00000000000000006020808301919091528251808401909352600483527f4d4348450000000000000000000000000000000000000000000000000000000090830152908181620001287f01ffc9a70000000000000000000000000000000000000000000000000000000064010000000062000233810204565b6200015c7f80ac58cd0000000000000000000000000000000000000000000000000000000064010000000062000233810204565b620001907f780e9d630000000000000000000000000000000000000000000000000000000064010000000062000233810204565b8151620001a5906009906020850190620002db565b508051620001bb90600a906020840190620002db565b50620001f07f5b5e139f0000000000000000000000000000000000000000000000000000000064010000000062000233810204565b50620002129250600c915033905064010000000062001334620002a082021704565b6200022d600e3364010000000062001334620002a082021704565b62000380565b7fffffffff0000000000000000000000000000000000000000000000000000000080821614156200026357600080fd5b7fffffffff00000000000000000000000000000000000000000000000000000000166000908152602081905260409020805460ff19166001179055565b600160a060020a0381161515620002b657600080fd5b600160a060020a0316600090815260209190915260409020805460ff19166001179055565b828054600181600116156101000203166002900490600052602060002090601f016020900481019282601f106200031e57805160ff19168380011785556200034e565b828001600101855582156200034e579182015b828111156200034e57825182559160200191906001019062000331565b506200035c92915062000360565b5090565b6200037d91905b808211156200035c576000815560010162000367565b90565b611a9d80620003906000396000f3006080604052600436106101b65763ffffffff7c010000000000000000000000000000000000000000000000000000000060003504166301ffc9a781146101bb57806305d2035b1461020657806306fdde031461021b578063081812fc146102a5578063095ea7b3146102d957806318160ddd146102ff57806323b872dd146103265780632f745c59146103505780633f4ba83a1461037457806340c10f191461038957806342842e0e146103ad57806346fbf68e146103d75780634f6ccce7146103f857806350bb4e7f146104105780635c975abb146104795780636352211e1461048e5780636ef8d66d146104a65780636fa23f73146104bb57806370a08231146104dd5780637d64bcb4146104fe57806382dc1ec4146105135780638450b12e146105345780638456cb591461056757806395d89b411461057c578063983b2d561461059157806398650275146105b257806399e0dd7c146105c7578063a22cb465146105e7578063aa271e1a1461060d578063b88d4fde1461062e578063c0ac99831461069d578063c0eac446146106b2578063c87b56dd146106c7578063d7455ec0146106df578063e985e9c514610703575b600080fd5b3480156101c757600080fd5b506101f27bffffffffffffffffffffffffffffffffffffffffffffffffffffffff196004351661072a565b604080519115158252519081900360200190f35b34801561021257600080fd5b506101f261075e565b34801561022757600080fd5b50610230610768565b6040805160208082528351818301528351919283929083019185019080838360005b8381101561026a578181015183820152602001610252565b50505050905090810190601f1680156102975780820380516001836020036101000a031916815260200191505b509250505060405180910390f35b3480156102b157600080fd5b506102bd6004356107fe565b60408051600160a060020a039092168252519081900360200190f35b3480156102e557600080fd5b506102fd600160a060020a0360043516602435610830565b005b34801561030b57600080fd5b5061031461084e565b60408051918252519081900360200190f35b34801561033257600080fd5b506102fd600160a060020a0360043581169060243516604435610854565b34801561035c57600080fd5b50610314600160a060020a0360043516602435610874565b34801561038057600080fd5b506102fd6108c1565b34801561039557600080fd5b506101f2600160a060020a036004351660243561091b565b3480156103b957600080fd5b506102fd600160a060020a0360043581169060243516604435610954565b3480156103e357600080fd5b506101f2600160a060020a0360043516610970565b34801561040457600080fd5b50610314600435610989565b34801561041c57600080fd5b50604080516020600460443581810135601f81018490048402850184019095528484526101f2948235600160a060020a03169460248035953695946064949201919081908401838280828437509497506109be9650505050505050565b34801561048557600080fd5b506101f2610a03565b34801561049a57600080fd5b506102bd600435610a0c565b3480156104b257600080fd5b506102fd610a30565b3480156104c757600080fd5b506102fd61ffff60043581169060243516610a43565b3480156104e957600080fd5b50610314600160a060020a0360043516610a7b565b34801561050a57600080fd5b506101f2610aae565b34801561051f57600080fd5b506102fd600160a060020a0360043516610b10565b34801561054057600080fd5b5061055061ffff60043516610b6c565b6040805161ffff9092168252519081900360200190f35b34801561057357600080fd5b506102fd610b85565b34801561058857600080fd5b50610230610be1565b34801561059d57600080fd5b506102fd600160a060020a0360043516610c42565b3480156105be57600080fd5b506102fd610c9e565b3480156105d357600080fd5b506102fd6004803560248101910135610caf565b3480156105f357600080fd5b506102fd600160a060020a03600435166024351515610ccf565b34801561061957600080fd5b506101f2600160a060020a0360043516610ce9565b34801561063a57600080fd5b50604080516020601f6064356004818101359283018490048402850184019095528184526102fd94600160a060020a038135811695602480359092169560443595369560849401918190840183828082843750949750610cfc9650505050505050565b3480156106a957600080fd5b50610230610d24565b3480156106be57600080fd5b50610550610db2565b3480156106d357600080fd5b50610230600435610db8565b3480156106eb57600080fd5b506102fd600160a060020a0360043516602435610ff7565b34801561070f57600080fd5b506101f2600160a060020a03600435811690602435166110b5565b7bffffffffffffffffffffffffffffffffffffffffffffffffffffffff191660009081526020819052604090205460ff1690565b600d5460ff165b90565b60098054604080516020601f60026000196101006001881615020190951694909404938401819004810282018101909252828152606093909290918301828280156107f45780601f106107c9576101008083540402835291602001916107f4565b820191906000526020600020905b8154815290600101906020018083116107d757829003601f168201915b5050505050905090565b6000610809826110e3565b151561081457600080fd5b50600090815260026020526040902054600160a060020a031690565b600f5460ff161561084057600080fd5b61084a8282611100565b5050565b60075490565b600f5460ff161561086457600080fd5b61086f8383836111b6565b505050565b600061087f83610a7b565b821061088a57600080fd5b600160a060020a03831660009081526005602052604090208054839081106108ae57fe5b9060005260206000200154905092915050565b6108ca33610970565b15156108d557600080fd5b600f5460ff1615156108e657600080fd5b600f805460ff191690556040517fa45f47fdea8a1efdd9029a5691c7f759c32b7c698632b563573e155625d1693390600090a1565b600061092633610ce9565b151561093157600080fd5b600d5460ff161561094157600080fd5b61094b8383611244565b50600192915050565b61086f8383836020604051908101604052806000815250610cfc565b6000610983600e8363ffffffff61129316565b92915050565b600061099361084e565b821061099e57600080fd5b60078054839081106109ac57fe5b90600052602060002001549050919050565b60006109c933610ce9565b15156109d457600080fd5b600d5460ff16156109e457600080fd5b6109ee848461091b565b506109f983836112ca565b5060019392505050565b600f5460ff1690565b600081815260016020526040812054600160a060020a031680151561098357600080fd5b610a41600e3363ffffffff6112fd16565b565b610a4c33610ce9565b1515610a5757600080fd5b61ffff9182166000908152601160205260409020805461ffff191691909216179055565b6000600160a060020a0382161515610a9257600080fd5b50600160a060020a031660009081526003602052604090205490565b6000610ab933610ce9565b1515610ac457600080fd5b600d5460ff1615610ad457600080fd5b600d805460ff191660011790556040517fb828d9b5c78095deeeeff2eca2e5d4fe046ce3feb4c99702624a3fd384ad2dbc90600090a150600190565b610b1933610970565b1515610b2457600080fd5b610b35600e8263ffffffff61133416565b604051600160a060020a038216907f6719d08c1888103bea251a4ed56406bd0c3e69723c8a1686e017e7bbe159b6f890600090a250565b61ffff9081166000908152601160205260409020541690565b610b8e33610970565b1515610b9957600080fd5b600f5460ff1615610ba957600080fd5b600f805460ff191660011790556040517f9e87fac88ff661f02d44f95383c817fece4bce600a3dab7a54406878b965e75290600090a1565b600a8054604080516020601f60026000196101006001881615020190951694909404938401819004810282018101909252828152606093909290918301828280156107f45780601f106107c9576101008083540402835291602001916107f4565b610c4b33610ce9565b1515610c5657600080fd5b610c67600c8263ffffffff61133416565b604051600160a060020a038216907f6ae172837ea30b801fbfcdd4108aa1d5bf8ff775444fd70256b44e6bf3dfc3f690600090a250565b610a41600c3363ffffffff6112fd16565b610cb833610ce9565b1515610cc357600080fd5b61086f6010838361194b565b600f5460ff1615610cdf57600080fd5b61084a828261136e565b6000610983600c8363ffffffff61129316565b610d07848484610854565b610d13848484846113f2565b1515610d1e57600080fd5b50505050565b6010805460408051602060026001851615610100026000190190941693909304601f81018490048402820184019092528181529291830182828015610daa5780601f10610d7f57610100808354040283529160200191610daa565b820191906000526020600020905b815481529060010190602001808311610d8d57829003601f168201915b505050505081565b61271081565b606060008082808280871515610df0577f30000000000000000000000000000000000000000000000000000000000000009550610e2c565b8794505b6000851115610e2c5761010086049550600a850660300160f860020a0260010286179550600a85811515610e2457fe5b049450610df4565b6010805460408051602060026001851615610100026000190190941693909304601f81018490048402820184019092528181529291830182828015610eb25780601f10610e8757610100808354040283529160200191610eb2565b820191906000526020600020905b815481529060010190602001808311610e9557829003601f168201915b50505050509350602060ff168451016040519080825280601f01601f191660200182016040528015610eee578160200160208202803883390190505b50925060009050600091505b83518260ff161015610f7757838260ff16815181101515610f1757fe5b90602001015160f860020a900460f860020a02838260ff16815181101515610f3b57fe5b9060200101907effffffffffffffffffffffffffffffffffffffffffffffffffffffffffffff1916908160001a90535060019182019101610efa565b600091505b602060ff83161015610feb578560ff831660208110610f9757fe5b1a60f860020a02838260ff16815181101515610faf57fe5b9060200101907effffffffffffffffffffffffffffffffffffffffffffffffffffffffffffff1916908160001a90535060019182019101610f7c565b50909695505050505050565b60008061100333610ce9565b151561100e57600080fd5b6127108304915060016127108461ffff808616600090815260116020526040902054929091069290920392508116908216106110ab57604080517f08c379a000000000000000000000000000000000000000000000000000000000815260206004820152600b60248201527f737570706c79206f766572000000000000000000000000000000000000000000604482015290519081900360640190fd5b610d1e8484611244565b600160a060020a03918216600090815260046020908152604080832093909416825291909152205460ff1690565b600090815260016020526040902054600160a060020a0316151590565b600061110b82610a0c565b9050600160a060020a03838116908216141561112657600080fd5b33600160a060020a0382161480611142575061114281336110b5565b151561114d57600080fd5b600082815260026020526040808220805473ffffffffffffffffffffffffffffffffffffffff1916600160a060020a0387811691821790925591518593918516917f8c5be1e5ebec7d5bd14f71427d1e84f3dd0314c0f7b2291e5b200ac8c7c3b92591a4505050565b6111c03382611574565b15156111cb57600080fd5b600160a060020a03821615156111e057600080fd5b6111ea83826115d3565b6111f48382611642565b6111fe8282611749565b8082600160a060020a031684600160a060020a03167fddf252ad1be2c89b69c2b068fc378daa952ba7f163c4a11628f55a4df523b3ef60405160405180910390a4505050565b61124e8282611792565b600780546000838152600860205260408120829055600182018355919091527fa66cc928b5edb82af9bd49922954155ab7b0942694bea4ce44661d9a8736c688015550565b6000600160a060020a03821615156112aa57600080fd5b50600160a060020a03166000908152602091909152604090205460ff1690565b6112d3826110e3565b15156112de57600080fd5b6000828152600b60209081526040909120825161086f928401906119c9565b600160a060020a038116151561131257600080fd5b600160a060020a0316600090815260209190915260409020805460ff19169055565b600160a060020a038116151561134957600080fd5b600160a060020a0316600090815260209190915260409020805460ff19166001179055565b600160a060020a03821633141561138457600080fd5b336000818152600460209081526040808320600160a060020a03871680855290835292819020805460ff1916861515908117909155815190815290519293927f17307eab39ab6107e8899845ad3d59bd9653f200f220920489ca2b5937696c31929181900390910190a35050565b60008061140785600160a060020a03166117ed565b1515611416576001915061156b565b6040517f150b7a020000000000000000000000000000000000000000000000000000000081523360048201818152600160a060020a03898116602485015260448401889052608060648501908152875160848601528751918a169463150b7a0294938c938b938b93909160a490910190602085019080838360005b838110156114a9578181015183820152602001611491565b50505050905090810190601f1680156114d65780820380516001836020036101000a031916815260200191505b5095505050505050602060405180830381600087803b1580156114f857600080fd5b505af115801561150c573d6000803e3d6000fd5b505050506040513d602081101561152257600080fd5b50517bffffffffffffffffffffffffffffffffffffffffffffffffffffffff1981167f150b7a020000000000000000000000000000000000000000000000000000000014925090505b50949350505050565b60008061158083610a0c565b905080600160a060020a031684600160a060020a031614806115bb575083600160a060020a03166115b0846107fe565b600160a060020a0316145b806115cb57506115cb81856110b5565b949350505050565b81600160a060020a03166115e682610a0c565b600160a060020a0316146115f957600080fd5b600081815260026020526040902054600160a060020a03161561084a576000908152600260205260409020805473ffffffffffffffffffffffffffffffffffffffff1916905550565b600080600061165185856117f5565b600084815260066020908152604080832054600160a060020a038916845260059092529091205490935061168c90600163ffffffff61188b16565b600160a060020a0386166000908152600560205260409020805491935090839081106116b457fe5b90600052602060002001549050806005600087600160a060020a0316600160a060020a03168152602001908152602001600020848154811015156116f457fe5b6000918252602080832090910192909255600160a060020a038716815260059091526040902080549061172b906000198301611a37565b50600093845260066020526040808520859055908452909220555050565b600061175583836118a2565b50600160a060020a039091166000908152600560209081526040808320805460018101825590845282842081018590559383526006909152902055565b600160a060020a03821615156117a757600080fd5b6117b18282611749565b6040518190600160a060020a038416906000907fddf252ad1be2c89b69c2b068fc378daa952ba7f163c4a11628f55a4df523b3ef908290a45050565b6000903b1190565b81600160a060020a031661180882610a0c565b600160a060020a03161461181b57600080fd5b600160a060020a03821660009081526003602052604090205461184590600163ffffffff61188b16565b600160a060020a03909216600090815260036020908152604080832094909455918152600190915220805473ffffffffffffffffffffffffffffffffffffffff19169055565b6000808383111561189b57600080fd5b5050900390565b600081815260016020526040902054600160a060020a0316156118c457600080fd5b6000818152600160208181526040808420805473ffffffffffffffffffffffffffffffffffffffff1916600160a060020a038816908117909155845260039091529091205461191291611932565b600160a060020a0390921660009081526003602052604090209190915550565b60008282018381101561194457600080fd5b9392505050565b828054600181600116156101000203166002900490600052602060002090601f016020900481019282601f1061198c5782800160ff198235161785556119b9565b828001600101855582156119b9579182015b828111156119b957823582559160200191906001019061199e565b506119c5929150611a57565b5090565b828054600181600116156101000203166002900490600052602060002090601f016020900481019282601f10611a0a57805160ff19168380011785556119b9565b828001600101855582156119b9579182015b828111156119b9578251825591602001919060010190611a1c565b81548183558181111561086f5760008381526020902061086f9181019083015b61076591905b808211156119c55760008155600101611a5d5600a165627a7a723058203c59fe80f41aa4abc8b9e4d17e1a3a27fe4cd517323b802f9e12a23b5061e7d20029",
  "source": "pragma solidity 0.4.24;\n\nimport \"../lib/openzeppelin-solidity/contracts/token/ERC721/ERC721Mintable.sol\";\nimport \"../lib/openzeppelin-solidity/contracts/token/ERC721/ERC721Pausable.sol\";\n\n\ncontract ExtensionAsset is ERC721Mintable, ERC721Pausable {\n\n    uint16 public constant EXTENSION_TYPE_OFFSET = 10000;\n\n    string public tokenURIPrefix = \"https://www.mycryptoheroes.net/metadata/extension/\";\n    mapping(uint16 => uint16) private extensionTypeToSupplyLimit;\n\n    constructor() public ERC721Full(\"MyCryptoHeroes:Extension\", \"MCHE\") {}\n\n    function setSupplyLimit(uint16 _extensionType, uint16 _supplyLimit) external onlyMinter {\n        /*\n        for battle beta\n\n        require(extensionTypeToSupplyLimit[_extensionType] == 0 || _supplyLimit < extensionTypeToSupplyLimit[_extensionType],\n            \"_supplyLimit is bigger\");\n        */\n        extensionTypeToSupplyLimit[_extensionType] = _supplyLimit;\n    }\n\n    function setTokenURIPrefix(string _tokenURIPrefix) external onlyMinter {\n        tokenURIPrefix = _tokenURIPrefix;\n    }\n\n    function getSupplyLimit(uint16 _extensionType) public view returns (uint16) {\n        return extensionTypeToSupplyLimit[_extensionType];\n    }\n\n    function mintExtensionAsset(address _owner, uint256 _tokenId) public onlyMinter {\n        uint16 _extensionType = uint16(_tokenId / EXTENSION_TYPE_OFFSET);\n        uint16 _extensionTypeIndex = uint16(_tokenId % EXTENSION_TYPE_OFFSET) - 1;\n        require(_extensionTypeIndex < extensionTypeToSupplyLimit[_extensionType], \"supply over\");\n        _mint(_owner, _tokenId);\n    }\n\n    function tokenURI(uint256 tokenId) public view returns (string) {\n        bytes32 tokenIdBytes;\n        if (tokenId == 0) {\n            tokenIdBytes = \"0\";\n        } else {\n            uint256 value = tokenId;\n            while (value > 0) {\n                tokenIdBytes = bytes32(uint256(tokenIdBytes) / (2 ** 8));\n                tokenIdBytes |= bytes32(((value % 10) + 48) * 2 ** (8 * 31));\n                value /= 10;\n            }\n        }\n\n        bytes memory prefixBytes = bytes(tokenURIPrefix);\n        bytes memory tokenURIBytes = new bytes(prefixBytes.length + tokenIdBytes.length);\n\n        uint8 i;\n        uint8 index = 0;\n        \n        for (i = 0; i < prefixBytes.length; i++) {\n            tokenURIBytes[index] = prefixBytes[i];\n            index++;\n        }\n        \n        for (i = 0; i < tokenIdBytes.length; i++) {\n            tokenURIBytes[index] = tokenIdBytes[i];\n            index++;\n        }\n        \n        return string(tokenURIBytes);\n    }\n\n}\n",
  "sourcePath": "/Users/hironobu/devs/mch-beta/contracts/extension/ExtensionAsset.sol",
  "compiler": {
    "name": "solc",
    "version": "0.4.24+commit.e67f0147.Emscripten.clang"
  },
  "schemaVersion": "2.0.1",
  "updatedAt": "2018-09-27T10:06:28.712Z"
}