{
  "contractName": "ExtensionManager",
  "abi": [
    {
      "constant": true,
      "inputs": [],
      "name": "extension",
      "outputs": [
        {
          "name": "",
          "type": "address"
        }
      ],
      "payable": false,
      "stateMutability": "view",
      "type": "function"
    },
    {
      "constant": false,
      "inputs": [],
      "name": "renounceOwnership",
      "outputs": [],
      "payable": false,
      "stateMutability": "nonpayable",
      "type": "function"
    },
    {
      "constant": true,
      "inputs": [],
      "name": "owner",
      "outputs": [
        {
          "name": "",
          "type": "address"
        }
      ],
      "payable": false,
      "stateMutability": "view",
      "type": "function"
    },
    {
      "constant": true,
      "inputs": [],
      "name": "isOwner",
      "outputs": [
        {
          "name": "",
          "type": "bool"
        }
      ],
      "payable": false,
      "stateMutability": "view",
      "type": "function"
    },
    {
      "constant": false,
      "inputs": [
        {
          "name": "account",
          "type": "address"
        }
      ],
      "name": "addMinter",
      "outputs": [],
      "payable": false,
      "stateMutability": "nonpayable",
      "type": "function"
    },
    {
      "constant": false,
      "inputs": [],
      "name": "renounceMinter",
      "outputs": [],
      "payable": false,
      "stateMutability": "nonpayable",
      "type": "function"
    },
    {
      "constant": true,
      "inputs": [
        {
          "name": "account",
          "type": "address"
        }
      ],
      "name": "isMinter",
      "outputs": [
        {
          "name": "",
          "type": "bool"
        }
      ],
      "payable": false,
      "stateMutability": "view",
      "type": "function"
    },
    {
      "constant": true,
      "inputs": [],
      "name": "extensionAsset",
      "outputs": [
        {
          "name": "",
          "type": "address"
        }
      ],
      "payable": false,
      "stateMutability": "view",
      "type": "function"
    },
    {
      "constant": true,
      "inputs": [],
      "name": "EXTENSION_TYPE_OFFSET",
      "outputs": [
        {
          "name": "",
          "type": "uint16"
        }
      ],
      "payable": false,
      "stateMutability": "view",
      "type": "function"
    },
    {
      "constant": false,
      "inputs": [
        {
          "name": "newOwner",
          "type": "address"
        }
      ],
      "name": "transferOwnership",
      "outputs": [],
      "payable": false,
      "stateMutability": "nonpayable",
      "type": "function"
    },
    {
      "anonymous": false,
      "inputs": [
        {
          "indexed": true,
          "name": "account",
          "type": "address"
        }
      ],
      "name": "MinterAdded",
      "type": "event"
    },
    {
      "anonymous": false,
      "inputs": [
        {
          "indexed": true,
          "name": "account",
          "type": "address"
        }
      ],
      "name": "MinterRemoved",
      "type": "event"
    },
    {
      "anonymous": false,
      "inputs": [
        {
          "indexed": true,
          "name": "previousOwner",
          "type": "address"
        }
      ],
      "name": "OwnershipRenounced",
      "type": "event"
    },
    {
      "anonymous": false,
      "inputs": [
        {
          "indexed": true,
          "name": "previousOwner",
          "type": "address"
        },
        {
          "indexed": true,
          "name": "newOwner",
          "type": "address"
        }
      ],
      "name": "OwnershipTransferred",
      "type": "event"
    },
    {
      "constant": false,
      "inputs": [
        {
          "name": "_extensionAddress",
          "type": "address"
        }
      ],
      "name": "setExtensionAddress",
      "outputs": [],
      "payable": false,
      "stateMutability": "nonpayable",
      "type": "function"
    },
    {
      "constant": false,
      "inputs": [
        {
          "name": "_extensionAssetAddress",
          "type": "address"
        }
      ],
      "name": "setExtensionAssetAddress",
      "outputs": [],
      "payable": false,
      "stateMutability": "nonpayable",
      "type": "function"
    },
    {
      "constant": false,
      "inputs": [
        {
          "name": "_type",
          "type": "uint16"
        },
        {
          "name": "_name",
          "type": "string"
        },
        {
          "name": "_hp",
          "type": "int16"
        },
        {
          "name": "_phy",
          "type": "int16"
        },
        {
          "name": "_intl",
          "type": "int16"
        },
        {
          "name": "_agi",
          "type": "int16"
        },
        {
          "name": "_activeSkillId",
          "type": "uint16"
        },
        {
          "name": "_rarity",
          "type": "uint16"
        },
        {
          "name": "_supplyLimit",
          "type": "uint16"
        }
      ],
      "name": "setExtensionType",
      "outputs": [],
      "payable": false,
      "stateMutability": "nonpayable",
      "type": "function"
    },
    {
      "constant": false,
      "inputs": [
        {
          "name": "_owner",
          "type": "address"
        },
        {
          "name": "_extensionType",
          "type": "uint16"
        }
      ],
      "name": "mintExtensionByType",
      "outputs": [
        {
          "name": "",
          "type": "uint256"
        }
      ],
      "payable": false,
      "stateMutability": "nonpayable",
      "type": "function"
    },
    {
      "constant": false,
      "inputs": [
        {
          "name": "_owner",
          "type": "address"
        },
        {
          "name": "_extensionId",
          "type": "uint256"
        }
      ],
      "name": "mintExtension",
      "outputs": [],
      "payable": false,
      "stateMutability": "nonpayable",
      "type": "function"
    },
    {
      "constant": false,
      "inputs": [
        {
          "name": "_extensionId",
          "type": "uint256"
        },
        {
          "name": "_aliasName",
          "type": "string"
        }
      ],
      "name": "setAliasName",
      "outputs": [],
      "payable": false,
      "stateMutability": "nonpayable",
      "type": "function"
    },
    {
      "constant": false,
      "inputs": [
        {
          "name": "_extensionId",
          "type": "uint256"
        }
      ],
      "name": "updateExtension",
      "outputs": [],
      "payable": false,
      "stateMutability": "nonpayable",
      "type": "function"
    }
  ],
  "bytecode": "0x608060405260008054600160a060020a0319163390811790915561003290600190640100000000610b9661003782021704565b610071565b600160a060020a038116151561004c57600080fd5b600160a060020a0316600090815260209190915260409020805460ff19166001179055565b610ce7806100806000396000f3006080604052600436106100f05763ffffffff7c01000000000000000000000000000000000000000000000000000000006000350416632c6bc54c81146100f55780632d5537b014610155578063488bc9b6146101865780634c52e1901461021f578063648adfb714610240578063715018a6146102585780638da5cb5b1461026d5780638f32d59b14610282578063983b2d56146102ab57806398650275146102cc578063a1064b82146102e1578063a65b09f51461031b578063aa271e1a1461033f578063bea78b8d14610360578063c0eac44614610375578063eaab1c70146103a1578063f2fde38b146103c2575b600080fd5b34801561010157600080fd5b5060408051602060046024803582810135601f81018590048502860185019096528585526101539583359536956044949193909101919081908401838280828437509497506103e39650505050505050565b005b34801561016157600080fd5b5061016a610574565b60408051600160a060020a039092168252519081900360200190f35b34801561019257600080fd5b5060408051602060046024803582810135601f810185900485028601850190965285855261015395833561ffff1695369560449491939091019190819084018382808284375094975050508335600190810b95506020850135810b946040810135820b9450606081013590910b925061ffff60808201358116925060a082013581169160c0013516610583565b34801561022b57600080fd5b50610153600160a060020a0360043516610764565b34801561024c57600080fd5b506101536004356107a6565b34801561026457600080fd5b5061015361083b565b34801561027957600080fd5b5061016a6108a3565b34801561028e57600080fd5b506102976108b2565b604080519115158252519081900360200190f35b3480156102b757600080fd5b50610153600160a060020a03600435166108c3565b3480156102d857600080fd5b5061015361091f565b3480156102ed57600080fd5b50610309600160a060020a036004351661ffff60243516610932565b60408051918252519081900360200190f35b34801561032757600080fd5b50610153600160a060020a0360043516602435610a07565b34801561034b57600080fd5b50610297600160a060020a0360043516610b07565b34801561036c57600080fd5b5061016a610b20565b34801561038157600080fd5b5061038a610b2f565b6040805161ffff9092168252519081900360200190f35b3480156103ad57600080fd5b50610153600160a060020a0360043516610b35565b3480156103ce57600080fd5b50610153600160a060020a0360043516610b77565b600354604080517f6352211e000000000000000000000000000000000000000000000000000000008152600481018590529051600160a060020a0390921691636352211e916024808201926020929091908290030181600087803b15801561044a57600080fd5b505af115801561045e573d6000803e3d6000fd5b505050506040513d602081101561047457600080fd5b5051600160a060020a0316331461048a57600080fd5b600254604080517f2c6bc54c0000000000000000000000000000000000000000000000000000000081526004810185815260248201928352845160448301528451600160a060020a0390941693632c6bc54c938793879392606490910190602085019080838360005b8381101561050b5781810151838201526020016104f3565b50505050905090810190601f1680156105385780820380516001836020036101000a031916815260200191505b509350505050600060405180830381600087803b15801561055857600080fd5b505af115801561056c573d6000803e3d6000fd5b505050505050565b600254600160a060020a031681565b61058c33610b07565b151561059757600080fd5b6002546040517f8f19f79700000000000000000000000000000000000000000000000000000000815261ffff808c166004830190815260018b810b810b60448501528a810b810b606485015289810b810b608485015288810b900b60a484015281871660c484015290851660e4830152610100602483019081528b516101048401528b51600160a060020a0390941693638f19f797938e938e938e938e938e938e938e938e93610124019060208b019080838360005b8381101561066557818101518382015260200161064d565b50505050905090810190601f1680156106925780820380516001836020036101000a031916815260200191505b509950505050505050505050600060405180830381600087803b1580156106b857600080fd5b505af11580156106cc573d6000803e3d6000fd5b5050600354604080517f6fa23f7300000000000000000000000000000000000000000000000000000000815261ffff808f166004830152861660248201529051600160a060020a039092169350636fa23f73925060448082019260009290919082900301818387803b15801561074157600080fd5b505af1158015610755573d6000803e3d6000fd5b50505050505050505050505050565b61076c6108b2565b151561077757600080fd5b6002805473ffffffffffffffffffffffffffffffffffffffff1916600160a060020a0392909216919091179055565b6107af33610b07565b15156107ba57600080fd5b600254604080517f648adfb7000000000000000000000000000000000000000000000000000000008152600481018490529051600160a060020a039092169163648adfb79160248082019260009290919082900301818387803b15801561082057600080fd5b505af1158015610834573d6000803e3d6000fd5b5050505050565b6108436108b2565b151561084e57600080fd5b60008054604051600160a060020a03909116917ff8df31144d9c2f0f6b59d69b8b98abd5459d07f2742c4df920b25aae33c6482091a26000805473ffffffffffffffffffffffffffffffffffffffff19169055565b600054600160a060020a031690565b600054600160a060020a0316331490565b6108cc33610b07565b15156108d757600080fd5b6108e860018263ffffffff610b9616565b604051600160a060020a038216907f6ae172837ea30b801fbfcdd4108aa1d5bf8ff775444fd70256b44e6bf3dfc3f690600090a250565b61093060013363ffffffff610bd016565b565b600080600061094033610b07565b151561094b57600080fd5b600254604080517f8daf5a6300000000000000000000000000000000000000000000000000000000815261ffff871660048201529051600160a060020a0390921691638daf5a63916024808201926020929091908290030181600087803b1580156109b557600080fd5b505af11580156109c9573d6000803e3d6000fd5b505050506040513d60208110156109df57600080fd5b505160010191505061ffff83811661271002908216016109ff8582610a07565b949350505050565b610a1033610b07565b1515610a1b57600080fd5b600254604080517fce9547da000000000000000000000000000000000000000000000000000000008152600481018490529051600160a060020a039092169163ce9547da9160248082019260009290919082900301818387803b158015610a8157600080fd5b505af1158015610a95573d6000803e3d6000fd5b5050600354604080517fd7455ec0000000000000000000000000000000000000000000000000000000008152600160a060020a03878116600483015260248201879052915191909216935063d7455ec09250604480830192600092919082900301818387803b15801561055857600080fd5b6000610b1a60018363ffffffff610c0716565b92915050565b600354600160a060020a031681565b61271081565b610b3d6108b2565b1515610b4857600080fd5b6003805473ffffffffffffffffffffffffffffffffffffffff1916600160a060020a0392909216919091179055565b610b7f6108b2565b1515610b8a57600080fd5b610b9381610c3e565b50565b600160a060020a0381161515610bab57600080fd5b600160a060020a0316600090815260209190915260409020805460ff19166001179055565b600160a060020a0381161515610be557600080fd5b600160a060020a0316600090815260209190915260409020805460ff19169055565b6000600160a060020a0382161515610c1e57600080fd5b50600160a060020a03166000908152602091909152604090205460ff1690565b600160a060020a0381161515610c5357600080fd5b60008054604051600160a060020a03808516939216917f8be0079c531659141344cd1fd0a4f28419497f9722a3daafe3b4186f6b6457e091a36000805473ffffffffffffffffffffffffffffffffffffffff1916600160a060020a03929092169190911790555600a165627a7a723058203999a8b758eaed2b26d2dda79e5b3298dbc86babb7e30928269c72b497fb81f30029",
  "source": "pragma solidity 0.4.24;\n\nimport \"./Extension.sol\";\nimport \"./ExtensionAsset.sol\";\nimport \"../lib/openzeppelin-solidity/contracts/ownership/Ownable.sol\";\nimport \"../lib/openzeppelin-solidity/contracts/access/roles/MinterRole.sol\";\n\n\ncontract ExtensionManager is Ownable, MinterRole {\n\n    uint16 public constant EXTENSION_TYPE_OFFSET = 10000;\n\n    Extension public extension;\n    ExtensionAsset public extensionAsset;\n\n    function setExtensionAddress(address _extensionAddress) public onlyOwner {\n        extension = Extension(_extensionAddress);\n    }\n\n    function setExtensionAssetAddress(address _extensionAssetAddress) public onlyOwner {\n        extensionAsset = ExtensionAsset(_extensionAssetAddress);\n    }\n\n    function setExtensionType(\n        uint16 _type,\n        string _name,\n        int16  _hp,\n        int16  _phy,\n        int16  _intl,\n        int16  _agi,\n        uint16 _activeSkillId,\n        uint16 _rarity,\n        uint16 _supplyLimit\n    ) public onlyMinter {\n        extension.setExtensionType(\n            _type,\n            _name,\n            _hp,\n            _phy,\n            _intl,\n            _agi,\n            _activeSkillId,\n            _rarity\n        );\n        extensionAsset.setSupplyLimit(_type, _supplyLimit);\n    }\n\n    function mintExtensionByType(address _owner, uint16 _extensionType) public onlyMinter returns (uint256) {\n        uint16 current = extension.getExtensionTypeLength(_extensionType);\n        current++;\n        uint256 _extensionId = uint256(_extensionType) * EXTENSION_TYPE_OFFSET + current;\n        mintExtension(_owner, _extensionId);\n        return _extensionId;\n    }    \n\n    function mintExtension(address _owner, uint256 _extensionId) public onlyMinter {\n        extension.createExtension(_extensionId);\n        extensionAsset.mintExtensionAsset(_owner, _extensionId);\n    }    \n\n    function setAliasName(uint256 _extensionId, string _aliasName) public {\n        require(msg.sender == extensionAsset.ownerOf(_extensionId));\n        extension.setAliasName(_extensionId, _aliasName);\n    }\n\n    function updateExtension(uint256 _extensionId) public onlyMinter {\n        extension.updateExtension(_extensionId);\n    }\n\n}\n",
  "sourcePath": "/Users/hironobu/devs/mch-beta/contracts/extension/ExtensionManager.sol",
  "compiler": {
    "name": "solc",
    "version": "0.4.24+commit.e67f0147.Emscripten.clang"
  },
  "schemaVersion": "2.0.1",
  "updatedAt": "2018-10-01T02:06:55.022Z"
}