{
  "contractName": "Extension",
  "abi": [
    {
      "constant": true,
      "inputs": [],
      "name": "extensionManagerAddress",
      "outputs": [
        {
          "name": "",
          "type": "address"
        }
      ],
      "payable": false,
      "stateMutability": "view",
      "type": "function"
    },
    {
      "constant": false,
      "inputs": [
        {
          "name": "_type",
          "type": "uint16"
        },
        {
          "name": "_name",
          "type": "string"
        },
        {
          "name": "_hp",
          "type": "int16"
        },
        {
          "name": "_phy",
          "type": "int16"
        },
        {
          "name": "_intl",
          "type": "int16"
        },
        {
          "name": "_agi",
          "type": "int16"
        },
        {
          "name": "_activeSkillId",
          "type": "uint16"
        },
        {
          "name": "_rarity",
          "type": "uint16"
        }
      ],
      "name": "setExtensionType",
      "outputs": [],
      "payable": false,
      "stateMutability": "nonpayable",
      "type": "function"
    },
    {
      "constant": false,
      "inputs": [
        {
          "name": "account",
          "type": "address"
        }
      ],
      "name": "addMinter",
      "outputs": [],
      "payable": false,
      "stateMutability": "nonpayable",
      "type": "function"
    },
    {
      "constant": false,
      "inputs": [],
      "name": "renounceMinter",
      "outputs": [],
      "payable": false,
      "stateMutability": "nonpayable",
      "type": "function"
    },
    {
      "constant": true,
      "inputs": [
        {
          "name": "",
          "type": "uint16"
        },
        {
          "name": "",
          "type": "uint256"
        }
      ],
      "name": "extensionTypeIds",
      "outputs": [
        {
          "name": "",
          "type": "uint256"
        }
      ],
      "payable": false,
      "stateMutability": "view",
      "type": "function"
    },
    {
      "constant": true,
      "inputs": [
        {
          "name": "account",
          "type": "address"
        }
      ],
      "name": "isMinter",
      "outputs": [
        {
          "name": "",
          "type": "bool"
        }
      ],
      "payable": false,
      "stateMutability": "view",
      "type": "function"
    },
    {
      "constant": true,
      "inputs": [
        {
          "name": "_type",
          "type": "uint16"
        }
      ],
      "name": "getExtensionType",
      "outputs": [
        {
          "name": "_name",
          "type": "string"
        },
        {
          "name": "_hp",
          "type": "int16"
        },
        {
          "name": "_phy",
          "type": "int16"
        },
        {
          "name": "_intl",
          "type": "int16"
        },
        {
          "name": "_agi",
          "type": "int16"
        },
        {
          "name": "_activeSkillId",
          "type": "uint16"
        },
        {
          "name": "_rarity",
          "type": "uint16"
        }
      ],
      "payable": false,
      "stateMutability": "view",
      "type": "function"
    },
    {
      "constant": true,
      "inputs": [],
      "name": "EXTENSION_TYPE_OFFSET",
      "outputs": [
        {
          "name": "",
          "type": "uint16"
        }
      ],
      "payable": false,
      "stateMutability": "view",
      "type": "function"
    },
    {
      "constant": true,
      "inputs": [
        {
          "name": "",
          "type": "uint16"
        }
      ],
      "name": "extensionTypes",
      "outputs": [
        {
          "name": "name",
          "type": "bytes"
        },
        {
          "name": "hp",
          "type": "int16"
        },
        {
          "name": "phy",
          "type": "int16"
        },
        {
          "name": "intl",
          "type": "int16"
        },
        {
          "name": "agi",
          "type": "int16"
        },
        {
          "name": "activeSkillId",
          "type": "uint16"
        },
        {
          "name": "rarity",
          "type": "uint16"
        },
        {
          "name": "exists",
          "type": "bool"
        }
      ],
      "payable": false,
      "stateMutability": "view",
      "type": "function"
    },
    {
      "constant": true,
      "inputs": [
        {
          "name": "",
          "type": "uint256"
        }
      ],
      "name": "extensions",
      "outputs": [
        {
          "name": "extensionType",
          "type": "uint16"
        },
        {
          "name": "hp",
          "type": "int16"
        },
        {
          "name": "phy",
          "type": "int16"
        },
        {
          "name": "intl",
          "type": "int16"
        },
        {
          "name": "agi",
          "type": "int16"
        },
        {
          "name": "activeSkillId",
          "type": "uint16"
        },
        {
          "name": "aliasName",
          "type": "bytes"
        },
        {
          "name": "exists",
          "type": "bool"
        }
      ],
      "payable": false,
      "stateMutability": "view",
      "type": "function"
    },
    {
      "anonymous": false,
      "inputs": [
        {
          "indexed": true,
          "name": "account",
          "type": "address"
        }
      ],
      "name": "MinterAdded",
      "type": "event"
    },
    {
      "anonymous": false,
      "inputs": [
        {
          "indexed": true,
          "name": "account",
          "type": "address"
        }
      ],
      "name": "MinterRemoved",
      "type": "event"
    },
    {
      "constant": false,
      "inputs": [
        {
          "name": "_extensionId",
          "type": "uint256"
        },
        {
          "name": "_aliasName",
          "type": "string"
        }
      ],
      "name": "setAliasName",
      "outputs": [],
      "payable": false,
      "stateMutability": "nonpayable",
      "type": "function"
    },
    {
      "constant": false,
      "inputs": [
        {
          "name": "_extensionId",
          "type": "uint256"
        }
      ],
      "name": "createExtension",
      "outputs": [],
      "payable": false,
      "stateMutability": "nonpayable",
      "type": "function"
    },
    {
      "constant": true,
      "inputs": [
        {
          "name": "_extensionId",
          "type": "uint256"
        }
      ],
      "name": "getExtension",
      "outputs": [
        {
          "name": "_extensionType",
          "type": "uint16"
        },
        {
          "name": "_hp",
          "type": "int16"
        },
        {
          "name": "_phy",
          "type": "int16"
        },
        {
          "name": "_intl",
          "type": "int16"
        },
        {
          "name": "_agi",
          "type": "int16"
        },
        {
          "name": "_activeSkillId",
          "type": "uint16"
        },
        {
          "name": "_aliasName",
          "type": "string"
        }
      ],
      "payable": false,
      "stateMutability": "view",
      "type": "function"
    },
    {
      "constant": true,
      "inputs": [
        {
          "name": "_extensionType",
          "type": "uint16"
        }
      ],
      "name": "getExtensionTypeLength",
      "outputs": [
        {
          "name": "",
          "type": "uint16"
        }
      ],
      "payable": false,
      "stateMutability": "view",
      "type": "function"
    }
  ],
  "bytecode": "0x608060405261001c600033640100000000610fd761002182021704565b61005b565b600160a060020a038116151561003657600080fd5b600160a060020a0316600090815260209190915260409020805460ff19166001179055565b6111cd8061006a6000396000f3006080604052600436106100cf5763ffffffff7c01000000000000000000000000000000000000000000000000000000006000350416632c6bc54c81146100d4578063457ba562146101345780638daf5a63146101655780638f19f79714610198578063983b2d561461022b578063986502751461024c5780639905a15b14610261578063aa271e1a14610292578063b7ec0ffb146102c7578063c0eac446146103ad578063c2975e45146103c2578063ce9547da146104b3578063db85d59c146104cb578063f61eab7a14610575575b600080fd5b3480156100e057600080fd5b5060408051602060046024803582810135601f81018590048502860185019096528585526101329583359536956044949193909101919081908401838280828437509497506106159650505050505050565b005b34801561014057600080fd5b5061014961066a565b60408051600160a060020a039092168252519081900360200190f35b34801561017157600080fd5b5061018161ffff60043516610679565b6040805161ffff9092168252519081900360200190f35b3480156101a457600080fd5b5060408051602060046024803582810135601f810185900485028601850190965285855261013295833561ffff1695369560449491939091019190819084018382808284375094975050508335600190810b95506020850135810b946040810135820b9450606081013590910b925061ffff60808201358116925060a0909101351661068f565b34801561023757600080fd5b50610132600160a060020a03600435166107a7565b34801561025857600080fd5b50610132610803565b34801561026d57600080fd5b5061028061ffff60043516602435610816565b60408051918252519081900360200190f35b34801561029e57600080fd5b506102b3600160a060020a0360043516610846565b604080519115158252519081900360200190f35b3480156102d357600080fd5b506102e361ffff6004351661085e565b60405180806020018860010b60010b81526020018760010b60010b81526020018660010b60010b81526020018560010b60010b81526020018461ffff1661ffff1681526020018361ffff1661ffff168152602001828103825289818151815260200191508051906020019080838360005b8381101561036c578181015183820152602001610354565b50505050905090810190601f1680156103995780820380516001836020036101000a031916815260200191505b509850505050505050505060405180910390f35b3480156103b957600080fd5b506101816109f9565b3480156103ce57600080fd5b506103de61ffff600435166109ff565b60405180806020018960010b60010b81526020018860010b60010b81526020018760010b60010b81526020018660010b60010b81526020018561ffff1661ffff1681526020018461ffff1661ffff1681526020018315151515815260200182810382528a818151815260200191508051906020019080838360005b83811015610471578181015183820152602001610459565b50505050905090810190601f16801561049e5780820380516001836020036101000a031916815260200191505b50995050505050505050505060405180910390f35b3480156104bf57600080fd5b50610132600435610afe565b3480156104d757600080fd5b506104e3600435610d8b565b604051808961ffff1661ffff1681526020018860010b60010b81526020018760010b60010b81526020018660010b60010b81526020018560010b60010b81526020018461ffff1661ffff16815260200180602001831515151581526020018281038252848181518152602001915080519060200190808383600083811015610471578181015183820152602001610459565b34801561058157600080fd5b5061058d600435610e82565b604051808861ffff1661ffff1681526020018760010b60010b81526020018660010b60010b81526020018560010b60010b81526020018460010b60010b81526020018361ffff1661ffff16815260200180602001828103825283818151815260200191508051906020019080838360008381101561036c578181015183820152602001610354565b600061062033610846565b151561062b57600080fd5b5060008281526002602081905260409091209081015460ff16151561064f57600080fd5b8151610664906001830190602085019061107f565b50505050565b600454600160a060020a031681565b61ffff1660009081526003602052604090205490565b600061069a33610846565b15156106a557600080fd5b5061ffff88166000908152600160209081526040909120885190916106ce9183918b019061107f565b50600190810180546c0100000000000000000000000061ffff1990911698830b61ffff9081169990991763ffff000019166201000098840b8a16989098029790971765ffff00000000191664010000000096830b8916969096029590951767ffff000000000000191666010000000000009490910b8716939093029290921769ffff000000000000000019166801000000000000000091861691909102176bffff0000000000000000000019166a01000000000000000000009190941602929092176cff00000000000000000000000019161790555050565b6107b033610846565b15156107bb57600080fd5b6107cc60008263ffffffff610fd716565b604051600160a060020a038216907f6ae172837ea30b801fbfcdd4108aa1d5bf8ff775444fd70256b44e6bf3dfc3f690600090a250565b61081460003363ffffffff61101116565b565b60036020528160005260406000208181548110151561083157fe5b90600052602060002001600091509150505481565b6000610858818363ffffffff61104816565b92915050565b60606000806000806000806108716110fd565b61ffff89166000908152600160208181526040928390208351815460026101009582161586026000190190911604601f8101849004909302810161012090810190955292830182815292939092849290918491908401828280156109165780601f106108eb57610100808354040283529160200191610916565b820191906000526020600020905b8154815290600101906020018083116108f957829003601f168201915b505050918352505060019182015480830b830b830b6020830152620100008104830b830b830b60408301526401000000008104830b830b830b606083015266010000000000008104830b830b90920b608082015268010000000000000000820461ffff90811660a08301526a010000000000000000000083041660c08201526c0100000000000000000000000090910460ff16151560e09182015281015190915015156109c257600080fd5b8051602082015160408301516060840151608085015160a086015160c090960151949e939d50919b50995097509195509350915050565b61271081565b60016020818152600092835260409283902080548451600294821615610100026000190190911693909304601f8101839004830284018301909452838352928391830182828015610a915780601f10610a6657610100808354040283529160200191610a91565b820191906000526020600020905b815481529060010190602001808311610a7457829003601f168201915b50505050600192830154919282810b92620100008104820b92506401000000008104820b9166010000000000008204900b9068010000000000000000810461ffff908116916a01000000000000000000008104909116906c01000000000000000000000000900460ff1688565b600080610b096110fd565b610b1233610846565b1515610b1d57600080fd5b60008481526002602081905260409091209081015490935060ff1615610b4257600080fd5b612710840461ffff81166000908152600160208181526040928390208351815460026101009582161586026000190190911604601f81018490049093028101610120908101909552928301828152949650919391928492918491840182828015610bed5780601f10610bc257610100808354040283529160200191610bed565b820191906000526020600020905b815481529060010190602001808311610bd057829003601f168201915b505050918352505060019182015480830b830b830b6020830152620100008104830b830b830b60408301526401000000008104830b830b830b606083015266010000000000008104830b830b90920b608082015268010000000000000000820461ffff90811660a08301526a010000000000000000000083041660c08201526c0100000000000000000000000090910460ff16151560e0918201528101519091501515610c9957600080fd5b82546020828101516040808501516060860151608087015160a09097015161ffff9081166a0100000000000000000000026bffff00000000000000000000196001998a0b8316680100000000000000000269ffff000000000000000019948b0b841666010000000000000267ffff00000000000019968c0b85166401000000000265ffff0000000019998d0b8616620100000263ffff0000199e90961661ffff19909c168c179d909d1694909417979097169a909a1793909316171692909217959095161785556002909401805460ff1916831790556000908152600384529182208054918201815582529190200155565b600260208181526000928352604092839020805460018083018054875161010082851615026000190190911696909604601f810186900486028701860190975286865261ffff80841697620100008504840b976401000000008604850b9766010000000000008704860b9768010000000000000000880490960b966a0100000000000000000000900490931694939092909190830182828015610e6f5780601f10610e4457610100808354040283529160200191610e6f565b820191906000526020600020905b815481529060010190602001808311610e5257829003601f168201915b5050506002909301549192505060ff1688565b6000806000806000806060610e95611141565b60008981526002602081815260409283902083516101008082018652825461ffff8082168452620100008204600190810b810b810b858801526401000000008304810b810b810b858a015266010000000000008304810b810b810b6060860152680100000000000000008304810b810b810b60808601526a01000000000000000000009092041660a084015280840180548851928116159093026000190190921695909504601f81018590048502860185019096528585529094919360c0860193909290830182828015610faa5780601f10610f7f57610100808354040283529160200191610faa565b820191906000526020600020905b815481529060010190602001808311610f8d57829003601f168201915b50505091835250506002919091015460ff16151560209091015260e081015190915015156109c257600080fd5b600160a060020a0381161515610fec57600080fd5b600160a060020a0316600090815260209190915260409020805460ff19166001179055565b600160a060020a038116151561102657600080fd5b600160a060020a0316600090815260209190915260409020805460ff19169055565b6000600160a060020a038216151561105f57600080fd5b50600160a060020a03166000908152602091909152604090205460ff1690565b828054600181600116156101000203166002900490600052602060002090601f016020900481019282601f106110c057805160ff19168380011785556110ed565b828001600101855582156110ed579182015b828111156110ed5782518255916020019190600101906110d2565b506110f9929150611184565b5090565b6040805161010081018252606080825260006020830181905292820183905281018290526080810182905260a0810182905260c0810182905260e081019190915290565b604080516101008101825260008082526020820181905291810182905260608082018390526080820183905260a0820183905260c082015260e081019190915290565b61119e91905b808211156110f9576000815560010161118a565b905600a165627a7a723058205f06c09c06ecc1f1e0fd347718e0eaefb90bdd7fbc47ff5bb6bc1ce1123608f50029",
  "source": "pragma solidity 0.4.24;\n\nimport \"./ExtensionType.sol\";\n\n\ncontract Extension is ExtensionType {\n\n    uint16 public constant EXTENSION_TYPE_OFFSET = 10000;\n\n    mapping(uint256 => ExtensionData) public extensions;\n    mapping(uint16 => uint256[]) public extensionTypeIds;\n    address public extensionManagerAddress;\n\n    struct ExtensionData {\n        uint16 extensionType;\n        int16 hp;\n        int16 phy;\n        int16 intl;\n        int16 agi;\n        uint16 activeSkillId;\n        bytes  aliasName;\n        bool   exists;\n    }\n\n    function setAliasName(uint256 _extensionId, string _aliasName) public onlyMinter {\n        ExtensionData storage data = extensions[_extensionId];\n        require(data.exists);\n        data.aliasName = bytes(_aliasName);\n    }\n\n    function createExtension(uint256 _extensionId) public onlyMinter {\n        ExtensionData storage data = extensions[_extensionId];\n        require(!data.exists);\n        \n        uint16 _type = uint16(_extensionId / EXTENSION_TYPE_OFFSET);\n        ExtensionTypeData memory typeData = extensionTypes[_type];\n        require(typeData.exists);\n\n        data.extensionType = _type;\n        data.hp = typeData.hp;\n        data.phy = typeData.phy;\n        data.intl = typeData.intl;\n        data.agi = typeData.agi;\n        data.activeSkillId = typeData.activeSkillId;\n        data.exists = true;\n        \n        extensionTypeIds[_type].push(_extensionId);\n    } \n\n    function getExtension(uint256 _extensionId) public view returns (\n        uint16  _extensionType,\n        int16   _hp,\n        int16   _phy,\n        int16   _intl,\n        int16   _agi,\n        uint16  _activeSkillId,\n        string  _aliasName\n    ) {\n        ExtensionData memory data = extensions[_extensionId];\n        require(data.exists);\n        _extensionType = data.extensionType;\n        _hp = data.hp;\n        _phy = data.phy;\n        _intl = data.intl;\n        _agi = data.agi;\n        _activeSkillId = data.activeSkillId;\n        _aliasName = string(data.aliasName);\n    }\n\n\n    function getExtensionTypeLength(uint16 _extensionType) public view returns (uint16) {\n        return uint16(extensionTypeIds[_extensionType].length);\n    }\n\n}\n",
  "sourcePath": "/Users/hironobu/devs/mch-beta/contracts/extension/Extension.sol",
  "compiler": {
    "name": "solc",
    "version": "0.4.24+commit.e67f0147.Emscripten.clang"
  },
  "schemaVersion": "2.0.1",
  "updatedAt": "2018-09-23T07:31:05.832Z"
}