{
  "contractName": "HeroManager",
  "abi": [
    {
      "constant": true,
      "inputs": [],
      "name": "heroAsset",
      "outputs": [
        {
          "name": "",
          "type": "address"
        }
      ],
      "payable": false,
      "stateMutability": "view",
      "type": "function"
    },
    {
      "constant": true,
      "inputs": [],
      "name": "HERO_TYPE_OFFSET",
      "outputs": [
        {
          "name": "",
          "type": "uint16"
        }
      ],
      "payable": false,
      "stateMutability": "view",
      "type": "function"
    },
    {
      "constant": false,
      "inputs": [],
      "name": "renounceOwnership",
      "outputs": [],
      "payable": false,
      "stateMutability": "nonpayable",
      "type": "function"
    },
    {
      "constant": true,
      "inputs": [],
      "name": "hero",
      "outputs": [
        {
          "name": "",
          "type": "address"
        }
      ],
      "payable": false,
      "stateMutability": "view",
      "type": "function"
    },
    {
      "constant": true,
      "inputs": [],
      "name": "owner",
      "outputs": [
        {
          "name": "",
          "type": "address"
        }
      ],
      "payable": false,
      "stateMutability": "view",
      "type": "function"
    },
    {
      "constant": true,
      "inputs": [],
      "name": "isOwner",
      "outputs": [
        {
          "name": "",
          "type": "bool"
        }
      ],
      "payable": false,
      "stateMutability": "view",
      "type": "function"
    },
    {
      "constant": false,
      "inputs": [
        {
          "name": "account",
          "type": "address"
        }
      ],
      "name": "addMinter",
      "outputs": [],
      "payable": false,
      "stateMutability": "nonpayable",
      "type": "function"
    },
    {
      "constant": false,
      "inputs": [],
      "name": "renounceMinter",
      "outputs": [],
      "payable": false,
      "stateMutability": "nonpayable",
      "type": "function"
    },
    {
      "constant": true,
      "inputs": [
        {
          "name": "account",
          "type": "address"
        }
      ],
      "name": "isMinter",
      "outputs": [
        {
          "name": "",
          "type": "bool"
        }
      ],
      "payable": false,
      "stateMutability": "view",
      "type": "function"
    },
    {
      "constant": false,
      "inputs": [
        {
          "name": "newOwner",
          "type": "address"
        }
      ],
      "name": "transferOwnership",
      "outputs": [],
      "payable": false,
      "stateMutability": "nonpayable",
      "type": "function"
    },
    {
      "anonymous": false,
      "inputs": [
        {
          "indexed": true,
          "name": "account",
          "type": "address"
        }
      ],
      "name": "MinterAdded",
      "type": "event"
    },
    {
      "anonymous": false,
      "inputs": [
        {
          "indexed": true,
          "name": "account",
          "type": "address"
        }
      ],
      "name": "MinterRemoved",
      "type": "event"
    },
    {
      "anonymous": false,
      "inputs": [
        {
          "indexed": true,
          "name": "previousOwner",
          "type": "address"
        }
      ],
      "name": "OwnershipRenounced",
      "type": "event"
    },
    {
      "anonymous": false,
      "inputs": [
        {
          "indexed": true,
          "name": "previousOwner",
          "type": "address"
        },
        {
          "indexed": true,
          "name": "newOwner",
          "type": "address"
        }
      ],
      "name": "OwnershipTransferred",
      "type": "event"
    },
    {
      "constant": false,
      "inputs": [
        {
          "name": "_heroAddress",
          "type": "address"
        }
      ],
      "name": "setHeroAddress",
      "outputs": [],
      "payable": false,
      "stateMutability": "nonpayable",
      "type": "function"
    },
    {
      "constant": false,
      "inputs": [
        {
          "name": "_heroAssetAddress",
          "type": "address"
        }
      ],
      "name": "setHeroAssetAddress",
      "outputs": [],
      "payable": false,
      "stateMutability": "nonpayable",
      "type": "function"
    },
    {
      "constant": false,
      "inputs": [
        {
          "name": "_heroType",
          "type": "uint16"
        },
        {
          "name": "_heroName",
          "type": "string"
        },
        {
          "name": "_ipfs",
          "type": "string"
        },
        {
          "name": "_hp",
          "type": "int16"
        },
        {
          "name": "_phy",
          "type": "int16"
        },
        {
          "name": "_intl",
          "type": "int16"
        },
        {
          "name": "_agi",
          "type": "int16"
        },
        {
          "name": "_initalActiveSkillId",
          "type": "uint16"
        },
        {
          "name": "_passiveSkillId",
          "type": "uint16"
        },
        {
          "name": "_rarity",
          "type": "uint16"
        },
        {
          "name": "_supplyLimit",
          "type": "uint16"
        }
      ],
      "name": "setHeroType",
      "outputs": [],
      "payable": false,
      "stateMutability": "nonpayable",
      "type": "function"
    },
    {
      "constant": false,
      "inputs": [
        {
          "name": "_owner",
          "type": "address"
        },
        {
          "name": "_heroType",
          "type": "uint16"
        }
      ],
      "name": "mintHeroByType",
      "outputs": [
        {
          "name": "",
          "type": "uint256"
        }
      ],
      "payable": false,
      "stateMutability": "nonpayable",
      "type": "function"
    },
    {
      "constant": false,
      "inputs": [
        {
          "name": "_owner",
          "type": "address"
        },
        {
          "name": "_heroId",
          "type": "uint256"
        }
      ],
      "name": "mintHero",
      "outputs": [],
      "payable": false,
      "stateMutability": "nonpayable",
      "type": "function"
    },
    {
      "constant": false,
      "inputs": [
        {
          "name": "_heroId",
          "type": "uint256"
        },
        {
          "name": "_aliasName",
          "type": "string"
        }
      ],
      "name": "setAliasName",
      "outputs": [],
      "payable": false,
      "stateMutability": "nonpayable",
      "type": "function"
    }
  ],
  "bytecode": "0x608060405260008054600160a060020a0319163390811790915561003290600190640100000000610b9261003782021704565b610071565b600160a060020a038116151561004c57600080fd5b600160a060020a0316600090815260209190915260409020805460ff19166001179055565b610ce3806100806000396000f3006080604052600436106100cc5763ffffffff60e060020a60003504166316f38b6381146100d15780632c6bc54c146101025780634890087f1461016257806355b1a40f1461018e578063711435ec1461026f578063715018a6146102a95780637f513d5d146102be5780638da5cb5b146102d35780638f32d59b146102e8578063983b2d5614610311578063985df3a7146103325780639865027514610353578063aa271e1a14610368578063be926c8014610389578063e9425dd2146103aa578063f2fde38b146103ce575b600080fd5b3480156100dd57600080fd5b506100e66103ef565b60408051600160a060020a039092168252519081900360200190f35b34801561010e57600080fd5b5060408051602060046024803582810135601f81018590048502860185019096528585526101609583359536956044949193909101919081908401838280828437509497506103fe9650505050505050565b005b34801561016e57600080fd5b5061017761058f565b6040805161ffff9092168252519081900360200190f35b34801561019a57600080fd5b5060408051602060046024803582810135601f810185900485028601850190965285855261016095833561ffff1695369560449491939091019190819084018382808284375050604080516020601f89358b018035918201839004830284018301909452808352979a99988101979196509182019450925082915084018382808284375094975050508335600190810b95506020850135810b946040810135820b9450606081013590910b925061ffff60808201358116925060a082013581169160c081013582169160e09091013516610595565b34801561027b57600080fd5b50610297600160a060020a036004351661ffff602435166107fb565b60408051918252519081900360200190f35b3480156102b557600080fd5b506101606108d0565b3480156102ca57600080fd5b506100e6610938565b3480156102df57600080fd5b506100e6610947565b3480156102f457600080fd5b506102fd610956565b604080519115158252519081900360200190f35b34801561031d57600080fd5b50610160600160a060020a0360043516610967565b34801561033e57600080fd5b50610160600160a060020a03600435166109c3565b34801561035f57600080fd5b50610160610a05565b34801561037457600080fd5b506102fd600160a060020a0360043516610a18565b34801561039557600080fd5b50610160600160a060020a0360043516610a31565b3480156103b657600080fd5b50610160600160a060020a0360043516602435610a73565b3480156103da57600080fd5b50610160600160a060020a0360043516610b73565b600354600160a060020a031681565b600354604080517f6352211e000000000000000000000000000000000000000000000000000000008152600481018590529051600160a060020a0390921691636352211e916024808201926020929091908290030181600087803b15801561046557600080fd5b505af1158015610479573d6000803e3d6000fd5b505050506040513d602081101561048f57600080fd5b5051600160a060020a031633146104a557600080fd5b600254604080517f2c6bc54c0000000000000000000000000000000000000000000000000000000081526004810185815260248201928352845160448301528451600160a060020a0390941693632c6bc54c938793879392606490910190602085019080838360005b8381101561052657818101518382015260200161050e565b50505050905090810190601f1680156105535780820380516001836020036101000a031916815260200191505b509350505050600060405180830381600087803b15801561057357600080fd5b505af1158015610587573d6000803e3d6000fd5b505050505050565b61271081565b61059e33610a18565b15156105a957600080fd5b600260009054906101000a9004600160a060020a0316600160a060020a031663d400b01a8c8c8c8c8c8c8c8c8c8c6040518b63ffffffff1660e060020a028152600401808b61ffff1661ffff16815260200180602001806020018a60010b60010b81526020018960010b60010b81526020018860010b60010b81526020018760010b60010b81526020018661ffff1661ffff1681526020018561ffff1661ffff1681526020018461ffff1661ffff16815260200183810383528c818151815260200191508051906020019080838360005b8381101561069257818101518382015260200161067a565b50505050905090810190601f1680156106bf5780820380516001836020036101000a031916815260200191505b5083810382528b5181528b516020918201918d019080838360005b838110156106f25781810151838201526020016106da565b50505050905090810190601f16801561071f5780820380516001836020036101000a031916815260200191505b509c50505050505050505050505050600060405180830381600087803b15801561074857600080fd5b505af115801561075c573d6000803e3d6000fd5b50505050600360009054906101000a9004600160a060020a0316600160a060020a0316636fa23f738c836040518363ffffffff1660e060020a028152600401808361ffff1661ffff1681526020018261ffff1661ffff16815260200192505050600060405180830381600087803b1580156107d657600080fd5b505af11580156107ea573d6000803e3d6000fd5b505050505050505050505050505050565b600080600061080933610a18565b151561081457600080fd5b600254604080517f487175bb00000000000000000000000000000000000000000000000000000000815261ffff871660048201529051600160a060020a039092169163487175bb916024808201926020929091908290030181600087803b15801561087e57600080fd5b505af1158015610892573d6000803e3d6000fd5b505050506040513d60208110156108a857600080fd5b505160010191505061ffff83811661271002908216016108c88582610a73565b949350505050565b6108d8610956565b15156108e357600080fd5b60008054604051600160a060020a03909116917ff8df31144d9c2f0f6b59d69b8b98abd5459d07f2742c4df920b25aae33c6482091a26000805473ffffffffffffffffffffffffffffffffffffffff19169055565b600254600160a060020a031681565b600054600160a060020a031690565b600054600160a060020a0316331490565b61097033610a18565b151561097b57600080fd5b61098c60018263ffffffff610b9216565b604051600160a060020a038216907f6ae172837ea30b801fbfcdd4108aa1d5bf8ff775444fd70256b44e6bf3dfc3f690600090a250565b6109cb610956565b15156109d657600080fd5b6003805473ffffffffffffffffffffffffffffffffffffffff1916600160a060020a0392909216919091179055565b610a1660013363ffffffff610bcc16565b565b6000610a2b60018363ffffffff610c0316565b92915050565b610a39610956565b1515610a4457600080fd5b6002805473ffffffffffffffffffffffffffffffffffffffff1916600160a060020a0392909216919091179055565b610a7c33610a18565b1515610a8757600080fd5b600254604080517fe1c8bc44000000000000000000000000000000000000000000000000000000008152600481018490529051600160a060020a039092169163e1c8bc449160248082019260009290919082900301818387803b158015610aed57600080fd5b505af1158015610b01573d6000803e3d6000fd5b5050600354604080517f4d5b335d000000000000000000000000000000000000000000000000000000008152600160a060020a038781166004830152602482018790529151919092169350634d5b335d9250604480830192600092919082900301818387803b15801561057357600080fd5b610b7b610956565b1515610b8657600080fd5b610b8f81610c3a565b50565b600160a060020a0381161515610ba757600080fd5b600160a060020a0316600090815260209190915260409020805460ff19166001179055565b600160a060020a0381161515610be157600080fd5b600160a060020a0316600090815260209190915260409020805460ff19169055565b6000600160a060020a0382161515610c1a57600080fd5b50600160a060020a03166000908152602091909152604090205460ff1690565b600160a060020a0381161515610c4f57600080fd5b60008054604051600160a060020a03808516939216917f8be0079c531659141344cd1fd0a4f28419497f9722a3daafe3b4186f6b6457e091a36000805473ffffffffffffffffffffffffffffffffffffffff1916600160a060020a03929092169190911790555600a165627a7a7230582088718547699cde0b135d596508c15686560b3b8cc86905124a87439c6f701d6b0029",
  "source": "pragma solidity 0.4.24;\n\nimport \"./Hero.sol\";\nimport \"./HeroAsset.sol\";\nimport \"../lib/openzeppelin-solidity/contracts/ownership/Ownable.sol\";\nimport \"../lib/openzeppelin-solidity/contracts/access/roles/MinterRole.sol\";\n\n\ncontract HeroManager is Ownable, MinterRole {\n\n    uint16 public constant HERO_TYPE_OFFSET = 10000;\n\n    Hero public hero;\n    HeroAsset public heroAsset;\n\n    function setHeroAddress(address _heroAddress) public onlyOwner {\n        hero = Hero(_heroAddress);\n    }\n\n    function setHeroAssetAddress(address _heroAssetAddress) public onlyOwner {\n        heroAsset = HeroAsset(_heroAssetAddress);\n    }\n\n    function setHeroType(\n        uint16 _heroType,\n        string _heroName,\n        string _ipfs,\n        int16  _hp,\n        int16  _phy,\n        int16  _intl,\n        int16  _agi,\n        uint16 _initalActiveSkillId,\n        uint16 _passiveSkillId,\n        uint16 _rarity,\n        uint16 _supplyLimit\n    ) public onlyMinter {\n        hero.setHeroType(\n            _heroType,\n            _heroName,\n            _ipfs,\n            _hp,\n            _phy,\n            _intl,\n            _agi,\n            _initalActiveSkillId,\n            _passiveSkillId,\n            _rarity\n        );\n        heroAsset.setSupplyLimit(_heroType, _supplyLimit);\n    }\n\n    function mintHeroByType(address _owner, uint16 _heroType) public onlyMinter returns (uint256) {\n        uint16 current = hero.getHeroTypeLength(_heroType);\n        current++;\n        uint256 _heroId = uint256(_heroType) * HERO_TYPE_OFFSET + current;\n        mintHero(_owner, _heroId);\n        return _heroId;\n    }    \n\n    function mintHero(address _owner, uint256 _heroId) public onlyMinter {\n        hero.createHero(_heroId);\n        heroAsset.mintHeroAsset(_owner, _heroId);\n    }    \n\n    function setAliasName(uint256 _heroId, string _aliasName) public {\n        require(msg.sender == heroAsset.ownerOf(_heroId));\n        hero.setAliasName(_heroId, _aliasName);\n    }\n\n    // function setIpfs(uint256 _heroId, string _ipfs) public {}\n\n}\n",
  "sourcePath": "/Users/hironobu/devs/mch-beta/contracts/hero/HeroManager.sol",
  "compiler": {
    "name": "solc",
    "version": "0.4.24+commit.e67f0147.Emscripten.clang"
  },
  "schemaVersion": "2.0.1",
  "updatedAt": "2018-09-23T15:00:18.158Z"
}