{
  "contractName": "Hero",
  "abi": [
    {
      "constant": true,
      "inputs": [],
      "name": "HERO_TYPE_OFFSET",
      "outputs": [
        {
          "name": "",
          "type": "uint16"
        }
      ],
      "payable": false,
      "stateMutability": "view",
      "type": "function"
    },
    {
      "constant": true,
      "inputs": [
        {
          "name": "",
          "type": "uint16"
        },
        {
          "name": "",
          "type": "uint256"
        }
      ],
      "name": "heroTypeIds",
      "outputs": [
        {
          "name": "",
          "type": "uint256"
        }
      ],
      "payable": false,
      "stateMutability": "view",
      "type": "function"
    },
    {
      "constant": true,
      "inputs": [
        {
          "name": "",
          "type": "uint16"
        }
      ],
      "name": "heroTypes",
      "outputs": [
        {
          "name": "heroName",
          "type": "string"
        },
        {
          "name": "ipfs",
          "type": "string"
        },
        {
          "name": "hp",
          "type": "int16"
        },
        {
          "name": "phy",
          "type": "int16"
        },
        {
          "name": "intl",
          "type": "int16"
        },
        {
          "name": "agi",
          "type": "int16"
        },
        {
          "name": "initalActiveSkillId",
          "type": "uint16"
        },
        {
          "name": "passiveSkillId",
          "type": "uint16"
        },
        {
          "name": "rarity",
          "type": "uint16"
        },
        {
          "name": "exists",
          "type": "bool"
        }
      ],
      "payable": false,
      "stateMutability": "view",
      "type": "function"
    },
    {
      "constant": false,
      "inputs": [
        {
          "name": "account",
          "type": "address"
        }
      ],
      "name": "addMinter",
      "outputs": [],
      "payable": false,
      "stateMutability": "nonpayable",
      "type": "function"
    },
    {
      "constant": false,
      "inputs": [],
      "name": "renounceMinter",
      "outputs": [],
      "payable": false,
      "stateMutability": "nonpayable",
      "type": "function"
    },
    {
      "constant": true,
      "inputs": [
        {
          "name": "",
          "type": "uint256"
        }
      ],
      "name": "heroes",
      "outputs": [
        {
          "name": "heroType",
          "type": "uint16"
        },
        {
          "name": "hp",
          "type": "int16"
        },
        {
          "name": "phy",
          "type": "int16"
        },
        {
          "name": "intl",
          "type": "int16"
        },
        {
          "name": "agi",
          "type": "int16"
        },
        {
          "name": "activeSkillId",
          "type": "uint16"
        },
        {
          "name": "aliasName",
          "type": "string"
        },
        {
          "name": "ipfs",
          "type": "string"
        },
        {
          "name": "exists",
          "type": "bool"
        }
      ],
      "payable": false,
      "stateMutability": "view",
      "type": "function"
    },
    {
      "constant": true,
      "inputs": [
        {
          "name": "account",
          "type": "address"
        }
      ],
      "name": "isMinter",
      "outputs": [
        {
          "name": "",
          "type": "bool"
        }
      ],
      "payable": false,
      "stateMutability": "view",
      "type": "function"
    },
    {
      "constant": true,
      "inputs": [
        {
          "name": "_heroType",
          "type": "uint16"
        }
      ],
      "name": "getHeroType",
      "outputs": [
        {
          "name": "heroName",
          "type": "string"
        },
        {
          "name": "ipfs",
          "type": "string"
        },
        {
          "name": "hp",
          "type": "int16"
        },
        {
          "name": "phy",
          "type": "int16"
        },
        {
          "name": "intl",
          "type": "int16"
        },
        {
          "name": "agi",
          "type": "int16"
        },
        {
          "name": "initalActiveSkillId",
          "type": "uint16"
        },
        {
          "name": "passiveSkillId",
          "type": "uint16"
        },
        {
          "name": "rarity",
          "type": "uint16"
        }
      ],
      "payable": false,
      "stateMutability": "view",
      "type": "function"
    },
    {
      "constant": false,
      "inputs": [
        {
          "name": "_heroType",
          "type": "uint16"
        },
        {
          "name": "_heroName",
          "type": "string"
        },
        {
          "name": "_ipfs",
          "type": "string"
        },
        {
          "name": "_hp",
          "type": "int16"
        },
        {
          "name": "_phy",
          "type": "int16"
        },
        {
          "name": "_intl",
          "type": "int16"
        },
        {
          "name": "_agi",
          "type": "int16"
        },
        {
          "name": "_initalActiveSkillId",
          "type": "uint16"
        },
        {
          "name": "_passiveSkillId",
          "type": "uint16"
        },
        {
          "name": "_rarity",
          "type": "uint16"
        }
      ],
      "name": "setHeroType",
      "outputs": [],
      "payable": false,
      "stateMutability": "nonpayable",
      "type": "function"
    },
    {
      "anonymous": false,
      "inputs": [
        {
          "indexed": false,
          "name": "heroId",
          "type": "uint256"
        },
        {
          "indexed": false,
          "name": "name",
          "type": "string"
        },
        {
          "indexed": false,
          "name": "ipfs",
          "type": "string"
        }
      ],
      "name": "HeroSetting",
      "type": "event"
    },
    {
      "anonymous": false,
      "inputs": [
        {
          "indexed": false,
          "name": "heroType",
          "type": "uint16"
        },
        {
          "indexed": false,
          "name": "name",
          "type": "string"
        },
        {
          "indexed": false,
          "name": "ipfs",
          "type": "string"
        },
        {
          "indexed": false,
          "name": "hp",
          "type": "int16"
        },
        {
          "indexed": false,
          "name": "phy",
          "type": "int16"
        },
        {
          "indexed": false,
          "name": "intl",
          "type": "int16"
        },
        {
          "indexed": false,
          "name": "agi",
          "type": "int16"
        },
        {
          "indexed": false,
          "name": "initialActiveSkillId",
          "type": "uint16"
        },
        {
          "indexed": false,
          "name": "passiveSkillId",
          "type": "uint16"
        },
        {
          "indexed": false,
          "name": "rarity",
          "type": "uint16"
        }
      ],
      "name": "HeroTypeSetting",
      "type": "event"
    },
    {
      "anonymous": false,
      "inputs": [
        {
          "indexed": true,
          "name": "account",
          "type": "address"
        }
      ],
      "name": "MinterAdded",
      "type": "event"
    },
    {
      "anonymous": false,
      "inputs": [
        {
          "indexed": true,
          "name": "account",
          "type": "address"
        }
      ],
      "name": "MinterRemoved",
      "type": "event"
    },
    {
      "constant": false,
      "inputs": [
        {
          "name": "_heroId",
          "type": "uint256"
        },
        {
          "name": "_ipfs",
          "type": "string"
        },
        {
          "name": "_activeSkillId",
          "type": "uint16"
        }
      ],
      "name": "setIpfs",
      "outputs": [],
      "payable": false,
      "stateMutability": "nonpayable",
      "type": "function"
    },
    {
      "constant": false,
      "inputs": [
        {
          "name": "_heroId",
          "type": "uint256"
        },
        {
          "name": "_aliasName",
          "type": "string"
        }
      ],
      "name": "setAliasName",
      "outputs": [],
      "payable": false,
      "stateMutability": "nonpayable",
      "type": "function"
    },
    {
      "constant": false,
      "inputs": [
        {
          "name": "_heroId",
          "type": "uint256"
        }
      ],
      "name": "createHero",
      "outputs": [],
      "payable": false,
      "stateMutability": "nonpayable",
      "type": "function"
    },
    {
      "constant": false,
      "inputs": [
        {
          "name": "_heroId",
          "type": "uint256"
        }
      ],
      "name": "updateHero",
      "outputs": [],
      "payable": false,
      "stateMutability": "nonpayable",
      "type": "function"
    },
    {
      "constant": true,
      "inputs": [
        {
          "name": "_heroId",
          "type": "uint256"
        }
      ],
      "name": "getHero",
      "outputs": [
        {
          "name": "heroType",
          "type": "uint16"
        },
        {
          "name": "hp",
          "type": "int16"
        },
        {
          "name": "phy",
          "type": "int16"
        },
        {
          "name": "intl",
          "type": "int16"
        },
        {
          "name": "agi",
          "type": "int16"
        },
        {
          "name": "activeSkillId",
          "type": "uint16"
        },
        {
          "name": "passiveSkillId",
          "type": "uint16"
        },
        {
          "name": "aliasName",
          "type": "string"
        },
        {
          "name": "ipfs",
          "type": "string"
        }
      ],
      "payable": false,
      "stateMutability": "view",
      "type": "function"
    },
    {
      "constant": true,
      "inputs": [
        {
          "name": "_heroType",
          "type": "uint16"
        }
      ],
      "name": "getHeroTypeLength",
      "outputs": [
        {
          "name": "",
          "type": "uint16"
        }
      ],
      "payable": false,
      "stateMutability": "view",
      "type": "function"
    }
  ],
  "bytecode": "0x608060405261001c60003364010000000061202661002182021704565b61005b565b600160a060020a038116151561003657600080fd5b600160a060020a0316600090815260209190915260409020805460ff19166001179055565b6122348061006a6000396000f3006080604052600436106100da5763ffffffff7c010000000000000000000000000000000000000000000000000000000060003504166321d8011181146100df5780632c6bc54c14610236578063487175bb146102965780634890087f146102c95780636980f4fb146102de578063742cf6aa1461030f578063983b2d56146104625780639865027514610483578063a8d4a03b14610498578063aa271e1a146105a6578063baced397146105db578063bd66d658146105f3578063d400b01a146106f7578063e1c8bc44146107ce578063e6bd9f11146107e6575b600080fd5b3480156100eb57600080fd5b506100f760043561084a565b604051808a61ffff1661ffff1681526020018960010b60010b81526020018860010b60010b81526020018760010b60010b81526020018660010b60010b81526020018561ffff1661ffff1681526020018461ffff1661ffff1681526020018060200180602001838103835285818151815260200191508051906020019080838360005b8381101561019257818101518382015260200161017a565b50505050905090810190601f1680156101bf5780820380516001836020036101000a031916815260200191505b50838103825284518152845160209182019186019080838360005b838110156101f25781810151838201526020016101da565b50505050905090810190601f16801561021f5780820380516001836020036101000a031916815260200191505b509b50505050505050505050505060405180910390f35b34801561024257600080fd5b5060408051602060046024803582810135601f8101859004850286018501909652858552610294958335953695604494919390910191908190840183828082843750949750610cd19650505050505050565b005b3480156102a257600080fd5b506102b261ffff60043516610e66565b6040805161ffff9092168252519081900360200190f35b3480156102d557600080fd5b506102b2610e7c565b3480156102ea57600080fd5b506102fd61ffff60043516602435610e82565b60408051918252519081900360200190f35b34801561031b57600080fd5b5061032b61ffff60043516610eb2565b6040805160018a810b810b9282019290925288820b820b606082015287820b820b608082015286820b90910b60a082015261ffff80861660c083015284811660e083015283166101008201528115156101208201526101408082528b51908201528a5181906020808301916101608401918f019080838360005b838110156103bd5781810151838201526020016103a5565b50505050905090810190601f1680156103ea5780820380516001836020036101000a031916815260200191505b5083810382528c5181528c516020918201918e019080838360005b8381101561041d578181015183820152602001610405565b50505050905090810190601f16801561044a5780820380516001836020036101000a031916815260200191505b509c5050505050505050505050505060405180910390f35b34801561046e57600080fd5b50610294600160a060020a0360043516611065565b34801561048f57600080fd5b506102946110c1565b3480156104a457600080fd5b506104b06004356110d4565b604051808a61ffff1661ffff1681526020018960010b60010b81526020018860010b60010b81526020018760010b60010b81526020018660010b60010b81526020018561ffff1661ffff168152602001806020018060200184151515158152602001838103835286818151815260200191508051906020019080838360005b8381101561054757818101518382015260200161052f565b50505050905090810190601f1680156105745780820380516001836020036101000a031916815260200191505b5083810382528551815285516020918201918701908083836000838110156101f25781810151838201526020016101da565b3480156105b257600080fd5b506105c7600160a060020a036004351661125d565b604080519115158252519081900360200190f35b3480156105e757600080fd5b50610294600435611275565b3480156105ff57600080fd5b5061060f61ffff600435166115b3565b60408051600189810b810b9282019290925287820b820b606082015286820b820b608082015285820b90910b60a082015261ffff80851660c083015283811660e083015282166101008201526101208082528a5190820152895181906020808301916101408401918e019080838360005b83811015610698578181015183820152602001610680565b50505050905090810190601f1680156106c55780820380516001836020036101000a031916815260200191505b5083810382528b5181528b516020918201918d01908083836000838110156101f25781810151838201526020016101da565b34801561070357600080fd5b5060408051602060046024803582810135601f810185900485028601850190965285855261029495833561ffff1695369560449491939091019190819084018382808284375050604080516020601f89358b018035918201839004830284018301909452808352979a99988101979196509182019450925082915084018382808284375094975050508335600190810b95506020850135810b946040810135820b9450606081013590910b925061ffff60808201358116925060a082013581169160c001351661182a565b3480156107da57600080fd5b50610294600435611b07565b3480156107f257600080fd5b5060408051602060046024803582810135601f81018590048502860185019096528585526102949583359536956044949193909101919081908401838280828437509497505050923561ffff169350611e7192505050565b60008060008060008060006060806108606120ce565b610868612119565b60008c815260026020818152604092839020835161012081018552815461ffff8082168352620100008204600190810b810b810b848701526401000000008304810b810b810b8489015266010000000000008304810b810b810b6060850152680100000000000000008304810b810b810b60808501526a01000000000000000000009092041660a0830152808301805487516101009382161593909302600019011695909504601f81018590048502820185019096528581529094919360c08601939192909183018282801561097f5780601f106109545761010080835404028352916020019161097f565b820191906000526020600020905b81548152906001019060200180831161096257829003601f168201915b5050509183525050600282810180546040805160206001841615610100026000190190931694909404601f81018390048302850183019091528084529381019390830182828015610a115780601f106109e657610100808354040283529160200191610a11565b820191906000526020600020905b8154815290600101906020018083116109f457829003601f168201915b50505091835250506003919091015460ff1615156020909101526101008101519092501515610a3f57600080fd5b815161ffff166000908152600160208181526040928390208351815460029481161561010002600019011693909304601f8101839004909202830161016090810190945261014083018281529293909284929091849190840182828015610ae75780601f10610abc57610100808354040283529160200191610ae7565b820191906000526020600020905b815481529060010190602001808311610aca57829003601f168201915b50505050508152602001600182018054600181600116156101000203166002900480601f016020809104026020016040519081016040528092919081815260200182805460018160011615610100020316600290048015610b895780601f10610b5e57610100808354040283529160200191610b89565b820191906000526020600020905b815481529060010190602001808311610b6c57829003601f168201915b505050505081526020016002820160009054906101000a900460010b60010b60010b81526020016002820160029054906101000a900460010b60010b60010b81526020016002820160049054906101000a900460010b60010b60010b81526020016002820160069054906101000a900460010b60010b60010b81526020016002820160089054906101000a900461ffff1661ffff1661ffff16815260200160028201600a9054906101000a900461ffff1661ffff1661ffff16815260200160028201600c9054906101000a900461ffff1661ffff1661ffff16815260200160028201600e9054906101000a900460ff161515151581525050905081600001519a50816020015199508160400151985081606001519750816080015196508160a0015195508060e0015194508160c0015193508160e00151925050509193959799909294969850565b6000610cdc3361125d565b1515610ce757600080fd5b506000828152600260205260409020600381015460ff161515610d0957600080fd5b8151610d1e906001830190602085019061216d565b507f4d66863e7aaa1ff08277317056aa0b5ff334234fd94e8a517f93ff1f9bff7265838260010183600201604051808481526020018060200180602001838103835285818154600181600116156101000203166002900481526020019150805460018160011615610100020316600290048015610ddc5780601f10610db157610100808354040283529160200191610ddc565b820191906000526020600020905b815481529060010190602001808311610dbf57829003601f168201915b5050838103825284546002600019610100600184161502019091160480825260209091019085908015610e505780601f10610e2557610100808354040283529160200191610e50565b820191906000526020600020905b815481529060010190602001808311610e3357829003601f168201915b50509550505050505060405180910390a1505050565b61ffff1660009081526003602052604090205490565b61271081565b600360205281600052604060002081815481101515610e9d57fe5b90600052602060002001600091509150505481565b60016020818152600092835260409283902080548451600294821615610100026000190190911693909304601f8101839004830284018301909452838352928391830182828015610f445780601f10610f1957610100808354040283529160200191610f44565b820191906000526020600020905b815481529060010190602001808311610f2757829003601f168201915b505050505090806001018054600181600116156101000203166002900480601f016020809104026020016040519081016040528092919081815260200182805460018160011615610100020316600290048015610fe25780601f10610fb757610100808354040283529160200191610fe2565b820191906000526020600020905b815481529060010190602001808311610fc557829003601f168201915b50505060029093015491925050600181810b91620100008104820b916401000000008204810b916601000000000000810490910b9061ffff6801000000000000000082048116916a010000000000000000000081048216916c010000000000000000000000008204169060ff6e010000000000000000000000000000909104168a565b61106e3361125d565b151561107957600080fd5b61108a60008263ffffffff61202616565b604051600160a060020a038216907f6ae172837ea30b801fbfcdd4108aa1d5bf8ff775444fd70256b44e6bf3dfc3f690600090a250565b6110d260003363ffffffff61206016565b565b600260208181526000928352604092839020805460018083018054875161010082851615026000190190911696909604601f810186900486028701860190975286865261ffff80841697620100008504840b976401000000008604850b9766010000000000008704860b9768010000000000000000880490960b966a01000000000000000000009004909316949390929091908301828280156111b85780601f1061118d576101008083540402835291602001916111b8565b820191906000526020600020905b81548152906001019060200180831161119b57829003601f168201915b50505060028085018054604080516020601f600019610100600187161502019094169590950492830185900485028101850190915281815295969594509092509083018282801561124a5780601f1061121f5761010080835404028352916020019161124a565b820191906000526020600020905b81548152906001019060200180831161122d57829003601f168201915b5050506003909301549192505060ff1689565b600061126f818363ffffffff61209716565b92915050565b600080611280612119565b6112893361125d565b151561129457600080fd5b6000848152600260205260409020600381015490935060ff1615156112b857600080fd5b612710840461ffff81166000908152600160208181526040928390208351815460029481161561010002600019011693909304601f8101839004909202830161016090810190945261014083018281529496509193919284929184918401828280156113655780601f1061133a57610100808354040283529160200191611365565b820191906000526020600020905b81548152906001019060200180831161134857829003601f168201915b50505050508152602001600182018054600181600116156101000203166002900480601f0160208091040260200160405190810160405280929190818152602001828054600181600116156101000203166002900480156114075780601f106113dc57610100808354040283529160200191611407565b820191906000526020600020905b8154815290600101906020018083116113ea57829003601f168201915b505050918352505060029190910154600181810b810b810b6020840152620100008204810b810b810b60408401526401000000008204810b810b810b606084015266010000000000008204810b810b900b608083015261ffff680100000000000000008204811660a08401526a01000000000000000000008204811660c08401526c0100000000000000000000000082041660e083015260ff6e0100000000000000000000000000009091041615156101009091015261012081015190915015156114d157600080fd5b825460408201516060830151608084015160a085015161ffff1990941661ffff8781169190911763ffff0000191662010000600195860b8316021765ffff00000000191664010000000093850b8216939093029290921767ffff0000000000001916660100000000000091840b8316919091021769ffff00000000000000001916680100000000000000009390920b16919091021783556020808201518051611580926002870192019061216d565b5060c00151825461ffff9091166a0100000000000000000000026bffff0000000000000000000019909116179091555050565b60608060008060008060008060006115c9612119565b61ffff8b166000908152600160208181526040928390208351815460029481161561010002600019011693909304601f81018390049092028301610160908101909452610140830182815292939092849290918491908401828280156116705780601f1061164557610100808354040283529160200191611670565b820191906000526020600020905b81548152906001019060200180831161165357829003601f168201915b50505050508152602001600182018054600181600116156101000203166002900480601f0160208091040260200160405190810160405280929190818152602001828054600181600116156101000203166002900480156117125780601f106116e757610100808354040283529160200191611712565b820191906000526020600020905b8154815290600101906020018083116116f557829003601f168201915b505050918352505060029190910154600181810b810b810b6020840152620100008204810b810b810b60408401526401000000008204810b810b810b606084015266010000000000008204810b810b900b608083015261ffff680100000000000000008204811660a08401526a01000000000000000000008204811660c08401526c0100000000000000000000000082041660e083015260ff6e0100000000000000000000000000009091041615156101009091015261012081015190915015156117dc57600080fd5b80600001519950806020015198508060400151975080606001519650806080015195508060a0015194508060c0015193508060e0015192508061010001519150509193959799909294969850565b60006118353361125d565b151561184057600080fd5b5061ffff8a1660009081526001602090815260409091208a5190916118699183918d019061216d565b50885161187f90600183019060208c019061216d565b50878160020160006101000a81548161ffff021916908360010b61ffff160217905550868160020160026101000a81548161ffff021916908360010b61ffff160217905550858160020160046101000a81548161ffff021916908360010b61ffff160217905550848160020160066101000a81548161ffff021916908360010b61ffff160217905550838160020160086101000a81548161ffff021916908361ffff1602179055508281600201600a6101000a81548161ffff021916908361ffff1602179055508181600201600c6101000a81548161ffff021916908361ffff160217905550600181600201600e6101000a81548160ff0219169083151502179055507f3a62cb587ec54d20a70eaf6eaf103055dd79d729c87cc6b7a0a543dee8ffebb98b8b8b8b8b8b8b8b8b8b604051808b61ffff1661ffff16815260200180602001806020018a60010b60010b81526020018960010b60010b81526020018860010b60010b81526020018760010b60010b81526020018661ffff1661ffff1681526020018561ffff1661ffff1681526020018461ffff1661ffff16815260200183810383528c818151815260200191508051906020019080838360005b83811015611a56578181015183820152602001611a3e565b50505050905090810190601f168015611a835780820380516001836020036101000a031916815260200191505b5083810382528b5181528b516020918201918d019080838360005b83811015611ab6578181015183820152602001611a9e565b50505050905090810190601f168015611ae35780820380516001836020036101000a031916815260200191505b509c5050505050505050505050505060405180910390a15050505050505050505050565b600080611b12612119565b611b1b3361125d565b1515611b2657600080fd5b6000848152600260205260409020600381015490935060ff1615611b4957600080fd5b612710840461ffff81166000908152600160208181526040928390208351815460029481161561010002600019011693909304601f810183900490920283016101609081019094526101408301828152949650919391928492918491840182828015611bf65780601f10611bcb57610100808354040283529160200191611bf6565b820191906000526020600020905b815481529060010190602001808311611bd957829003601f168201915b50505050508152602001600182018054600181600116156101000203166002900480601f016020809104026020016040519081016040528092919081815260200182805460018160011615610100020316600290048015611c985780601f10611c6d57610100808354040283529160200191611c98565b820191906000526020600020905b815481529060010190602001808311611c7b57829003601f168201915b505050918352505060029190910154600181810b810b810b6020840152620100008204810b810b810b60408401526401000000008204810b810b810b606084015266010000000000008204810b810b900b608083015261ffff680100000000000000008204811660a08401526a01000000000000000000008204811660c08401526c0100000000000000000000000082041660e083015260ff6e010000000000000000000000000000909104161515610100909101526101208101519091501515611d6257600080fd5b825460408201516060830151608084015160a085015161ffff1990941661ffff8781169190911763ffff0000191662010000600195860b8316021765ffff00000000191664010000000093850b8216939093029290921767ffff0000000000001916660100000000000091840b8316919091021769ffff00000000000000001916680100000000000000009390920b16919091021783556020808201518051611e11926002870192019061216d565b5060c0015182546bffff0000000000000000000019166a010000000000000000000061ffff928316021783556003928301805460ff1916600190811790915591166000908152602092835260408120805492830181558152919091200155565b6000611e7c3361125d565b1515611e8757600080fd5b506000838152600260205260409020600381015460ff161515611ea957600080fd5b8251611ebe906002830190602086019061216d565b5080546bffff0000000000000000000019166a010000000000000000000061ffff84160217815560408051858152606060208201818152600180860180546002610100938216159390930260001901168290049385018490527f4d66863e7aaa1ff08277317056aa0b5ff334234fd94e8a517f93ff1f9bff7265958a95919492880193919290830190608084019086908015611f9b5780601f10611f7057610100808354040283529160200191611f9b565b820191906000526020600020905b815481529060010190602001808311611f7e57829003601f168201915b505083810382528454600260001961010060018416150201909116048082526020909101908590801561200f5780601f10611fe45761010080835404028352916020019161200f565b820191906000526020600020905b815481529060010190602001808311611ff257829003601f168201915b50509550505050505060405180910390a150505050565b600160a060020a038116151561203b57600080fd5b600160a060020a0316600090815260209190915260409020805460ff19166001179055565b600160a060020a038116151561207557600080fd5b600160a060020a0316600090815260209190915260409020805460ff19169055565b6000600160a060020a03821615156120ae57600080fd5b50600160a060020a03166000908152602091909152604090205460ff1690565b604080516101208101825260008082526020820181905291810182905260608082018390526080820183905260a0820183905260c0820181905260e082015261010081019190915290565b6040805161014081018252606080825260208201819052600092820183905281018290526080810182905260a0810182905260c0810182905260e08101829052610100810182905261012081019190915290565b828054600181600116156101000203166002900490600052602060002090601f016020900481019282601f106121ae57805160ff19168380011785556121db565b828001600101855582156121db579182015b828111156121db5782518255916020019190600101906121c0565b506121e79291506121eb565b5090565b61220591905b808211156121e757600081556001016121f1565b905600a165627a7a7230582076e687c5ed37be01a8f2239fd9ac45da4f86e05ead5987349449dd8e52ffe1fd0029",
  "source": "pragma solidity 0.4.24;\n\nimport \"./HeroType.sol\";\n\n\ncontract Hero is HeroType {\n\n    event HeroSetting (uint256 heroId, string name, string ipfs);\n\n    uint16 public constant HERO_TYPE_OFFSET = 10000;\n\n    mapping(uint256 => HeroData) public heroes;\n    mapping(uint16 => uint256[]) public heroTypeIds;\n\n    struct HeroData {\n        uint16 heroType;\n        int16 hp;\n        int16 phy;\n        int16 intl;\n        int16 agi;\n        uint16 activeSkillId;\n        string aliasName;\n        string ipfs;\n        bool exists;\n    }\n\n    function setIpfs(uint256 _heroId, string _ipfs, uint16 _activeSkillId) public onlyMinter {\n        HeroData storage data = heroes[_heroId];\n        require(data.exists);\n        data.ipfs = _ipfs;\n        data.activeSkillId = _activeSkillId;\n        \n        emit HeroSetting (_heroId, data.aliasName, data.ipfs);\n    }\n\n    function setAliasName(uint256 _heroId, string _aliasName) public onlyMinter {\n        HeroData storage data = heroes[_heroId];\n        require(data.exists);\n        data.aliasName = _aliasName;\n\n        emit HeroSetting (_heroId, data.aliasName, data.ipfs);\n    }\n\n    function createHero(uint256 _heroId) public onlyMinter {\n        HeroData storage data = heroes[_heroId];\n        require(!data.exists);\n        \n        uint16 _heroType = uint16(_heroId / HERO_TYPE_OFFSET);\n        HeroTypeData memory heroTypeData = heroTypes[_heroType];\n        require(heroTypeData.exists);\n\n        data.heroType = _heroType;\n        data.hp = heroTypeData.hp;\n        data.phy = heroTypeData.phy;\n        data.intl = heroTypeData.intl;\n        data.agi = heroTypeData.agi;\n        data.ipfs = heroTypeData.ipfs;\n        data.activeSkillId = heroTypeData.initalActiveSkillId;\n        data.exists = true;\n        \n        heroTypeIds[_heroType].push(_heroId);\n    } \n\n    function updateHero(uint256 _heroId) public onlyMinter {\n        HeroData storage data = heroes[_heroId];\n        require(data.exists);\n        \n        uint16 _heroType = uint16(_heroId / HERO_TYPE_OFFSET);\n        HeroTypeData memory heroTypeData = heroTypes[_heroType];\n        require(heroTypeData.exists);\n\n        data.heroType = _heroType;\n        data.hp = heroTypeData.hp;\n        data.phy = heroTypeData.phy;\n        data.intl = heroTypeData.intl;\n        data.agi = heroTypeData.agi;\n        data.ipfs = heroTypeData.ipfs;\n        data.activeSkillId = heroTypeData.initalActiveSkillId;\n    }\n\n    function getHero(uint256 _heroId) public view returns (\n        uint16  heroType,\n        int16   hp,\n        int16   phy,\n        int16   intl,\n        int16   agi,\n        uint16  activeSkillId,\n        uint16  passiveSkillId,\n        string  aliasName,\n        string  ipfs\n    ) {\n        HeroData memory data = heroes[_heroId];\n        require(data.exists);\n        HeroTypeData memory typeData = heroTypes[data.heroType];\n        heroType = data.heroType;\n        hp = data.hp;\n        phy = data.phy;\n        intl = data.intl;\n        agi = data.agi;\n        activeSkillId = data.activeSkillId;\n        passiveSkillId = typeData.passiveSkillId;\n        aliasName = string(data.aliasName);\n        ipfs = string(data.ipfs);\n    }\n    \n    function getHeroTypeLength(uint16 _heroType) public view returns (uint16) {\n        return uint16(heroTypeIds[_heroType].length);\n    }\n}\n",
  "sourcePath": "/Users/hironobu/devs/mch-beta/contracts/hero/Hero.sol",
  "compiler": {
    "name": "solc",
    "version": "0.4.24+commit.e67f0147.Emscripten.clang"
  },
  "schemaVersion": "2.0.1",
  "updatedAt": "2018-09-27T10:06:28.720Z"
}