{
  "contractName": "Hero",
  "abi": [
    {
      "constant": true,
      "inputs": [],
      "name": "HERO_TYPE_OFFSET",
      "outputs": [
        {
          "name": "",
          "type": "uint16"
        }
      ],
      "payable": false,
      "stateMutability": "view",
      "type": "function"
    },
    {
      "constant": true,
      "inputs": [
        {
          "name": "",
          "type": "uint16"
        },
        {
          "name": "",
          "type": "uint256"
        }
      ],
      "name": "heroTypeIds",
      "outputs": [
        {
          "name": "",
          "type": "uint256"
        }
      ],
      "payable": false,
      "stateMutability": "view",
      "type": "function"
    },
    {
      "constant": true,
      "inputs": [
        {
          "name": "",
          "type": "uint16"
        }
      ],
      "name": "heroTypes",
      "outputs": [
        {
          "name": "heroName",
          "type": "bytes"
        },
        {
          "name": "ipfs",
          "type": "bytes"
        },
        {
          "name": "hp",
          "type": "int16"
        },
        {
          "name": "phy",
          "type": "int16"
        },
        {
          "name": "intl",
          "type": "int16"
        },
        {
          "name": "agi",
          "type": "int16"
        },
        {
          "name": "initalActiveSkillId",
          "type": "uint16"
        },
        {
          "name": "passiveSkillId",
          "type": "uint16"
        },
        {
          "name": "rarity",
          "type": "uint16"
        },
        {
          "name": "exists",
          "type": "bool"
        }
      ],
      "payable": false,
      "stateMutability": "view",
      "type": "function"
    },
    {
      "constant": false,
      "inputs": [
        {
          "name": "account",
          "type": "address"
        }
      ],
      "name": "addMinter",
      "outputs": [],
      "payable": false,
      "stateMutability": "nonpayable",
      "type": "function"
    },
    {
      "constant": false,
      "inputs": [],
      "name": "renounceMinter",
      "outputs": [],
      "payable": false,
      "stateMutability": "nonpayable",
      "type": "function"
    },
    {
      "constant": true,
      "inputs": [
        {
          "name": "",
          "type": "uint256"
        }
      ],
      "name": "heroes",
      "outputs": [
        {
          "name": "heroType",
          "type": "uint16"
        },
        {
          "name": "hp",
          "type": "int16"
        },
        {
          "name": "phy",
          "type": "int16"
        },
        {
          "name": "intl",
          "type": "int16"
        },
        {
          "name": "agi",
          "type": "int16"
        },
        {
          "name": "activeSkillId",
          "type": "uint16"
        },
        {
          "name": "aliasName",
          "type": "bytes"
        },
        {
          "name": "ipfs",
          "type": "bytes"
        },
        {
          "name": "exists",
          "type": "bool"
        }
      ],
      "payable": false,
      "stateMutability": "view",
      "type": "function"
    },
    {
      "constant": true,
      "inputs": [
        {
          "name": "account",
          "type": "address"
        }
      ],
      "name": "isMinter",
      "outputs": [
        {
          "name": "",
          "type": "bool"
        }
      ],
      "payable": false,
      "stateMutability": "view",
      "type": "function"
    },
    {
      "constant": true,
      "inputs": [
        {
          "name": "_heroType",
          "type": "uint16"
        }
      ],
      "name": "getHeroType",
      "outputs": [
        {
          "name": "heroName",
          "type": "string"
        },
        {
          "name": "ipfs",
          "type": "string"
        },
        {
          "name": "hp",
          "type": "int16"
        },
        {
          "name": "phy",
          "type": "int16"
        },
        {
          "name": "intl",
          "type": "int16"
        },
        {
          "name": "agi",
          "type": "int16"
        },
        {
          "name": "initalActiveSkillId",
          "type": "uint16"
        },
        {
          "name": "passiveSkillId",
          "type": "uint16"
        },
        {
          "name": "rarity",
          "type": "uint16"
        }
      ],
      "payable": false,
      "stateMutability": "view",
      "type": "function"
    },
    {
      "constant": false,
      "inputs": [
        {
          "name": "_heroType",
          "type": "uint16"
        },
        {
          "name": "_heroName",
          "type": "string"
        },
        {
          "name": "_ipfs",
          "type": "string"
        },
        {
          "name": "_hp",
          "type": "int16"
        },
        {
          "name": "_phy",
          "type": "int16"
        },
        {
          "name": "_intl",
          "type": "int16"
        },
        {
          "name": "_agi",
          "type": "int16"
        },
        {
          "name": "_initalActiveSkillId",
          "type": "uint16"
        },
        {
          "name": "_passiveSkillId",
          "type": "uint16"
        },
        {
          "name": "_rarity",
          "type": "uint16"
        }
      ],
      "name": "setHeroType",
      "outputs": [],
      "payable": false,
      "stateMutability": "nonpayable",
      "type": "function"
    },
    {
      "anonymous": false,
      "inputs": [
        {
          "indexed": true,
          "name": "account",
          "type": "address"
        }
      ],
      "name": "MinterAdded",
      "type": "event"
    },
    {
      "anonymous": false,
      "inputs": [
        {
          "indexed": true,
          "name": "account",
          "type": "address"
        }
      ],
      "name": "MinterRemoved",
      "type": "event"
    },
    {
      "constant": false,
      "inputs": [
        {
          "name": "_heroId",
          "type": "uint256"
        },
        {
          "name": "_ipfs",
          "type": "string"
        },
        {
          "name": "_activeSkillId",
          "type": "uint16"
        }
      ],
      "name": "setIpfs",
      "outputs": [],
      "payable": false,
      "stateMutability": "nonpayable",
      "type": "function"
    },
    {
      "constant": false,
      "inputs": [
        {
          "name": "_heroId",
          "type": "uint256"
        },
        {
          "name": "_aliasName",
          "type": "string"
        }
      ],
      "name": "setAliasName",
      "outputs": [],
      "payable": false,
      "stateMutability": "nonpayable",
      "type": "function"
    },
    {
      "constant": false,
      "inputs": [
        {
          "name": "_heroId",
          "type": "uint256"
        }
      ],
      "name": "createHero",
      "outputs": [],
      "payable": false,
      "stateMutability": "nonpayable",
      "type": "function"
    },
    {
      "constant": true,
      "inputs": [
        {
          "name": "_heroId",
          "type": "uint256"
        }
      ],
      "name": "getHero",
      "outputs": [
        {
          "name": "heroType",
          "type": "uint16"
        },
        {
          "name": "hp",
          "type": "int16"
        },
        {
          "name": "phy",
          "type": "int16"
        },
        {
          "name": "intl",
          "type": "int16"
        },
        {
          "name": "agi",
          "type": "int16"
        },
        {
          "name": "activeSkillId",
          "type": "uint16"
        },
        {
          "name": "passiveSkillId",
          "type": "uint16"
        },
        {
          "name": "aliasName",
          "type": "string"
        },
        {
          "name": "ipfs",
          "type": "string"
        }
      ],
      "payable": false,
      "stateMutability": "view",
      "type": "function"
    },
    {
      "constant": true,
      "inputs": [
        {
          "name": "_heroType",
          "type": "uint16"
        }
      ],
      "name": "getHeroTypeLength",
      "outputs": [
        {
          "name": "",
          "type": "uint16"
        }
      ],
      "payable": false,
      "stateMutability": "view",
      "type": "function"
    }
  ],
  "bytecode": "0x608060405261001c6000336401000000006118d461002182021704565b61005b565b600160a060020a038116151561003657600080fd5b600160a060020a0316600090815260209190915260409020805460ff19166001179055565b611ae28061006a6000396000f3006080604052600436106100cf5763ffffffff7c010000000000000000000000000000000000000000000000000000000060003504166321d8011181146100d45780632c6bc54c1461022b578063487175bb1461028b5780634890087f146102be5780636980f4fb146102d3578063742cf6aa14610304578063983b2d56146104575780639865027514610478578063a8d4a03b1461048d578063aa271e1a1461059b578063bd66d658146105d0578063d400b01a146106d4578063e1c8bc44146107ab578063e6bd9f11146107c3575b600080fd5b3480156100e057600080fd5b506100ec600435610827565b604051808a61ffff1661ffff1681526020018960010b60010b81526020018860010b60010b81526020018760010b60010b81526020018660010b60010b81526020018561ffff1661ffff1681526020018461ffff1661ffff1681526020018060200180602001838103835285818151815260200191508051906020019080838360005b8381101561018757818101518382015260200161016f565b50505050905090810190601f1680156101b45780820380516001836020036101000a031916815260200191505b50838103825284518152845160209182019186019080838360005b838110156101e75781810151838201526020016101cf565b50505050905090810190601f1680156102145780820380516001836020036101000a031916815260200191505b509b50505050505050505050505060405180910390f35b34801561023757600080fd5b5060408051602060046024803582810135601f8101859004850286018501909652858552610289958335953695604494919390910191908190840183828082843750949750610cae9650505050505050565b005b34801561029757600080fd5b506102a761ffff60043516610d01565b6040805161ffff9092168252519081900360200190f35b3480156102ca57600080fd5b506102a7610d17565b3480156102df57600080fd5b506102f261ffff60043516602435610d1d565b60408051918252519081900360200190f35b34801561031057600080fd5b5061032061ffff60043516610d4d565b6040805160018a810b810b9282019290925288820b820b606082015287820b820b608082015286820b90910b60a082015261ffff80861660c083015284811660e083015283166101008201528115156101208201526101408082528b51908201528a5181906020808301916101608401918f019080838360005b838110156103b257818101518382015260200161039a565b50505050905090810190601f1680156103df5780820380516001836020036101000a031916815260200191505b5083810382528c5181528c516020918201918e019080838360005b838110156104125781810151838201526020016103fa565b50505050905090810190601f16801561043f5780820380516001836020036101000a031916815260200191505b509c5050505050505050505050505060405180910390f35b34801561046357600080fd5b50610289600160a060020a0360043516610f00565b34801561048457600080fd5b50610289610f5c565b34801561049957600080fd5b506104a5600435610f6f565b604051808a61ffff1661ffff1681526020018960010b60010b81526020018860010b60010b81526020018760010b60010b81526020018660010b60010b81526020018561ffff1661ffff168152602001806020018060200184151515158152602001838103835286818151815260200191508051906020019080838360005b8381101561053c578181015183820152602001610524565b50505050905090810190601f1680156105695780820380516001836020036101000a031916815260200191505b5083810382528551815285516020918201918701908083836000838110156101e75781810151838201526020016101cf565b3480156105a757600080fd5b506105bc600160a060020a03600435166110f8565b604080519115158252519081900360200190f35b3480156105dc57600080fd5b506105ec61ffff60043516611110565b60408051600189810b810b9282019290925287820b820b606082015286820b820b608082015285820b90910b60a082015261ffff80851660c083015283811660e083015282166101008201526101208082528a5190820152895181906020808301916101408401918e019080838360005b8381101561067557818101518382015260200161065d565b50505050905090810190601f1680156106a25780820380516001836020036101000a031916815260200191505b5083810382528b5181528b516020918201918d01908083836000838110156101e75781810151838201526020016101cf565b3480156106e057600080fd5b5060408051602060046024803582810135601f810185900485028601850190965285855261028995833561ffff1695369560449491939091019190819084018382808284375050604080516020601f89358b018035918201839004830284018301909452808352979a99988101979196509182019450925082915084018382808284375094975050508335600190810b95506020850135810b946040810135820b9450606081013590910b925061ffff60808201358116925060a082013581169160c0013516611387565b3480156107b757600080fd5b506102896004356114ec565b3480156107cf57600080fd5b5060408051602060046024803582810135601f81018590048502860185019096528585526102899583359536956044949193909101919081908401838280828437509497505050923561ffff16935061185692505050565b600080600080600080600060608061083d61197c565b6108456119c7565b60008c815260026020818152604092839020835161012081018552815461ffff8082168352620100008204600190810b810b810b848701526401000000008304810b810b810b8489015266010000000000008304810b810b810b6060850152680100000000000000008304810b810b810b60808501526a01000000000000000000009092041660a0830152808301805487516101009382161593909302600019011695909504601f81018590048502820185019096528581529094919360c08601939192909183018282801561095c5780601f106109315761010080835404028352916020019161095c565b820191906000526020600020905b81548152906001019060200180831161093f57829003601f168201915b5050509183525050600282810180546040805160206001841615610100026000190190931694909404601f810183900483028501830190915280845293810193908301828280156109ee5780601f106109c3576101008083540402835291602001916109ee565b820191906000526020600020905b8154815290600101906020018083116109d157829003601f168201915b50505091835250506003919091015460ff1615156020909101526101008101519092501515610a1c57600080fd5b815161ffff166000908152600160208181526040928390208351815460029481161561010002600019011693909304601f8101839004909202830161016090810190945261014083018281529293909284929091849190840182828015610ac45780601f10610a9957610100808354040283529160200191610ac4565b820191906000526020600020905b815481529060010190602001808311610aa757829003601f168201915b50505050508152602001600182018054600181600116156101000203166002900480601f016020809104026020016040519081016040528092919081815260200182805460018160011615610100020316600290048015610b665780601f10610b3b57610100808354040283529160200191610b66565b820191906000526020600020905b815481529060010190602001808311610b4957829003601f168201915b505050505081526020016002820160009054906101000a900460010b60010b60010b81526020016002820160029054906101000a900460010b60010b60010b81526020016002820160049054906101000a900460010b60010b60010b81526020016002820160069054906101000a900460010b60010b60010b81526020016002820160089054906101000a900461ffff1661ffff1661ffff16815260200160028201600a9054906101000a900461ffff1661ffff1661ffff16815260200160028201600c9054906101000a900461ffff1661ffff1661ffff16815260200160028201600e9054906101000a900460ff161515151581525050905081600001519a50816020015199508160400151985081606001519750816080015196508160a0015195508060e0015194508160c0015193508160e00151925050509193959799909294969850565b6000610cb9336110f8565b1515610cc457600080fd5b506000828152600260205260409020600381015460ff161515610ce657600080fd5b8151610cfb9060018301906020850190611a1b565b50505050565b61ffff1660009081526003602052604090205490565b61271081565b600360205281600052604060002081815481101515610d3857fe5b90600052602060002001600091509150505481565b60016020818152600092835260409283902080548451600294821615610100026000190190911693909304601f8101839004830284018301909452838352928391830182828015610ddf5780601f10610db457610100808354040283529160200191610ddf565b820191906000526020600020905b815481529060010190602001808311610dc257829003601f168201915b505050505090806001018054600181600116156101000203166002900480601f016020809104026020016040519081016040528092919081815260200182805460018160011615610100020316600290048015610e7d5780601f10610e5257610100808354040283529160200191610e7d565b820191906000526020600020905b815481529060010190602001808311610e6057829003601f168201915b50505060029093015491925050600181810b91620100008104820b916401000000008204810b916601000000000000810490910b9061ffff6801000000000000000082048116916a010000000000000000000081048216916c010000000000000000000000008204169060ff6e010000000000000000000000000000909104168a565b610f09336110f8565b1515610f1457600080fd5b610f2560008263ffffffff6118d416565b604051600160a060020a038216907f6ae172837ea30b801fbfcdd4108aa1d5bf8ff775444fd70256b44e6bf3dfc3f690600090a250565b610f6d60003363ffffffff61190e16565b565b600260208181526000928352604092839020805460018083018054875161010082851615026000190190911696909604601f810186900486028701860190975286865261ffff80841697620100008504840b976401000000008604850b9766010000000000008704860b9768010000000000000000880490960b966a01000000000000000000009004909316949390929091908301828280156110535780601f1061102857610100808354040283529160200191611053565b820191906000526020600020905b81548152906001019060200180831161103657829003601f168201915b50505060028085018054604080516020601f60001961010060018716150201909416959095049283018590048502810185019091528181529596959450909250908301828280156110e55780601f106110ba576101008083540402835291602001916110e5565b820191906000526020600020905b8154815290600101906020018083116110c857829003601f168201915b5050506003909301549192505060ff1689565b600061110a818363ffffffff61194516565b92915050565b60608060008060008060008060006111266119c7565b61ffff8b166000908152600160208181526040928390208351815460029481161561010002600019011693909304601f81018390049092028301610160908101909452610140830182815292939092849290918491908401828280156111cd5780601f106111a2576101008083540402835291602001916111cd565b820191906000526020600020905b8154815290600101906020018083116111b057829003601f168201915b50505050508152602001600182018054600181600116156101000203166002900480601f01602080910402602001604051908101604052809291908181526020018280546001816001161561010002031660029004801561126f5780601f106112445761010080835404028352916020019161126f565b820191906000526020600020905b81548152906001019060200180831161125257829003601f168201915b505050918352505060029190910154600181810b810b810b6020840152620100008204810b810b810b60408401526401000000008204810b810b810b606084015266010000000000008204810b810b900b608083015261ffff680100000000000000008204811660a08401526a01000000000000000000008204811660c08401526c0100000000000000000000000082041660e083015260ff6e01000000000000000000000000000090910416151561010090910152610120810151909150151561133957600080fd5b80600001519950806020015198508060400151975080606001519650806080015195508060a0015194508060c0015193508060e0015192508061010001519150509193959799909294969850565b6000611392336110f8565b151561139d57600080fd5b5061ffff8a1660009081526001602090815260409091208a5190916113c69183918d0190611a1b565b5088516113dc90600183019060208c0190611a1b565b50878160020160006101000a81548161ffff021916908360010b61ffff160217905550868160020160026101000a81548161ffff021916908360010b61ffff160217905550858160020160046101000a81548161ffff021916908360010b61ffff160217905550848160020160066101000a81548161ffff021916908360010b61ffff160217905550838160020160086101000a81548161ffff021916908361ffff1602179055508281600201600a6101000a81548161ffff021916908361ffff1602179055508181600201600c6101000a81548161ffff021916908361ffff160217905550600181600201600e6101000a81548160ff0219169083151502179055505050505050505050505050565b6000806114f76119c7565b611500336110f8565b151561150b57600080fd5b6000848152600260205260409020600381015490935060ff161561152e57600080fd5b612710840461ffff81166000908152600160208181526040928390208351815460029481161561010002600019011693909304601f8101839004909202830161016090810190945261014083018281529496509193919284929184918401828280156115db5780601f106115b0576101008083540402835291602001916115db565b820191906000526020600020905b8154815290600101906020018083116115be57829003601f168201915b50505050508152602001600182018054600181600116156101000203166002900480601f01602080910402602001604051908101604052809291908181526020018280546001816001161561010002031660029004801561167d5780601f106116525761010080835404028352916020019161167d565b820191906000526020600020905b81548152906001019060200180831161166057829003601f168201915b505050918352505060029190910154600181810b810b810b6020840152620100008204810b810b810b60408401526401000000008204810b810b810b606084015266010000000000008204810b810b900b608083015261ffff680100000000000000008204811660a08401526a01000000000000000000008204811660c08401526c0100000000000000000000000082041660e083015260ff6e01000000000000000000000000000090910416151561010090910152610120810151909150151561174757600080fd5b825460408201516060830151608084015160a085015161ffff1990941661ffff8781169190911763ffff0000191662010000600195860b8316021765ffff00000000191664010000000093850b8216939093029290921767ffff0000000000001916660100000000000091840b8316919091021769ffff00000000000000001916680100000000000000009390920b169190910217835560208082015180516117f69260028701920190611a1b565b5060c0015182546bffff0000000000000000000019166a010000000000000000000061ffff928316021783556003928301805460ff1916600190811790915591166000908152602092835260408120805492830181558152919091200155565b6000611861336110f8565b151561186c57600080fd5b506000838152600260205260409020600381015460ff16151561188e57600080fd5b82516118a39060028301906020860190611a1b565b50805461ffff9092166a0100000000000000000000026bffff00000000000000000000199092169190911790555050565b600160a060020a03811615156118e957600080fd5b600160a060020a0316600090815260209190915260409020805460ff19166001179055565b600160a060020a038116151561192357600080fd5b600160a060020a0316600090815260209190915260409020805460ff19169055565b6000600160a060020a038216151561195c57600080fd5b50600160a060020a03166000908152602091909152604090205460ff1690565b604080516101208101825260008082526020820181905291810182905260608082018390526080820183905260a0820183905260c0820181905260e082015261010081019190915290565b6040805161014081018252606080825260208201819052600092820183905281018290526080810182905260a0810182905260c0810182905260e08101829052610100810182905261012081019190915290565b828054600181600116156101000203166002900490600052602060002090601f016020900481019282601f10611a5c57805160ff1916838001178555611a89565b82800160010185558215611a89579182015b82811115611a89578251825591602001919060010190611a6e565b50611a95929150611a99565b5090565b611ab391905b80821115611a955760008155600101611a9f565b905600a165627a7a72305820a5a9ac918bfc8c0e52d58cf635904d25a4e8ed41cc96e8b88b8e1cc815f62c590029",
  "source": "pragma solidity 0.4.24;\n\nimport \"./HeroType.sol\";\n\n\ncontract Hero is HeroType {\n\n    uint16 public constant HERO_TYPE_OFFSET = 10000;\n\n    mapping(uint256 => HeroData) public heroes;\n    mapping(uint16 => uint256[]) public heroTypeIds;\n\n    struct HeroData {\n        uint16 heroType;\n        int16 hp;\n        int16 phy;\n        int16 intl;\n        int16 agi;\n        uint16 activeSkillId;\n        bytes  aliasName;\n        bytes  ipfs;\n        bool   exists;\n    }\n\n    function setIpfs(uint256 _heroId, string _ipfs, uint16 _activeSkillId) public onlyMinter {\n        HeroData storage data = heroes[_heroId];\n        require(data.exists);\n        data.ipfs = bytes(_ipfs);\n        data.activeSkillId = _activeSkillId;\n    }\n\n    function setAliasName(uint256 _heroId, string _aliasName) public onlyMinter {\n        HeroData storage data = heroes[_heroId];\n        require(data.exists);\n        data.aliasName = bytes(_aliasName);\n    }\n\n    function createHero(uint256 _heroId) public onlyMinter {\n        HeroData storage data = heroes[_heroId];\n        require(!data.exists);\n        \n        uint16 _heroType = uint16(_heroId / HERO_TYPE_OFFSET);\n        HeroTypeData memory heroTypeData = heroTypes[_heroType];\n        require(heroTypeData.exists);\n\n        data.heroType = _heroType;\n        data.hp = heroTypeData.hp;\n        data.phy = heroTypeData.phy;\n        data.intl = heroTypeData.intl;\n        data.agi = heroTypeData.agi;\n        data.ipfs = heroTypeData.ipfs;\n        data.activeSkillId = heroTypeData.initalActiveSkillId;\n        data.exists = true;\n        \n        heroTypeIds[_heroType].push(_heroId);\n    } \n\n    function getHero(uint256 _heroId) public view returns (\n        uint16  heroType,\n        int16   hp,\n        int16   phy,\n        int16   intl,\n        int16   agi,\n        uint16  activeSkillId,\n        uint16  passiveSkillId,\n        string  aliasName,\n        string  ipfs\n    ) {\n        HeroData memory data = heroes[_heroId];\n        require(data.exists);\n        HeroTypeData memory typeData = heroTypes[data.heroType];\n        heroType = data.heroType;\n        hp = data.hp;\n        phy = data.phy;\n        intl = data.intl;\n        agi = data.agi;\n        activeSkillId = data.activeSkillId;\n        passiveSkillId = typeData.passiveSkillId;\n        aliasName = string(data.aliasName);\n        ipfs = string(data.ipfs);\n    }\n    \n    function getHeroTypeLength(uint16 _heroType) public view returns (uint16) {\n        return uint16(heroTypeIds[_heroType].length);\n    }\n}",
  "sourcePath": "/Users/hironobu/devs/mch-beta/contracts/hero/Hero.sol",
  "compiler": {
    "name": "solc",
    "version": "0.4.24+commit.e67f0147.Emscripten.clang"
  },
  "schemaVersion": "2.0.1",
  "updatedAt": "2018-09-24T09:41:58.375Z"
}