{
  "contractName": "HeroAsset",
  "abi": [
    {
      "constant": true,
      "inputs": [
        {
          "name": "interfaceId",
          "type": "bytes4"
        }
      ],
      "name": "supportsInterface",
      "outputs": [
        {
          "name": "",
          "type": "bool"
        }
      ],
      "payable": false,
      "stateMutability": "view",
      "type": "function"
    },
    {
      "constant": true,
      "inputs": [],
      "name": "mintingFinished",
      "outputs": [
        {
          "name": "",
          "type": "bool"
        }
      ],
      "payable": false,
      "stateMutability": "view",
      "type": "function"
    },
    {
      "constant": true,
      "inputs": [],
      "name": "name",
      "outputs": [
        {
          "name": "",
          "type": "string"
        }
      ],
      "payable": false,
      "stateMutability": "view",
      "type": "function"
    },
    {
      "constant": true,
      "inputs": [
        {
          "name": "tokenId",
          "type": "uint256"
        }
      ],
      "name": "getApproved",
      "outputs": [
        {
          "name": "",
          "type": "address"
        }
      ],
      "payable": false,
      "stateMutability": "view",
      "type": "function"
    },
    {
      "constant": false,
      "inputs": [
        {
          "name": "to",
          "type": "address"
        },
        {
          "name": "tokenId",
          "type": "uint256"
        }
      ],
      "name": "approve",
      "outputs": [],
      "payable": false,
      "stateMutability": "nonpayable",
      "type": "function"
    },
    {
      "constant": true,
      "inputs": [],
      "name": "totalSupply",
      "outputs": [
        {
          "name": "",
          "type": "uint256"
        }
      ],
      "payable": false,
      "stateMutability": "view",
      "type": "function"
    },
    {
      "constant": false,
      "inputs": [
        {
          "name": "from",
          "type": "address"
        },
        {
          "name": "to",
          "type": "address"
        },
        {
          "name": "tokenId",
          "type": "uint256"
        }
      ],
      "name": "transferFrom",
      "outputs": [],
      "payable": false,
      "stateMutability": "nonpayable",
      "type": "function"
    },
    {
      "constant": true,
      "inputs": [
        {
          "name": "owner",
          "type": "address"
        },
        {
          "name": "index",
          "type": "uint256"
        }
      ],
      "name": "tokenOfOwnerByIndex",
      "outputs": [
        {
          "name": "",
          "type": "uint256"
        }
      ],
      "payable": false,
      "stateMutability": "view",
      "type": "function"
    },
    {
      "constant": false,
      "inputs": [],
      "name": "unpause",
      "outputs": [],
      "payable": false,
      "stateMutability": "nonpayable",
      "type": "function"
    },
    {
      "constant": false,
      "inputs": [
        {
          "name": "to",
          "type": "address"
        },
        {
          "name": "tokenId",
          "type": "uint256"
        }
      ],
      "name": "mint",
      "outputs": [
        {
          "name": "",
          "type": "bool"
        }
      ],
      "payable": false,
      "stateMutability": "nonpayable",
      "type": "function"
    },
    {
      "constant": false,
      "inputs": [
        {
          "name": "from",
          "type": "address"
        },
        {
          "name": "to",
          "type": "address"
        },
        {
          "name": "tokenId",
          "type": "uint256"
        }
      ],
      "name": "safeTransferFrom",
      "outputs": [],
      "payable": false,
      "stateMutability": "nonpayable",
      "type": "function"
    },
    {
      "constant": true,
      "inputs": [
        {
          "name": "account",
          "type": "address"
        }
      ],
      "name": "isPauser",
      "outputs": [
        {
          "name": "",
          "type": "bool"
        }
      ],
      "payable": false,
      "stateMutability": "view",
      "type": "function"
    },
    {
      "constant": true,
      "inputs": [
        {
          "name": "index",
          "type": "uint256"
        }
      ],
      "name": "tokenByIndex",
      "outputs": [
        {
          "name": "",
          "type": "uint256"
        }
      ],
      "payable": false,
      "stateMutability": "view",
      "type": "function"
    },
    {
      "constant": false,
      "inputs": [
        {
          "name": "to",
          "type": "address"
        },
        {
          "name": "tokenId",
          "type": "uint256"
        },
        {
          "name": "tokenURI",
          "type": "string"
        }
      ],
      "name": "mintWithTokenURI",
      "outputs": [
        {
          "name": "",
          "type": "bool"
        }
      ],
      "payable": false,
      "stateMutability": "nonpayable",
      "type": "function"
    },
    {
      "constant": true,
      "inputs": [],
      "name": "paused",
      "outputs": [
        {
          "name": "",
          "type": "bool"
        }
      ],
      "payable": false,
      "stateMutability": "view",
      "type": "function"
    },
    {
      "constant": true,
      "inputs": [
        {
          "name": "tokenId",
          "type": "uint256"
        }
      ],
      "name": "ownerOf",
      "outputs": [
        {
          "name": "",
          "type": "address"
        }
      ],
      "payable": false,
      "stateMutability": "view",
      "type": "function"
    },
    {
      "constant": false,
      "inputs": [],
      "name": "renouncePauser",
      "outputs": [],
      "payable": false,
      "stateMutability": "nonpayable",
      "type": "function"
    },
    {
      "constant": true,
      "inputs": [
        {
          "name": "owner",
          "type": "address"
        }
      ],
      "name": "balanceOf",
      "outputs": [
        {
          "name": "",
          "type": "uint256"
        }
      ],
      "payable": false,
      "stateMutability": "view",
      "type": "function"
    },
    {
      "constant": false,
      "inputs": [],
      "name": "finishMinting",
      "outputs": [
        {
          "name": "",
          "type": "bool"
        }
      ],
      "payable": false,
      "stateMutability": "nonpayable",
      "type": "function"
    },
    {
      "constant": false,
      "inputs": [
        {
          "name": "account",
          "type": "address"
        }
      ],
      "name": "addPauser",
      "outputs": [],
      "payable": false,
      "stateMutability": "nonpayable",
      "type": "function"
    },
    {
      "constant": false,
      "inputs": [],
      "name": "pause",
      "outputs": [],
      "payable": false,
      "stateMutability": "nonpayable",
      "type": "function"
    },
    {
      "constant": true,
      "inputs": [],
      "name": "symbol",
      "outputs": [
        {
          "name": "",
          "type": "string"
        }
      ],
      "payable": false,
      "stateMutability": "view",
      "type": "function"
    },
    {
      "constant": false,
      "inputs": [
        {
          "name": "account",
          "type": "address"
        }
      ],
      "name": "addMinter",
      "outputs": [],
      "payable": false,
      "stateMutability": "nonpayable",
      "type": "function"
    },
    {
      "constant": false,
      "inputs": [],
      "name": "renounceMinter",
      "outputs": [],
      "payable": false,
      "stateMutability": "nonpayable",
      "type": "function"
    },
    {
      "constant": false,
      "inputs": [
        {
          "name": "to",
          "type": "address"
        },
        {
          "name": "approved",
          "type": "bool"
        }
      ],
      "name": "setApprovalForAll",
      "outputs": [],
      "payable": false,
      "stateMutability": "nonpayable",
      "type": "function"
    },
    {
      "constant": true,
      "inputs": [
        {
          "name": "account",
          "type": "address"
        }
      ],
      "name": "isMinter",
      "outputs": [
        {
          "name": "",
          "type": "bool"
        }
      ],
      "payable": false,
      "stateMutability": "view",
      "type": "function"
    },
    {
      "constant": false,
      "inputs": [
        {
          "name": "from",
          "type": "address"
        },
        {
          "name": "to",
          "type": "address"
        },
        {
          "name": "tokenId",
          "type": "uint256"
        },
        {
          "name": "_data",
          "type": "bytes"
        }
      ],
      "name": "safeTransferFrom",
      "outputs": [],
      "payable": false,
      "stateMutability": "nonpayable",
      "type": "function"
    },
    {
      "constant": true,
      "inputs": [],
      "name": "tokenURIPrefix",
      "outputs": [
        {
          "name": "",
          "type": "string"
        }
      ],
      "payable": false,
      "stateMutability": "view",
      "type": "function"
    },
    {
      "constant": true,
      "inputs": [
        {
          "name": "owner",
          "type": "address"
        },
        {
          "name": "operator",
          "type": "address"
        }
      ],
      "name": "isApprovedForAll",
      "outputs": [
        {
          "name": "",
          "type": "bool"
        }
      ],
      "payable": false,
      "stateMutability": "view",
      "type": "function"
    },
    {
      "inputs": [],
      "payable": false,
      "stateMutability": "nonpayable",
      "type": "constructor"
    },
    {
      "anonymous": false,
      "inputs": [],
      "name": "Paused",
      "type": "event"
    },
    {
      "anonymous": false,
      "inputs": [],
      "name": "Unpaused",
      "type": "event"
    },
    {
      "anonymous": false,
      "inputs": [
        {
          "indexed": true,
          "name": "account",
          "type": "address"
        }
      ],
      "name": "PauserAdded",
      "type": "event"
    },
    {
      "anonymous": false,
      "inputs": [
        {
          "indexed": true,
          "name": "account",
          "type": "address"
        }
      ],
      "name": "PauserRemoved",
      "type": "event"
    },
    {
      "anonymous": false,
      "inputs": [],
      "name": "MintingFinished",
      "type": "event"
    },
    {
      "anonymous": false,
      "inputs": [
        {
          "indexed": true,
          "name": "account",
          "type": "address"
        }
      ],
      "name": "MinterAdded",
      "type": "event"
    },
    {
      "anonymous": false,
      "inputs": [
        {
          "indexed": true,
          "name": "account",
          "type": "address"
        }
      ],
      "name": "MinterRemoved",
      "type": "event"
    },
    {
      "anonymous": false,
      "inputs": [
        {
          "indexed": true,
          "name": "from",
          "type": "address"
        },
        {
          "indexed": true,
          "name": "to",
          "type": "address"
        },
        {
          "indexed": true,
          "name": "tokenId",
          "type": "uint256"
        }
      ],
      "name": "Transfer",
      "type": "event"
    },
    {
      "anonymous": false,
      "inputs": [
        {
          "indexed": true,
          "name": "owner",
          "type": "address"
        },
        {
          "indexed": true,
          "name": "approved",
          "type": "address"
        },
        {
          "indexed": true,
          "name": "tokenId",
          "type": "uint256"
        }
      ],
      "name": "Approval",
      "type": "event"
    },
    {
      "anonymous": false,
      "inputs": [
        {
          "indexed": true,
          "name": "owner",
          "type": "address"
        },
        {
          "indexed": true,
          "name": "operator",
          "type": "address"
        },
        {
          "indexed": false,
          "name": "approved",
          "type": "bool"
        }
      ],
      "name": "ApprovalForAll",
      "type": "event"
    },
    {
      "constant": false,
      "inputs": [
        {
          "name": "_tokenURIPrefix",
          "type": "string"
        }
      ],
      "name": "setTokenURIPrefix",
      "outputs": [],
      "payable": false,
      "stateMutability": "nonpayable",
      "type": "function"
    },
    {
      "constant": false,
      "inputs": [
        {
          "name": "_owner",
          "type": "address"
        },
        {
          "name": "_tokenId",
          "type": "uint256"
        }
      ],
      "name": "mintHeroAsset",
      "outputs": [],
      "payable": false,
      "stateMutability": "nonpayable",
      "type": "function"
    },
    {
      "constant": true,
      "inputs": [
        {
          "name": "tokenId",
          "type": "uint256"
        }
      ],
      "name": "tokenURI",
      "outputs": [
        {
          "name": "",
          "type": "string"
        }
      ],
      "payable": false,
      "stateMutability": "view",
      "type": "function"
    }
  ],
  "bytecode": "0x600d805460ff19908116909155600f8054909116905560e0604052602d60808190527f68747470733a2f2f7777772e6d7963727970746f6865726f65732e6e65742f6d60a09081527f657461646174612f6865726f2f0000000000000000000000000000000000000060c0526200007a9160109190620002db565b503480156200008857600080fd5b50604080518082018252600881527f4d43485f4865726f0000000000000000000000000000000000000000000000006020808301919091528251808401909352600483527f4d4348480000000000000000000000000000000000000000000000000000000090830152908181620001287f01ffc9a70000000000000000000000000000000000000000000000000000000064010000000062000233810204565b6200015c7f80ac58cd0000000000000000000000000000000000000000000000000000000064010000000062000233810204565b620001907f780e9d630000000000000000000000000000000000000000000000000000000064010000000062000233810204565b8151620001a5906009906020850190620002db565b508051620001bb90600a906020840190620002db565b50620001f07f5b5e139f0000000000000000000000000000000000000000000000000000000064010000000062000233810204565b50620002129250600c9150339050640100000000620011b2620002a082021704565b6200022d600e33640100000000620011b2620002a082021704565b62000380565b7fffffffff0000000000000000000000000000000000000000000000000000000080821614156200026357600080fd5b7fffffffff00000000000000000000000000000000000000000000000000000000166000908152602081905260409020805460ff19166001179055565b600160a060020a0381161515620002b657600080fd5b600160a060020a0316600090815260209190915260409020805460ff19166001179055565b828054600181600116156101000203166002900490600052602060002090601f016020900481019282601f106200031e57805160ff19168380011785556200034e565b828001600101855582156200034e579182015b828111156200034e57825182559160200191906001019062000331565b506200035c92915062000360565b5090565b6200037d91905b808211156200035c576000815560010162000367565b90565b61191b80620003906000396000f3006080604052600436106101955763ffffffff7c010000000000000000000000000000000000000000000000000000000060003504166301ffc9a7811461019a57806305d2035b146101e557806306fdde03146101fa578063081812fc14610284578063095ea7b3146102b857806318160ddd146102de57806323b872dd146103055780632f745c591461032f5780633f4ba83a1461035357806340c10f191461036857806342842e0e1461038c57806346fbf68e146103b65780634d5b335d146103d75780634f6ccce7146103fb57806350bb4e7f146104135780635c975abb1461047c5780636352211e146104915780636ef8d66d146104a957806370a08231146104be5780637d64bcb4146104df57806382dc1ec4146104f45780638456cb591461051557806395d89b411461052a578063983b2d561461053f578063986502751461056057806399e0dd7c14610575578063a22cb46514610595578063aa271e1a146105bb578063b88d4fde146105dc578063c0ac99831461064b578063c87b56dd14610660578063e985e9c514610678575b600080fd5b3480156101a657600080fd5b506101d17bffffffffffffffffffffffffffffffffffffffffffffffffffffffff196004351661069f565b604080519115158252519081900360200190f35b3480156101f157600080fd5b506101d16106d3565b34801561020657600080fd5b5061020f6106dd565b6040805160208082528351818301528351919283929083019185019080838360005b83811015610249578181015183820152602001610231565b50505050905090810190601f1680156102765780820380516001836020036101000a031916815260200191505b509250505060405180910390f35b34801561029057600080fd5b5061029c600435610773565b60408051600160a060020a039092168252519081900360200190f35b3480156102c457600080fd5b506102dc600160a060020a03600435166024356107a5565b005b3480156102ea57600080fd5b506102f36107c3565b60408051918252519081900360200190f35b34801561031157600080fd5b506102dc600160a060020a03600435811690602435166044356107c9565b34801561033b57600080fd5b506102f3600160a060020a03600435166024356107e9565b34801561035f57600080fd5b506102dc610836565b34801561037457600080fd5b506101d1600160a060020a0360043516602435610890565b34801561039857600080fd5b506102dc600160a060020a03600435811690602435166044356108c9565b3480156103c257600080fd5b506101d1600160a060020a03600435166108e5565b3480156103e357600080fd5b506102dc600160a060020a03600435166024356108fe565b34801561040757600080fd5b506102f360043561091c565b34801561041f57600080fd5b50604080516020600460443581810135601f81018490048402850184019095528484526101d1948235600160a060020a03169460248035953695946064949201919081908401838280828437509497506109519650505050505050565b34801561048857600080fd5b506101d1610996565b34801561049d57600080fd5b5061029c60043561099f565b3480156104b557600080fd5b506102dc6109c3565b3480156104ca57600080fd5b506102f3600160a060020a03600435166109d6565b3480156104eb57600080fd5b506101d1610a09565b34801561050057600080fd5b506102dc600160a060020a0360043516610a6b565b34801561052157600080fd5b506102dc610ac7565b34801561053657600080fd5b5061020f610b23565b34801561054b57600080fd5b506102dc600160a060020a0360043516610b84565b34801561056c57600080fd5b506102dc610be0565b34801561058157600080fd5b506102dc6004803560248101910135610bf1565b3480156105a157600080fd5b506102dc600160a060020a03600435166024351515610c11565b3480156105c757600080fd5b506101d1600160a060020a0360043516610c2b565b3480156105e857600080fd5b50604080516020601f6064356004818101359283018490048402850184019095528184526102dc94600160a060020a038135811695602480359092169560443595369560849401918190840183828082843750949750610c3e9650505050505050565b34801561065757600080fd5b5061020f610c66565b34801561066c57600080fd5b5061020f600435610cf4565b34801561068457600080fd5b506101d1600160a060020a0360043581169060243516610f33565b7bffffffffffffffffffffffffffffffffffffffffffffffffffffffff191660009081526020819052604090205460ff1690565b600d5460ff165b90565b60098054604080516020601f60026000196101006001881615020190951694909404938401819004810282018101909252828152606093909290918301828280156107695780601f1061073e57610100808354040283529160200191610769565b820191906000526020600020905b81548152906001019060200180831161074c57829003601f168201915b5050505050905090565b600061077e82610f61565b151561078957600080fd5b50600090815260026020526040902054600160a060020a031690565b600f5460ff16156107b557600080fd5b6107bf8282610f7e565b5050565b60075490565b600f5460ff16156107d957600080fd5b6107e4838383611034565b505050565b60006107f4836109d6565b82106107ff57600080fd5b600160a060020a038316600090815260056020526040902080548390811061082357fe5b9060005260206000200154905092915050565b61083f336108e5565b151561084a57600080fd5b600f5460ff16151561085b57600080fd5b600f805460ff191690556040517fa45f47fdea8a1efdd9029a5691c7f759c32b7c698632b563573e155625d1693390600090a1565b600061089b33610c2b565b15156108a657600080fd5b600d5460ff16156108b657600080fd5b6108c083836110c2565b50600192915050565b6107e48383836020604051908101604052806000815250610c3e565b60006108f8600e8363ffffffff61111116565b92915050565b61090733610c2b565b151561091257600080fd5b6107bf82826110c2565b60006109266107c3565b821061093157600080fd5b600780548390811061093f57fe5b90600052602060002001549050919050565b600061095c33610c2b565b151561096757600080fd5b600d5460ff161561097757600080fd5b6109818484610890565b5061098c8383611148565b5060019392505050565b600f5460ff1690565b600081815260016020526040812054600160a060020a03168015156108f857600080fd5b6109d4600e3363ffffffff61117b16565b565b6000600160a060020a03821615156109ed57600080fd5b50600160a060020a031660009081526003602052604090205490565b6000610a1433610c2b565b1515610a1f57600080fd5b600d5460ff1615610a2f57600080fd5b600d805460ff191660011790556040517fb828d9b5c78095deeeeff2eca2e5d4fe046ce3feb4c99702624a3fd384ad2dbc90600090a150600190565b610a74336108e5565b1515610a7f57600080fd5b610a90600e8263ffffffff6111b216565b604051600160a060020a038216907f6719d08c1888103bea251a4ed56406bd0c3e69723c8a1686e017e7bbe159b6f890600090a250565b610ad0336108e5565b1515610adb57600080fd5b600f5460ff1615610aeb57600080fd5b600f805460ff191660011790556040517f9e87fac88ff661f02d44f95383c817fece4bce600a3dab7a54406878b965e75290600090a1565b600a8054604080516020601f60026000196101006001881615020190951694909404938401819004810282018101909252828152606093909290918301828280156107695780601f1061073e57610100808354040283529160200191610769565b610b8d33610c2b565b1515610b9857600080fd5b610ba9600c8263ffffffff6111b216565b604051600160a060020a038216907f6ae172837ea30b801fbfcdd4108aa1d5bf8ff775444fd70256b44e6bf3dfc3f690600090a250565b6109d4600c3363ffffffff61117b16565b610bfa33610c2b565b1515610c0557600080fd5b6107e4601083836117c9565b600f5460ff1615610c2157600080fd5b6107bf82826111ec565b60006108f8600c8363ffffffff61111116565b610c498484846107c9565b610c5584848484611270565b1515610c6057600080fd5b50505050565b6010805460408051602060026001851615610100026000190190941693909304601f81018490048402820184019092528181529291830182828015610cec5780601f10610cc157610100808354040283529160200191610cec565b820191906000526020600020905b815481529060010190602001808311610ccf57829003601f168201915b505050505081565b606060008082808280871515610d2c577f30000000000000000000000000000000000000000000000000000000000000009550610d68565b8794505b6000851115610d685761010086049550600a850660300160f860020a0260010286179550600a85811515610d6057fe5b049450610d30565b6010805460408051602060026001851615610100026000190190941693909304601f81018490048402820184019092528181529291830182828015610dee5780601f10610dc357610100808354040283529160200191610dee565b820191906000526020600020905b815481529060010190602001808311610dd157829003601f168201915b50505050509350602060ff168451016040519080825280601f01601f191660200182016040528015610e2a578160200160208202803883390190505b50925060009050600091505b83518260ff161015610eb357838260ff16815181101515610e5357fe5b90602001015160f860020a900460f860020a02838260ff16815181101515610e7757fe5b9060200101907effffffffffffffffffffffffffffffffffffffffffffffffffffffffffffff1916908160001a90535060019182019101610e36565b600091505b602060ff83161015610f27578560ff831660208110610ed357fe5b1a60f860020a02838260ff16815181101515610eeb57fe5b9060200101907effffffffffffffffffffffffffffffffffffffffffffffffffffffffffffff1916908160001a90535060019182019101610eb8565b50909695505050505050565b600160a060020a03918216600090815260046020908152604080832093909416825291909152205460ff1690565b600090815260016020526040902054600160a060020a0316151590565b6000610f898261099f565b9050600160a060020a038381169082161415610fa457600080fd5b33600160a060020a0382161480610fc05750610fc08133610f33565b1515610fcb57600080fd5b600082815260026020526040808220805473ffffffffffffffffffffffffffffffffffffffff1916600160a060020a0387811691821790925591518593918516917f8c5be1e5ebec7d5bd14f71427d1e84f3dd0314c0f7b2291e5b200ac8c7c3b92591a4505050565b61103e33826113f2565b151561104957600080fd5b600160a060020a038216151561105e57600080fd5b6110688382611451565b61107283826114c0565b61107c82826115c7565b8082600160a060020a031684600160a060020a03167fddf252ad1be2c89b69c2b068fc378daa952ba7f163c4a11628f55a4df523b3ef60405160405180910390a4505050565b6110cc8282611610565b600780546000838152600860205260408120829055600182018355919091527fa66cc928b5edb82af9bd49922954155ab7b0942694bea4ce44661d9a8736c688015550565b6000600160a060020a038216151561112857600080fd5b50600160a060020a03166000908152602091909152604090205460ff1690565b61115182610f61565b151561115c57600080fd5b6000828152600b6020908152604090912082516107e492840190611847565b600160a060020a038116151561119057600080fd5b600160a060020a0316600090815260209190915260409020805460ff19169055565b600160a060020a03811615156111c757600080fd5b600160a060020a0316600090815260209190915260409020805460ff19166001179055565b600160a060020a03821633141561120257600080fd5b336000818152600460209081526040808320600160a060020a03871680855290835292819020805460ff1916861515908117909155815190815290519293927f17307eab39ab6107e8899845ad3d59bd9653f200f220920489ca2b5937696c31929181900390910190a35050565b60008061128585600160a060020a031661166b565b151561129457600191506113e9565b6040517f150b7a020000000000000000000000000000000000000000000000000000000081523360048201818152600160a060020a03898116602485015260448401889052608060648501908152875160848601528751918a169463150b7a0294938c938b938b93909160a490910190602085019080838360005b8381101561132757818101518382015260200161130f565b50505050905090810190601f1680156113545780820380516001836020036101000a031916815260200191505b5095505050505050602060405180830381600087803b15801561137657600080fd5b505af115801561138a573d6000803e3d6000fd5b505050506040513d60208110156113a057600080fd5b50517bffffffffffffffffffffffffffffffffffffffffffffffffffffffff1981167f150b7a020000000000000000000000000000000000000000000000000000000014925090505b50949350505050565b6000806113fe8361099f565b905080600160a060020a031684600160a060020a03161480611439575083600160a060020a031661142e84610773565b600160a060020a0316145b8061144957506114498185610f33565b949350505050565b81600160a060020a03166114648261099f565b600160a060020a03161461147757600080fd5b600081815260026020526040902054600160a060020a0316156107bf576000908152600260205260409020805473ffffffffffffffffffffffffffffffffffffffff1916905550565b60008060006114cf8585611673565b600084815260066020908152604080832054600160a060020a038916845260059092529091205490935061150a90600163ffffffff61170916565b600160a060020a03861660009081526005602052604090208054919350908390811061153257fe5b90600052602060002001549050806005600087600160a060020a0316600160a060020a031681526020019081526020016000208481548110151561157257fe5b6000918252602080832090910192909255600160a060020a03871681526005909152604090208054906115a99060001983016118b5565b50600093845260066020526040808520859055908452909220555050565b60006115d38383611720565b50600160a060020a039091166000908152600560209081526040808320805460018101825590845282842081018590559383526006909152902055565b600160a060020a038216151561162557600080fd5b61162f82826115c7565b6040518190600160a060020a038416906000907fddf252ad1be2c89b69c2b068fc378daa952ba7f163c4a11628f55a4df523b3ef908290a45050565b6000903b1190565b81600160a060020a03166116868261099f565b600160a060020a03161461169957600080fd5b600160a060020a0382166000908152600360205260409020546116c390600163ffffffff61170916565b600160a060020a03909216600090815260036020908152604080832094909455918152600190915220805473ffffffffffffffffffffffffffffffffffffffff19169055565b6000808383111561171957600080fd5b5050900390565b600081815260016020526040902054600160a060020a03161561174257600080fd5b6000818152600160208181526040808420805473ffffffffffffffffffffffffffffffffffffffff1916600160a060020a0388169081179091558452600390915290912054611790916117b0565b600160a060020a0390921660009081526003602052604090209190915550565b6000828201838110156117c257600080fd5b9392505050565b828054600181600116156101000203166002900490600052602060002090601f016020900481019282601f1061180a5782800160ff19823516178555611837565b82800160010185558215611837579182015b8281111561183757823582559160200191906001019061181c565b506118439291506118d5565b5090565b828054600181600116156101000203166002900490600052602060002090601f016020900481019282601f1061188857805160ff1916838001178555611837565b82800160010185558215611837579182015b8281111561183757825182559160200191906001019061189a565b8154818355818111156107e4576000838152602090206107e49181019083015b6106da91905b8082111561184357600081556001016118db5600a165627a7a72305820e180c9dab6f06a83f647664350928958f89d868ed62604570999177c9e4ceed60029",
  "source": "pragma solidity ^0.4.24;\n\nimport \"../lib/openzeppelin-solidity/contracts/token/ERC721/ERC721Mintable.sol\";\nimport \"../lib/openzeppelin-solidity/contracts/token/ERC721/ERC721Pausable.sol\";\n\n\ncontract HeroAsset is ERC721Mintable, ERC721Pausable {\n\n    string public tokenURIPrefix = \"https://www.mycryptoheroes.net/metadata/hero/\";\n\n    constructor() public ERC721Full(\"MCH_Hero\", \"MCHH\") {}\n\n    function setTokenURIPrefix(string _tokenURIPrefix) external onlyMinter {\n        tokenURIPrefix = _tokenURIPrefix;\n    }\n\n    function mintHeroAsset(address _owner, uint256 _tokenId) public onlyMinter {\n        _mint(_owner, _tokenId);\n    }\n\n    function tokenURI(uint256 tokenId) public view returns (string) {\n        bytes32 tokenIdBytes;\n        if (tokenId == 0) {\n            tokenIdBytes = \"0\";\n        } else {\n            uint256 value = tokenId;\n            while (value > 0) {\n                tokenIdBytes = bytes32(uint256(tokenIdBytes) / (2 ** 8));\n                tokenIdBytes |= bytes32(((value % 10) + 48) * 2 ** (8 * 31));\n                value /= 10;\n            }\n        }\n\n        bytes memory prefixBytes = bytes(tokenURIPrefix);\n        bytes memory tokenURIBytes = new bytes(prefixBytes.length + tokenIdBytes.length);\n\n        uint8 i;\n        uint8 index = 0;\n        \n        for (i = 0; i < prefixBytes.length; i++){\n            tokenURIBytes[index] = prefixBytes[i];\n            index++;\n        }\n        \n        for (i = 0; i < tokenIdBytes.length; i++){\n            tokenURIBytes[index] = tokenIdBytes[i];\n            index++;\n        }\n        \n        return string(tokenURIBytes);\n    }\n\n}",
  "sourcePath": "/Users/hironobu/devs/solidity-sand/contracts/hero/HeroAsset.sol",
  "compiler": {
    "name": "solc",
    "version": "0.4.24+commit.e67f0147.Emscripten.clang"
  },
  "schemaVersion": "2.0.1",
  "updatedAt": "2018-09-22T04:27:50.016Z"
}