{
  "contractName": "HeroManager",
  "abi": [
    {
      "constant": true,
      "inputs": [],
      "name": "heroAsset",
      "outputs": [
        {
          "name": "",
          "type": "address"
        }
      ],
      "payable": false,
      "stateMutability": "view",
      "type": "function"
    },
    {
      "constant": true,
      "inputs": [
        {
          "name": "",
          "type": "uint256"
        }
      ],
      "name": "tokenOwner",
      "outputs": [
        {
          "name": "",
          "type": "address"
        }
      ],
      "payable": false,
      "stateMutability": "view",
      "type": "function"
    },
    {
      "constant": true,
      "inputs": [],
      "name": "HERO_TYPE_OFFSET",
      "outputs": [
        {
          "name": "",
          "type": "uint16"
        }
      ],
      "payable": false,
      "stateMutability": "view",
      "type": "function"
    },
    {
      "constant": false,
      "inputs": [],
      "name": "renounceOwnership",
      "outputs": [],
      "payable": false,
      "stateMutability": "nonpayable",
      "type": "function"
    },
    {
      "constant": true,
      "inputs": [],
      "name": "hero",
      "outputs": [
        {
          "name": "",
          "type": "address"
        }
      ],
      "payable": false,
      "stateMutability": "view",
      "type": "function"
    },
    {
      "constant": true,
      "inputs": [],
      "name": "owner",
      "outputs": [
        {
          "name": "",
          "type": "address"
        }
      ],
      "payable": false,
      "stateMutability": "view",
      "type": "function"
    },
    {
      "constant": true,
      "inputs": [],
      "name": "isOwner",
      "outputs": [
        {
          "name": "",
          "type": "bool"
        }
      ],
      "payable": false,
      "stateMutability": "view",
      "type": "function"
    },
    {
      "constant": false,
      "inputs": [
        {
          "name": "account",
          "type": "address"
        }
      ],
      "name": "addMinter",
      "outputs": [],
      "payable": false,
      "stateMutability": "nonpayable",
      "type": "function"
    },
    {
      "constant": false,
      "inputs": [],
      "name": "renounceMinter",
      "outputs": [],
      "payable": false,
      "stateMutability": "nonpayable",
      "type": "function"
    },
    {
      "constant": true,
      "inputs": [
        {
          "name": "account",
          "type": "address"
        }
      ],
      "name": "isMinter",
      "outputs": [
        {
          "name": "",
          "type": "bool"
        }
      ],
      "payable": false,
      "stateMutability": "view",
      "type": "function"
    },
    {
      "constant": false,
      "inputs": [
        {
          "name": "newOwner",
          "type": "address"
        }
      ],
      "name": "transferOwnership",
      "outputs": [],
      "payable": false,
      "stateMutability": "nonpayable",
      "type": "function"
    },
    {
      "anonymous": false,
      "inputs": [
        {
          "indexed": true,
          "name": "account",
          "type": "address"
        }
      ],
      "name": "MinterAdded",
      "type": "event"
    },
    {
      "anonymous": false,
      "inputs": [
        {
          "indexed": true,
          "name": "account",
          "type": "address"
        }
      ],
      "name": "MinterRemoved",
      "type": "event"
    },
    {
      "anonymous": false,
      "inputs": [
        {
          "indexed": true,
          "name": "previousOwner",
          "type": "address"
        }
      ],
      "name": "OwnershipRenounced",
      "type": "event"
    },
    {
      "anonymous": false,
      "inputs": [
        {
          "indexed": true,
          "name": "previousOwner",
          "type": "address"
        },
        {
          "indexed": true,
          "name": "newOwner",
          "type": "address"
        }
      ],
      "name": "OwnershipTransferred",
      "type": "event"
    },
    {
      "constant": false,
      "inputs": [
        {
          "name": "_heroAddress",
          "type": "address"
        }
      ],
      "name": "setHeroAddress",
      "outputs": [],
      "payable": false,
      "stateMutability": "nonpayable",
      "type": "function"
    },
    {
      "constant": false,
      "inputs": [
        {
          "name": "_heroAssetAddress",
          "type": "address"
        }
      ],
      "name": "setHeroAssetAddress",
      "outputs": [],
      "payable": false,
      "stateMutability": "nonpayable",
      "type": "function"
    },
    {
      "constant": false,
      "inputs": [
        {
          "name": "_heroType",
          "type": "uint16"
        },
        {
          "name": "_heroName",
          "type": "string"
        },
        {
          "name": "_ipfs",
          "type": "string"
        },
        {
          "name": "_hp",
          "type": "int16"
        },
        {
          "name": "_phy",
          "type": "int16"
        },
        {
          "name": "_intl",
          "type": "int16"
        },
        {
          "name": "_agi",
          "type": "int16"
        },
        {
          "name": "_initalActiveSkillId",
          "type": "uint16"
        },
        {
          "name": "_passiveSkillId",
          "type": "uint16"
        },
        {
          "name": "_rarity",
          "type": "uint16"
        },
        {
          "name": "_supplyLimit",
          "type": "uint16"
        }
      ],
      "name": "setHeroType",
      "outputs": [],
      "payable": false,
      "stateMutability": "nonpayable",
      "type": "function"
    },
    {
      "constant": false,
      "inputs": [
        {
          "name": "_owner",
          "type": "address"
        },
        {
          "name": "_heroType",
          "type": "uint16"
        }
      ],
      "name": "mintHeroByType",
      "outputs": [
        {
          "name": "",
          "type": "uint256"
        }
      ],
      "payable": false,
      "stateMutability": "nonpayable",
      "type": "function"
    },
    {
      "constant": false,
      "inputs": [
        {
          "name": "_owner",
          "type": "address"
        },
        {
          "name": "_heroId",
          "type": "uint256"
        }
      ],
      "name": "mintHero",
      "outputs": [],
      "payable": false,
      "stateMutability": "nonpayable",
      "type": "function"
    },
    {
      "constant": false,
      "inputs": [
        {
          "name": "_heroId",
          "type": "uint256"
        },
        {
          "name": "_aliasName",
          "type": "string"
        }
      ],
      "name": "setAliasName",
      "outputs": [],
      "payable": false,
      "stateMutability": "nonpayable",
      "type": "function"
    },
    {
      "constant": false,
      "inputs": [
        {
          "name": "_from",
          "type": "address"
        },
        {
          "name": "_to",
          "type": "address"
        },
        {
          "name": "_tokenId",
          "type": "uint256"
        }
      ],
      "name": "forceTransferFrom",
      "outputs": [],
      "payable": false,
      "stateMutability": "nonpayable",
      "type": "function"
    },
    {
      "constant": false,
      "inputs": [
        {
          "name": "_to",
          "type": "address"
        },
        {
          "name": "_heroId",
          "type": "uint256"
        }
      ],
      "name": "forceMintHero",
      "outputs": [],
      "payable": false,
      "stateMutability": "nonpayable",
      "type": "function"
    },
    {
      "constant": false,
      "inputs": [
        {
          "name": "_heroId",
          "type": "uint256"
        }
      ],
      "name": "updateHero",
      "outputs": [],
      "payable": false,
      "stateMutability": "nonpayable",
      "type": "function"
    }
  ],
  "bytecode": "0x608060405260008054600160a060020a0319163390811790915561003290600190640100000000610e7061003782021704565b610071565b600160a060020a038116151561004c57600080fd5b600160a060020a0316600090815260209190915260409020805460ff19166001179055565b610fc1806100806000396000f3006080604052600436106100f85763ffffffff60e060020a60003504166316f38b6381146100fd5780631caaa4871461012e5780632c6bc54c1461014657806339298633146101a65780634890087f146101d057806355b1a40f146101fc578063711435ec146102dd578063715018a6146103175780637f513d5d1461032c5780638da5cb5b146103415780638f32d59b1461035657806390970d2b1461037f578063983b2d56146103a3578063985df3a7146103c457806398650275146103e5578063aa271e1a146103fa578063baced3971461041b578063be926c8014610433578063e9425dd214610454578063f2fde38b14610478575b600080fd5b34801561010957600080fd5b50610112610499565b60408051600160a060020a039092168252519081900360200190f35b34801561013a57600080fd5b506101126004356104a8565b34801561015257600080fd5b5060408051602060046024803582810135601f81018590048502860185019096528585526101a49583359536956044949193909101919081908401838280828437509497506104c39650505050505050565b005b3480156101b257600080fd5b506101a4600160a060020a0360043581169060243516604435610654565b3480156101dc57600080fd5b506101e56106fb565b6040805161ffff9092168252519081900360200190f35b34801561020857600080fd5b5060408051602060046024803582810135601f81018590048502860185019096528585526101a495833561ffff1695369560449491939091019190819084018382808284375050604080516020601f89358b018035918201839004830284018301909452808352979a99988101979196509182019450925082915084018382808284375094975050508335600190810b95506020850135810b946040810135820b9450606081013590910b925061ffff60808201358116925060a082013581169160c081013582169160e09091013516610701565b3480156102e957600080fd5b50610305600160a060020a036004351661ffff60243516610967565b60408051918252519081900360200190f35b34801561032357600080fd5b506101a4610a3c565b34801561033857600080fd5b50610112610aa4565b34801561034d57600080fd5b50610112610ab3565b34801561036257600080fd5b5061036b610ac2565b604080519115158252519081900360200190f35b34801561038b57600080fd5b506101a4600160a060020a0360043516602435610ad3565b3480156103af57600080fd5b506101a4600160a060020a0360043516610b5d565b3480156103d057600080fd5b506101a4600160a060020a0360043516610bb9565b3480156103f157600080fd5b506101a4610bfb565b34801561040657600080fd5b5061036b600160a060020a0360043516610c0e565b34801561042757600080fd5b506101a4600435610c27565b34801561043f57600080fd5b506101a4600160a060020a0360043516610cbc565b34801561046057600080fd5b506101a4600160a060020a0360043516602435610cfe565b34801561048457600080fd5b506101a4600160a060020a0360043516610e51565b600354600160a060020a031681565b600460205260009081526040902054600160a060020a031681565b600354604080517f6352211e000000000000000000000000000000000000000000000000000000008152600481018590529051600160a060020a0390921691636352211e916024808201926020929091908290030181600087803b15801561052a57600080fd5b505af115801561053e573d6000803e3d6000fd5b505050506040513d602081101561055457600080fd5b5051600160a060020a0316331461056a57600080fd5b600254604080517f2c6bc54c0000000000000000000000000000000000000000000000000000000081526004810185815260248201928352845160448301528451600160a060020a0390941693632c6bc54c938793879392606490910190602085019080838360005b838110156105eb5781810151838201526020016105d3565b50505050905090810190601f1680156106185780820380516001836020036101000a031916815260200191505b509350505050600060405180830381600087803b15801561063857600080fd5b505af115801561064c573d6000803e3d6000fd5b505050505050565b61065d33610c0e565b151561066857600080fd5b600354604080517f39298633000000000000000000000000000000000000000000000000000000008152600160a060020a03868116600483015285811660248301526044820185905291519190921691633929863391606480830192600092919082900301818387803b1580156106de57600080fd5b505af11580156106f2573d6000803e3d6000fd5b50505050505050565b61271081565b61070a33610c0e565b151561071557600080fd5b600260009054906101000a9004600160a060020a0316600160a060020a031663d400b01a8c8c8c8c8c8c8c8c8c8c6040518b63ffffffff1660e060020a028152600401808b61ffff1661ffff16815260200180602001806020018a60010b60010b81526020018960010b60010b81526020018860010b60010b81526020018760010b60010b81526020018661ffff1661ffff1681526020018561ffff1661ffff1681526020018461ffff1661ffff16815260200183810383528c818151815260200191508051906020019080838360005b838110156107fe5781810151838201526020016107e6565b50505050905090810190601f16801561082b5780820380516001836020036101000a031916815260200191505b5083810382528b5181528b516020918201918d019080838360005b8381101561085e578181015183820152602001610846565b50505050905090810190601f16801561088b5780820380516001836020036101000a031916815260200191505b509c50505050505050505050505050600060405180830381600087803b1580156108b457600080fd5b505af11580156108c8573d6000803e3d6000fd5b50505050600360009054906101000a9004600160a060020a0316600160a060020a0316636fa23f738c836040518363ffffffff1660e060020a028152600401808361ffff1661ffff1681526020018261ffff1661ffff16815260200192505050600060405180830381600087803b15801561094257600080fd5b505af1158015610956573d6000803e3d6000fd5b505050505050505050505050505050565b600080600061097533610c0e565b151561098057600080fd5b600254604080517f487175bb00000000000000000000000000000000000000000000000000000000815261ffff871660048201529051600160a060020a039092169163487175bb916024808201926020929091908290030181600087803b1580156109ea57600080fd5b505af11580156109fe573d6000803e3d6000fd5b505050506040513d6020811015610a1457600080fd5b505160010191505061ffff8381166127100290821601610a348582610cfe565b949350505050565b610a44610ac2565b1515610a4f57600080fd5b60008054604051600160a060020a03909116917ff8df31144d9c2f0f6b59d69b8b98abd5459d07f2742c4df920b25aae33c6482091a26000805473ffffffffffffffffffffffffffffffffffffffff19169055565b600254600160a060020a031681565b600054600160a060020a031690565b600054600160a060020a0316331490565b6000610ade33610c0e565b1515610ae957600080fd5b50600081815260046020526040902054600160a060020a0316801515610b1857610b138383610cfe565b610b58565b610b23818484610654565b6000828152600460205260409020805473ffffffffffffffffffffffffffffffffffffffff1916600160a060020a0385161790555b505050565b610b6633610c0e565b1515610b7157600080fd5b610b8260018263ffffffff610e7016565b604051600160a060020a038216907f6ae172837ea30b801fbfcdd4108aa1d5bf8ff775444fd70256b44e6bf3dfc3f690600090a250565b610bc1610ac2565b1515610bcc57600080fd5b6003805473ffffffffffffffffffffffffffffffffffffffff1916600160a060020a0392909216919091179055565b610c0c60013363ffffffff610eaa16565b565b6000610c2160018363ffffffff610ee116565b92915050565b610c3033610c0e565b1515610c3b57600080fd5b600254604080517fbaced397000000000000000000000000000000000000000000000000000000008152600481018490529051600160a060020a039092169163baced3979160248082019260009290919082900301818387803b158015610ca157600080fd5b505af1158015610cb5573d6000803e3d6000fd5b5050505050565b610cc4610ac2565b1515610ccf57600080fd5b6002805473ffffffffffffffffffffffffffffffffffffffff1916600160a060020a0392909216919091179055565b610d0733610c0e565b1515610d1257600080fd5b600254604080517fe1c8bc44000000000000000000000000000000000000000000000000000000008152600481018490529051600160a060020a039092169163e1c8bc449160248082019260009290919082900301818387803b158015610d7857600080fd5b505af1158015610d8c573d6000803e3d6000fd5b5050600354604080517f4d5b335d000000000000000000000000000000000000000000000000000000008152600160a060020a038781166004830152602482018790529151919092169350634d5b335d9250604480830192600092919082900301818387803b158015610dfe57600080fd5b505af1158015610e12573d6000803e3d6000fd5b505050600091825250600460205260409020805473ffffffffffffffffffffffffffffffffffffffff1916600160a060020a0392909216919091179055565b610e59610ac2565b1515610e6457600080fd5b610e6d81610f18565b50565b600160a060020a0381161515610e8557600080fd5b600160a060020a0316600090815260209190915260409020805460ff19166001179055565b600160a060020a0381161515610ebf57600080fd5b600160a060020a0316600090815260209190915260409020805460ff19169055565b6000600160a060020a0382161515610ef857600080fd5b50600160a060020a03166000908152602091909152604090205460ff1690565b600160a060020a0381161515610f2d57600080fd5b60008054604051600160a060020a03808516939216917f8be0079c531659141344cd1fd0a4f28419497f9722a3daafe3b4186f6b6457e091a36000805473ffffffffffffffffffffffffffffffffffffffff1916600160a060020a03929092169190911790555600a165627a7a723058205ff9de4842bbe4b6280b43cdfa8656120a22adee741c9020c20ecd0daf6b69800029",
  "source": "pragma solidity 0.4.24;\n\nimport \"./Hero.sol\";\nimport \"./HeroAsset.sol\";\nimport \"../lib/openzeppelin-solidity/contracts/ownership/Ownable.sol\";\nimport \"../lib/openzeppelin-solidity/contracts/access/roles/MinterRole.sol\";\n\n\ncontract HeroManager is Ownable, MinterRole {\n\n    uint16 public constant HERO_TYPE_OFFSET = 10000;\n\n    Hero public hero;\n    HeroAsset public heroAsset;\n\n    mapping (uint256 => address) public tokenOwner;\n\n    function setHeroAddress(address _heroAddress) public onlyOwner {\n        hero = Hero(_heroAddress);\n    }\n\n    function setHeroAssetAddress(address _heroAssetAddress) public onlyOwner {\n        heroAsset = HeroAsset(_heroAssetAddress);\n    }\n\n    function setHeroType(\n        uint16 _heroType,\n        string _heroName,\n        string _ipfs,\n        int16  _hp,\n        int16  _phy,\n        int16  _intl,\n        int16  _agi,\n        uint16 _initalActiveSkillId,\n        uint16 _passiveSkillId,\n        uint16 _rarity,\n        uint16 _supplyLimit\n    ) public onlyMinter {\n        hero.setHeroType(\n            _heroType,\n            _heroName,\n            _ipfs,\n            _hp,\n            _phy,\n            _intl,\n            _agi,\n            _initalActiveSkillId,\n            _passiveSkillId,\n            _rarity\n        );\n        heroAsset.setSupplyLimit(_heroType, _supplyLimit);\n    }\n\n    function mintHeroByType(address _owner, uint16 _heroType) public onlyMinter returns (uint256) {\n        uint16 current = hero.getHeroTypeLength(_heroType);\n        current++;\n        uint256 _heroId = uint256(_heroType) * HERO_TYPE_OFFSET + current;\n        mintHero(_owner, _heroId);\n        return _heroId;\n    }    \n\n    function mintHero(address _owner, uint256 _heroId) public onlyMinter {\n        hero.createHero(_heroId);\n        heroAsset.mintHeroAsset(_owner, _heroId);\n        tokenOwner[_heroId] = _owner;\n    }    \n\n    function setAliasName(uint256 _heroId, string _aliasName) public {\n        require(msg.sender == heroAsset.ownerOf(_heroId));\n        hero.setAliasName(_heroId, _aliasName);\n    }\n\n    function forceTransferFrom(address _from, address _to, uint256 _tokenId) public onlyMinter {\n        heroAsset.forceTransferFrom(_from, _to, _tokenId);\n    }    \n\n    function forceMintHero(address _to, uint256 _heroId) public onlyMinter {\n        address _from = tokenOwner[_heroId];\n        if(_from == address(0x0)){\n            mintHero(_to, _heroId);          \n        } else {\n            forceTransferFrom(_from, _to, _heroId);\n            tokenOwner[_heroId] = _to;\n        }\n    }\n    \n    function updateHero(uint256 _heroId) public onlyMinter {\n        hero.updateHero(_heroId);\n    }\n\n    // function setIpfs(uint256 _heroId, string _ipfs) public {}\n\n}\n",
  "sourcePath": "/Users/hironobu/devs/mch-beta/contracts/hero/HeroManager.sol",
  "compiler": {
    "name": "solc",
    "version": "0.4.24+commit.e67f0147.Emscripten.clang"
  },
  "schemaVersion": "2.0.1",
  "updatedAt": "2018-09-24T16:30:57.865Z"
}