{
  "contractName": "HeroManager",
  "abi": [
    {
      "constant": true,
      "inputs": [],
      "name": "heroAsset",
      "outputs": [
        {
          "name": "",
          "type": "address"
        }
      ],
      "payable": false,
      "stateMutability": "view",
      "type": "function"
    },
    {
      "constant": true,
      "inputs": [],
      "name": "DEFAULT_SKILL_ID",
      "outputs": [
        {
          "name": "",
          "type": "uint16"
        }
      ],
      "payable": false,
      "stateMutability": "view",
      "type": "function"
    },
    {
      "constant": true,
      "inputs": [],
      "name": "HERO_TYPE_OFFSET",
      "outputs": [
        {
          "name": "",
          "type": "uint16"
        }
      ],
      "payable": false,
      "stateMutability": "view",
      "type": "function"
    },
    {
      "constant": false,
      "inputs": [],
      "name": "renounceOwnership",
      "outputs": [],
      "payable": false,
      "stateMutability": "nonpayable",
      "type": "function"
    },
    {
      "constant": true,
      "inputs": [],
      "name": "hero",
      "outputs": [
        {
          "name": "",
          "type": "address"
        }
      ],
      "payable": false,
      "stateMutability": "view",
      "type": "function"
    },
    {
      "constant": true,
      "inputs": [],
      "name": "owner",
      "outputs": [
        {
          "name": "",
          "type": "address"
        }
      ],
      "payable": false,
      "stateMutability": "view",
      "type": "function"
    },
    {
      "constant": true,
      "inputs": [],
      "name": "isOwner",
      "outputs": [
        {
          "name": "",
          "type": "bool"
        }
      ],
      "payable": false,
      "stateMutability": "view",
      "type": "function"
    },
    {
      "constant": false,
      "inputs": [
        {
          "name": "account",
          "type": "address"
        }
      ],
      "name": "addMinter",
      "outputs": [],
      "payable": false,
      "stateMutability": "nonpayable",
      "type": "function"
    },
    {
      "constant": false,
      "inputs": [],
      "name": "renounceMinter",
      "outputs": [],
      "payable": false,
      "stateMutability": "nonpayable",
      "type": "function"
    },
    {
      "constant": true,
      "inputs": [
        {
          "name": "account",
          "type": "address"
        }
      ],
      "name": "isMinter",
      "outputs": [
        {
          "name": "",
          "type": "bool"
        }
      ],
      "payable": false,
      "stateMutability": "view",
      "type": "function"
    },
    {
      "constant": true,
      "inputs": [],
      "name": "ipfsType",
      "outputs": [
        {
          "name": "",
          "type": "address"
        }
      ],
      "payable": false,
      "stateMutability": "view",
      "type": "function"
    },
    {
      "constant": false,
      "inputs": [
        {
          "name": "newOwner",
          "type": "address"
        }
      ],
      "name": "transferOwnership",
      "outputs": [],
      "payable": false,
      "stateMutability": "nonpayable",
      "type": "function"
    },
    {
      "anonymous": false,
      "inputs": [
        {
          "indexed": true,
          "name": "account",
          "type": "address"
        }
      ],
      "name": "MinterAdded",
      "type": "event"
    },
    {
      "anonymous": false,
      "inputs": [
        {
          "indexed": true,
          "name": "account",
          "type": "address"
        }
      ],
      "name": "MinterRemoved",
      "type": "event"
    },
    {
      "anonymous": false,
      "inputs": [
        {
          "indexed": true,
          "name": "previousOwner",
          "type": "address"
        }
      ],
      "name": "OwnershipRenounced",
      "type": "event"
    },
    {
      "anonymous": false,
      "inputs": [
        {
          "indexed": true,
          "name": "previousOwner",
          "type": "address"
        },
        {
          "indexed": true,
          "name": "newOwner",
          "type": "address"
        }
      ],
      "name": "OwnershipTransferred",
      "type": "event"
    },
    {
      "constant": false,
      "inputs": [
        {
          "name": "_heroAddress",
          "type": "address"
        }
      ],
      "name": "setHeroAddress",
      "outputs": [],
      "payable": false,
      "stateMutability": "nonpayable",
      "type": "function"
    },
    {
      "constant": false,
      "inputs": [
        {
          "name": "_heroAssetAddress",
          "type": "address"
        }
      ],
      "name": "setHeroAssetAddress",
      "outputs": [],
      "payable": false,
      "stateMutability": "nonpayable",
      "type": "function"
    },
    {
      "constant": false,
      "inputs": [
        {
          "name": "_ipfsTypeAddress",
          "type": "address"
        }
      ],
      "name": "setIpfsTypeAddress",
      "outputs": [],
      "payable": false,
      "stateMutability": "nonpayable",
      "type": "function"
    },
    {
      "constant": false,
      "inputs": [
        {
          "name": "_heroType",
          "type": "uint16"
        },
        {
          "name": "_heroName",
          "type": "string"
        },
        {
          "name": "_ipfs",
          "type": "string"
        },
        {
          "name": "_hp",
          "type": "int16"
        },
        {
          "name": "_phy",
          "type": "int16"
        },
        {
          "name": "_intl",
          "type": "int16"
        },
        {
          "name": "_agi",
          "type": "int16"
        },
        {
          "name": "_initalActiveSkillId",
          "type": "uint16"
        },
        {
          "name": "_passiveSkillId",
          "type": "uint16"
        },
        {
          "name": "_rarity",
          "type": "uint16"
        },
        {
          "name": "_supplyLimit",
          "type": "uint16"
        }
      ],
      "name": "setHeroType",
      "outputs": [],
      "payable": false,
      "stateMutability": "nonpayable",
      "type": "function"
    },
    {
      "constant": false,
      "inputs": [
        {
          "name": "_owner",
          "type": "address"
        },
        {
          "name": "_heroType",
          "type": "uint16"
        }
      ],
      "name": "mintHeroByType",
      "outputs": [
        {
          "name": "",
          "type": "uint256"
        }
      ],
      "payable": false,
      "stateMutability": "nonpayable",
      "type": "function"
    },
    {
      "constant": false,
      "inputs": [
        {
          "name": "_owner",
          "type": "address"
        },
        {
          "name": "_heroId",
          "type": "uint256"
        }
      ],
      "name": "mintHero",
      "outputs": [],
      "payable": false,
      "stateMutability": "nonpayable",
      "type": "function"
    },
    {
      "constant": false,
      "inputs": [
        {
          "name": "_from",
          "type": "address"
        },
        {
          "name": "_to",
          "type": "address"
        },
        {
          "name": "_tokenId",
          "type": "uint256"
        }
      ],
      "name": "forceTransferFrom",
      "outputs": [],
      "payable": false,
      "stateMutability": "nonpayable",
      "type": "function"
    },
    {
      "constant": false,
      "inputs": [
        {
          "name": "_to",
          "type": "address"
        },
        {
          "name": "_heroId",
          "type": "uint256"
        }
      ],
      "name": "forceMintHero",
      "outputs": [],
      "payable": false,
      "stateMutability": "nonpayable",
      "type": "function"
    },
    {
      "constant": false,
      "inputs": [
        {
          "name": "_heroId",
          "type": "uint256"
        }
      ],
      "name": "updateHero",
      "outputs": [],
      "payable": false,
      "stateMutability": "nonpayable",
      "type": "function"
    },
    {
      "constant": false,
      "inputs": [
        {
          "name": "_ipfs",
          "type": "string"
        },
        {
          "name": "_skillId",
          "type": "uint16"
        }
      ],
      "name": "presetIpfs",
      "outputs": [],
      "payable": false,
      "stateMutability": "nonpayable",
      "type": "function"
    },
    {
      "constant": false,
      "inputs": [
        {
          "name": "_heroId",
          "type": "uint256"
        }
      ],
      "name": "forceUnsetIpfs",
      "outputs": [],
      "payable": false,
      "stateMutability": "nonpayable",
      "type": "function"
    },
    {
      "constant": false,
      "inputs": [
        {
          "name": "_heroId",
          "type": "uint256"
        },
        {
          "name": "_aliasName",
          "type": "string"
        }
      ],
      "name": "setAliasName",
      "outputs": [],
      "payable": false,
      "stateMutability": "nonpayable",
      "type": "function"
    },
    {
      "constant": false,
      "inputs": [
        {
          "name": "_heroId",
          "type": "uint256"
        },
        {
          "name": "_ipfs",
          "type": "string"
        }
      ],
      "name": "setIpfs",
      "outputs": [],
      "payable": false,
      "stateMutability": "nonpayable",
      "type": "function"
    },
    {
      "constant": false,
      "inputs": [
        {
          "name": "_heroId",
          "type": "uint256"
        }
      ],
      "name": "unsetIpfs",
      "outputs": [],
      "payable": false,
      "stateMutability": "nonpayable",
      "type": "function"
    }
  ],
  "bytecode": "0x608060405260008054600160a060020a03191633908117909155610032906001906401000000006114b061003782021704565b610071565b600160a060020a038116151561004c57600080fd5b600160a060020a0316600090815260209190915260409020805460ff19166001179055565b611601806100806000396000f30060806040526004361061013a5763ffffffff60e060020a60003504166316f38b63811461013f5780632c6bc54c1461017057806334a1cb5f146101d057806339298633146101fc57806339b3bb56146102265780634890087f1461024757806355b1a40f1461025c578063711435ec1461033d578063715018a61461037757806371ecf9ff1461038c57806374616ffe146103a45780637d5e86cb146103bc5780637f513d5d1461041a5780638da5cb5b1461042f5780638f32d59b1461044457806390970d2b1461046d57806395a503d814610491578063983b2d56146104f0578063985df3a7146105115780639865027514610532578063aa271e1a14610547578063baced39714610568578063be926c8014610580578063cb5745b4146105a1578063e9425dd2146105b6578063f2fde38b146105da575b600080fd5b34801561014b57600080fd5b506101546105fb565b60408051600160a060020a039092168252519081900360200190f35b34801561017c57600080fd5b5060408051602060046024803582810135601f81018590048502860185019096528585526101ce95833595369560449491939091019190819084018382808284375094975061060a9650505050505050565b005b3480156101dc57600080fd5b506101e5610785565b6040805161ffff9092168252519081900360200190f35b34801561020857600080fd5b506101ce600160a060020a036004358116906024351660443561078b565b34801561023257600080fd5b506101ce600160a060020a0360043516610832565b34801561025357600080fd5b506101e5610874565b34801561026857600080fd5b5060408051602060046024803582810135601f81018590048502860185019096528585526101ce95833561ffff1695369560449491939091019190819084018382808284375050604080516020601f89358b018035918201839004830284018301909452808352979a99988101979196509182019450925082915084018382808284375094975050508335600190810b95506020850135810b946040810135820b9450606081013590910b925061ffff60808201358116925060a082013581169160c081013582169160e0909101351661087a565b34801561034957600080fd5b50610365600160a060020a036004351661ffff60243516610ae0565b60408051918252519081900360200190f35b34801561038357600080fd5b506101ce610bb5565b34801561039857600080fd5b506101ce600435610c1d565b3480156103b057600080fd5b506101ce600435610cc7565b3480156103c857600080fd5b5060408051602060046024803582810135601f81018590048502860185019096528585526101ce958335953695604494919390910191908190840183828082843750949750610d589650505050505050565b34801561042657600080fd5b50610154610fca565b34801561043b57600080fd5b50610154610fd9565b34801561045057600080fd5b50610459610fe8565b604080519115158252519081900360200190f35b34801561047957600080fd5b506101ce600160a060020a0360043516602435610ff9565b34801561049d57600080fd5b506040805160206004803580820135601f81018490048402850184019095528484526101ce9436949293602493928401919081908401838280828437509497505050923561ffff16935061116492505050565b3480156104fc57600080fd5b506101ce600160a060020a03600435166111fc565b34801561051d57600080fd5b506101ce600160a060020a0360043516611258565b34801561053e57600080fd5b506101ce61129a565b34801561055357600080fd5b50610459600160a060020a03600435166112ad565b34801561057457600080fd5b506101ce6004356112c6565b34801561058c57600080fd5b506101ce600160a060020a0360043516611340565b3480156105ad57600080fd5b50610154611382565b3480156105c257600080fd5b506101ce600160a060020a0360043516602435611391565b3480156105e657600080fd5b506101ce600160a060020a0360043516611491565b600354600160a060020a031681565b6003546040805160e160020a6331a9108f028152600481018590529051600160a060020a0390921691636352211e916024808201926020929091908290030181600087803b15801561065b57600080fd5b505af115801561066f573d6000803e3d6000fd5b505050506040513d602081101561068557600080fd5b5051600160a060020a0316331461069b57600080fd5b600254604080517f2c6bc54c0000000000000000000000000000000000000000000000000000000081526004810185815260248201928352845160448301528451600160a060020a0390941693632c6bc54c938793879392606490910190602085019080838360005b8381101561071c578181015183820152602001610704565b50505050905090810190601f1680156107495780820380516001836020036101000a031916815260200191505b509350505050600060405180830381600087803b15801561076957600080fd5b505af115801561077d573d6000803e3d6000fd5b505050505050565b6107d181565b610794336112ad565b151561079f57600080fd5b600354604080517f39298633000000000000000000000000000000000000000000000000000000008152600160a060020a03868116600483015285811660248301526044820185905291519190921691633929863391606480830192600092919082900301818387803b15801561081557600080fd5b505af1158015610829573d6000803e3d6000fd5b50505050505050565b61083a610fe8565b151561084557600080fd5b6004805473ffffffffffffffffffffffffffffffffffffffff1916600160a060020a0392909216919091179055565b61271081565b610883336112ad565b151561088e57600080fd5b600260009054906101000a9004600160a060020a0316600160a060020a031663d400b01a8c8c8c8c8c8c8c8c8c8c6040518b63ffffffff1660e060020a028152600401808b61ffff1661ffff16815260200180602001806020018a60010b60010b81526020018960010b60010b81526020018860010b60010b81526020018760010b60010b81526020018661ffff1661ffff1681526020018561ffff1661ffff1681526020018461ffff1661ffff16815260200183810383528c818151815260200191508051906020019080838360005b8381101561097757818101518382015260200161095f565b50505050905090810190601f1680156109a45780820380516001836020036101000a031916815260200191505b5083810382528b5181528b516020918201918d019080838360005b838110156109d75781810151838201526020016109bf565b50505050905090810190601f168015610a045780820380516001836020036101000a031916815260200191505b509c50505050505050505050505050600060405180830381600087803b158015610a2d57600080fd5b505af1158015610a41573d6000803e3d6000fd5b50505050600360009054906101000a9004600160a060020a0316600160a060020a0316636fa23f738c836040518363ffffffff1660e060020a028152600401808361ffff1661ffff1681526020018261ffff1661ffff16815260200192505050600060405180830381600087803b158015610abb57600080fd5b505af1158015610acf573d6000803e3d6000fd5b505050505050505050505050505050565b6000806000610aee336112ad565b1515610af957600080fd5b600254604080517f487175bb00000000000000000000000000000000000000000000000000000000815261ffff871660048201529051600160a060020a039092169163487175bb916024808201926020929091908290030181600087803b158015610b6357600080fd5b505af1158015610b77573d6000803e3d6000fd5b505050506040513d6020811015610b8d57600080fd5b505160010191505061ffff8381166127100290821601610bad8582611391565b949350505050565b610bbd610fe8565b1515610bc857600080fd5b60008054604051600160a060020a03909116917ff8df31144d9c2f0f6b59d69b8b98abd5459d07f2742c4df920b25aae33c6482091a26000805473ffffffffffffffffffffffffffffffffffffffff19169055565b610c26336112ad565b1515610c3157600080fd5b600254604080517fe6bd9f11000000000000000000000000000000000000000000000000000000008152600481018490526107d16044820152606060248201526000606482018190529151600160a060020a039093169263e6bd9f119260a48084019391929182900301818387803b158015610cac57600080fd5b505af1158015610cc0573d6000803e3d6000fd5b5050505050565b6003546040805160e160020a6331a9108f028152600481018490529051600160a060020a0390921691636352211e916024808201926020929091908290030181600087803b158015610d1857600080fd5b505af1158015610d2c573d6000803e3d6000fd5b505050506040513d6020811015610d4257600080fd5b5051600160a060020a03163314610c3157600080fd5b6003546040805160e160020a6331a9108f028152600481018590529051600092600160a060020a031691636352211e91602480830192602092919082900301818787803b158015610da857600080fd5b505af1158015610dbc573d6000803e3d6000fd5b505050506040513d6020811015610dd257600080fd5b5051600160a060020a03163314610de857600080fd5b600480546040517f693ec85e0000000000000000000000000000000000000000000000000000000081526020928101838152855160248301528551600160a060020a039093169363693ec85e93879383926044909101919085019080838360005b83811015610e61578181015183820152602001610e49565b50505050905090810190601f168015610e8e5780820380516001836020036101000a031916815260200191505b5092505050602060405180830381600087803b158015610ead57600080fd5b505af1158015610ec1573d6000803e3d6000fd5b505050506040513d6020811015610ed757600080fd5b5051905061ffff81161515610eeb57600080fd5b6002546040517fe6bd9f110000000000000000000000000000000000000000000000000000000081526004810185815261ffff84166044830152606060248301908152855160648401528551600160a060020a039094169363e6bd9f119388938893889391929091608490910190602086019080838360005b83811015610f7c578181015183820152602001610f64565b50505050905090810190601f168015610fa95780820380516001836020036101000a031916815260200191505b50945050505050600060405180830381600087803b15801561081557600080fd5b600254600160a060020a031681565b600054600160a060020a031690565b600054600160a060020a0316331490565b600080600080611008336112ad565b151561101357600080fd5b61271085600254604080517f487175bb0000000000000000000000000000000000000000000000000000000081529390920461ffff811660048501529151919650600160a060020a03169163487175bb9160248083019260209291908290030181600087803b15801561108557600080fd5b505af1158015611099573d6000803e3d6000fd5b505050506040513d60208110156110af57600080fd5b5051925061ffff84811661271002908416019150818511156110da576110d58686611391565b61077d565b6003546040805160e160020a6331a9108f028152600481018890529051600160a060020a0390921691636352211e916024808201926020929091908290030181600087803b15801561112b57600080fd5b505af115801561113f573d6000803e3d6000fd5b505050506040513d602081101561115557600080fd5b5051905061077d81878761078b565b61116d336112ad565b151561117857600080fd5b60048054604080517f3d735c7600000000000000000000000000000000000000000000000000000000815261ffff85166024820152928301908152845160448401528451600160a060020a0390921692633d735c7692869286929091829160640190602086019080838360008381101561071c578181015183820152602001610704565b611205336112ad565b151561121057600080fd5b61122160018263ffffffff6114b016565b604051600160a060020a038216907f6ae172837ea30b801fbfcdd4108aa1d5bf8ff775444fd70256b44e6bf3dfc3f690600090a250565b611260610fe8565b151561126b57600080fd5b6003805473ffffffffffffffffffffffffffffffffffffffff1916600160a060020a0392909216919091179055565b6112ab60013363ffffffff6114ea16565b565b60006112c060018363ffffffff61152116565b92915050565b6112cf336112ad565b15156112da57600080fd5b600254604080517fbaced397000000000000000000000000000000000000000000000000000000008152600481018490529051600160a060020a039092169163baced3979160248082019260009290919082900301818387803b158015610cac57600080fd5b611348610fe8565b151561135357600080fd5b6002805473ffffffffffffffffffffffffffffffffffffffff1916600160a060020a0392909216919091179055565b600454600160a060020a031681565b61139a336112ad565b15156113a557600080fd5b600254604080517fe1c8bc44000000000000000000000000000000000000000000000000000000008152600481018490529051600160a060020a039092169163e1c8bc449160248082019260009290919082900301818387803b15801561140b57600080fd5b505af115801561141f573d6000803e3d6000fd5b5050600354604080517f4d5b335d000000000000000000000000000000000000000000000000000000008152600160a060020a038781166004830152602482018790529151919092169350634d5b335d9250604480830192600092919082900301818387803b15801561076957600080fd5b611499610fe8565b15156114a457600080fd5b6114ad81611558565b50565b600160a060020a03811615156114c557600080fd5b600160a060020a0316600090815260209190915260409020805460ff19166001179055565b600160a060020a03811615156114ff57600080fd5b600160a060020a0316600090815260209190915260409020805460ff19169055565b6000600160a060020a038216151561153857600080fd5b50600160a060020a03166000908152602091909152604090205460ff1690565b600160a060020a038116151561156d57600080fd5b60008054604051600160a060020a03808516939216917f8be0079c531659141344cd1fd0a4f28419497f9722a3daafe3b4186f6b6457e091a36000805473ffffffffffffffffffffffffffffffffffffffff1916600160a060020a03929092169190911790555600a165627a7a72305820d279817974e4bbdbae4a45d1b387f64a4505d756e410f653e811b2e77e5bea600029",
  "source": "pragma solidity 0.4.24;\n\nimport \"./Hero.sol\";\nimport \"./HeroAsset.sol\";\nimport \"./IpfsType.sol\";\nimport \"../lib/openzeppelin-solidity/contracts/ownership/Ownable.sol\";\nimport \"../lib/openzeppelin-solidity/contracts/access/roles/MinterRole.sol\";\n\n\ncontract HeroManager is Ownable, MinterRole {\n\n    uint16 public constant HERO_TYPE_OFFSET = 10000;\n    uint16 public constant DEFAULT_SKILL_ID = 2001;\n\n    Hero public hero;\n    HeroAsset public heroAsset;\n    IpfsType public ipfsType;\n\n    function setHeroAddress(address _heroAddress) public onlyOwner {\n        hero = Hero(_heroAddress);\n    }\n\n    function setHeroAssetAddress(address _heroAssetAddress) public onlyOwner {\n        heroAsset = HeroAsset(_heroAssetAddress);\n    }\n\n    function setIpfsTypeAddress(address _ipfsTypeAddress) public onlyOwner {\n        ipfsType = IpfsType(_ipfsTypeAddress);\n    }\n\n    function setHeroType(\n        uint16 _heroType,\n        string _heroName,\n        string _ipfs,\n        int16  _hp,\n        int16  _phy,\n        int16  _intl,\n        int16  _agi,\n        uint16 _initalActiveSkillId,\n        uint16 _passiveSkillId,\n        uint16 _rarity,\n        uint16 _supplyLimit\n    ) public onlyMinter {\n        hero.setHeroType(\n            _heroType,\n            _heroName,\n            _ipfs,\n            _hp,\n            _phy,\n            _intl,\n            _agi,\n            _initalActiveSkillId,\n            _passiveSkillId,\n            _rarity\n        );\n        heroAsset.setSupplyLimit(_heroType, _supplyLimit);\n    }\n\n    function mintHeroByType(address _owner, uint16 _heroType) public onlyMinter returns (uint256) {\n        uint16 current = hero.getHeroTypeLength(_heroType);\n        current++;\n        uint256 _heroId = uint256(_heroType) * HERO_TYPE_OFFSET + current;\n        mintHero(_owner, _heroId);\n        return _heroId;\n    }    \n\n    function mintHero(address _owner, uint256 _heroId) public onlyMinter {\n        hero.createHero(_heroId);\n        heroAsset.mintHeroAsset(_owner, _heroId);\n    }    \n\n    function forceTransferFrom(address _from, address _to, uint256 _tokenId) public onlyMinter {\n        heroAsset.forceTransferFrom(_from, _to, _tokenId);\n    }    \n\n    function forceMintHero(address _to, uint256 _heroId) public onlyMinter {\n        uint16 _heroType = uint16(_heroId / HERO_TYPE_OFFSET);\n        uint16 _heroLength = hero.getHeroTypeLength(_heroType);\n        uint256 _lastHeroId = uint256(_heroType) * HERO_TYPE_OFFSET + _heroLength;\n        \n        if(_heroId > _lastHeroId){\n            mintHero(_to, _heroId);\n        } else {\n            address _from = heroAsset.ownerOf(_heroId);\n            forceTransferFrom(_from, _to, _heroId);\n        }\n    }\n    \n    function updateHero(uint256 _heroId) public onlyMinter {\n        hero.updateHero(_heroId);\n    }\n\n    function presetIpfs(string _ipfs, uint16 _skillId) public onlyMinter {\n        ipfsType.set(_ipfs, _skillId);\n    }\n\n    function forceUnsetIpfs(uint256 _heroId) public onlyMinter {\n        hero.setIpfs(_heroId, \"\", DEFAULT_SKILL_ID);\n    }\n\n    function setAliasName(uint256 _heroId, string _aliasName) public {\n        require(msg.sender == heroAsset.ownerOf(_heroId));\n        hero.setAliasName(_heroId, _aliasName);\n    }\n\n    function setIpfs(uint256 _heroId, string _ipfs) public {\n        require(msg.sender == heroAsset.ownerOf(_heroId));\n        uint16 skillId = ipfsType.get(_ipfs);\n        require(skillId != 0);\n        hero.setIpfs(_heroId, _ipfs, skillId);\n    }\n\n    function unsetIpfs(uint256 _heroId) public {\n        require(msg.sender == heroAsset.ownerOf(_heroId));\n        hero.setIpfs(_heroId, \"\", DEFAULT_SKILL_ID);\n    }\n}\n",
  "sourcePath": "/Users/hironobu/devs/mch-beta/contracts/hero/HeroManager.sol",
  "compiler": {
    "name": "solc",
    "version": "0.4.24+commit.e67f0147.Emscripten.clang"
  },
  "schemaVersion": "2.0.1",
  "updatedAt": "2018-10-09T05:01:02.861Z"
}