{
  "contractName": "HeroAsset",
  "abi": [
    {
      "constant": true,
      "inputs": [
        {
          "name": "interfaceId",
          "type": "bytes4"
        }
      ],
      "name": "supportsInterface",
      "outputs": [
        {
          "name": "",
          "type": "bool"
        }
      ],
      "payable": false,
      "stateMutability": "view",
      "type": "function"
    },
    {
      "constant": true,
      "inputs": [],
      "name": "mintingFinished",
      "outputs": [
        {
          "name": "",
          "type": "bool"
        }
      ],
      "payable": false,
      "stateMutability": "view",
      "type": "function"
    },
    {
      "constant": true,
      "inputs": [],
      "name": "name",
      "outputs": [
        {
          "name": "",
          "type": "string"
        }
      ],
      "payable": false,
      "stateMutability": "view",
      "type": "function"
    },
    {
      "constant": true,
      "inputs": [
        {
          "name": "tokenId",
          "type": "uint256"
        }
      ],
      "name": "getApproved",
      "outputs": [
        {
          "name": "",
          "type": "address"
        }
      ],
      "payable": false,
      "stateMutability": "view",
      "type": "function"
    },
    {
      "constant": false,
      "inputs": [
        {
          "name": "to",
          "type": "address"
        },
        {
          "name": "tokenId",
          "type": "uint256"
        }
      ],
      "name": "approve",
      "outputs": [],
      "payable": false,
      "stateMutability": "nonpayable",
      "type": "function"
    },
    {
      "constant": true,
      "inputs": [],
      "name": "totalSupply",
      "outputs": [
        {
          "name": "",
          "type": "uint256"
        }
      ],
      "payable": false,
      "stateMutability": "view",
      "type": "function"
    },
    {
      "constant": false,
      "inputs": [
        {
          "name": "from",
          "type": "address"
        },
        {
          "name": "to",
          "type": "address"
        },
        {
          "name": "tokenId",
          "type": "uint256"
        }
      ],
      "name": "transferFrom",
      "outputs": [],
      "payable": false,
      "stateMutability": "nonpayable",
      "type": "function"
    },
    {
      "constant": true,
      "inputs": [
        {
          "name": "owner",
          "type": "address"
        },
        {
          "name": "index",
          "type": "uint256"
        }
      ],
      "name": "tokenOfOwnerByIndex",
      "outputs": [
        {
          "name": "",
          "type": "uint256"
        }
      ],
      "payable": false,
      "stateMutability": "view",
      "type": "function"
    },
    {
      "constant": false,
      "inputs": [],
      "name": "unpause",
      "outputs": [],
      "payable": false,
      "stateMutability": "nonpayable",
      "type": "function"
    },
    {
      "constant": false,
      "inputs": [
        {
          "name": "to",
          "type": "address"
        },
        {
          "name": "tokenId",
          "type": "uint256"
        }
      ],
      "name": "mint",
      "outputs": [
        {
          "name": "",
          "type": "bool"
        }
      ],
      "payable": false,
      "stateMutability": "nonpayable",
      "type": "function"
    },
    {
      "constant": false,
      "inputs": [
        {
          "name": "from",
          "type": "address"
        },
        {
          "name": "to",
          "type": "address"
        },
        {
          "name": "tokenId",
          "type": "uint256"
        }
      ],
      "name": "safeTransferFrom",
      "outputs": [],
      "payable": false,
      "stateMutability": "nonpayable",
      "type": "function"
    },
    {
      "constant": true,
      "inputs": [
        {
          "name": "account",
          "type": "address"
        }
      ],
      "name": "isPauser",
      "outputs": [
        {
          "name": "",
          "type": "bool"
        }
      ],
      "payable": false,
      "stateMutability": "view",
      "type": "function"
    },
    {
      "constant": true,
      "inputs": [],
      "name": "HERO_TYPE_OFFSET",
      "outputs": [
        {
          "name": "",
          "type": "uint16"
        }
      ],
      "payable": false,
      "stateMutability": "view",
      "type": "function"
    },
    {
      "constant": true,
      "inputs": [
        {
          "name": "index",
          "type": "uint256"
        }
      ],
      "name": "tokenByIndex",
      "outputs": [
        {
          "name": "",
          "type": "uint256"
        }
      ],
      "payable": false,
      "stateMutability": "view",
      "type": "function"
    },
    {
      "constant": false,
      "inputs": [
        {
          "name": "to",
          "type": "address"
        },
        {
          "name": "tokenId",
          "type": "uint256"
        },
        {
          "name": "tokenURI",
          "type": "string"
        }
      ],
      "name": "mintWithTokenURI",
      "outputs": [
        {
          "name": "",
          "type": "bool"
        }
      ],
      "payable": false,
      "stateMutability": "nonpayable",
      "type": "function"
    },
    {
      "constant": true,
      "inputs": [],
      "name": "paused",
      "outputs": [
        {
          "name": "",
          "type": "bool"
        }
      ],
      "payable": false,
      "stateMutability": "view",
      "type": "function"
    },
    {
      "constant": true,
      "inputs": [
        {
          "name": "tokenId",
          "type": "uint256"
        }
      ],
      "name": "ownerOf",
      "outputs": [
        {
          "name": "",
          "type": "address"
        }
      ],
      "payable": false,
      "stateMutability": "view",
      "type": "function"
    },
    {
      "constant": false,
      "inputs": [],
      "name": "renouncePauser",
      "outputs": [],
      "payable": false,
      "stateMutability": "nonpayable",
      "type": "function"
    },
    {
      "constant": true,
      "inputs": [
        {
          "name": "owner",
          "type": "address"
        }
      ],
      "name": "balanceOf",
      "outputs": [
        {
          "name": "",
          "type": "uint256"
        }
      ],
      "payable": false,
      "stateMutability": "view",
      "type": "function"
    },
    {
      "constant": false,
      "inputs": [],
      "name": "finishMinting",
      "outputs": [
        {
          "name": "",
          "type": "bool"
        }
      ],
      "payable": false,
      "stateMutability": "nonpayable",
      "type": "function"
    },
    {
      "constant": false,
      "inputs": [
        {
          "name": "account",
          "type": "address"
        }
      ],
      "name": "addPauser",
      "outputs": [],
      "payable": false,
      "stateMutability": "nonpayable",
      "type": "function"
    },
    {
      "constant": false,
      "inputs": [],
      "name": "pause",
      "outputs": [],
      "payable": false,
      "stateMutability": "nonpayable",
      "type": "function"
    },
    {
      "constant": true,
      "inputs": [],
      "name": "symbol",
      "outputs": [
        {
          "name": "",
          "type": "string"
        }
      ],
      "payable": false,
      "stateMutability": "view",
      "type": "function"
    },
    {
      "constant": false,
      "inputs": [
        {
          "name": "account",
          "type": "address"
        }
      ],
      "name": "addMinter",
      "outputs": [],
      "payable": false,
      "stateMutability": "nonpayable",
      "type": "function"
    },
    {
      "constant": false,
      "inputs": [],
      "name": "renounceMinter",
      "outputs": [],
      "payable": false,
      "stateMutability": "nonpayable",
      "type": "function"
    },
    {
      "constant": false,
      "inputs": [
        {
          "name": "to",
          "type": "address"
        },
        {
          "name": "approved",
          "type": "bool"
        }
      ],
      "name": "setApprovalForAll",
      "outputs": [],
      "payable": false,
      "stateMutability": "nonpayable",
      "type": "function"
    },
    {
      "constant": true,
      "inputs": [
        {
          "name": "account",
          "type": "address"
        }
      ],
      "name": "isMinter",
      "outputs": [
        {
          "name": "",
          "type": "bool"
        }
      ],
      "payable": false,
      "stateMutability": "view",
      "type": "function"
    },
    {
      "constant": false,
      "inputs": [
        {
          "name": "from",
          "type": "address"
        },
        {
          "name": "to",
          "type": "address"
        },
        {
          "name": "tokenId",
          "type": "uint256"
        },
        {
          "name": "_data",
          "type": "bytes"
        }
      ],
      "name": "safeTransferFrom",
      "outputs": [],
      "payable": false,
      "stateMutability": "nonpayable",
      "type": "function"
    },
    {
      "constant": true,
      "inputs": [],
      "name": "tokenURIPrefix",
      "outputs": [
        {
          "name": "",
          "type": "string"
        }
      ],
      "payable": false,
      "stateMutability": "view",
      "type": "function"
    },
    {
      "constant": true,
      "inputs": [
        {
          "name": "owner",
          "type": "address"
        },
        {
          "name": "operator",
          "type": "address"
        }
      ],
      "name": "isApprovedForAll",
      "outputs": [
        {
          "name": "",
          "type": "bool"
        }
      ],
      "payable": false,
      "stateMutability": "view",
      "type": "function"
    },
    {
      "inputs": [],
      "payable": false,
      "stateMutability": "nonpayable",
      "type": "constructor"
    },
    {
      "anonymous": false,
      "inputs": [],
      "name": "Paused",
      "type": "event"
    },
    {
      "anonymous": false,
      "inputs": [],
      "name": "Unpaused",
      "type": "event"
    },
    {
      "anonymous": false,
      "inputs": [
        {
          "indexed": true,
          "name": "account",
          "type": "address"
        }
      ],
      "name": "PauserAdded",
      "type": "event"
    },
    {
      "anonymous": false,
      "inputs": [
        {
          "indexed": true,
          "name": "account",
          "type": "address"
        }
      ],
      "name": "PauserRemoved",
      "type": "event"
    },
    {
      "anonymous": false,
      "inputs": [],
      "name": "MintingFinished",
      "type": "event"
    },
    {
      "anonymous": false,
      "inputs": [
        {
          "indexed": true,
          "name": "account",
          "type": "address"
        }
      ],
      "name": "MinterAdded",
      "type": "event"
    },
    {
      "anonymous": false,
      "inputs": [
        {
          "indexed": true,
          "name": "account",
          "type": "address"
        }
      ],
      "name": "MinterRemoved",
      "type": "event"
    },
    {
      "anonymous": false,
      "inputs": [
        {
          "indexed": true,
          "name": "from",
          "type": "address"
        },
        {
          "indexed": true,
          "name": "to",
          "type": "address"
        },
        {
          "indexed": true,
          "name": "tokenId",
          "type": "uint256"
        }
      ],
      "name": "Transfer",
      "type": "event"
    },
    {
      "anonymous": false,
      "inputs": [
        {
          "indexed": true,
          "name": "owner",
          "type": "address"
        },
        {
          "indexed": true,
          "name": "approved",
          "type": "address"
        },
        {
          "indexed": true,
          "name": "tokenId",
          "type": "uint256"
        }
      ],
      "name": "Approval",
      "type": "event"
    },
    {
      "anonymous": false,
      "inputs": [
        {
          "indexed": true,
          "name": "owner",
          "type": "address"
        },
        {
          "indexed": true,
          "name": "operator",
          "type": "address"
        },
        {
          "indexed": false,
          "name": "approved",
          "type": "bool"
        }
      ],
      "name": "ApprovalForAll",
      "type": "event"
    },
    {
      "constant": false,
      "inputs": [
        {
          "name": "_heroType",
          "type": "uint16"
        },
        {
          "name": "_supplyLimit",
          "type": "uint16"
        }
      ],
      "name": "setSupplyLimit",
      "outputs": [],
      "payable": false,
      "stateMutability": "nonpayable",
      "type": "function"
    },
    {
      "constant": false,
      "inputs": [
        {
          "name": "_tokenURIPrefix",
          "type": "string"
        }
      ],
      "name": "setTokenURIPrefix",
      "outputs": [],
      "payable": false,
      "stateMutability": "nonpayable",
      "type": "function"
    },
    {
      "constant": true,
      "inputs": [
        {
          "name": "_heroType",
          "type": "uint16"
        }
      ],
      "name": "getSupplyLimit",
      "outputs": [
        {
          "name": "",
          "type": "uint16"
        }
      ],
      "payable": false,
      "stateMutability": "view",
      "type": "function"
    },
    {
      "constant": false,
      "inputs": [
        {
          "name": "_owner",
          "type": "address"
        },
        {
          "name": "_tokenId",
          "type": "uint256"
        }
      ],
      "name": "mintHeroAsset",
      "outputs": [],
      "payable": false,
      "stateMutability": "nonpayable",
      "type": "function"
    },
    {
      "constant": false,
      "inputs": [
        {
          "name": "from",
          "type": "address"
        },
        {
          "name": "to",
          "type": "address"
        },
        {
          "name": "tokenId",
          "type": "uint256"
        }
      ],
      "name": "forceTransferFrom",
      "outputs": [],
      "payable": false,
      "stateMutability": "nonpayable",
      "type": "function"
    },
    {
      "constant": true,
      "inputs": [
        {
          "name": "tokenId",
          "type": "uint256"
        }
      ],
      "name": "tokenURI",
      "outputs": [
        {
          "name": "",
          "type": "string"
        }
      ],
      "payable": false,
      "stateMutability": "view",
      "type": "function"
    }
  ],
  "bytecode": "0x600d805460ff19908116909155600f8054909116905560e0604052602d60808190527f68747470733a2f2f7777772e6d7963727970746f6865726f65732e6e65742f6d60a09081527f657461646174612f6865726f2f0000000000000000000000000000000000000060c0526200007a9160109190620002db565b503480156200008857600080fd5b50604080518082018252601381527f4d7943727970746f4865726f65733a4865726f000000000000000000000000006020808301919091528251808401909352600483527f4d4348480000000000000000000000000000000000000000000000000000000090830152908181620001287f01ffc9a70000000000000000000000000000000000000000000000000000000064010000000062000233810204565b6200015c7f80ac58cd0000000000000000000000000000000000000000000000000000000064010000000062000233810204565b620001907f780e9d630000000000000000000000000000000000000000000000000000000064010000000062000233810204565b8151620001a5906009906020850190620002db565b508051620001bb90600a906020840190620002db565b50620001f07f5b5e139f0000000000000000000000000000000000000000000000000000000064010000000062000233810204565b50620002129250600c91503390506401000000006200151d620002a082021704565b6200022d600e336401000000006200151d620002a082021704565b62000380565b7fffffffff0000000000000000000000000000000000000000000000000000000080821614156200026357600080fd5b7fffffffff00000000000000000000000000000000000000000000000000000000166000908152602081905260409020805460ff19166001179055565b600160a060020a0381161515620002b657600080fd5b600160a060020a0316600090815260209190915260409020805460ff19166001179055565b828054600181600116156101000203166002900490600052602060002090601f016020900481019282601f106200031e57805160ff19168380011785556200034e565b828001600101855582156200034e579182015b828111156200034e57825182559160200191906001019062000331565b506200035c92915062000360565b5090565b6200037d91905b808211156200035c576000815560010162000367565b90565b611acb80620003906000396000f3006080604052600436106101c15763ffffffff7c010000000000000000000000000000000000000000000000000000000060003504166301ffc9a781146101c657806305d2035b1461021157806306fdde0314610226578063081812fc146102b0578063095ea7b3146102e457806318160ddd1461030a57806323b872dd146103315780632f745c591461035b578063392986331461037f5780633f4ba83a146103a957806340c10f19146103be57806342842e0e146103e257806346fbf68e1461040c5780634890087f1461042d5780634d5b335d146104595780634f6ccce71461047d57806350bb4e7f146104955780635c975abb146104fe5780636352211e146105135780636ef8d66d1461052b5780636fa23f731461054057806370a08231146105625780637d64bcb41461058357806382dc1ec4146105985780638450b12e146105b95780638456cb59146105d557806395d89b41146105ea578063983b2d56146105ff578063986502751461062057806399e0dd7c14610635578063a22cb46514610655578063aa271e1a1461067b578063b88d4fde1461069c578063c0ac99831461070b578063c87b56dd14610720578063e985e9c514610738575b600080fd5b3480156101d257600080fd5b506101fd7bffffffffffffffffffffffffffffffffffffffffffffffffffffffff196004351661075f565b604080519115158252519081900360200190f35b34801561021d57600080fd5b506101fd610793565b34801561023257600080fd5b5061023b61079d565b6040805160208082528351818301528351919283929083019185019080838360005b8381101561027557818101518382015260200161025d565b50505050905090810190601f1680156102a25780820380516001836020036101000a031916815260200191505b509250505060405180910390f35b3480156102bc57600080fd5b506102c8600435610833565b60408051600160a060020a039092168252519081900360200190f35b3480156102f057600080fd5b50610308600160a060020a0360043516602435610865565b005b34801561031657600080fd5b5061031f610883565b60408051918252519081900360200190f35b34801561033d57600080fd5b50610308600160a060020a0360043581169060243516604435610889565b34801561036757600080fd5b5061031f600160a060020a03600435166024356108a9565b34801561038b57600080fd5b50610308600160a060020a03600435811690602435166044356108f6565b3480156103b557600080fd5b5061030861096e565b3480156103ca57600080fd5b506101fd600160a060020a03600435166024356109c8565b3480156103ee57600080fd5b50610308600160a060020a0360043581169060243516604435610a01565b34801561041857600080fd5b506101fd600160a060020a0360043516610a1d565b34801561043957600080fd5b50610442610a36565b6040805161ffff9092168252519081900360200190f35b34801561046557600080fd5b50610308600160a060020a0360043516602435610a3c565b34801561048957600080fd5b5061031f600435610ae1565b3480156104a157600080fd5b50604080516020600460443581810135601f81018490048402850184019095528484526101fd948235600160a060020a0316946024803595369594606494920191908190840183828082843750949750610b169650505050505050565b34801561050a57600080fd5b506101fd610b5b565b34801561051f57600080fd5b506102c8600435610b64565b34801561053757600080fd5b50610308610b88565b34801561054c57600080fd5b5061030861ffff60043581169060243516610b9b565b34801561056e57600080fd5b5061031f600160a060020a0360043516610bd3565b34801561058f57600080fd5b506101fd610c06565b3480156105a457600080fd5b50610308600160a060020a0360043516610c68565b3480156105c557600080fd5b5061044261ffff60043516610cc4565b3480156105e157600080fd5b50610308610cdd565b3480156105f657600080fd5b5061023b610d39565b34801561060b57600080fd5b50610308600160a060020a0360043516610d9a565b34801561062c57600080fd5b50610308610df6565b34801561064157600080fd5b506103086004803560248101910135610e07565b34801561066157600080fd5b50610308600160a060020a03600435166024351515610e27565b34801561068757600080fd5b506101fd600160a060020a0360043516610e41565b3480156106a857600080fd5b50604080516020601f60643560048181013592830184900484028501840190955281845261030894600160a060020a038135811695602480359092169560443595369560849401918190840183828082843750949750610e549650505050505050565b34801561071757600080fd5b5061023b610e76565b34801561072c57600080fd5b5061023b600435610f04565b34801561074457600080fd5b506101fd600160a060020a0360043581169060243516611143565b7bffffffffffffffffffffffffffffffffffffffffffffffffffffffff191660009081526020819052604090205460ff1690565b600d5460ff165b90565b60098054604080516020601f60026000196101006001881615020190951694909404938401819004810282018101909252828152606093909290918301828280156108295780601f106107fe57610100808354040283529160200191610829565b820191906000526020600020905b81548152906001019060200180831161080c57829003601f168201915b5050505050905090565b600061083e82611171565b151561084957600080fd5b50600090815260026020526040902054600160a060020a031690565b600f5460ff161561087557600080fd5b61087f828261118e565b5050565b60075490565b600f5460ff161561089957600080fd5b6108a4838383611244565b505050565b60006108b483610bd3565b82106108bf57600080fd5b600160a060020a03831660009081526005602052604090208054839081106108e357fe5b9060005260206000200154905092915050565b6108ff33610e41565b151561090a57600080fd5b610914838261126e565b61091e83826112dd565b61092882826113e4565b8082600160a060020a031684600160a060020a03167fddf252ad1be2c89b69c2b068fc378daa952ba7f163c4a11628f55a4df523b3ef60405160405180910390a4505050565b61097733610a1d565b151561098257600080fd5b600f5460ff16151561099357600080fd5b600f805460ff191690556040517fa45f47fdea8a1efdd9029a5691c7f759c32b7c698632b563573e155625d1693390600090a1565b60006109d333610e41565b15156109de57600080fd5b600d5460ff16156109ee57600080fd5b6109f8838361142d565b50600192915050565b6108a48383836020604051908101604052806000815250610e54565b6000610a30600e8363ffffffff61147c16565b92915050565b61271081565b61271080820461ffff818116600090815260116020526040902054919284066000190191811690821610610ad157604080517f08c379a000000000000000000000000000000000000000000000000000000000815260206004820152600b60248201527f737570706c79206f766572000000000000000000000000000000000000000000604482015290519081900360640190fd5b610adb848461142d565b50505050565b6000610aeb610883565b8210610af657600080fd5b6007805483908110610b0457fe5b90600052602060002001549050919050565b6000610b2133610e41565b1515610b2c57600080fd5b600d5460ff1615610b3c57600080fd5b610b4684846109c8565b50610b5183836114b3565b5060019392505050565b600f5460ff1690565b600081815260016020526040812054600160a060020a0316801515610a3057600080fd5b610b99600e3363ffffffff6114e616565b565b610ba433610e41565b1515610baf57600080fd5b61ffff9182166000908152601160205260409020805461ffff191691909216179055565b6000600160a060020a0382161515610bea57600080fd5b50600160a060020a031660009081526003602052604090205490565b6000610c1133610e41565b1515610c1c57600080fd5b600d5460ff1615610c2c57600080fd5b600d805460ff191660011790556040517fb828d9b5c78095deeeeff2eca2e5d4fe046ce3feb4c99702624a3fd384ad2dbc90600090a150600190565b610c7133610a1d565b1515610c7c57600080fd5b610c8d600e8263ffffffff61151d16565b604051600160a060020a038216907f6719d08c1888103bea251a4ed56406bd0c3e69723c8a1686e017e7bbe159b6f890600090a250565b61ffff9081166000908152601160205260409020541690565b610ce633610a1d565b1515610cf157600080fd5b600f5460ff1615610d0157600080fd5b600f805460ff191660011790556040517f9e87fac88ff661f02d44f95383c817fece4bce600a3dab7a54406878b965e75290600090a1565b600a8054604080516020601f60026000196101006001881615020190951694909404938401819004810282018101909252828152606093909290918301828280156108295780601f106107fe57610100808354040283529160200191610829565b610da333610e41565b1515610dae57600080fd5b610dbf600c8263ffffffff61151d16565b604051600160a060020a038216907f6ae172837ea30b801fbfcdd4108aa1d5bf8ff775444fd70256b44e6bf3dfc3f690600090a250565b610b99600c3363ffffffff6114e616565b610e1033610e41565b1515610e1b57600080fd5b6108a460108383611975565b600f5460ff1615610e3757600080fd5b61087f8282611557565b6000610a30600c8363ffffffff61147c16565b610e5f848484610889565b610e6b848484846115db565b1515610adb57600080fd5b6010805460408051602060026001851615610100026000190190941693909304601f81018490048402820184019092528181529291830182828015610efc5780601f10610ed157610100808354040283529160200191610efc565b820191906000526020600020905b815481529060010190602001808311610edf57829003601f168201915b505050505081565b606060008082808280871515610f3c577f30000000000000000000000000000000000000000000000000000000000000009550610f78565b8794505b6000851115610f785761010086049550600a850660300160f860020a0260010286179550600a85811515610f7057fe5b049450610f40565b6010805460408051602060026001851615610100026000190190941693909304601f81018490048402820184019092528181529291830182828015610ffe5780601f10610fd357610100808354040283529160200191610ffe565b820191906000526020600020905b815481529060010190602001808311610fe157829003601f168201915b50505050509350602060ff168451016040519080825280601f01601f19166020018201604052801561103a578160200160208202803883390190505b50925060009050600091505b83518260ff1610156110c357838260ff1681518110151561106357fe5b90602001015160f860020a900460f860020a02838260ff1681518110151561108757fe5b9060200101907effffffffffffffffffffffffffffffffffffffffffffffffffffffffffffff1916908160001a90535060019182019101611046565b600091505b602060ff83161015611137578560ff8316602081106110e357fe5b1a60f860020a02838260ff168151811015156110fb57fe5b9060200101907effffffffffffffffffffffffffffffffffffffffffffffffffffffffffffff1916908160001a905350600191820191016110c8565b50909695505050505050565b600160a060020a03918216600090815260046020908152604080832093909416825291909152205460ff1690565b600090815260016020526040902054600160a060020a0316151590565b600061119982610b64565b9050600160a060020a0383811690821614156111b457600080fd5b33600160a060020a03821614806111d057506111d08133611143565b15156111db57600080fd5b600082815260026020526040808220805473ffffffffffffffffffffffffffffffffffffffff1916600160a060020a0387811691821790925591518593918516917f8c5be1e5ebec7d5bd14f71427d1e84f3dd0314c0f7b2291e5b200ac8c7c3b92591a4505050565b61124e338261175d565b151561125957600080fd5b600160a060020a038216151561090a57600080fd5b81600160a060020a031661128182610b64565b600160a060020a03161461129457600080fd5b600081815260026020526040902054600160a060020a03161561087f576000908152600260205260409020805473ffffffffffffffffffffffffffffffffffffffff1916905550565b60008060006112ec85856117bc565b600084815260066020908152604080832054600160a060020a038916845260059092529091205490935061132790600163ffffffff61185216565b600160a060020a03861660009081526005602052604090208054919350908390811061134f57fe5b90600052602060002001549050806005600087600160a060020a0316600160a060020a031681526020019081526020016000208481548110151561138f57fe5b6000918252602080832090910192909255600160a060020a03871681526005909152604090208054906113c69060001983016119f3565b50600093845260066020526040808520859055908452909220555050565b60006113f08383611869565b50600160a060020a039091166000908152600560209081526040808320805460018101825590845282842081018590559383526006909152902055565b61143782826118f9565b600780546000838152600860205260408120829055600182018355919091527fa66cc928b5edb82af9bd49922954155ab7b0942694bea4ce44661d9a8736c688015550565b6000600160a060020a038216151561149357600080fd5b50600160a060020a03166000908152602091909152604090205460ff1690565b6114bc82611171565b15156114c757600080fd5b6000828152600b6020908152604090912082516108a492840190611a17565b600160a060020a03811615156114fb57600080fd5b600160a060020a0316600090815260209190915260409020805460ff19169055565b600160a060020a038116151561153257600080fd5b600160a060020a0316600090815260209190915260409020805460ff19166001179055565b600160a060020a03821633141561156d57600080fd5b336000818152600460209081526040808320600160a060020a03871680855290835292819020805460ff1916861515908117909155815190815290519293927f17307eab39ab6107e8899845ad3d59bd9653f200f220920489ca2b5937696c31929181900390910190a35050565b6000806115f085600160a060020a0316611954565b15156115ff5760019150611754565b6040517f150b7a020000000000000000000000000000000000000000000000000000000081523360048201818152600160a060020a03898116602485015260448401889052608060648501908152875160848601528751918a169463150b7a0294938c938b938b93909160a490910190602085019080838360005b8381101561169257818101518382015260200161167a565b50505050905090810190601f1680156116bf5780820380516001836020036101000a031916815260200191505b5095505050505050602060405180830381600087803b1580156116e157600080fd5b505af11580156116f5573d6000803e3d6000fd5b505050506040513d602081101561170b57600080fd5b50517bffffffffffffffffffffffffffffffffffffffffffffffffffffffff1981167f150b7a020000000000000000000000000000000000000000000000000000000014925090505b50949350505050565b60008061176983610b64565b905080600160a060020a031684600160a060020a031614806117a4575083600160a060020a031661179984610833565b600160a060020a0316145b806117b457506117b48185611143565b949350505050565b81600160a060020a03166117cf82610b64565b600160a060020a0316146117e257600080fd5b600160a060020a03821660009081526003602052604090205461180c90600163ffffffff61185216565b600160a060020a03909216600090815260036020908152604080832094909455918152600190915220805473ffffffffffffffffffffffffffffffffffffffff19169055565b6000808383111561186257600080fd5b5050900390565b600081815260016020526040902054600160a060020a03161561188b57600080fd5b6000818152600160208181526040808420805473ffffffffffffffffffffffffffffffffffffffff1916600160a060020a03881690811790915584526003909152909120546118d99161195c565b600160a060020a0390921660009081526003602052604090209190915550565b600160a060020a038216151561190e57600080fd5b61191882826113e4565b6040518190600160a060020a038416906000907fddf252ad1be2c89b69c2b068fc378daa952ba7f163c4a11628f55a4df523b3ef908290a45050565b6000903b1190565b60008282018381101561196e57600080fd5b9392505050565b828054600181600116156101000203166002900490600052602060002090601f016020900481019282601f106119b65782800160ff198235161785556119e3565b828001600101855582156119e3579182015b828111156119e35782358255916020019190600101906119c8565b506119ef929150611a85565b5090565b8154818355818111156108a4576000838152602090206108a4918101908301611a85565b828054600181600116156101000203166002900490600052602060002090601f016020900481019282601f10611a5857805160ff19168380011785556119e3565b828001600101855582156119e3579182015b828111156119e3578251825591602001919060010190611a6a565b61079a91905b808211156119ef5760008155600101611a8b5600a165627a7a723058208162d9184884e544220f9151a52570954376c468dbf78c2e6f72e87c8f50ddfb0029",
  "source": "pragma solidity 0.4.24;\n\nimport \"../lib/openzeppelin-solidity/contracts/token/ERC721/ERC721Mintable.sol\";\nimport \"../lib/openzeppelin-solidity/contracts/token/ERC721/ERC721Pausable.sol\";\n\n\ncontract HeroAsset is ERC721Mintable, ERC721Pausable {\n\n    uint16 public constant HERO_TYPE_OFFSET = 10000;\n\n    string public tokenURIPrefix = \"https://www.mycryptoheroes.net/metadata/hero/\";\n    mapping(uint16 => uint16) private heroTypeToSupplyLimit;\n\n    constructor() public ERC721Full(\"MyCryptoHeroes:Hero\", \"MCHH\") {}\n\n    function setSupplyLimit(uint16 _heroType, uint16 _supplyLimit) external onlyMinter {\n        /*\n        for battle beta\n        require(heroTypeToSupplyLimit[_heroType] == 0 || _supplyLimit < heroTypeToSupplyLimit[_heroType],\n            \"_supplyLimit is bigger\");\n        */\n        heroTypeToSupplyLimit[_heroType] = _supplyLimit;\n    }\n\n    function setTokenURIPrefix(string _tokenURIPrefix) external onlyMinter {\n        tokenURIPrefix = _tokenURIPrefix;\n    }\n\n    function getSupplyLimit(uint16 _heroType) public view returns (uint16) {\n        return heroTypeToSupplyLimit[_heroType];\n    }\n\n    function mintHeroAsset(address _owner, uint256 _tokenId) public {//onlyMinter {\n        uint16 _heroType = uint16(_tokenId / HERO_TYPE_OFFSET);\n        uint16 _heroTypeIndex = uint16(_tokenId % HERO_TYPE_OFFSET) - 1;\n        require(_heroTypeIndex < heroTypeToSupplyLimit[_heroType], \"supply over\");\n        _mint(_owner, _tokenId);\n    }\n\n    //This is only for beta\n    function forceTransferFrom(\n        address from,\n        address to,\n        uint256 tokenId\n    )\n        public onlyMinter\n    {\n        _clearApproval(from, tokenId);\n        _removeTokenFrom(from, tokenId);\n        _addTokenTo(to, tokenId);\n        emit Transfer(from, to, tokenId);\n    }\n\n    function tokenURI(uint256 tokenId) public view returns (string) {\n        bytes32 tokenIdBytes;\n        if (tokenId == 0) {\n            tokenIdBytes = \"0\";\n        } else {\n            uint256 value = tokenId;\n            while (value > 0) {\n                tokenIdBytes = bytes32(uint256(tokenIdBytes) / (2 ** 8));\n                tokenIdBytes |= bytes32(((value % 10) + 48) * 2 ** (8 * 31));\n                value /= 10;\n            }\n        }\n\n        bytes memory prefixBytes = bytes(tokenURIPrefix);\n        bytes memory tokenURIBytes = new bytes(prefixBytes.length + tokenIdBytes.length);\n\n        uint8 i;\n        uint8 index = 0;\n        \n        for (i = 0; i < prefixBytes.length; i++) {\n            tokenURIBytes[index] = prefixBytes[i];\n            index++;\n        }\n        \n        for (i = 0; i < tokenIdBytes.length; i++) {\n            tokenURIBytes[index] = tokenIdBytes[i];\n            index++;\n        }\n        \n        return string(tokenURIBytes);\n    }\n\n}\n",
  "sourcePath": "/Users/hironobu/devs/mch-beta/contracts/hero/HeroAsset.sol",
  "compiler": {
    "name": "solc",
    "version": "0.4.24+commit.e67f0147.Emscripten.clang"
  },
  "schemaVersion": "2.0.1",
  "updatedAt": "2018-09-24T12:51:13.811Z"
}