{
  "contractName": "Present",
  "abi": [
    {
      "constant": true,
      "inputs": [
        {
          "name": "",
          "type": "address"
        }
      ],
      "name": "addressToReceived",
      "outputs": [
        {
          "name": "",
          "type": "uint16"
        }
      ],
      "payable": false,
      "stateMutability": "view",
      "type": "function"
    },
    {
      "constant": true,
      "inputs": [],
      "name": "heroManager",
      "outputs": [
        {
          "name": "",
          "type": "address"
        }
      ],
      "payable": false,
      "stateMutability": "view",
      "type": "function"
    },
    {
      "constant": true,
      "inputs": [
        {
          "name": "",
          "type": "uint256"
        }
      ],
      "name": "presents",
      "outputs": [
        {
          "name": "presentType",
          "type": "uint8"
        },
        {
          "name": "assetType",
          "type": "uint16"
        }
      ],
      "payable": false,
      "stateMutability": "view",
      "type": "function"
    },
    {
      "constant": false,
      "inputs": [],
      "name": "renounceOwnership",
      "outputs": [],
      "payable": false,
      "stateMutability": "nonpayable",
      "type": "function"
    },
    {
      "constant": true,
      "inputs": [],
      "name": "extensionManager",
      "outputs": [
        {
          "name": "",
          "type": "address"
        }
      ],
      "payable": false,
      "stateMutability": "view",
      "type": "function"
    },
    {
      "constant": true,
      "inputs": [],
      "name": "owner",
      "outputs": [
        {
          "name": "",
          "type": "address"
        }
      ],
      "payable": false,
      "stateMutability": "view",
      "type": "function"
    },
    {
      "constant": true,
      "inputs": [],
      "name": "isOwner",
      "outputs": [
        {
          "name": "",
          "type": "bool"
        }
      ],
      "payable": false,
      "stateMutability": "view",
      "type": "function"
    },
    {
      "constant": false,
      "inputs": [
        {
          "name": "newOwner",
          "type": "address"
        }
      ],
      "name": "transferOwnership",
      "outputs": [],
      "payable": false,
      "stateMutability": "nonpayable",
      "type": "function"
    },
    {
      "inputs": [],
      "payable": false,
      "stateMutability": "nonpayable",
      "type": "constructor"
    },
    {
      "anonymous": false,
      "inputs": [
        {
          "indexed": true,
          "name": "user",
          "type": "address"
        },
        {
          "indexed": false,
          "name": "presentType",
          "type": "uint8"
        },
        {
          "indexed": false,
          "name": "assetType",
          "type": "uint16"
        }
      ],
      "name": "PresentReceived",
      "type": "event"
    },
    {
      "anonymous": false,
      "inputs": [
        {
          "indexed": true,
          "name": "previousOwner",
          "type": "address"
        }
      ],
      "name": "OwnershipRenounced",
      "type": "event"
    },
    {
      "anonymous": false,
      "inputs": [
        {
          "indexed": true,
          "name": "previousOwner",
          "type": "address"
        },
        {
          "indexed": true,
          "name": "newOwner",
          "type": "address"
        }
      ],
      "name": "OwnershipTransferred",
      "type": "event"
    },
    {
      "constant": false,
      "inputs": [
        {
          "name": "_heroManagerAddress",
          "type": "address"
        }
      ],
      "name": "setHeroManagerAddress",
      "outputs": [],
      "payable": false,
      "stateMutability": "nonpayable",
      "type": "function"
    },
    {
      "constant": false,
      "inputs": [
        {
          "name": "_extensionManagerAddress",
          "type": "address"
        }
      ],
      "name": "setExtensionManagerAddress",
      "outputs": [],
      "payable": false,
      "stateMutability": "nonpayable",
      "type": "function"
    },
    {
      "constant": false,
      "inputs": [
        {
          "name": "presentType",
          "type": "uint8"
        },
        {
          "name": "assetType",
          "type": "uint16"
        }
      ],
      "name": "setPresentItem",
      "outputs": [],
      "payable": false,
      "stateMutability": "nonpayable",
      "type": "function"
    },
    {
      "constant": false,
      "inputs": [],
      "name": "receive",
      "outputs": [],
      "payable": false,
      "stateMutability": "nonpayable",
      "type": "function"
    },
    {
      "constant": true,
      "inputs": [],
      "name": "canReceive",
      "outputs": [
        {
          "name": "",
          "type": "bool"
        }
      ],
      "payable": false,
      "stateMutability": "view",
      "type": "function"
    }
  ],
  "bytecode": "0x608060405234801561001057600080fd5b5060008054600160a060020a03191633178155604080518082019091528181526020810182815260028054600181018255935290517f405787fa12a823e0f2b7631cc41b3ba8828b3321ca811111fa75cd3aa3bb5ace9092018054915161ffff166101000262ffff001960ff9490941660ff1990931692909217929092161790556107d6806100a06000396000f3006080604052600436106100c45763ffffffff7c01000000000000000000000000000000000000000000000000000000006000350416633a0ca75181146100c95780633b8a7a131461010157806349b6cba51461013257806351c7336a1461016a578063715018a614610193578063876bd2c7146101aa5780638da5cb5b146101bf5780638f32d59b146101d45780639267a6c0146101e9578063a280086a1461020b578063a3e76c0f1461022c578063ce68eb1614610241578063f2fde38b14610262575b600080fd5b3480156100d557600080fd5b506100ea600160a060020a0360043516610283565b6040805161ffff9092168252519081900360200190f35b34801561010d57600080fd5b50610116610299565b60408051600160a060020a039092168252519081900360200190f35b34801561013e57600080fd5b5061014a6004356102a8565b6040805160ff909316835261ffff90911660208301528051918290030190f35b34801561017657600080fd5b5061017f6102d4565b604080519115158252519081900360200190f35b34801561019f57600080fd5b506101a86102ef565b005b3480156101b657600080fd5b50610116610357565b3480156101cb57600080fd5b50610116610366565b3480156101e057600080fd5b5061017f610375565b3480156101f557600080fd5b506101a860ff6004351661ffff60243516610386565b34801561021757600080fd5b506101a8600160a060020a0360043516610411565b34801561023857600080fd5b506101a8610453565b34801561024d57600080fd5b506101a8600160a060020a03600435166106cc565b34801561026e57600080fd5b506101a8600160a060020a036004351661070e565b60016020526000908152604090205461ffff1681565b600354600160a060020a031681565b60028054829081106102b657fe5b60009182526020909120015460ff81169150610100900461ffff1682565b6002543360009081526001602052604090205461ffff161090565b6102f7610375565b151561030257600080fd5b60008054604051600160a060020a03909116917ff8df31144d9c2f0f6b59d69b8b98abd5459d07f2742c4df920b25aae33c6482091a26000805473ffffffffffffffffffffffffffffffffffffffff19169055565b600454600160a060020a031681565b600054600160a060020a031690565b600054600160a060020a0316331490565b61038e610375565b151561039957600080fd5b6040805180820190915260ff928316815261ffff918216602082019081526002805460018101825560009190915291517f405787fa12a823e0f2b7631cc41b3ba8828b3321ca811111fa75cd3aa3bb5ace909201805491519093166101000262ffff00199290941660ff199091161716919091179055565b610419610375565b151561042457600080fd5b6004805473ffffffffffffffffffffffffffffffffffffffff1916600160a060020a0392909216919091179055565b3360009081526001602052604081205460025461ffff909116919082141561047a576106c8565b60025461ffff831610156106a9576002805461ffff841690811061049a57fe5b6000918252602090912001805490915060ff16600114156105a4576003548154604080517f711435ec00000000000000000000000000000000000000000000000000000000815233600482015261010090920461ffff16602483015251600160a060020a039092169163711435ec916044808201926020929091908290030181600087803b15801561052b57600080fd5b505af115801561053f573d6000803e3d6000fd5b505050506040513d602081101561055557600080fd5b505080546040805160ff8316815261010090920461ffff166020830152805133927f04165a20e752343946301dc404065edefe06935f5b6f3758ed7848eb22f977ac92908290030190a261069e565b805460ff166002141561069e57600480548254604080517fa1064b82000000000000000000000000000000000000000000000000000000008152339481019490945261010090910461ffff16602484015251600160a060020a039091169163a1064b829160448083019260209291908290030181600087803b15801561062957600080fd5b505af115801561063d573d6000803e3d6000fd5b505050506040513d602081101561065357600080fd5b505080546040805160ff8316815261010090920461ffff166020830152805133927f04165a20e752343946301dc404065edefe06935f5b6f3758ed7848eb22f977ac92908290030190a25b60019091019061047a565b336000908152600160205260409020805461ffff191661ffff84161790555b5050565b6106d4610375565b15156106df57600080fd5b6003805473ffffffffffffffffffffffffffffffffffffffff1916600160a060020a0392909216919091179055565b610716610375565b151561072157600080fd5b61072a8161072d565b50565b600160a060020a038116151561074257600080fd5b60008054604051600160a060020a03808516939216917f8be0079c531659141344cd1fd0a4f28419497f9722a3daafe3b4186f6b6457e091a36000805473ffffffffffffffffffffffffffffffffffffffff1916600160a060020a03929092169190911790555600a165627a7a72305820b84d31b9b3d016d922961cc1f9f6343417a2fe9434016640d217b1bcd754155e0029",
  "source": "pragma solidity 0.4.24;\n\nimport \"../hero/HeroManager.sol\";\nimport \"../extension/ExtensionManager.sol\";\nimport \"../deck/DeckManager.sol\";\nimport \"../match/Rank.sol\";\nimport \"../lib/openzeppelin-solidity/contracts/ownership/Ownable.sol\";\n\n\ncontract Present is Ownable {\n    \n    event PresentReceived (address indexed user, uint8 presentType, uint16 assetType);\n\n    mapping(address => uint16) public addressToReceived;\n    PresentItem[] public presents;    \n    HeroManager public heroManager;\n    ExtensionManager public extensionManager;\n    \n    struct PresentItem {\n        uint8 presentType; // none:0, hero:1, extension:2\n        uint16 assetType;\n    }\n\n    constructor() public {\n        presents.push(PresentItem(0, 0));\n    }\n\n    function setHeroManagerAddress(address _heroManagerAddress) public onlyOwner {\n        heroManager = HeroManager(_heroManagerAddress);\n    }\n\n    function setExtensionManagerAddress(address _extensionManagerAddress) public onlyOwner {\n        extensionManager = ExtensionManager(_extensionManagerAddress);\n    }\n\n    function setPresentItem(uint8 presentType, uint16 assetType) public onlyOwner {\n        presents.push(PresentItem(presentType, assetType));\n    }\n    \n    function receive() public {\n        uint16 received = addressToReceived[msg.sender];\n        if (received == presents.length) return;\n\n        while (received < presents.length) {\n            PresentItem storage item = presents[received];\n            if (item.presentType == 1) {\n                heroManager.mintHeroByType(msg.sender, item.assetType);\n                emit PresentReceived(msg.sender, item.presentType, item.assetType);\n            } else if (item.presentType == 2) {\n                extensionManager.mintExtensionByType(msg.sender, item.assetType);\n                emit PresentReceived(msg.sender, item.presentType, item.assetType);\n            }\n            received++;\n        }\n        addressToReceived[msg.sender] = received;\n    }\n    \n    function canReceive() public view returns (bool) {\n        return addressToReceived[msg.sender] < presents.length;\n    }\n\n}\n",
  "sourcePath": "/Users/hironobu/devs/mch-beta/contracts/present/Present.sol",
  "compiler": {
    "name": "solc",
    "version": "0.4.24+commit.e67f0147.Emscripten.clang"
  },
  "schemaVersion": "2.0.1",
  "updatedAt": "2018-10-05T08:35:59.512Z"
}