{
  "contractName": "Rank",
  "abi": [
    {
      "constant": true,
      "inputs": [],
      "name": "swapUntil",
      "outputs": [
        {
          "name": "",
          "type": "uint64"
        }
      ],
      "payable": false,
      "stateMutability": "view",
      "type": "function"
    },
    {
      "constant": true,
      "inputs": [],
      "name": "VIEW_LIMIT",
      "outputs": [
        {
          "name": "",
          "type": "int16"
        }
      ],
      "payable": false,
      "stateMutability": "view",
      "type": "function"
    },
    {
      "constant": true,
      "inputs": [
        {
          "name": "",
          "type": "int16"
        }
      ],
      "name": "rankToAddress",
      "outputs": [
        {
          "name": "",
          "type": "address"
        }
      ],
      "payable": false,
      "stateMutability": "view",
      "type": "function"
    },
    {
      "constant": true,
      "inputs": [],
      "name": "swapLimit",
      "outputs": [
        {
          "name": "",
          "type": "uint8"
        }
      ],
      "payable": false,
      "stateMutability": "view",
      "type": "function"
    },
    {
      "constant": true,
      "inputs": [],
      "name": "participants",
      "outputs": [
        {
          "name": "",
          "type": "int16"
        }
      ],
      "payable": false,
      "stateMutability": "view",
      "type": "function"
    },
    {
      "constant": true,
      "inputs": [
        {
          "name": "account",
          "type": "address"
        }
      ],
      "name": "isSigner",
      "outputs": [
        {
          "name": "",
          "type": "bool"
        }
      ],
      "payable": false,
      "stateMutability": "view",
      "type": "function"
    },
    {
      "constant": true,
      "inputs": [],
      "name": "swapSince",
      "outputs": [
        {
          "name": "",
          "type": "uint64"
        }
      ],
      "payable": false,
      "stateMutability": "view",
      "type": "function"
    },
    {
      "constant": true,
      "inputs": [
        {
          "name": "",
          "type": "address"
        }
      ],
      "name": "addressToRank",
      "outputs": [
        {
          "name": "",
          "type": "int16"
        }
      ],
      "payable": false,
      "stateMutability": "view",
      "type": "function"
    },
    {
      "constant": false,
      "inputs": [],
      "name": "renounceSigner",
      "outputs": [],
      "payable": false,
      "stateMutability": "nonpayable",
      "type": "function"
    },
    {
      "constant": false,
      "inputs": [
        {
          "name": "account",
          "type": "address"
        }
      ],
      "name": "addSigner",
      "outputs": [],
      "payable": false,
      "stateMutability": "nonpayable",
      "type": "function"
    },
    {
      "anonymous": false,
      "inputs": [
        {
          "indexed": true,
          "name": "user",
          "type": "address"
        },
        {
          "indexed": true,
          "name": "current",
          "type": "int16"
        },
        {
          "indexed": true,
          "name": "prev",
          "type": "int16"
        }
      ],
      "name": "RankChange",
      "type": "event"
    },
    {
      "anonymous": false,
      "inputs": [
        {
          "indexed": true,
          "name": "account",
          "type": "address"
        }
      ],
      "name": "SignerAdded",
      "type": "event"
    },
    {
      "anonymous": false,
      "inputs": [
        {
          "indexed": true,
          "name": "account",
          "type": "address"
        }
      ],
      "name": "SignerRemoved",
      "type": "event"
    },
    {
      "constant": false,
      "inputs": [
        {
          "name": "_swapLimit",
          "type": "uint8"
        }
      ],
      "name": "changeSwapLimit",
      "outputs": [],
      "payable": false,
      "stateMutability": "nonpayable",
      "type": "function"
    },
    {
      "constant": false,
      "inputs": [
        {
          "name": "_since",
          "type": "uint64"
        },
        {
          "name": "_until",
          "type": "uint64"
        }
      ],
      "name": "changeSwapPeriod",
      "outputs": [],
      "payable": false,
      "stateMutability": "nonpayable",
      "type": "function"
    },
    {
      "constant": false,
      "inputs": [
        {
          "name": "_participant",
          "type": "address"
        }
      ],
      "name": "participate",
      "outputs": [],
      "payable": false,
      "stateMutability": "nonpayable",
      "type": "function"
    },
    {
      "constant": true,
      "inputs": [
        {
          "name": "_from",
          "type": "int16"
        }
      ],
      "name": "list",
      "outputs": [
        {
          "name": "results",
          "type": "address[20]"
        }
      ],
      "payable": false,
      "stateMutability": "view",
      "type": "function"
    },
    {
      "constant": true,
      "inputs": [
        {
          "name": "_address",
          "type": "address"
        }
      ],
      "name": "getRank",
      "outputs": [
        {
          "name": "",
          "type": "int16"
        }
      ],
      "payable": false,
      "stateMutability": "view",
      "type": "function"
    },
    {
      "constant": true,
      "inputs": [
        {
          "name": "_rank",
          "type": "int16"
        }
      ],
      "name": "getAddress",
      "outputs": [
        {
          "name": "",
          "type": "address"
        }
      ],
      "payable": false,
      "stateMutability": "view",
      "type": "function"
    },
    {
      "constant": true,
      "inputs": [],
      "name": "getParticipants",
      "outputs": [
        {
          "name": "",
          "type": "int16"
        }
      ],
      "payable": false,
      "stateMutability": "view",
      "type": "function"
    },
    {
      "constant": false,
      "inputs": [
        {
          "name": "_address1",
          "type": "address"
        },
        {
          "name": "_address2",
          "type": "address"
        }
      ],
      "name": "swap",
      "outputs": [],
      "payable": false,
      "stateMutability": "nonpayable",
      "type": "function"
    }
  ],
  "bytecode": "0x608060405260048054600960ff199091161768ffffffffffffffff001916645bc7e9200017604860020a608860020a0319166c5bcc15e000000000000000000017905561005a60003364010000000061005f81026109021704565b610099565b600160a060020a038116151561007457600080fd5b600160a060020a0316600090815260209190915260409020805460ff19166001179055565b610988806100a86000396000f3006080604052600436106100fb5763ffffffff7c01000000000000000000000000000000000000000000000000000000006000350416631a9a12d8811461010057806325fbacc41461013757806346854d1514610169578063548c0ef41461019757806355ba753c146101b85780635aa68ac0146101d35780636a01f09c146101e85780636b76484e146102135780636c4470fb1461023c5780637b1b3426146102515780637df73e271461026c5780637e3d1f1c146102a157806385887756146102b6578063b91038c7146102d7578063d3fd3b7d146102f8578063de724bb71461034c578063e5c8b03d14610374578063eb12d61e14610389575b600080fd5b34801561010c57600080fd5b5061011b60043560010b6103aa565b60408051600160a060020a039092168252519081900360200190f35b34801561014357600080fd5b5061014c6103cc565b6040805167ffffffffffffffff9092168252519081900360200190f35b34801561017557600080fd5b5061017e6103e9565b60408051600192830b90920b8252519081900360200190f35b3480156101a357600080fd5b5061017e600160a060020a03600435166103ee565b3480156101c457600080fd5b5061011b60043560010b61040c565b3480156101df57600080fd5b5061017e610427565b3480156101f457600080fd5b506101fd610430565b6040805160ff9092168252519081900360200190f35b34801561021f57600080fd5b5061023a600160a060020a0360043581169060243516610439565b005b34801561024857600080fd5b5061017e6105ee565b34801561025d57600080fd5b5061023a60ff600435166105f7565b34801561027857600080fd5b5061028d600160a060020a0360043516610621565b604080519115158252519081900360200190f35b3480156102ad57600080fd5b5061014c610639565b3480156102c257600080fd5b5061017e600160a060020a036004351661064e565b3480156102e357600080fd5b5061023a600160a060020a0360043516610663565b34801561030457600080fd5b5061031360043560010b61072a565b604051808261028080838360005b83811015610339578181015183820152602001610321565b5050505090500191505060405180910390f35b34801561035857600080fd5b5061023a67ffffffffffffffff600435811690602435166107a9565b34801561038057600080fd5b5061023a610825565b34801561039557600080fd5b5061023a600160a060020a0360043516610838565b600190810b900b600090815260026020526040902054600160a060020a031690565b6004546901000000000000000000900467ffffffffffffffff1681565b601481565b600160a060020a031660009081526003602052604090205460010b90565b600260205260009081526040902054600160a060020a031681565b60018054900b90565b60045460ff1681565b600080600061044733610621565b151561045257600080fd5b60045442935067ffffffffffffffff61010090910481169084161080610493575060045467ffffffffffffffff808516690100000000000000000090920416105b1561049d576105e7565b5050600160a060020a03808416600090815260036020526040808220549285168252902054600191820b9190810b9081810b9083900b1380156104ef575060045460ff168203600190810b9082900b12155b156105e757600160a060020a038581166000818152600360209081526040808320805461ffff1990811661ffff60018a810b82811693909317909455978c1680875284872080549093168b850b998a161790925580830b86526002909452828520805473ffffffffffffffffffffffffffffffffffffffff1990811688179091559187900b85528285208054909216179055519092917f558a9a782d47b1583530545592d1bfb8c5ba9ddf1367cbdf77d13d1efa49a19e91a48060010b8260010b85600160a060020a03167f558a9a782d47b1583530545592d1bfb8c5ba9ddf1367cbdf77d13d1efa49a19e60405160405180910390a45b5050505050565b60018054900b81565b61060033610621565b151561060b57600080fd5b6004805460ff191660ff92909216919091179055565b6000610633818363ffffffff61089416565b92915050565b600454610100900467ffffffffffffffff1681565b60036020526000908152604090205460010b81565b61066c33610621565b151561067757600080fd5b6001805461ffff1980821661ffff92840b8401840b831617808455830b830b830b6000908152600260209081526040808320805473ffffffffffffffffffffffffffffffffffffffff1916600160a060020a03891690811790915586548185526003909352818420805490951692870b870b90951691909117909255835491516000199492830b90920b92917f558a9a782d47b1583530545592d1bfb8c5ba9ddf1367cbdf77d13d1efa49a19e9190a450565b61073261093c565b600060018360010b121561074557600192505b5060005b601460ff821612156107a35760ff8116838101600190810b900b600090815260026020526040902054600160a060020a03169083906014811061078857fe5b600160a060020a039092166020929092020152600101610749565b50919050565b6107b233610621565b15156107bd57600080fd5b67ffffffffffffffff808216908316106107d657600080fd5b6004805467ffffffffffffffff92831669010000000000000000000270ffffffffffffffff00000000000000000019949093166101000268ffffffffffffffff00199091161792909216179055565b61083660003363ffffffff6108cb16565b565b61084133610621565b151561084c57600080fd5b61085d60008263ffffffff61090216565b604051600160a060020a038216907f47d1c22a25bb3a5d4e481b9b1e6944c2eade3181a0a20b495ed61d35b5323f2490600090a250565b6000600160a060020a03821615156108ab57600080fd5b50600160a060020a03166000908152602091909152604090205460ff1690565b600160a060020a03811615156108e057600080fd5b600160a060020a0316600090815260209190915260409020805460ff19169055565b600160a060020a038116151561091757600080fd5b600160a060020a0316600090815260209190915260409020805460ff19166001179055565b6102806040519081016040528060149060208202803883395091929150505600a165627a7a72305820db304f68368815d1af60e7781493e03e66446cfc2bfa2db2ac29b54d9508bb0c0029",
  "source": "pragma solidity 0.4.24;\n\nimport \"../lib/openzeppelin-solidity/contracts/access/roles/SignerRole.sol\";\n\n\ncontract Rank is SignerRole {\n\n    event RankChange (address indexed user, int16 indexed current, int16 indexed prev);\n\n    int16 public constant VIEW_LIMIT = 20;\n\n    int16 public participants;\n    mapping(int16=>address) public rankToAddress;\n    mapping(address=>int16) public addressToRank;\n\n    uint8 public swapLimit = 9;\n    uint64 public swapSince = 1539828000;\n    uint64 public swapUntil = 1540101600;\n\n    function changeSwapLimit(uint8 _swapLimit) public onlySigner {\n        swapLimit = _swapLimit;\n    }\n    \n    function changeSwapPeriod(uint64 _since, uint64 _until) public onlySigner {\n        require(_since < _until);\n        swapSince = _since;\n        swapUntil = _until;\n    }\n\n    function participate(address _participant) public onlySigner {\n        participants++;\n        rankToAddress[participants] = _participant;\n        addressToRank[_participant] = participants;\n        \n        emit RankChange (_participant, participants, -1);\n    }\n\n    function list(int16 _from) public view returns (address[VIEW_LIMIT] results) {\n        if(_from < 1) _from = 1;\n        for (uint8 i = 0; i < VIEW_LIMIT; i++) {\n            results[i] = rankToAddress[_from + i];\n        }\n    }\n    \n    function getRank(address _address) public view returns (int16) {\n        return addressToRank[_address];\n    }\n    \n    function getAddress(int16 _rank) public view returns (address) {\n        return rankToAddress[_rank];\n    }\n    \n    function getParticipants() public view returns (int16) {\n        return participants;\n    }\n\n    function swap(address _address1, address _address2) public onlySigner {\n        uint64 _now = uint64(block.timestamp);\n        if (_now < swapSince || swapUntil < _now) return;\n\n        int16 _rank1 = addressToRank[_address1];\n        int16 _rank2 = addressToRank[_address2];\n        \n        if (_rank1 > _rank2 && _rank2 >= _rank1 - swapLimit) {\n            addressToRank[_address1] = _rank2;\n            addressToRank[_address2] = _rank1;\n            rankToAddress[_rank2] = _address1;\n            rankToAddress[_rank1] = _address2;\n            emit RankChange (_address1, _rank2, _rank1);\n            emit RankChange (_address2, _rank1, _rank2);\n        }\n        \n    }\n}\n",
  "sourcePath": "/Users/hironobu/devs/mch-beta/contracts/match/Rank.sol",
  "compiler": {
    "name": "solc",
    "version": "0.4.24+commit.e67f0147.Emscripten.clang"
  },
  "schemaVersion": "2.0.1",
  "updatedAt": "2018-10-18T04:30:56.465Z"
}