{
  "contractName": "Rank",
  "abi": [
    {
      "constant": true,
      "inputs": [
        {
          "name": "",
          "type": "int16"
        }
      ],
      "name": "rankToAddress",
      "outputs": [
        {
          "name": "",
          "type": "address"
        }
      ],
      "payable": false,
      "stateMutability": "view",
      "type": "function"
    },
    {
      "constant": true,
      "inputs": [],
      "name": "participants",
      "outputs": [
        {
          "name": "",
          "type": "int16"
        }
      ],
      "payable": false,
      "stateMutability": "view",
      "type": "function"
    },
    {
      "constant": true,
      "inputs": [
        {
          "name": "account",
          "type": "address"
        }
      ],
      "name": "isSigner",
      "outputs": [
        {
          "name": "",
          "type": "bool"
        }
      ],
      "payable": false,
      "stateMutability": "view",
      "type": "function"
    },
    {
      "constant": true,
      "inputs": [
        {
          "name": "",
          "type": "address"
        }
      ],
      "name": "addressToRank",
      "outputs": [
        {
          "name": "",
          "type": "int16"
        }
      ],
      "payable": false,
      "stateMutability": "view",
      "type": "function"
    },
    {
      "constant": true,
      "inputs": [],
      "name": "SWAP_LIMIT",
      "outputs": [
        {
          "name": "",
          "type": "int16"
        }
      ],
      "payable": false,
      "stateMutability": "view",
      "type": "function"
    },
    {
      "constant": false,
      "inputs": [],
      "name": "renounceSigner",
      "outputs": [],
      "payable": false,
      "stateMutability": "nonpayable",
      "type": "function"
    },
    {
      "constant": false,
      "inputs": [
        {
          "name": "account",
          "type": "address"
        }
      ],
      "name": "addSigner",
      "outputs": [],
      "payable": false,
      "stateMutability": "nonpayable",
      "type": "function"
    },
    {
      "anonymous": false,
      "inputs": [
        {
          "indexed": true,
          "name": "user",
          "type": "address"
        },
        {
          "indexed": true,
          "name": "current",
          "type": "int16"
        },
        {
          "indexed": true,
          "name": "prev",
          "type": "int16"
        }
      ],
      "name": "RankChange",
      "type": "event"
    },
    {
      "anonymous": false,
      "inputs": [
        {
          "indexed": true,
          "name": "account",
          "type": "address"
        }
      ],
      "name": "SignerAdded",
      "type": "event"
    },
    {
      "anonymous": false,
      "inputs": [
        {
          "indexed": true,
          "name": "account",
          "type": "address"
        }
      ],
      "name": "SignerRemoved",
      "type": "event"
    },
    {
      "constant": false,
      "inputs": [
        {
          "name": "_participant",
          "type": "address"
        }
      ],
      "name": "participate",
      "outputs": [],
      "payable": false,
      "stateMutability": "nonpayable",
      "type": "function"
    },
    {
      "constant": true,
      "inputs": [
        {
          "name": "_from",
          "type": "int16"
        }
      ],
      "name": "list",
      "outputs": [
        {
          "name": "results",
          "type": "address[20]"
        }
      ],
      "payable": false,
      "stateMutability": "view",
      "type": "function"
    },
    {
      "constant": true,
      "inputs": [
        {
          "name": "_address",
          "type": "address"
        }
      ],
      "name": "getRank",
      "outputs": [
        {
          "name": "",
          "type": "int16"
        }
      ],
      "payable": false,
      "stateMutability": "view",
      "type": "function"
    },
    {
      "constant": true,
      "inputs": [
        {
          "name": "_rank",
          "type": "int16"
        }
      ],
      "name": "getAddress",
      "outputs": [
        {
          "name": "",
          "type": "address"
        }
      ],
      "payable": false,
      "stateMutability": "view",
      "type": "function"
    },
    {
      "constant": false,
      "inputs": [
        {
          "name": "_address1",
          "type": "address"
        },
        {
          "name": "_address2",
          "type": "address"
        }
      ],
      "name": "swap",
      "outputs": [],
      "payable": false,
      "stateMutability": "nonpayable",
      "type": "function"
    }
  ],
  "bytecode": "0x608060405261001c6000336401000000006106b861002182021704565b61005b565b600160a060020a038116151561003657600080fd5b600160a060020a0316600090815260209190915260409020805460ff19166001179055565b61073e8061006a6000396000f3006080604052600436106100b95763ffffffff7c01000000000000000000000000000000000000000000000000000000006000350416631a9a12d881146100be578063548c0ef4146100f557806355ba753c1461012f5780636b76484e1461014a5780636c4470fb146101735780637df73e271461018857806385887756146101bd578063a43ef568146101de578063b91038c7146101f3578063d3fd3b7d14610214578063e5c8b03d14610268578063eb12d61e1461027d575b600080fd5b3480156100ca57600080fd5b506100d960043560010b61029e565b60408051600160a060020a039092168252519081900360200190f35b34801561010157600080fd5b50610116600160a060020a03600435166102c0565b60408051600192830b90920b8252519081900360200190f35b34801561013b57600080fd5b506100d960043560010b6102de565b34801561015657600080fd5b50610171600160a060020a03600435811690602435166102f9565b005b34801561017f57600080fd5b5061011661045a565b34801561019457600080fd5b506101a9600160a060020a0360043516610463565b604080519115158252519081900360200190f35b3480156101c957600080fd5b50610116600160a060020a036004351661047b565b3480156101ea57600080fd5b50610116610490565b3480156101ff57600080fd5b50610171600160a060020a0360043516610495565b34801561022057600080fd5b5061022f60043560010b61055c565b604051808261028080838360005b8381101561025557818101518382015260200161023d565b5050505090500191505060405180910390f35b34801561027457600080fd5b506101716105db565b34801561028957600080fd5b50610171600160a060020a03600435166105ee565b600190810b900b600090815260026020526040902054600160a060020a031690565b600160a060020a031660009081526003602052604090205460010b90565b600260205260009081526040902054600160a060020a031681565b60008061030533610463565b151561031057600080fd5b5050600160a060020a03808316600090815260036020526040808220549284168252902054600191820b9190810b9081810b9083900b13801561035c57506014820360010b8160010b12155b1561045457600160a060020a038481166000818152600360209081526040808320805461ffff1990811661ffff60018a810b82811693909317909455978b1680875284872080549093168b850b998a161790925580830b86526002909452828520805473ffffffffffffffffffffffffffffffffffffffff1990811688179091559187900b85528285208054909216179055519092917f558a9a782d47b1583530545592d1bfb8c5ba9ddf1367cbdf77d13d1efa49a19e91a48060010b8260010b84600160a060020a03167f558a9a782d47b1583530545592d1bfb8c5ba9ddf1367cbdf77d13d1efa49a19e60405160405180910390a45b50505050565b60018054900b81565b6000610475818363ffffffff61064a16565b92915050565b60036020526000908152604090205460010b81565b601481565b61049e33610463565b15156104a957600080fd5b6001805461ffff1980821661ffff92840b8401840b831617808455830b830b830b6000908152600260209081526040808320805473ffffffffffffffffffffffffffffffffffffffff1916600160a060020a03891690811790915586548185526003909352818420805490951692870b870b90951691909117909255835491516000199492830b90920b92917f558a9a782d47b1583530545592d1bfb8c5ba9ddf1367cbdf77d13d1efa49a19e9190a450565b6105646106f2565b600060018360010b121561057757600192505b5060005b601460ff821612156105d55760ff8116838101600190810b900b600090815260026020526040902054600160a060020a0316908390601481106105ba57fe5b600160a060020a03909216602092909202015260010161057b565b50919050565b6105ec60003363ffffffff61068116565b565b6105f733610463565b151561060257600080fd5b61061360008263ffffffff6106b816565b604051600160a060020a038216907f47d1c22a25bb3a5d4e481b9b1e6944c2eade3181a0a20b495ed61d35b5323f2490600090a250565b6000600160a060020a038216151561066157600080fd5b50600160a060020a03166000908152602091909152604090205460ff1690565b600160a060020a038116151561069657600080fd5b600160a060020a0316600090815260209190915260409020805460ff19169055565b600160a060020a03811615156106cd57600080fd5b600160a060020a0316600090815260209190915260409020805460ff19166001179055565b6102806040519081016040528060149060208202803883395091929150505600a165627a7a72305820a1b5cac1c97ca92bd3273d5ea433ab8b42003cd154d1fb17f3c2cba57d6e35f70029",
  "source": "pragma solidity 0.4.24;\n\nimport \"../lib/openzeppelin-solidity/contracts/access/roles/SignerRole.sol\";\n\n\ncontract Rank is SignerRole {\n\n    event RankChange (address indexed user, int16 indexed current, int16 indexed prev);\n\n    int16 public constant SWAP_LIMIT = 20;\n\n    int16 public participants;\n    mapping(int16=>address) public rankToAddress;\n    mapping(address=>int16) public addressToRank;\n\n    function participate(address _participant) public onlySigner {\n        participants++;\n        rankToAddress[participants] = _participant;\n        addressToRank[_participant] = participants;\n        \n        emit RankChange (_participant, participants, -1);\n    }\n\n    function list(int16 _from) public view returns (address[SWAP_LIMIT] results) {\n        if(_from < 1) _from = 1;\n        for (uint8 i = 0; i < SWAP_LIMIT; i++) {\n            results[i] = rankToAddress[_from + i];\n        }\n    }\n    \n    function getRank(address _address) public view returns (int16) {\n        return addressToRank[_address];\n    }\n    \n    function getAddress(int16 _rank) public view returns (address) {\n        return rankToAddress[_rank];\n    }\n\n    function swap(address _address1, address _address2) public onlySigner {\n        int16 _rank1 = addressToRank[_address1];\n        int16 _rank2 = addressToRank[_address2];\n        \n        if(_rank1 > _rank2 && _rank2 >= _rank1 - SWAP_LIMIT) {\n            addressToRank[_address1] = _rank2;\n            addressToRank[_address2] = _rank1;\n            rankToAddress[_rank2] = _address1;\n            rankToAddress[_rank1] = _address2;\n            emit RankChange (_address1, _rank2, _rank1);\n            emit RankChange (_address2, _rank1, _rank2);\n        }\n        \n    }\n}\n",
  "sourcePath": "/Users/hironobu/devs/mch-beta/contracts/match/Rank.sol",
  "compiler": {
    "name": "solc",
    "version": "0.4.24+commit.e67f0147.Emscripten.clang"
  },
  "schemaVersion": "2.0.1",
  "updatedAt": "2018-10-01T07:55:27.893Z"
}