{
  "contractName": "Register",
  "abi": [
    {
      "constant": true,
      "inputs": [],
      "name": "heroManager",
      "outputs": [
        {
          "name": "",
          "type": "address"
        }
      ],
      "payable": false,
      "stateMutability": "view",
      "type": "function"
    },
    {
      "constant": false,
      "inputs": [],
      "name": "renounceOwnership",
      "outputs": [],
      "payable": false,
      "stateMutability": "nonpayable",
      "type": "function"
    },
    {
      "constant": true,
      "inputs": [],
      "name": "extensionManager",
      "outputs": [
        {
          "name": "",
          "type": "address"
        }
      ],
      "payable": false,
      "stateMutability": "view",
      "type": "function"
    },
    {
      "constant": true,
      "inputs": [],
      "name": "owner",
      "outputs": [
        {
          "name": "",
          "type": "address"
        }
      ],
      "payable": false,
      "stateMutability": "view",
      "type": "function"
    },
    {
      "constant": true,
      "inputs": [],
      "name": "isOwner",
      "outputs": [
        {
          "name": "",
          "type": "bool"
        }
      ],
      "payable": false,
      "stateMutability": "view",
      "type": "function"
    },
    {
      "constant": true,
      "inputs": [],
      "name": "rank",
      "outputs": [
        {
          "name": "",
          "type": "address"
        }
      ],
      "payable": false,
      "stateMutability": "view",
      "type": "function"
    },
    {
      "constant": true,
      "inputs": [],
      "name": "deckManager",
      "outputs": [
        {
          "name": "",
          "type": "address"
        }
      ],
      "payable": false,
      "stateMutability": "view",
      "type": "function"
    },
    {
      "constant": false,
      "inputs": [
        {
          "name": "newOwner",
          "type": "address"
        }
      ],
      "name": "transferOwnership",
      "outputs": [],
      "payable": false,
      "stateMutability": "nonpayable",
      "type": "function"
    },
    {
      "anonymous": false,
      "inputs": [
        {
          "indexed": true,
          "name": "user",
          "type": "address"
        }
      ],
      "name": "Registration",
      "type": "event"
    },
    {
      "anonymous": false,
      "inputs": [
        {
          "indexed": true,
          "name": "previousOwner",
          "type": "address"
        }
      ],
      "name": "OwnershipRenounced",
      "type": "event"
    },
    {
      "anonymous": false,
      "inputs": [
        {
          "indexed": true,
          "name": "previousOwner",
          "type": "address"
        },
        {
          "indexed": true,
          "name": "newOwner",
          "type": "address"
        }
      ],
      "name": "OwnershipTransferred",
      "type": "event"
    },
    {
      "constant": false,
      "inputs": [
        {
          "name": "_heroManagerAddress",
          "type": "address"
        }
      ],
      "name": "setHeroManagerAddress",
      "outputs": [],
      "payable": false,
      "stateMutability": "nonpayable",
      "type": "function"
    },
    {
      "constant": false,
      "inputs": [
        {
          "name": "_extensionManagerAddress",
          "type": "address"
        }
      ],
      "name": "setExtensionManagerAddress",
      "outputs": [],
      "payable": false,
      "stateMutability": "nonpayable",
      "type": "function"
    },
    {
      "constant": false,
      "inputs": [
        {
          "name": "_deckManagerAddress",
          "type": "address"
        }
      ],
      "name": "setDeckManagerAddress",
      "outputs": [],
      "payable": false,
      "stateMutability": "nonpayable",
      "type": "function"
    },
    {
      "constant": false,
      "inputs": [
        {
          "name": "_rankAddress",
          "type": "address"
        }
      ],
      "name": "setRankAddress",
      "outputs": [],
      "payable": false,
      "stateMutability": "nonpayable",
      "type": "function"
    },
    {
      "constant": false,
      "inputs": [],
      "name": "register",
      "outputs": [],
      "payable": false,
      "stateMutability": "nonpayable",
      "type": "function"
    },
    {
      "constant": true,
      "inputs": [],
      "name": "isRegistered",
      "outputs": [
        {
          "name": "",
          "type": "bool"
        }
      ],
      "payable": false,
      "stateMutability": "view",
      "type": "function"
    }
  ],
  "bytecode": "0x608060405260008054600160a060020a03191633179055610e9a806100256000396000f3006080604052600436106100cf5763ffffffff7c01000000000000000000000000000000000000000000000000000000006000350416631aa3a00881146100d457806322366844146100eb5780633b8a7a1314610114578063715018a614610145578063876bd2c71461015a5780638afded1c1461016f5780638da5cb5b146101905780638f32d59b146101a5578063934209ce146101ba578063a280086a146101cf578063b3689b1e146101f0578063ce68eb1614610211578063e13ad98014610232578063f2fde38b14610247575b600080fd5b3480156100e057600080fd5b506100e9610268565b005b3480156100f757600080fd5b50610100610bd1565b604080519115158252519081900360200190f35b34801561012057600080fd5b50610129610be7565b60408051600160a060020a039092168252519081900360200190f35b34801561015157600080fd5b506100e9610bf6565b34801561016657600080fd5b50610129610c5e565b34801561017b57600080fd5b506100e9600160a060020a0360043516610c6d565b34801561019c57600080fd5b50610129610caf565b3480156101b157600080fd5b50610100610cbe565b3480156101c657600080fd5b50610129610ccf565b3480156101db57600080fd5b506100e9600160a060020a0360043516610cde565b3480156101fc57600080fd5b506100e9600160a060020a0360043516610d20565b34801561021d57600080fd5b506100e9600160a060020a0360043516610d62565b34801561023e57600080fd5b50610129610da4565b34801561025357600080fd5b506100e9600160a060020a0360043516610db3565b610270610e4f565b610278610e4f565b610280610e4f565b3360009081526001602052604090205460ff161515610bcc57600254604080517f711435ec0000000000000000000000000000000000000000000000000000000081523360048201526103e960248201529051600160a060020a039092169163711435ec916044808201926020929091908290030181600087803b15801561030757600080fd5b505af115801561031b573d6000803e3d6000fd5b505050506040513d602081101561033157600080fd5b505183526003546040805160e160020a63508325c10281523360048201526103e960248201529051600160a060020a039092169163a1064b82916044808201926020929091908290030181600087803b15801561038d57600080fd5b505af11580156103a1573d6000803e3d6000fd5b505050506040513d60208110156103b757600080fd5b50516020808501919091526003546040805160e160020a63508325c1028152336004820152610bc360248201529051600160a060020a039092169263a1064b82926044808401938290030181600087803b15801561041457600080fd5b505af1158015610428573d6000803e3d6000fd5b505050506040513d602081101561043e57600080fd5b505160408085019190915260016060850152600060808501819052600260a086018190525482517f711435ec0000000000000000000000000000000000000000000000000000000081523360048201526103ea60248201529251600160a060020a039091169263711435ec9260448083019360209390929083900390910190829087803b1580156104ce57600080fd5b505af11580156104e2573d6000803e3d6000fd5b505050506040513d60208110156104f857600080fd5b505182526003546040805160e160020a63508325c1028152336004820152610bc060248201529051600160a060020a039092169163a1064b82916044808201926020929091908290030181600087803b15801561055457600080fd5b505af1158015610568573d6000803e3d6000fd5b505050506040513d602081101561057e57600080fd5b50516020808401919091526003546040805160e160020a63508325c1028152336004820152610bbf60248201529051600160a060020a039092169263a1064b82926044808401938290030181600087803b1580156105db57600080fd5b505af11580156105ef573d6000803e3d6000fd5b505050506040513d602081101561060557600080fd5b505160408084019190915260016060840152600060808401819052600260a085018190525482517f711435ec0000000000000000000000000000000000000000000000000000000081523360048201526103eb60248201529251600160a060020a039091169263711435ec9260448083019360209390929083900390910190829087803b15801561069557600080fd5b505af11580156106a9573d6000803e3d6000fd5b505050506040513d60208110156106bf57600080fd5b505181526003546040805160e160020a63508325c1028152336004820152610fa660248201529051600160a060020a039092169163a1064b82916044808201926020929091908290030181600087803b15801561071b57600080fd5b505af115801561072f573d6000803e3d6000fd5b505050506040513d602081101561074557600080fd5b50516020808301919091526003546040805160e160020a63508325c1028152336004820152610bc260248201529051600160a060020a039092169263a1064b82926044808401938290030181600087803b1580156107a257600080fd5b505af11580156107b6573d6000803e3d6000fd5b505050506040513d60208110156107cc57600080fd5b50518160026020020152600181600360200201526000816004602002015260028160056020020152600480546040517f44ab91d400000000000000000000000000000000000000000000000000000000815233928101838152600160a060020a03909216926344ab91d4929091879187918791906024018460c080838360005b8381101561086457818101518382015260200161084c565b5050505090500183600660200280838360005b8381101561088f578181015183820152602001610877565b5050505090500182600660200280838360005b838110156108ba5781810151838201526020016108a2565b50505050905001945050505050600060405180830381600087803b1580156108e157600080fd5b505af11580156108f5573d6000803e3d6000fd5b50506003546040805160e160020a63508325c1028152336004820152610bb960248201529051600160a060020a03909216935063a1064b8292506044808201926020929091908290030181600087803b15801561095157600080fd5b505af1158015610965573d6000803e3d6000fd5b505050506040513d602081101561097b57600080fd5b50506003546040805160e160020a63508325c1028152336004820152610bbe60248201529051600160a060020a039092169163a1064b82916044808201926020929091908290030181600087803b1580156109d557600080fd5b505af11580156109e9573d6000803e3d6000fd5b505050506040513d60208110156109ff57600080fd5b50506003546040805160e160020a63508325c102815233600482015261138c60248201529051600160a060020a039092169163a1064b82916044808201926020929091908290030181600087803b158015610a5957600080fd5b505af1158015610a6d573d6000803e3d6000fd5b505050506040513d6020811015610a8357600080fd5b50506003546040805160e160020a63508325c102815233600482015261138e60248201529051600160a060020a039092169163a1064b82916044808201926020929091908290030181600087803b158015610add57600080fd5b505af1158015610af1573d6000803e3d6000fd5b505050506040513d6020811015610b0757600080fd5b5050600554604080517fb91038c70000000000000000000000000000000000000000000000000000000081523360048201529051600160a060020a039092169163b91038c79160248082019260009290919082900301818387803b158015610b6e57600080fd5b505af1158015610b82573d6000803e3d6000fd5b5050336000818152600160208190526040808320805460ff1916909217909155519193507f478f5152d8fc568db3f8de9fb402fd9d98a1a7541ecfe434e59cf574fbfc5524925090a25b505050565b3360009081526001602052604090205460ff1690565b600254600160a060020a031681565b610bfe610cbe565b1515610c0957600080fd5b60008054604051600160a060020a03909116917ff8df31144d9c2f0f6b59d69b8b98abd5459d07f2742c4df920b25aae33c6482091a26000805473ffffffffffffffffffffffffffffffffffffffff19169055565b600354600160a060020a031681565b610c75610cbe565b1515610c8057600080fd5b6004805473ffffffffffffffffffffffffffffffffffffffff1916600160a060020a0392909216919091179055565b600054600160a060020a031690565b600054600160a060020a0316331490565b600554600160a060020a031681565b610ce6610cbe565b1515610cf157600080fd5b6003805473ffffffffffffffffffffffffffffffffffffffff1916600160a060020a0392909216919091179055565b610d28610cbe565b1515610d3357600080fd5b6005805473ffffffffffffffffffffffffffffffffffffffff1916600160a060020a0392909216919091179055565b610d6a610cbe565b1515610d7557600080fd5b6002805473ffffffffffffffffffffffffffffffffffffffff1916600160a060020a0392909216919091179055565b600454600160a060020a031681565b610dbb610cbe565b1515610dc657600080fd5b610dcf81610dd2565b50565b600160a060020a0381161515610de757600080fd5b60008054604051600160a060020a03808516939216917f8be0079c531659141344cd1fd0a4f28419497f9722a3daafe3b4186f6b6457e091a36000805473ffffffffffffffffffffffffffffffffffffffff1916600160a060020a0392909216919091179055565b60c06040519081016040528060069060208202803883395091929150505600a165627a7a723058208c0662812520d220942e86624ba04a284262449a8929dceaeb9f1af59bf0d9110029",
  "source": "pragma solidity 0.4.24;\n\nimport \"../hero/HeroManager.sol\";\nimport \"../extension/ExtensionManager.sol\";\nimport \"../deck/DeckManager.sol\";\nimport \"../match/Rank.sol\";\nimport \"../lib/openzeppelin-solidity/contracts/ownership/Ownable.sol\";\n\n\ncontract Register is Ownable {\n    \n    event Registration (address indexed user);\n\n    mapping(address => bool) private registrations;\n\n    HeroManager public heroManager;\n    ExtensionManager public extensionManager;\n    DeckManager public deckManager;\n    Rank public rank;\n\n    function setHeroManagerAddress(address _heroManagerAddress) public onlyOwner {\n        heroManager = HeroManager(_heroManagerAddress);\n    }\n\n    function setExtensionManagerAddress(address _extensionManagerAddress) public onlyOwner {\n        extensionManager = ExtensionManager(_extensionManagerAddress);\n    }\n\n    function setDeckManagerAddress(address _deckManagerAddress) public onlyOwner {\n        deckManager = DeckManager(_deckManagerAddress);\n    }\n    \n    function setRankAddress(address _rankAddress) public onlyOwner {\n        rank = Rank(_rankAddress);\n    }\n    \n    function register() public {\n        if(!registrations[msg.sender]) {\n            uint256[6] memory _unit1;\n            uint256[6] memory _unit2;\n            uint256[6] memory _unit3;\n\n            _unit1[0] = heroManager.mintHeroByType(msg.sender, 1001);\n            _unit1[1] = extensionManager.mintExtensionByType(msg.sender, 1001);\n            _unit1[2] = extensionManager.mintExtensionByType(msg.sender, 3011);\n            _unit1[3] = 1;\n            _unit1[4] = 0;\n            _unit1[5] = 2;\n\n            _unit2[0] = heroManager.mintHeroByType(msg.sender, 1002);\n            _unit2[1] = extensionManager.mintExtensionByType(msg.sender, 3008);\n            _unit2[2] = extensionManager.mintExtensionByType(msg.sender, 3007);\n            _unit2[3] = 1;\n            _unit2[4] = 0;\n            _unit2[5] = 2;\n\n            _unit3[0] = heroManager.mintHeroByType(msg.sender, 1003);\n            _unit3[1] = extensionManager.mintExtensionByType(msg.sender, 4006);\n            _unit3[2] = extensionManager.mintExtensionByType(msg.sender, 3010);\n            _unit3[3] = 1;\n            _unit3[4] = 0;\n            _unit3[5] = 2;\n\n            deckManager.setInitialDeck(msg.sender, _unit1, _unit2, _unit3);\n\n            extensionManager.mintExtensionByType(msg.sender, 3001);\n            extensionManager.mintExtensionByType(msg.sender, 3006);\n            extensionManager.mintExtensionByType(msg.sender, 5004);\n            extensionManager.mintExtensionByType(msg.sender, 5006);\n\n            rank.participate(msg.sender);\n\n            registrations[msg.sender] = true;\n            \n            emit Registration(msg.sender);\n        }\n    }\n    \n    function isRegistered() public view returns (bool) {\n        return registrations[msg.sender];\n    }\n\n}\n",
  "sourcePath": "/Users/hironobu/devs/mch-beta/contracts/register/Register.sol",
  "compiler": {
    "name": "solc",
    "version": "0.4.24+commit.e67f0147.Emscripten.clang"
  },
  "schemaVersion": "2.0.1",
  "updatedAt": "2018-09-24T16:07:29.735Z"
}