{
  "contractName": "Register",
  "abi": [
    {
      "constant": true,
      "inputs": [],
      "name": "heroManager",
      "outputs": [
        {
          "name": "",
          "type": "address"
        }
      ],
      "payable": false,
      "stateMutability": "view",
      "type": "function"
    },
    {
      "constant": false,
      "inputs": [],
      "name": "renounceOwnership",
      "outputs": [],
      "payable": false,
      "stateMutability": "nonpayable",
      "type": "function"
    },
    {
      "constant": true,
      "inputs": [],
      "name": "owner",
      "outputs": [
        {
          "name": "",
          "type": "address"
        }
      ],
      "payable": false,
      "stateMutability": "view",
      "type": "function"
    },
    {
      "constant": true,
      "inputs": [],
      "name": "isOwner",
      "outputs": [
        {
          "name": "",
          "type": "bool"
        }
      ],
      "payable": false,
      "stateMutability": "view",
      "type": "function"
    },
    {
      "constant": true,
      "inputs": [
        {
          "name": "",
          "type": "address"
        }
      ],
      "name": "isRegistered",
      "outputs": [
        {
          "name": "",
          "type": "bool"
        }
      ],
      "payable": false,
      "stateMutability": "view",
      "type": "function"
    },
    {
      "constant": false,
      "inputs": [
        {
          "name": "newOwner",
          "type": "address"
        }
      ],
      "name": "transferOwnership",
      "outputs": [],
      "payable": false,
      "stateMutability": "nonpayable",
      "type": "function"
    },
    {
      "anonymous": false,
      "inputs": [
        {
          "indexed": true,
          "name": "previousOwner",
          "type": "address"
        }
      ],
      "name": "OwnershipRenounced",
      "type": "event"
    },
    {
      "anonymous": false,
      "inputs": [
        {
          "indexed": true,
          "name": "previousOwner",
          "type": "address"
        },
        {
          "indexed": true,
          "name": "newOwner",
          "type": "address"
        }
      ],
      "name": "OwnershipTransferred",
      "type": "event"
    },
    {
      "constant": false,
      "inputs": [
        {
          "name": "_heroManagerAddress",
          "type": "address"
        }
      ],
      "name": "setHeroManagerAddress",
      "outputs": [],
      "payable": false,
      "stateMutability": "nonpayable",
      "type": "function"
    },
    {
      "constant": false,
      "inputs": [],
      "name": "register",
      "outputs": [],
      "payable": false,
      "stateMutability": "nonpayable",
      "type": "function"
    }
  ],
  "bytecode": "0x608060405260008054600160a060020a0319163317905561037f806100256000396000f30060806040526004361061008d5763ffffffff7c01000000000000000000000000000000000000000000000000000000006000350416631aa3a00881146100925780633b8a7a13146100a9578063715018a6146100da5780638da5cb5b146100ef5780638f32d59b14610104578063c3c5a5471461012d578063ce68eb161461014e578063f2fde38b1461016f575b600080fd5b34801561009e57600080fd5b506100a7610190565b005b3480156100b557600080fd5b506100be6101c9565b60408051600160a060020a039092168252519081900360200190f35b3480156100e657600080fd5b506100a76101d8565b3480156100fb57600080fd5b506100be610240565b34801561011057600080fd5b5061011961024f565b604080519115158252519081900360200190f35b34801561013957600080fd5b50610119600160a060020a0360043516610260565b34801561015a57600080fd5b506100a7600160a060020a0360043516610275565b34801561017b57600080fd5b506100a7600160a060020a03600435166102b7565b3360009081526001602052604090205460ff1615156101c757336000908152600160208190526040909120805460ff191690911790555b565b600254600160a060020a031681565b6101e061024f565b15156101eb57600080fd5b60008054604051600160a060020a03909116917ff8df31144d9c2f0f6b59d69b8b98abd5459d07f2742c4df920b25aae33c6482091a26000805473ffffffffffffffffffffffffffffffffffffffff19169055565b600054600160a060020a031690565b600054600160a060020a0316331490565b60016020526000908152604090205460ff1681565b61027d61024f565b151561028857600080fd5b6002805473ffffffffffffffffffffffffffffffffffffffff1916600160a060020a0392909216919091179055565b6102bf61024f565b15156102ca57600080fd5b6102d3816102d6565b50565b600160a060020a03811615156102eb57600080fd5b60008054604051600160a060020a03808516939216917f8be0079c531659141344cd1fd0a4f28419497f9722a3daafe3b4186f6b6457e091a36000805473ffffffffffffffffffffffffffffffffffffffff1916600160a060020a03929092169190911790555600a165627a7a72305820ebb45c460cc1b03d92e5623747333d9a4fb74b6faa0b08bcef0e2a55b74147f20029",
  "source": "pragma solidity 0.4.24;\n\nimport \"../hero/HeroManager.sol\";\nimport \"../lib/openzeppelin-solidity/contracts/ownership/Ownable.sol\";\n\n\ncontract Register is Ownable {\n\n    mapping(address => bool) public isRegistered;\n\n    HeroManager public heroManager;\n\n    function setHeroManagerAddress(address _heroManagerAddress) public onlyOwner {\n        heroManager = HeroManager(_heroManagerAddress);\n    }\n    \n    function register() public {\n        if(!isRegistered[msg.sender]) {\n            // heroManager.mintHero(msg.sender, defaultHeroId1);\n            // heroManager.mintHero(msg.sender, defaultHeroId2);\n            isRegistered[msg.sender] = true;\n        }\n    }\n\n}\n",
  "sourcePath": "/Users/hironobu/devs/mch-beta/contracts/register/Register.sol",
  "compiler": {
    "name": "solc",
    "version": "0.4.24+commit.e67f0147.Emscripten.clang"
  },
  "schemaVersion": "2.0.1",
  "updatedAt": "2018-09-22T09:41:28.602Z"
}