{
  "contractName": "Register",
  "abi": [
    {
      "constant": true,
      "inputs": [],
      "name": "heroManager",
      "outputs": [
        {
          "name": "",
          "type": "address"
        }
      ],
      "payable": false,
      "stateMutability": "view",
      "type": "function"
    },
    {
      "constant": false,
      "inputs": [],
      "name": "renounceOwnership",
      "outputs": [],
      "payable": false,
      "stateMutability": "nonpayable",
      "type": "function"
    },
    {
      "constant": true,
      "inputs": [],
      "name": "extensionManager",
      "outputs": [
        {
          "name": "",
          "type": "address"
        }
      ],
      "payable": false,
      "stateMutability": "view",
      "type": "function"
    },
    {
      "constant": true,
      "inputs": [],
      "name": "owner",
      "outputs": [
        {
          "name": "",
          "type": "address"
        }
      ],
      "payable": false,
      "stateMutability": "view",
      "type": "function"
    },
    {
      "constant": true,
      "inputs": [],
      "name": "isOwner",
      "outputs": [
        {
          "name": "",
          "type": "bool"
        }
      ],
      "payable": false,
      "stateMutability": "view",
      "type": "function"
    },
    {
      "constant": true,
      "inputs": [],
      "name": "rank",
      "outputs": [
        {
          "name": "",
          "type": "address"
        }
      ],
      "payable": false,
      "stateMutability": "view",
      "type": "function"
    },
    {
      "constant": true,
      "inputs": [],
      "name": "deckManager",
      "outputs": [
        {
          "name": "",
          "type": "address"
        }
      ],
      "payable": false,
      "stateMutability": "view",
      "type": "function"
    },
    {
      "constant": false,
      "inputs": [
        {
          "name": "newOwner",
          "type": "address"
        }
      ],
      "name": "transferOwnership",
      "outputs": [],
      "payable": false,
      "stateMutability": "nonpayable",
      "type": "function"
    },
    {
      "anonymous": false,
      "inputs": [
        {
          "indexed": true,
          "name": "previousOwner",
          "type": "address"
        }
      ],
      "name": "OwnershipRenounced",
      "type": "event"
    },
    {
      "anonymous": false,
      "inputs": [
        {
          "indexed": true,
          "name": "previousOwner",
          "type": "address"
        },
        {
          "indexed": true,
          "name": "newOwner",
          "type": "address"
        }
      ],
      "name": "OwnershipTransferred",
      "type": "event"
    },
    {
      "constant": false,
      "inputs": [
        {
          "name": "_heroManagerAddress",
          "type": "address"
        }
      ],
      "name": "setHeroManagerAddress",
      "outputs": [],
      "payable": false,
      "stateMutability": "nonpayable",
      "type": "function"
    },
    {
      "constant": false,
      "inputs": [
        {
          "name": "_extensionManagerAddress",
          "type": "address"
        }
      ],
      "name": "setExtensionManagerAddress",
      "outputs": [],
      "payable": false,
      "stateMutability": "nonpayable",
      "type": "function"
    },
    {
      "constant": false,
      "inputs": [
        {
          "name": "_deckManagerAddress",
          "type": "address"
        }
      ],
      "name": "setDeckManagerAddress",
      "outputs": [],
      "payable": false,
      "stateMutability": "nonpayable",
      "type": "function"
    },
    {
      "constant": false,
      "inputs": [
        {
          "name": "_rankAddress",
          "type": "address"
        }
      ],
      "name": "setRankAddress",
      "outputs": [],
      "payable": false,
      "stateMutability": "nonpayable",
      "type": "function"
    },
    {
      "constant": false,
      "inputs": [],
      "name": "register",
      "outputs": [],
      "payable": false,
      "stateMutability": "nonpayable",
      "type": "function"
    },
    {
      "constant": true,
      "inputs": [],
      "name": "isRegistered",
      "outputs": [
        {
          "name": "",
          "type": "bool"
        }
      ],
      "payable": false,
      "stateMutability": "view",
      "type": "function"
    }
  ],
  "bytecode": "0x608060405260008054600160a060020a03191633179055610e59806100256000396000f3006080604052600436106100cf5763ffffffff7c01000000000000000000000000000000000000000000000000000000006000350416631aa3a00881146100d457806322366844146100eb5780633b8a7a1314610114578063715018a614610145578063876bd2c71461015a5780638afded1c1461016f5780638da5cb5b146101905780638f32d59b146101a5578063934209ce146101ba578063a280086a146101cf578063b3689b1e146101f0578063ce68eb1614610211578063e13ad98014610232578063f2fde38b14610247575b600080fd5b3480156100e057600080fd5b506100e9610268565b005b3480156100f757600080fd5b50610100610b90565b604080519115158252519081900360200190f35b34801561012057600080fd5b50610129610ba6565b60408051600160a060020a039092168252519081900360200190f35b34801561015157600080fd5b506100e9610bb5565b34801561016657600080fd5b50610129610c1d565b34801561017b57600080fd5b506100e9600160a060020a0360043516610c2c565b34801561019c57600080fd5b50610129610c6e565b3480156101b157600080fd5b50610100610c7d565b3480156101c657600080fd5b50610129610c8e565b3480156101db57600080fd5b506100e9600160a060020a0360043516610c9d565b3480156101fc57600080fd5b506100e9600160a060020a0360043516610cdf565b34801561021d57600080fd5b506100e9600160a060020a0360043516610d21565b34801561023e57600080fd5b50610129610d63565b34801561025357600080fd5b506100e9600160a060020a0360043516610d72565b610270610e0e565b610278610e0e565b610280610e0e565b3360009081526001602052604090205460ff161515610b8b57600254604080517f711435ec0000000000000000000000000000000000000000000000000000000081523360048201526103e960248201529051600160a060020a039092169163711435ec916044808201926020929091908290030181600087803b15801561030757600080fd5b505af115801561031b573d6000803e3d6000fd5b505050506040513d602081101561033157600080fd5b50518352600254604080517f711435ec0000000000000000000000000000000000000000000000000000000081523360048201526103ea60248201529051600160a060020a039092169163711435ec916044808201926020929091908290030181600087803b1580156103a357600080fd5b505af11580156103b7573d6000803e3d6000fd5b505050506040513d60208110156103cd57600080fd5b50518252600254604080517f711435ec0000000000000000000000000000000000000000000000000000000081523360048201526103eb60248201529051600160a060020a039092169163711435ec916044808201926020929091908290030181600087803b15801561043f57600080fd5b505af1158015610453573d6000803e3d6000fd5b505050506040513d602081101561046957600080fd5b505181526003546040805160e160020a63508325c10281523360048201526103e960248201529051600160a060020a039092169163a1064b82916044808201926020929091908290030181600087803b1580156104c557600080fd5b505af11580156104d9573d6000803e3d6000fd5b505050506040513d60208110156104ef57600080fd5b50516020808501919091526003546040805160e160020a63508325c1028152336004820152610bb960248201529051600160a060020a039092169263a1064b82926044808401938290030181600087803b15801561054c57600080fd5b505af1158015610560573d6000803e3d6000fd5b505050506040513d602081101561057657600080fd5b5051604080850191909152600354815160e160020a63508325c1028152336004820152610bba60248201529151600160a060020a039091169163a1064b829160448083019260209291908290030181600087803b1580156105d657600080fd5b505af11580156105ea573d6000803e3d6000fd5b505050506040513d602081101561060057600080fd5b50516020808401919091526003546040805160e160020a63508325c1028152336004820152610bbb60248201529051600160a060020a039092169263a1064b82926044808401938290030181600087803b15801561065d57600080fd5b505af1158015610671573d6000803e3d6000fd5b505050506040513d602081101561068757600080fd5b5051604080840191909152600354815160e160020a63508325c1028152336004820152610bbc60248201529151600160a060020a039091169163a1064b829160448083019260209291908290030181600087803b1580156106e757600080fd5b505af11580156106fb573d6000803e3d6000fd5b505050506040513d602081101561071157600080fd5b50516020808301919091526003546040805160e160020a63508325c1028152336004820152610bbd60248201529051600160a060020a039092169263a1064b82926044808401938290030181600087803b15801561076e57600080fd5b505af1158015610782573d6000803e3d6000fd5b505050506040513d602081101561079857600080fd5b5051604080830191909152600354815160e160020a63508325c1028152336004820152610bbe60248201529151600160a060020a039091169163a1064b829160448083019260209291908290030181600087803b1580156107f857600080fd5b505af115801561080c573d6000803e3d6000fd5b505050506040513d602081101561082257600080fd5b50506003546040805160e160020a63508325c1028152336004820152610fa160248201529051600160a060020a039092169163a1064b82916044808201926020929091908290030181600087803b15801561087c57600080fd5b505af1158015610890573d6000803e3d6000fd5b505050506040513d60208110156108a657600080fd5b50506003546040805160e160020a63508325c102815233600482015261138960248201529051600160a060020a039092169163a1064b82916044808201926020929091908290030181600087803b15801561090057600080fd5b505af1158015610914573d6000803e3d6000fd5b505050506040513d602081101561092a57600080fd5b50506003546040805160e160020a63508325c102815233600482015261138a60248201529051600160a060020a039092169163a1064b82916044808201926020929091908290030181600087803b15801561098457600080fd5b505af1158015610998573d6000803e3d6000fd5b505050506040513d60208110156109ae57600080fd5b50506103e76060808501829052608080860183905260a08087018490528583018490528582018490528581018490529184018390528301829052820152600480546040517f44ab91d400000000000000000000000000000000000000000000000000000000815233928101838152600160a060020a03909216926344ab91d4929091879187918791906024018460c080838360005b83811015610a5b578181015183820152602001610a43565b5050505090500183600660200280838360005b83811015610a86578181015183820152602001610a6e565b5050505090500182600660200280838360005b83811015610ab1578181015183820152602001610a99565b50505050905001945050505050600060405180830381600087803b158015610ad857600080fd5b505af1158015610aec573d6000803e3d6000fd5b5050600554604080517fb91038c70000000000000000000000000000000000000000000000000000000081523360048201529051600160a060020a03909216935063b91038c7925060248082019260009290919082900301818387803b158015610b5557600080fd5b505af1158015610b69573d6000803e3d6000fd5b5050336000908152600160208190526040909120805460ff1916909117905550505b505050565b3360009081526001602052604090205460ff1690565b600254600160a060020a031681565b610bbd610c7d565b1515610bc857600080fd5b60008054604051600160a060020a03909116917ff8df31144d9c2f0f6b59d69b8b98abd5459d07f2742c4df920b25aae33c6482091a26000805473ffffffffffffffffffffffffffffffffffffffff19169055565b600354600160a060020a031681565b610c34610c7d565b1515610c3f57600080fd5b6004805473ffffffffffffffffffffffffffffffffffffffff1916600160a060020a0392909216919091179055565b600054600160a060020a031690565b600054600160a060020a0316331490565b600554600160a060020a031681565b610ca5610c7d565b1515610cb057600080fd5b6003805473ffffffffffffffffffffffffffffffffffffffff1916600160a060020a0392909216919091179055565b610ce7610c7d565b1515610cf257600080fd5b6005805473ffffffffffffffffffffffffffffffffffffffff1916600160a060020a0392909216919091179055565b610d29610c7d565b1515610d3457600080fd5b6002805473ffffffffffffffffffffffffffffffffffffffff1916600160a060020a0392909216919091179055565b600454600160a060020a031681565b610d7a610c7d565b1515610d8557600080fd5b610d8e81610d91565b50565b600160a060020a0381161515610da657600080fd5b60008054604051600160a060020a03808516939216917f8be0079c531659141344cd1fd0a4f28419497f9722a3daafe3b4186f6b6457e091a36000805473ffffffffffffffffffffffffffffffffffffffff1916600160a060020a0392909216919091179055565b60c06040519081016040528060069060208202803883395091929150505600a165627a7a72305820c440ffc62d33dc8c07a5e9004a749969905a37ce1154bfbfaf74c71aa7b3cf740029",
  "source": "pragma solidity 0.4.24;\n\nimport \"../hero/HeroManager.sol\";\nimport \"../extension/ExtensionManager.sol\";\nimport \"../deck/DeckManager.sol\";\nimport \"../match/Rank.sol\";\nimport \"../lib/openzeppelin-solidity/contracts/ownership/Ownable.sol\";\n\n\ncontract Register is Ownable {\n\n    mapping(address => bool) private registrations;\n\n    HeroManager public heroManager;\n    ExtensionManager public extensionManager;\n    DeckManager public deckManager;\n    Rank public rank;\n\n    function setHeroManagerAddress(address _heroManagerAddress) public onlyOwner {\n        heroManager = HeroManager(_heroManagerAddress);\n    }\n\n    function setExtensionManagerAddress(address _extensionManagerAddress) public onlyOwner {\n        extensionManager = ExtensionManager(_extensionManagerAddress);\n    }\n\n    function setDeckManagerAddress(address _deckManagerAddress) public onlyOwner {\n        deckManager = DeckManager(_deckManagerAddress);\n    }\n    \n    function setRankAddress(address _rankAddress) public onlyOwner {\n        rank = Rank(_rankAddress);\n    }\n    \n    function register() public {\n        if(!registrations[msg.sender]) {\n            uint256[6] memory _unit1;\n            uint256[6] memory _unit2;\n            uint256[6] memory _unit3;\n\n            _unit1[0] = heroManager.mintHeroByType(msg.sender, 1001);\n            _unit2[0] = heroManager.mintHeroByType(msg.sender, 1002);\n            _unit3[0] = heroManager.mintHeroByType(msg.sender, 1003);\n\n            _unit1[1] = extensionManager.mintExtensionByType(msg.sender, 1001);\n            _unit1[2] = extensionManager.mintExtensionByType(msg.sender, 3001);\n            _unit2[1] = extensionManager.mintExtensionByType(msg.sender, 3002);\n            _unit2[2] = extensionManager.mintExtensionByType(msg.sender, 3003);\n            _unit3[1] = extensionManager.mintExtensionByType(msg.sender, 3004);\n            _unit3[2] = extensionManager.mintExtensionByType(msg.sender, 3005);\n            extensionManager.mintExtensionByType(msg.sender, 3006);\n            extensionManager.mintExtensionByType(msg.sender, 4001);\n            extensionManager.mintExtensionByType(msg.sender, 5001);\n            extensionManager.mintExtensionByType(msg.sender, 5002);\n\n            _unit1[3] = 999;\n            _unit1[4] = 999;\n            _unit1[5] = 999;\n            _unit2[3] = 999;\n            _unit2[4] = 999;\n            _unit2[5] = 999;\n            _unit3[3] = 999;\n            _unit3[4] = 999;\n            _unit3[5] = 999;\n            deckManager.setInitialDeck(msg.sender, _unit1, _unit2, _unit3);\n            \n            rank.participate(msg.sender);\n            \n            registrations[msg.sender] = true;\n        }\n    }\n    \n    function isRegistered() public view returns (bool) {\n        return registrations[msg.sender];\n    }\n\n}\n",
  "sourcePath": "/Users/hironobu/devs/mch-beta/contracts/register/Register.sol",
  "compiler": {
    "name": "solc",
    "version": "0.4.24+commit.e67f0147.Emscripten.clang"
  },
  "schemaVersion": "2.0.1",
  "updatedAt": "2018-09-23T07:43:34.981Z"
}