{
  "contractName": "Register",
  "abi": [
    {
      "constant": true,
      "inputs": [],
      "name": "heroManager",
      "outputs": [
        {
          "name": "",
          "type": "address"
        }
      ],
      "payable": false,
      "stateMutability": "view",
      "type": "function"
    },
    {
      "constant": false,
      "inputs": [],
      "name": "renounceOwnership",
      "outputs": [],
      "payable": false,
      "stateMutability": "nonpayable",
      "type": "function"
    },
    {
      "constant": true,
      "inputs": [],
      "name": "extensionManager",
      "outputs": [
        {
          "name": "",
          "type": "address"
        }
      ],
      "payable": false,
      "stateMutability": "view",
      "type": "function"
    },
    {
      "constant": true,
      "inputs": [],
      "name": "owner",
      "outputs": [
        {
          "name": "",
          "type": "address"
        }
      ],
      "payable": false,
      "stateMutability": "view",
      "type": "function"
    },
    {
      "constant": true,
      "inputs": [],
      "name": "isOwner",
      "outputs": [
        {
          "name": "",
          "type": "bool"
        }
      ],
      "payable": false,
      "stateMutability": "view",
      "type": "function"
    },
    {
      "constant": true,
      "inputs": [],
      "name": "deckManager",
      "outputs": [
        {
          "name": "",
          "type": "address"
        }
      ],
      "payable": false,
      "stateMutability": "view",
      "type": "function"
    },
    {
      "constant": false,
      "inputs": [
        {
          "name": "newOwner",
          "type": "address"
        }
      ],
      "name": "transferOwnership",
      "outputs": [],
      "payable": false,
      "stateMutability": "nonpayable",
      "type": "function"
    },
    {
      "anonymous": false,
      "inputs": [
        {
          "indexed": true,
          "name": "previousOwner",
          "type": "address"
        }
      ],
      "name": "OwnershipRenounced",
      "type": "event"
    },
    {
      "anonymous": false,
      "inputs": [
        {
          "indexed": true,
          "name": "previousOwner",
          "type": "address"
        },
        {
          "indexed": true,
          "name": "newOwner",
          "type": "address"
        }
      ],
      "name": "OwnershipTransferred",
      "type": "event"
    },
    {
      "constant": false,
      "inputs": [
        {
          "name": "_heroManagerAddress",
          "type": "address"
        }
      ],
      "name": "setHeroManagerAddress",
      "outputs": [],
      "payable": false,
      "stateMutability": "nonpayable",
      "type": "function"
    },
    {
      "constant": false,
      "inputs": [
        {
          "name": "_extensionManagerAddress",
          "type": "address"
        }
      ],
      "name": "setExtensionManagerAddress",
      "outputs": [],
      "payable": false,
      "stateMutability": "nonpayable",
      "type": "function"
    },
    {
      "constant": false,
      "inputs": [
        {
          "name": "_deckManagerAddress",
          "type": "address"
        }
      ],
      "name": "setDeckManagerAddress",
      "outputs": [],
      "payable": false,
      "stateMutability": "nonpayable",
      "type": "function"
    },
    {
      "constant": false,
      "inputs": [],
      "name": "register",
      "outputs": [],
      "payable": false,
      "stateMutability": "nonpayable",
      "type": "function"
    },
    {
      "constant": true,
      "inputs": [],
      "name": "isRegistered",
      "outputs": [
        {
          "name": "",
          "type": "bool"
        }
      ],
      "payable": false,
      "stateMutability": "view",
      "type": "function"
    }
  ],
  "bytecode": "0x608060405260008054600160a060020a03191633179055610d3f806100256000396000f3006080604052600436106100b95763ffffffff7c01000000000000000000000000000000000000000000000000000000006000350416631aa3a00881146100be57806322366844146100d55780633b8a7a13146100fe578063715018a61461012f578063876bd2c7146101445780638afded1c146101595780638da5cb5b1461017a5780638f32d59b1461018f578063a280086a146101a4578063ce68eb16146101c5578063e13ad980146101e6578063f2fde38b146101fb575b600080fd5b3480156100ca57600080fd5b506100d361021c565b005b3480156100e157600080fd5b506100ea610ac7565b604080519115158252519081900360200190f35b34801561010a57600080fd5b50610113610add565b60408051600160a060020a039092168252519081900360200190f35b34801561013b57600080fd5b506100d3610aec565b34801561015057600080fd5b50610113610b54565b34801561016557600080fd5b506100d3600160a060020a0360043516610b63565b34801561018657600080fd5b50610113610ba5565b34801561019b57600080fd5b506100ea610bb4565b3480156101b057600080fd5b506100d3600160a060020a0360043516610bc5565b3480156101d157600080fd5b506100d3600160a060020a0360043516610c07565b3480156101f257600080fd5b50610113610c49565b34801561020757600080fd5b506100d3600160a060020a0360043516610c58565b610224610cf4565b61022c610cf4565b610234610cf4565b3360009081526001602052604090205460ff161515610ac257600254604080517f711435ec0000000000000000000000000000000000000000000000000000000081523360048201526103e960248201529051600160a060020a039092169163711435ec916044808201926020929091908290030181600087803b1580156102bb57600080fd5b505af11580156102cf573d6000803e3d6000fd5b505050506040513d60208110156102e557600080fd5b50518352600254604080517f711435ec0000000000000000000000000000000000000000000000000000000081523360048201526103ea60248201529051600160a060020a039092169163711435ec916044808201926020929091908290030181600087803b15801561035757600080fd5b505af115801561036b573d6000803e3d6000fd5b505050506040513d602081101561038157600080fd5b50518252600254604080517f711435ec0000000000000000000000000000000000000000000000000000000081523360048201526103eb60248201529051600160a060020a039092169163711435ec916044808201926020929091908290030181600087803b1580156103f357600080fd5b505af1158015610407573d6000803e3d6000fd5b505050506040513d602081101561041d57600080fd5b505181526003546040805160e160020a63508325c10281523360048201526103e960248201529051600160a060020a039092169163a1064b82916044808201926020929091908290030181600087803b15801561047957600080fd5b505af115801561048d573d6000803e3d6000fd5b505050506040513d60208110156104a357600080fd5b50516020808501919091526003546040805160e160020a63508325c1028152336004820152610bb960248201529051600160a060020a039092169263a1064b82926044808401938290030181600087803b15801561050057600080fd5b505af1158015610514573d6000803e3d6000fd5b505050506040513d602081101561052a57600080fd5b5051604080850191909152600354815160e160020a63508325c1028152336004820152610bba60248201529151600160a060020a039091169163a1064b829160448083019260209291908290030181600087803b15801561058a57600080fd5b505af115801561059e573d6000803e3d6000fd5b505050506040513d60208110156105b457600080fd5b50516020808401919091526003546040805160e160020a63508325c1028152336004820152610bbb60248201529051600160a060020a039092169263a1064b82926044808401938290030181600087803b15801561061157600080fd5b505af1158015610625573d6000803e3d6000fd5b505050506040513d602081101561063b57600080fd5b5051604080840191909152600354815160e160020a63508325c1028152336004820152610bbc60248201529151600160a060020a039091169163a1064b829160448083019260209291908290030181600087803b15801561069b57600080fd5b505af11580156106af573d6000803e3d6000fd5b505050506040513d60208110156106c557600080fd5b50516020808301919091526003546040805160e160020a63508325c1028152336004820152610bbd60248201529051600160a060020a039092169263a1064b82926044808401938290030181600087803b15801561072257600080fd5b505af1158015610736573d6000803e3d6000fd5b505050506040513d602081101561074c57600080fd5b5051604080830191909152600354815160e160020a63508325c1028152336004820152610bbe60248201529151600160a060020a039091169163a1064b829160448083019260209291908290030181600087803b1580156107ac57600080fd5b505af11580156107c0573d6000803e3d6000fd5b505050506040513d60208110156107d657600080fd5b50506003546040805160e160020a63508325c1028152336004820152610fa160248201529051600160a060020a039092169163a1064b82916044808201926020929091908290030181600087803b15801561083057600080fd5b505af1158015610844573d6000803e3d6000fd5b505050506040513d602081101561085a57600080fd5b50506003546040805160e160020a63508325c102815233600482015261138960248201529051600160a060020a039092169163a1064b82916044808201926020929091908290030181600087803b1580156108b457600080fd5b505af11580156108c8573d6000803e3d6000fd5b505050506040513d60208110156108de57600080fd5b50506003546040805160e160020a63508325c102815233600482015261138a60248201529051600160a060020a039092169163a1064b82916044808201926020929091908290030181600087803b15801561093857600080fd5b505af115801561094c573d6000803e3d6000fd5b505050506040513d602081101561096257600080fd5b50506103e76060808501829052608080860183905260a08087018490528583018490528582018490528581018490529184018390528301829052820152600480546040517f44ab91d400000000000000000000000000000000000000000000000000000000815233928101838152600160a060020a03909216926344ab91d4929091879187918791906024018460c080838360005b83811015610a0f5781810151838201526020016109f7565b5050505090500183600660200280838360005b83811015610a3a578181015183820152602001610a22565b5050505090500182600660200280838360005b83811015610a65578181015183820152602001610a4d565b50505050905001945050505050600060405180830381600087803b158015610a8c57600080fd5b505af1158015610aa0573d6000803e3d6000fd5b5050336000908152600160208190526040909120805460ff1916909117905550505b505050565b3360009081526001602052604090205460ff1690565b600254600160a060020a031681565b610af4610bb4565b1515610aff57600080fd5b60008054604051600160a060020a03909116917ff8df31144d9c2f0f6b59d69b8b98abd5459d07f2742c4df920b25aae33c6482091a26000805473ffffffffffffffffffffffffffffffffffffffff19169055565b600354600160a060020a031681565b610b6b610bb4565b1515610b7657600080fd5b6004805473ffffffffffffffffffffffffffffffffffffffff1916600160a060020a0392909216919091179055565b600054600160a060020a031690565b600054600160a060020a0316331490565b610bcd610bb4565b1515610bd857600080fd5b6003805473ffffffffffffffffffffffffffffffffffffffff1916600160a060020a0392909216919091179055565b610c0f610bb4565b1515610c1a57600080fd5b6002805473ffffffffffffffffffffffffffffffffffffffff1916600160a060020a0392909216919091179055565b600454600160a060020a031681565b610c60610bb4565b1515610c6b57600080fd5b610c7481610c77565b50565b600160a060020a0381161515610c8c57600080fd5b60008054604051600160a060020a03808516939216917f8be0079c531659141344cd1fd0a4f28419497f9722a3daafe3b4186f6b6457e091a36000805473ffffffffffffffffffffffffffffffffffffffff1916600160a060020a0392909216919091179055565b60c06040519081016040528060069060208202803883395091929150505600a165627a7a72305820634a6ff4776e6231801cc7793879de979d84a7748f3ffccbdb1476ce772733de0029",
  "source": "pragma solidity 0.4.24;\n\nimport \"../hero/HeroManager.sol\";\nimport \"../extension/ExtensionManager.sol\";\nimport \"../deck/DeckManager.sol\";\nimport \"../lib/openzeppelin-solidity/contracts/ownership/Ownable.sol\";\n\n\ncontract Register is Ownable {\n\n    mapping(address => bool) private registrations;\n\n    HeroManager public heroManager;\n    ExtensionManager public extensionManager;\n    DeckManager public deckManager;\n\n    function setHeroManagerAddress(address _heroManagerAddress) public onlyOwner {\n        heroManager = HeroManager(_heroManagerAddress);\n    }\n\n    function setExtensionManagerAddress(address _extensionManagerAddress) public onlyOwner {\n        extensionManager = ExtensionManager(_extensionManagerAddress);\n    }\n\n    function setDeckManagerAddress(address _deckManagerAddress) public onlyOwner {\n        deckManager = DeckManager(_deckManagerAddress);\n    }\n    \n    function register() public {\n        if(!registrations[msg.sender]) {\n            uint256[6] memory _unit1;\n            uint256[6] memory _unit2;\n            uint256[6] memory _unit3;\n\n            _unit1[0] = heroManager.mintHeroByType(msg.sender, 1001);\n            _unit2[0] = heroManager.mintHeroByType(msg.sender, 1002);\n            _unit3[0] = heroManager.mintHeroByType(msg.sender, 1003);\n\n            _unit1[1] = extensionManager.mintExtensionByType(msg.sender, 1001);\n            _unit1[2] = extensionManager.mintExtensionByType(msg.sender, 3001);\n            _unit2[1] = extensionManager.mintExtensionByType(msg.sender, 3002);\n            _unit2[2] = extensionManager.mintExtensionByType(msg.sender, 3003);\n            _unit3[1] = extensionManager.mintExtensionByType(msg.sender, 3004);\n            _unit3[2] = extensionManager.mintExtensionByType(msg.sender, 3005);\n            extensionManager.mintExtensionByType(msg.sender, 3006);\n            extensionManager.mintExtensionByType(msg.sender, 4001);\n            extensionManager.mintExtensionByType(msg.sender, 5001);\n            extensionManager.mintExtensionByType(msg.sender, 5002);\n\n            _unit1[3] = 999;\n            _unit1[4] = 999;\n            _unit1[5] = 999;\n            _unit2[3] = 999;\n            _unit2[4] = 999;\n            _unit2[5] = 999;\n            _unit3[3] = 999;\n            _unit3[4] = 999;\n            _unit3[5] = 999;\n\n            deckManager.setInitialDeck(msg.sender, _unit1, _unit2, _unit3);\n            registrations[msg.sender] = true;\n        }\n    }\n    \n    function isRegistered() public view returns (bool) {\n        return registrations[msg.sender];\n    }\n\n}\n",
  "sourcePath": "/Users/hironobu/devs/mch-beta/contracts/register/Register.sol",
  "compiler": {
    "name": "solc",
    "version": "0.4.24+commit.e67f0147.Emscripten.clang"
  },
  "schemaVersion": "2.0.1",
  "updatedAt": "2018-09-22T17:30:42.149Z"
}