{
  "contractName": "Register",
  "abi": [
    {
      "constant": true,
      "inputs": [],
      "name": "heroManager",
      "outputs": [
        {
          "name": "",
          "type": "address"
        }
      ],
      "payable": false,
      "stateMutability": "view",
      "type": "function"
    },
    {
      "constant": false,
      "inputs": [],
      "name": "renounceOwnership",
      "outputs": [],
      "payable": false,
      "stateMutability": "nonpayable",
      "type": "function"
    },
    {
      "constant": true,
      "inputs": [],
      "name": "owner",
      "outputs": [
        {
          "name": "",
          "type": "address"
        }
      ],
      "payable": false,
      "stateMutability": "view",
      "type": "function"
    },
    {
      "constant": true,
      "inputs": [],
      "name": "isOwner",
      "outputs": [
        {
          "name": "",
          "type": "bool"
        }
      ],
      "payable": false,
      "stateMutability": "view",
      "type": "function"
    },
    {
      "constant": false,
      "inputs": [
        {
          "name": "newOwner",
          "type": "address"
        }
      ],
      "name": "transferOwnership",
      "outputs": [],
      "payable": false,
      "stateMutability": "nonpayable",
      "type": "function"
    },
    {
      "anonymous": false,
      "inputs": [
        {
          "indexed": true,
          "name": "previousOwner",
          "type": "address"
        }
      ],
      "name": "OwnershipRenounced",
      "type": "event"
    },
    {
      "anonymous": false,
      "inputs": [
        {
          "indexed": true,
          "name": "previousOwner",
          "type": "address"
        },
        {
          "indexed": true,
          "name": "newOwner",
          "type": "address"
        }
      ],
      "name": "OwnershipTransferred",
      "type": "event"
    },
    {
      "constant": false,
      "inputs": [
        {
          "name": "_heroManagerAddress",
          "type": "address"
        }
      ],
      "name": "setHeroManagerAddress",
      "outputs": [],
      "payable": false,
      "stateMutability": "nonpayable",
      "type": "function"
    },
    {
      "constant": false,
      "inputs": [],
      "name": "register",
      "outputs": [],
      "payable": false,
      "stateMutability": "nonpayable",
      "type": "function"
    },
    {
      "constant": true,
      "inputs": [],
      "name": "isRegistered",
      "outputs": [
        {
          "name": "",
          "type": "bool"
        }
      ],
      "payable": false,
      "stateMutability": "view",
      "type": "function"
    }
  ],
  "bytecode": "0x608060405260008054600160a060020a03191633179055610374806100256000396000f30060806040526004361061008d5763ffffffff7c01000000000000000000000000000000000000000000000000000000006000350416631aa3a008811461009257806322366844146100a95780633b8a7a13146100d2578063715018a6146101035780638da5cb5b146101185780638f32d59b1461012d578063ce68eb1614610142578063f2fde38b14610163575b600080fd5b34801561009e57600080fd5b506100a7610184565b005b3480156100b557600080fd5b506100be6101bd565b604080519115158252519081900360200190f35b3480156100de57600080fd5b506100e76101d3565b60408051600160a060020a039092168252519081900360200190f35b34801561010f57600080fd5b506100a76101e2565b34801561012457600080fd5b506100e761024a565b34801561013957600080fd5b506100be610259565b34801561014e57600080fd5b506100a7600160a060020a036004351661026a565b34801561016f57600080fd5b506100a7600160a060020a03600435166102ac565b3360009081526001602052604090205460ff1615156101bb57336000908152600160208190526040909120805460ff191690911790555b565b3360009081526001602052604090205460ff1690565b600254600160a060020a031681565b6101ea610259565b15156101f557600080fd5b60008054604051600160a060020a03909116917ff8df31144d9c2f0f6b59d69b8b98abd5459d07f2742c4df920b25aae33c6482091a26000805473ffffffffffffffffffffffffffffffffffffffff19169055565b600054600160a060020a031690565b600054600160a060020a0316331490565b610272610259565b151561027d57600080fd5b6002805473ffffffffffffffffffffffffffffffffffffffff1916600160a060020a0392909216919091179055565b6102b4610259565b15156102bf57600080fd5b6102c8816102cb565b50565b600160a060020a03811615156102e057600080fd5b60008054604051600160a060020a03808516939216917f8be0079c531659141344cd1fd0a4f28419497f9722a3daafe3b4186f6b6457e091a36000805473ffffffffffffffffffffffffffffffffffffffff1916600160a060020a03929092169190911790555600a165627a7a723058205aec4ca433ec6bd4509653d0e0f216f210e0a1c96f28b1d10ea58746af47060e0029",
  "source": "pragma solidity 0.4.24;\n\nimport \"../hero/HeroManager.sol\";\nimport \"../lib/openzeppelin-solidity/contracts/ownership/Ownable.sol\";\n\n\ncontract Register is Ownable {\n\n    mapping(address => bool) private registrations;\n\n    HeroManager public heroManager;\n\n    function setHeroManagerAddress(address _heroManagerAddress) public onlyOwner {\n        heroManager = HeroManager(_heroManagerAddress);\n    }\n    \n    function register() public {\n        if(!registrations[msg.sender]) {\n            // heroManager.mintHero(msg.sender, defaultHeroId1);\n            // heroManager.mintHero(msg.sender, defaultHeroId2);\n            registrations[msg.sender] = true;\n        }\n    }\n    \n    function isRegistered() public view returns (bool) {\n        return registrations[msg.sender];\n    }\n\n}\n",
  "sourcePath": "/Users/hironobu/devs/mch-beta/contracts/register/Register.sol",
  "compiler": {
    "name": "solc",
    "version": "0.4.24+commit.e67f0147.Emscripten.clang"
  },
  "schemaVersion": "2.0.1",
  "updatedAt": "2018-09-22T10:05:55.412Z"
}