{
  "contractName": "User",
  "abi": [
    {
      "constant": true,
      "inputs": [
        {
          "name": "",
          "type": "address"
        }
      ],
      "name": "accounts",
      "outputs": [
        {
          "name": "name",
          "type": "string"
        },
        {
          "name": "ipfs",
          "type": "string"
        },
        {
          "name": "exists",
          "type": "bool"
        }
      ],
      "payable": false,
      "stateMutability": "view",
      "type": "function"
    },
    {
      "constant": true,
      "inputs": [],
      "name": "DEFAULT_NAME",
      "outputs": [
        {
          "name": "",
          "type": "string"
        }
      ],
      "payable": false,
      "stateMutability": "view",
      "type": "function"
    },
    {
      "constant": false,
      "inputs": [],
      "name": "createUserAccount",
      "outputs": [],
      "payable": false,
      "stateMutability": "nonpayable",
      "type": "function"
    },
    {
      "constant": false,
      "inputs": [
        {
          "name": "_name",
          "type": "string"
        }
      ],
      "name": "setName",
      "outputs": [],
      "payable": false,
      "stateMutability": "nonpayable",
      "type": "function"
    },
    {
      "constant": false,
      "inputs": [
        {
          "name": "_ipfs",
          "type": "string"
        }
      ],
      "name": "setIpfs",
      "outputs": [],
      "payable": false,
      "stateMutability": "nonpayable",
      "type": "function"
    },
    {
      "constant": true,
      "inputs": [],
      "name": "getAccount",
      "outputs": [
        {
          "name": "_exists",
          "type": "uint8"
        },
        {
          "name": "_name",
          "type": "string"
        },
        {
          "name": "_ipfs",
          "type": "string"
        }
      ],
      "payable": false,
      "stateMutability": "view",
      "type": "function"
    },
    {
      "constant": true,
      "inputs": [
        {
          "name": "_address",
          "type": "address"
        }
      ],
      "name": "addressToString",
      "outputs": [
        {
          "name": "",
          "type": "string"
        }
      ],
      "payable": false,
      "stateMutability": "pure",
      "type": "function"
    }
  ],
  "bytecode": "0x608060405234801561001057600080fd5b50610a6b806100206000396000f3006080604052600436106100825763ffffffff7c01000000000000000000000000000000000000000000000000000000006000350416635e57966d81146100875780635e5c06e21461012a5780638b81d9821461024157806398c6964814610258578063c31fa0831461026d578063c47f0027146102c6578063db613e811461031f575b600080fd5b34801561009357600080fd5b506100b573ffffffffffffffffffffffffffffffffffffffff600435166103e0565b6040805160208082528351818301528351919283929083019185019080838360005b838110156100ef5781810151838201526020016100d7565b50505050905090810190601f16801561011c5780820380516001836020036101000a031916815260200191505b509250505060405180910390f35b34801561013657600080fd5b5061015873ffffffffffffffffffffffffffffffffffffffff600435166105ef565b60405180806020018060200184151515158152602001838103835286818151815260200191508051906020019080838360005b838110156101a357818101518382015260200161018b565b50505050905090810190601f1680156101d05780820380516001836020036101000a031916815260200191505b50838103825285518152855160209182019187019080838360005b838110156102035781810151838201526020016101eb565b50505050905090810190601f1680156102305780820380516001836020036101000a031916815260200191505b509550505050505060405180910390f35b34801561024d57600080fd5b50610256610734565b005b34801561026457600080fd5b506100b56107ab565b34801561027957600080fd5b506040805160206004803580820135601f81018490048402850184019095528484526102569436949293602493928401919081908401838280828437509497506107e29650505050505050565b3480156102d257600080fd5b506040805160206004803580820135601f810184900484028501840190955284845261025694369492936024939284019190819084018382808284375094975061081e9650505050505050565b34801561032b57600080fd5b50610334610852565b604051808460ff1660ff1681526020018060200180602001838103835285818151815260200191508051906020019080838360005b83811015610381578181015183820152602001610369565b50505050905090810190601f1680156103ae5780820380516001836020036101000a031916815260200191505b5083810382528451815284516020918201918601908083836000838110156102035781810151838201526020016101eb565b604080518082018252601081527f3031323334353637383961626364656600000000000000000000000000000000602082015281516033808252606082810190945273ffffffffffffffffffffffffffffffffffffffff851692918491600091908160200160208202803883390190505091507f300000000000000000000000000000000000000000000000000000000000000082600081518110151561048357fe5b906020010190600160f860020a031916908160001a9053507f78000000000000000000000000000000000000000000000000000000000000008260018151811015156104cb57fe5b906020010190600160f860020a031916908160001a905350600090505b60148110156105e65782600485600c84016020811061050357fe5b1a60f860020a02600160f860020a0319169060020a900460f860020a900481518110151561052d57fe5b90602001015160f860020a900460f860020a02828260020260020181518110151561055457fe5b906020010190600160f860020a031916908160001a9053508284600c83016020811061057c57fe5b1a60f860020a02600f60f860020a021660f860020a900481518110151561059f57fe5b90602001015160f860020a900460f860020a0282826002026003018151811015156105c657fe5b906020010190600160f860020a031916908160001a9053506001016104e8565b50949350505050565b6000602081815291815260409081902080548251601f6002600019610100600186161502019093169290920491820185900485028101850190935280835290928391908301828280156106835780601f1061065857610100808354040283529160200191610683565b820191906000526020600020905b81548152906001019060200180831161066657829003601f168201915b505050505090806001018054600181600116156101000203166002900480601f0160208091040260200160405190810160405280929190818152602001828054600181600116156101000203166002900480156107215780601f106106f657610100808354040283529160200191610721565b820191906000526020600020905b81548152906001019060200180831161070457829003601f168201915b5050506002909301549192505060ff1683565b336000908152602081905260409020600281015460ff161561075557600080fd5b60028101805460ff1916600117905560408051808201909152600b8082527f6265746120706c6179657200000000000000000000000000000000000000000060209092019182526107a79183916109a4565b5050565b60408051808201909152600b81527f6265746120706c61796572000000000000000000000000000000000000000000602082015281565b336000908152602081905260409020600281015460ff16151561080457600080fd5b815161081990600183019060208501906109a4565b505050565b336000908152602081905260409020600281015460ff16151561084057600080fd5b815161081990829060208501906109a4565b3360009081526020819052604081206002810154606091829160ff16151561087957600080fd5b80546040805160206002600180861615610100026000190190951604601f8101829004820283018201909352828252849284840192918491908301828280156109035780601f106108d857610100808354040283529160200191610903565b820191906000526020600020905b8154815290600101906020018083116108e657829003601f168201915b5050845460408051602060026001851615610100026000190190941693909304601f8101849004840282018401909252818152959750869450925084019050828280156109915780601f1061096657610100808354040283529160200191610991565b820191906000526020600020905b81548152906001019060200180831161097457829003601f168201915b5050505050905093509350935050909192565b828054600181600116156101000203166002900490600052602060002090601f016020900481019282601f106109e557805160ff1916838001178555610a12565b82800160010185558215610a12579182015b82811115610a125782518255916020019190600101906109f7565b50610a1e929150610a22565b5090565b610a3c91905b80821115610a1e5760008155600101610a28565b905600a165627a7a72305820545c90311571c4ea1f20f2318debb2428076368354b5164c95a549ac6b18d2270029",
  "source": "pragma solidity 0.4.24;\n\n\ncontract User {\n\n    string public constant DEFAULT_NAME = \"beta player\";\n\n    mapping(address=>Account) public accounts;\n\n    struct Account {\n        string name;\n        string ipfs;\n        bool   exists;\n    }\n\n    function createUserAccount() public {\n        Account storage account = accounts[msg.sender];\n        require(!account.exists);\n        account.exists = true;\n        // account.name = addressToString(msg.sender);\n        account.name = DEFAULT_NAME;\n    }\n\n    function setName(string _name) public {\n        Account storage account = accounts[msg.sender];   \n        require(account.exists);     \n        account.name = _name;\n    } \n\n    function setIpfs(string _ipfs) public {\n        Account storage account = accounts[msg.sender];   \n        require(account.exists);     \n        account.ipfs = _ipfs;\n    }     \n\n    function getAccount() public view returns (\n        uint8   _exists,\n        string  _name,\n        string  _ipfs\n    ) {\n        Account storage account = accounts[msg.sender];\n        require(account.exists);\n        return (1, account.name, account.ipfs);\n    }\n\n    function addressToString(address _address) public pure returns (string) {\n        bytes32 value = bytes32(uint256(_address));\n        bytes memory alphabet = \"0123456789abcdef\";\n        bytes memory str = new bytes(51);\n        str[0] = '0';\n        str[1] = 'x';\n        for (uint i = 0; i < 20; i++) {\n            str[2+i*2] = alphabet[uint(value[i + 12] >> 4)];\n            str[3+i*2] = alphabet[uint(value[i + 12] & 0x0f)];\n        }\n        return string(str);\n    }\n}",
  "sourcePath": "/Users/hironobu/devs/mch-beta/contracts/user/User.sol",
  "compiler": {
    "name": "solc",
    "version": "0.4.24+commit.e67f0147.Emscripten.clang"
  },
  "schemaVersion": "2.0.1",
  "updatedAt": "2018-09-23T07:16:42.857Z"
}