{
  "contractName": "User",
  "abi": [
    {
      "constant": true,
      "inputs": [
        {
          "name": "",
          "type": "address"
        }
      ],
      "name": "accounts",
      "outputs": [
        {
          "name": "name",
          "type": "string"
        },
        {
          "name": "ipfs",
          "type": "string"
        },
        {
          "name": "exists",
          "type": "bool"
        }
      ],
      "payable": false,
      "stateMutability": "view",
      "type": "function"
    },
    {
      "constant": false,
      "inputs": [],
      "name": "renounceOwnership",
      "outputs": [],
      "payable": false,
      "stateMutability": "nonpayable",
      "type": "function"
    },
    {
      "constant": true,
      "inputs": [],
      "name": "owner",
      "outputs": [
        {
          "name": "",
          "type": "address"
        }
      ],
      "payable": false,
      "stateMutability": "view",
      "type": "function"
    },
    {
      "constant": true,
      "inputs": [],
      "name": "isOwner",
      "outputs": [
        {
          "name": "",
          "type": "bool"
        }
      ],
      "payable": false,
      "stateMutability": "view",
      "type": "function"
    },
    {
      "constant": true,
      "inputs": [],
      "name": "DEFAULT_NAME",
      "outputs": [
        {
          "name": "",
          "type": "string"
        }
      ],
      "payable": false,
      "stateMutability": "view",
      "type": "function"
    },
    {
      "constant": false,
      "inputs": [
        {
          "name": "newOwner",
          "type": "address"
        }
      ],
      "name": "transferOwnership",
      "outputs": [],
      "payable": false,
      "stateMutability": "nonpayable",
      "type": "function"
    },
    {
      "anonymous": false,
      "inputs": [
        {
          "indexed": true,
          "name": "user",
          "type": "address"
        },
        {
          "indexed": false,
          "name": "name",
          "type": "string"
        },
        {
          "indexed": false,
          "name": "ipfs",
          "type": "string"
        }
      ],
      "name": "UserSetting_2",
      "type": "event"
    },
    {
      "anonymous": false,
      "inputs": [
        {
          "indexed": true,
          "name": "previousOwner",
          "type": "address"
        }
      ],
      "name": "OwnershipRenounced",
      "type": "event"
    },
    {
      "anonymous": false,
      "inputs": [
        {
          "indexed": true,
          "name": "previousOwner",
          "type": "address"
        },
        {
          "indexed": true,
          "name": "newOwner",
          "type": "address"
        }
      ],
      "name": "OwnershipTransferred",
      "type": "event"
    },
    {
      "constant": false,
      "inputs": [],
      "name": "createUserAccount",
      "outputs": [],
      "payable": false,
      "stateMutability": "nonpayable",
      "type": "function"
    },
    {
      "constant": false,
      "inputs": [
        {
          "name": "_name",
          "type": "string"
        }
      ],
      "name": "setName",
      "outputs": [],
      "payable": false,
      "stateMutability": "nonpayable",
      "type": "function"
    },
    {
      "constant": false,
      "inputs": [
        {
          "name": "_ipfs",
          "type": "string"
        }
      ],
      "name": "setIpfs",
      "outputs": [],
      "payable": false,
      "stateMutability": "nonpayable",
      "type": "function"
    },
    {
      "constant": false,
      "inputs": [
        {
          "name": "_address",
          "type": "address"
        },
        {
          "name": "_name",
          "type": "string"
        },
        {
          "name": "_ipfs",
          "type": "string"
        }
      ],
      "name": "set",
      "outputs": [],
      "payable": false,
      "stateMutability": "nonpayable",
      "type": "function"
    },
    {
      "constant": true,
      "inputs": [],
      "name": "getAccount",
      "outputs": [
        {
          "name": "exists",
          "type": "bool"
        },
        {
          "name": "name",
          "type": "string"
        },
        {
          "name": "ipfs",
          "type": "string"
        }
      ],
      "payable": false,
      "stateMutability": "view",
      "type": "function"
    },
    {
      "constant": true,
      "inputs": [
        {
          "name": "_address",
          "type": "address"
        }
      ],
      "name": "get",
      "outputs": [
        {
          "name": "exists",
          "type": "bool"
        },
        {
          "name": "name",
          "type": "string"
        },
        {
          "name": "ipfs",
          "type": "string"
        }
      ],
      "payable": false,
      "stateMutability": "view",
      "type": "function"
    },
    {
      "constant": true,
      "inputs": [
        {
          "name": "_address",
          "type": "address"
        }
      ],
      "name": "addressToString",
      "outputs": [
        {
          "name": "",
          "type": "string"
        }
      ],
      "payable": false,
      "stateMutability": "pure",
      "type": "function"
    }
  ],
  "bytecode": "0x608060405260008054600160a060020a0319163317905561126c806100256000396000f3006080604052600436106100c45763ffffffff7c01000000000000000000000000000000000000000000000000000000006000350416635e57966d81146100c95780635e5c06e21461015f578063715018a6146102695780638b81d982146102805780638da5cb5b146102955780638f32d59b146102c657806398c69648146102ef578063c2bc2efc14610304578063c31fa083146103cf578063c47f002714610428578063d2c0e03214610481578063db613e8114610526578063f2fde38b1461053b575b600080fd5b3480156100d557600080fd5b506100ea600160a060020a036004351661055c565b6040805160208082528351818301528351919283929083019185019080838360005b8381101561012457818101518382015260200161010c565b50505050905090810190601f1680156101515780820380516001836020036101000a031916815260200191505b509250505060405180910390f35b34801561016b57600080fd5b50610180600160a060020a036004351661075e565b60405180806020018060200184151515158152602001838103835286818151815260200191508051906020019080838360005b838110156101cb5781810151838201526020016101b3565b50505050905090810190601f1680156101f85780820380516001836020036101000a031916815260200191505b50838103825285518152855160209182019187019080838360005b8381101561022b578181015183820152602001610213565b50505050905090810190601f1680156102585780820380516001836020036101000a031916815260200191505b509550505050505060405180910390f35b34801561027557600080fd5b5061027e6108a1565b005b34801561028c57600080fd5b5061027e610909565b3480156102a157600080fd5b506102aa610aab565b60408051600160a060020a039092168252519081900360200190f35b3480156102d257600080fd5b506102db610abb565b604080519115158252519081900360200190f35b3480156102fb57600080fd5b506100ea610acc565b34801561031057600080fd5b50610325600160a060020a0360043516610b03565b60405180841515151581526020018060200180602001838103835285818151815260200191508051906020019080838360005b83811015610370578181015183820152602001610358565b50505050905090810190601f16801561039d5780820380516001836020036101000a031916815260200191505b50838103825284518152845160209182019186019080838360008381101561022b578181015183820152602001610213565b3480156103db57600080fd5b506040805160206004803580820135601f810184900484028501840190955284845261027e943694929360249392840191908190840183828082843750949750610c579650505050505050565b34801561043457600080fd5b506040805160206004803580820135601f810184900484028501840190955284845261027e943694929360249392840191908190840183828082843750949750610dbe9650505050505050565b34801561048d57600080fd5b5060408051602060046024803582810135601f810185900485028601850190965285855261027e958335600160a060020a031695369560449491939091019190819084018382808284375050604080516020601f89358b018035918201839004830284018301909452808352979a999881019791965091820194509250829150840183828082843750949750610df29650505050505050565b34801561053257600080fd5b50610325610f98565b34801561054757600080fd5b5061027e600160a060020a036004351661110c565b604080518082018252601081527f30313233343536373839616263646566000000000000000000000000000000006020820152815160338082526060828101909452600160a060020a03851692918491600091908160200160208202803883390190505091507f30000000000000000000000000000000000000000000000000000000000000008260008151811015156105f257fe5b906020010190600160f860020a031916908160001a9053507f780000000000000000000000000000000000000000000000000000000000000082600181518110151561063a57fe5b906020010190600160f860020a031916908160001a905350600090505b60148110156107555782600485600c84016020811061067257fe5b1a60f860020a02600160f860020a0319169060020a900460f860020a900481518110151561069c57fe5b90602001015160f860020a900460f860020a0282826002026002018151811015156106c357fe5b906020010190600160f860020a031916908160001a9053508284600c8301602081106106eb57fe5b1a60f860020a02600f60f860020a021660f860020a900481518110151561070e57fe5b90602001015160f860020a900460f860020a02828260020260030181518110151561073557fe5b906020010190600160f860020a031916908160001a905350600101610657565b50949350505050565b60016020818152600092835260409283902080548451600294821615610100026000190190911693909304601f81018390048302840183019094528383529283918301828280156107f05780601f106107c5576101008083540402835291602001916107f0565b820191906000526020600020905b8154815290600101906020018083116107d357829003601f168201915b505050505090806001018054600181600116156101000203166002900480601f01602080910402602001604051908101604052809291908181526020018280546001816001161561010002031660029004801561088e5780601f106108635761010080835404028352916020019161088e565b820191906000526020600020905b81548152906001019060200180831161087157829003601f168201915b5050506002909301549192505060ff1683565b6108a9610abb565b15156108b457600080fd5b60008054604051600160a060020a03909116917ff8df31144d9c2f0f6b59d69b8b98abd5459d07f2742c4df920b25aae33c6482091a26000805473ffffffffffffffffffffffffffffffffffffffff19169055565b336000908152600160205260409020600281015460ff161561092a57600080fd5b60028101805460ff1916600117905560408051808201909152600b8082527f6265746120706c61796572000000000000000000000000000000000000000000602090920191825261097c9183916111a8565b50604080518181528254600260018083161561010002600019019092160492820183905233927f8cd34253fd3ff813bdc425691f67a75da9ce3598bf1307926b08eefa625c4be492859283019181906020820190606083019086908015610a245780601f106109f957610100808354040283529160200191610a24565b820191906000526020600020905b815481529060010190602001808311610a0757829003601f168201915b5050838103825284546002600019610100600184161502019091160480825260209091019085908015610a985780601f10610a6d57610100808354040283529160200191610a98565b820191906000526020600020905b815481529060010190602001808311610a7b57829003601f168201915b505094505050505060405180910390a250565b600054600160a060020a03165b90565b600054600160a060020a0316331490565b60408051808201909152600b81527f6265746120706c61796572000000000000000000000000000000000000000000602082015281565b600160a060020a03811660009081526001602081815260408084206002808201548254845161010082891615026000190190911692909204601f81018690048602830186019094528382526060958695939460ff909216938593918401928491830182828015610bb45780601f10610b8957610100808354040283529160200191610bb4565b820191906000526020600020905b815481529060010190602001808311610b9757829003601f168201915b5050845460408051602060026001851615610100026000190190941693909304601f810184900484028201840190925281815295975086945092508401905082828015610c425780601f10610c1757610100808354040283529160200191610c42565b820191906000526020600020905b815481529060010190602001808311610c2557829003601f168201915b50505050509050935093509350509193909250565b336000908152600160205260409020600281015460ff161515610c7957600080fd5b8151610c8e90600183019060208501906111a8565b50604080518181528254600260018083161561010002600019019092160492820183905233927f8cd34253fd3ff813bdc425691f67a75da9ce3598bf1307926b08eefa625c4be492859283019181906020820190606083019086908015610d365780601f10610d0b57610100808354040283529160200191610d36565b820191906000526020600020905b815481529060010190602001808311610d1957829003601f168201915b5050838103825284546002600019610100600184161502019091160480825260209091019085908015610daa5780601f10610d7f57610100808354040283529160200191610daa565b820191906000526020600020905b815481529060010190602001808311610d8d57829003601f168201915b505094505050505060405180910390a25050565b336000908152600160205260409020600281015460ff161515610de057600080fd5b8151610c8e90829060208501906111a8565b6000610dfc610abb565b1515610e0757600080fd5b50600160a060020a038316600090815260016020908152604090912083519091610e359183918601906111a8565b508151610e4b90600183019060208501906111a8565b506002808201805460ff191660019081179091556040805181815284546000198185161561010002011693909304908301819052600160a060020a038716927f8cd34253fd3ff813bdc425691f67a75da9ce3598bf1307926b08eefa625c4be4928592908301919081906020820190606083019086908015610f0e5780601f10610ee357610100808354040283529160200191610f0e565b820191906000526020600020905b815481529060010190602001808311610ef157829003601f168201915b5050838103825284546002600019610100600184161502019091160480825260209091019085908015610f825780601f10610f5757610100808354040283529160200191610f82565b820191906000526020600020905b815481529060010190602001808311610f6557829003601f168201915b505094505050505060405180910390a250505050565b3360009081526001602052604081206002810154606091829160ff16156110e35780546040805160206002600180861615610100026000190190951604601f8101829004820283018201909352828252849284840192918491908301828280156110435780601f1061101857610100808354040283529160200191611043565b820191906000526020600020905b81548152906001019060200180831161102657829003601f168201915b5050845460408051602060026001851615610100026000190190941693909304601f8101849004840282018401909252818152959750869450925084019050828280156110d15780601f106110a6576101008083540402835291602001916110d1565b820191906000526020600020905b8154815290600101906020018083116110b457829003601f168201915b50505050509050935093509350611106565b604080516020818101835260008083528351918201909352828152919550935091505b50909192565b611114610abb565b151561111f57600080fd5b6111288161112b565b50565b600160a060020a038116151561114057600080fd5b60008054604051600160a060020a03808516939216917f8be0079c531659141344cd1fd0a4f28419497f9722a3daafe3b4186f6b6457e091a36000805473ffffffffffffffffffffffffffffffffffffffff1916600160a060020a0392909216919091179055565b828054600181600116156101000203166002900490600052602060002090601f016020900481019282601f106111e957805160ff1916838001178555611216565b82800160010185558215611216579182015b828111156112165782518255916020019190600101906111fb565b50611222929150611226565b5090565b610ab891905b80821115611222576000815560010161122c5600a165627a7a7230582014fddeacab970c500da9d9fb839efd9b58a9db6954b80cd65dff53572572d5100029",
  "source": "pragma solidity 0.4.24;\n\nimport \"../lib/openzeppelin-solidity/contracts/ownership/Ownable.sol\";\n\n\ncontract User is Ownable {\n\n    event UserSetting_2 (address indexed user, string name, string ipfs);\n\n    string public constant DEFAULT_NAME = \"beta player\";\n\n    mapping(address=>Account) public accounts;\n\n    struct Account {\n        string name;\n        string ipfs;\n        bool   exists;\n    }\n\n    function createUserAccount() public {\n        Account storage account = accounts[msg.sender];\n        require(!account.exists);\n        account.exists = true;\n        // account.name = addressToString(msg.sender);\n        account.name = DEFAULT_NAME;\n        \n        emit UserSetting_2 (msg.sender, account.name, account.ipfs);\n    }\n\n    function setName(string _name) public {\n        Account storage account = accounts[msg.sender];   \n        require(account.exists);     \n        account.name = _name;\n\n        emit UserSetting_2 (msg.sender, account.name, account.ipfs);\n    }\n\n    function setIpfs(string _ipfs) public {\n        Account storage account = accounts[msg.sender];   \n        require(account.exists);     \n        account.ipfs = _ipfs;\n\n        emit UserSetting_2 (msg.sender, account.name, account.ipfs);\n    }\n\n    function set(address _address, string _name, string _ipfs) public onlyOwner {\n        Account storage account = accounts[_address];   \n\n        account.name = _name;\n        account.ipfs = _ipfs;\n        account.exists = true;\n\n        emit UserSetting_2 (_address, account.name, account.ipfs);\n    }\n\n    function getAccount() public view returns (\n        bool exists,\n        string  name,\n        string  ipfs\n    ) {\n        Account storage account = accounts[msg.sender];\n        if (account.exists) {\n            return (true, account.name, account.ipfs);\n        }\n        return (false, \"\", \"\");\n    }\n\n    function get(address _address) public view returns (\n        bool exists,\n        string  name,\n        string  ipfs\n    ) {\n        Account storage account = accounts[_address];\n        return (account.exists, account.name, account.ipfs);\n    }\n\n    function addressToString(address _address) public pure returns (string) {\n        bytes32 value = bytes32(uint256(_address));\n        bytes memory alphabet = \"0123456789abcdef\";\n        bytes memory str = new bytes(51);\n        str[0] = '0';\n        str[1] = 'x';\n        for (uint i = 0; i < 20; i++) {\n            str[2+i*2] = alphabet[uint(value[i + 12] >> 4)];\n            str[3+i*2] = alphabet[uint(value[i + 12] & 0x0f)];\n        }\n        return string(str);\n    }\n}\n",
  "sourcePath": "/Users/hironobu/devs/mch-beta/contracts/user/User.sol",
  "compiler": {
    "name": "solc",
    "version": "0.4.24+commit.e67f0147.Emscripten.clang"
  },
  "schemaVersion": "2.0.1",
  "updatedAt": "2018-10-01T10:43:29.303Z"
}