{
  "contractName": "User",
  "abi": [
    {
      "constant": true,
      "inputs": [
        {
          "name": "",
          "type": "address"
        }
      ],
      "name": "accounts",
      "outputs": [
        {
          "name": "name",
          "type": "string"
        },
        {
          "name": "ipfs",
          "type": "string"
        },
        {
          "name": "exists",
          "type": "bool"
        }
      ],
      "payable": false,
      "stateMutability": "view",
      "type": "function"
    },
    {
      "constant": true,
      "inputs": [],
      "name": "DEFAULT_NAME",
      "outputs": [
        {
          "name": "",
          "type": "string"
        }
      ],
      "payable": false,
      "stateMutability": "view",
      "type": "function"
    },
    {
      "anonymous": false,
      "inputs": [
        {
          "indexed": true,
          "name": "user",
          "type": "address"
        },
        {
          "indexed": false,
          "name": "name",
          "type": "string"
        },
        {
          "indexed": false,
          "name": "ipfs",
          "type": "string"
        }
      ],
      "name": "UserSetting",
      "type": "event"
    },
    {
      "constant": false,
      "inputs": [],
      "name": "createUserAccount",
      "outputs": [],
      "payable": false,
      "stateMutability": "nonpayable",
      "type": "function"
    },
    {
      "constant": false,
      "inputs": [
        {
          "name": "_name",
          "type": "string"
        }
      ],
      "name": "setName",
      "outputs": [],
      "payable": false,
      "stateMutability": "nonpayable",
      "type": "function"
    },
    {
      "constant": false,
      "inputs": [
        {
          "name": "_ipfs",
          "type": "string"
        }
      ],
      "name": "setIpfs",
      "outputs": [],
      "payable": false,
      "stateMutability": "nonpayable",
      "type": "function"
    },
    {
      "constant": true,
      "inputs": [],
      "name": "getAccount",
      "outputs": [
        {
          "name": "exists",
          "type": "bool"
        },
        {
          "name": "name",
          "type": "string"
        },
        {
          "name": "ipfs",
          "type": "string"
        }
      ],
      "payable": false,
      "stateMutability": "view",
      "type": "function"
    },
    {
      "constant": true,
      "inputs": [
        {
          "name": "_address",
          "type": "address"
        }
      ],
      "name": "addressToString",
      "outputs": [
        {
          "name": "",
          "type": "string"
        }
      ],
      "payable": false,
      "stateMutability": "pure",
      "type": "function"
    }
  ],
  "bytecode": "0x608060405234801561001057600080fd5b50610ce1806100206000396000f3006080604052600436106100825763ffffffff7c01000000000000000000000000000000000000000000000000000000006000350416635e57966d81146100875780635e5c06e21461012a5780638b81d9821461024157806398c6964814610258578063c31fa0831461026d578063c47f0027146102c6578063db613e811461031f575b600080fd5b34801561009357600080fd5b506100b573ffffffffffffffffffffffffffffffffffffffff600435166103de565b6040805160208082528351818301528351919283929083019185019080838360005b838110156100ef5781810151838201526020016100d7565b50505050905090810190601f16801561011c5780820380516001836020036101000a031916815260200191505b509250505060405180910390f35b34801561013657600080fd5b5061015873ffffffffffffffffffffffffffffffffffffffff600435166105ed565b60405180806020018060200184151515158152602001838103835286818151815260200191508051906020019080838360005b838110156101a357818101518382015260200161018b565b50505050905090810190601f1680156101d05780820380516001836020036101000a031916815260200191505b50838103825285518152855160209182019187019080838360005b838110156102035781810151838201526020016101eb565b50505050905090810190601f1680156102305780820380516001836020036101000a031916815260200191505b509550505050505060405180910390f35b34801561024d57600080fd5b50610256610732565b005b34801561026457600080fd5b506100b56108d4565b34801561027957600080fd5b506040805160206004803580820135601f810184900484028501840190955284845261025694369492936024939284019190819084018382808284375094975061090b9650505050505050565b3480156102d257600080fd5b506040805160206004803580820135601f8101849004840285018401909552848452610256943694929360249392840191908190840183828082843750949750610a729650505050505050565b34801561032b57600080fd5b50610334610aa6565b60405180841515151581526020018060200180602001838103835285818151815260200191508051906020019080838360005b8381101561037f578181015183820152602001610367565b50505050905090810190601f1680156103ac5780820380516001836020036101000a031916815260200191505b5083810382528451815284516020918201918601908083836000838110156102035781810151838201526020016101eb565b604080518082018252601081527f3031323334353637383961626364656600000000000000000000000000000000602082015281516033808252606082810190945273ffffffffffffffffffffffffffffffffffffffff851692918491600091908160200160208202803883390190505091507f300000000000000000000000000000000000000000000000000000000000000082600081518110151561048157fe5b906020010190600160f860020a031916908160001a9053507f78000000000000000000000000000000000000000000000000000000000000008260018151811015156104c957fe5b906020010190600160f860020a031916908160001a905350600090505b60148110156105e45782600485600c84016020811061050157fe5b1a60f860020a02600160f860020a0319169060020a900460f860020a900481518110151561052b57fe5b90602001015160f860020a900460f860020a02828260020260020181518110151561055257fe5b906020010190600160f860020a031916908160001a9053508284600c83016020811061057a57fe5b1a60f860020a02600f60f860020a021660f860020a900481518110151561059d57fe5b90602001015160f860020a900460f860020a0282826002026003018151811015156105c457fe5b906020010190600160f860020a031916908160001a9053506001016104e6565b50949350505050565b6000602081815291815260409081902080548251601f6002600019610100600186161502019093169290920491820185900485028101850190935280835290928391908301828280156106815780601f1061065657610100808354040283529160200191610681565b820191906000526020600020905b81548152906001019060200180831161066457829003601f168201915b505050505090806001018054600181600116156101000203166002900480601f01602080910402602001604051908101604052809291908181526020018280546001816001161561010002031660029004801561071f5780601f106106f45761010080835404028352916020019161071f565b820191906000526020600020905b81548152906001019060200180831161070257829003601f168201915b5050506002909301549192505060ff1683565b336000908152602081905260409020600281015460ff161561075357600080fd5b60028101805460ff1916600117905560408051808201909152600b8082527f6265746120706c6179657200000000000000000000000000000000000000000060209092019182526107a5918391610c1a565b50604080518181528254600260018083161561010002600019019092160492820183905233927fce5d88da863190896c4a6d05cbffc08a5de9c16482223f47351c2710c0eee7eb9285928301918190602082019060608301908690801561084d5780601f106108225761010080835404028352916020019161084d565b820191906000526020600020905b81548152906001019060200180831161083057829003601f168201915b50508381038252845460026000196101006001841615020190911604808252602090910190859080156108c15780601f10610896576101008083540402835291602001916108c1565b820191906000526020600020905b8154815290600101906020018083116108a457829003601f168201915b505094505050505060405180910390a250565b60408051808201909152600b81527f6265746120706c61796572000000000000000000000000000000000000000000602082015281565b336000908152602081905260409020600281015460ff16151561092d57600080fd5b81516109429060018301906020850190610c1a565b50604080518181528254600260018083161561010002600019019092160492820183905233927fce5d88da863190896c4a6d05cbffc08a5de9c16482223f47351c2710c0eee7eb928592830191819060208201906060830190869080156109ea5780601f106109bf576101008083540402835291602001916109ea565b820191906000526020600020905b8154815290600101906020018083116109cd57829003601f168201915b5050838103825284546002600019610100600184161502019091160480825260209091019085908015610a5e5780601f10610a3357610100808354040283529160200191610a5e565b820191906000526020600020905b815481529060010190602001808311610a4157829003601f168201915b505094505050505060405180910390a25050565b336000908152602081905260409020600281015460ff161515610a9457600080fd5b81516109429082906020850190610c1a565b3360009081526020819052604081206002810154606091829160ff1615610bf15780546040805160206002600180861615610100026000190190951604601f810182900482028301820190935282825284928484019291849190830182828015610b515780601f10610b2657610100808354040283529160200191610b51565b820191906000526020600020905b815481529060010190602001808311610b3457829003601f168201915b5050845460408051602060026001851615610100026000190190941693909304601f810184900484028201840190925281815295975086945092508401905082828015610bdf5780601f10610bb457610100808354040283529160200191610bdf565b820191906000526020600020905b815481529060010190602001808311610bc257829003601f168201915b50505050509050935093509350610c14565b604080516020818101835260008083528351918201909352828152919550935091505b50909192565b828054600181600116156101000203166002900490600052602060002090601f016020900481019282601f10610c5b57805160ff1916838001178555610c88565b82800160010185558215610c88579182015b82811115610c88578251825591602001919060010190610c6d565b50610c94929150610c98565b5090565b610cb291905b80821115610c945760008155600101610c9e565b905600a165627a7a7230582054298ed06fe4b6d1f1692e67665fe5aa5485ec10efdecba606eb080cc5dd14380029",
  "source": "pragma solidity 0.4.24;\n\n\ncontract User {\n\n    event UserSetting (address indexed user, string name, string ipfs);\n\n    string public constant DEFAULT_NAME = \"beta player\";\n\n    mapping(address=>Account) public accounts;\n\n    struct Account {\n        string name;\n        string ipfs;\n        bool   exists;\n    }\n\n    function createUserAccount() public {\n        Account storage account = accounts[msg.sender];\n        require(!account.exists);\n        account.exists = true;\n        // account.name = addressToString(msg.sender);\n        account.name = DEFAULT_NAME;\n        \n        emit UserSetting (msg.sender, account.name, account.ipfs);\n    }\n\n    function setName(string _name) public {\n        Account storage account = accounts[msg.sender];   \n        require(account.exists);     \n        account.name = _name;\n\n        emit UserSetting (msg.sender, account.name, account.ipfs);\n    } \n\n    function setIpfs(string _ipfs) public {\n        Account storage account = accounts[msg.sender];   \n        require(account.exists);     \n        account.ipfs = _ipfs;\n\n        emit UserSetting (msg.sender, account.name, account.ipfs);\n    }     \n\n    function getAccount() public view returns (\n        bool exists,\n        string  name,\n        string  ipfs\n    ) {\n        Account storage account = accounts[msg.sender];\n        if (account.exists) {\n            return (true, account.name, account.ipfs);\n        }\n        return (false, \"\", \"\");\n    }\n\n    function addressToString(address _address) public pure returns (string) {\n        bytes32 value = bytes32(uint256(_address));\n        bytes memory alphabet = \"0123456789abcdef\";\n        bytes memory str = new bytes(51);\n        str[0] = '0';\n        str[1] = 'x';\n        for (uint i = 0; i < 20; i++) {\n            str[2+i*2] = alphabet[uint(value[i + 12] >> 4)];\n            str[3+i*2] = alphabet[uint(value[i + 12] & 0x0f)];\n        }\n        return string(str);\n    }\n}",
  "sourcePath": "/Users/hironobu/devs/mch-beta/contracts/user/User.sol",
  "compiler": {
    "name": "solc",
    "version": "0.4.24+commit.e67f0147.Emscripten.clang"
  },
  "schemaVersion": "2.0.1",
  "updatedAt": "2018-09-24T12:51:13.807Z"
}