{
  "contractName": "User",
  "abi": [
    {
      "constant": true,
      "inputs": [
        {
          "name": "",
          "type": "address"
        }
      ],
      "name": "accounts",
      "outputs": [
        {
          "name": "name",
          "type": "string"
        },
        {
          "name": "ipfs",
          "type": "string"
        },
        {
          "name": "exists",
          "type": "bool"
        }
      ],
      "payable": false,
      "stateMutability": "view",
      "type": "function"
    },
    {
      "constant": false,
      "inputs": [],
      "name": "createUserAccount",
      "outputs": [],
      "payable": false,
      "stateMutability": "nonpayable",
      "type": "function"
    },
    {
      "constant": false,
      "inputs": [
        {
          "name": "_name",
          "type": "string"
        }
      ],
      "name": "setName",
      "outputs": [],
      "payable": false,
      "stateMutability": "nonpayable",
      "type": "function"
    },
    {
      "constant": false,
      "inputs": [
        {
          "name": "_ipfs",
          "type": "string"
        }
      ],
      "name": "setIpfs",
      "outputs": [],
      "payable": false,
      "stateMutability": "nonpayable",
      "type": "function"
    },
    {
      "constant": true,
      "inputs": [],
      "name": "getAccount",
      "outputs": [
        {
          "name": "_exists",
          "type": "uint8"
        },
        {
          "name": "_name",
          "type": "string"
        },
        {
          "name": "_ipfs",
          "type": "string"
        }
      ],
      "payable": false,
      "stateMutability": "view",
      "type": "function"
    },
    {
      "constant": true,
      "inputs": [
        {
          "name": "_address",
          "type": "address"
        }
      ],
      "name": "addressToString",
      "outputs": [
        {
          "name": "",
          "type": "string"
        }
      ],
      "payable": false,
      "stateMutability": "pure",
      "type": "function"
    }
  ],
  "bytecode": "0x608060405234801561001057600080fd5b506109ed806100206000396000f3006080604052600436106100775763ffffffff7c01000000000000000000000000000000000000000000000000000000006000350416635e57966d811461007c5780635e5c06e21461011f5780638b81d98214610236578063c31fa0831461024d578063c47f0027146102a6578063db613e81146102ff575b600080fd5b34801561008857600080fd5b506100aa73ffffffffffffffffffffffffffffffffffffffff600435166103c0565b6040805160208082528351818301528351919283929083019185019080838360005b838110156100e45781810151838201526020016100cc565b50505050905090810190601f1680156101115780820380516001836020036101000a031916815260200191505b509250505060405180910390f35b34801561012b57600080fd5b5061014d73ffffffffffffffffffffffffffffffffffffffff600435166105cf565b60405180806020018060200184151515158152602001838103835286818151815260200191508051906020019080838360005b83811015610198578181015183820152602001610180565b50505050905090810190601f1680156101c55780820380516001836020036101000a031916815260200191505b50838103825285518152855160209182019187019080838360005b838110156101f85781810151838201526020016101e0565b50505050905090810190601f1680156102255780820380516001836020036101000a031916815260200191505b509550505050505060405180910390f35b34801561024257600080fd5b5061024b610714565b005b34801561025957600080fd5b506040805160206004803580820135601f810184900484028501840190955284845261024b9436949293602493928401919081908401838280828437509497506107649650505050505050565b3480156102b257600080fd5b506040805160206004803580820135601f810184900484028501840190955284845261024b9436949293602493928401919081908401838280828437509497506107a09650505050505050565b34801561030b57600080fd5b506103146107d4565b604051808460ff1660ff1681526020018060200180602001838103835285818151815260200191508051906020019080838360005b83811015610361578181015183820152602001610349565b50505050905090810190601f16801561038e5780820380516001836020036101000a031916815260200191505b5083810382528451815284516020918201918601908083836000838110156101f85781810151838201526020016101e0565b604080518082018252601081527f3031323334353637383961626364656600000000000000000000000000000000602082015281516033808252606082810190945273ffffffffffffffffffffffffffffffffffffffff851692918491600091908160200160208202803883390190505091507f300000000000000000000000000000000000000000000000000000000000000082600081518110151561046357fe5b906020010190600160f860020a031916908160001a9053507f78000000000000000000000000000000000000000000000000000000000000008260018151811015156104ab57fe5b906020010190600160f860020a031916908160001a905350600090505b60148110156105c65782600485600c8401602081106104e357fe5b1a60f860020a02600160f860020a0319169060020a900460f860020a900481518110151561050d57fe5b90602001015160f860020a900460f860020a02828260020260020181518110151561053457fe5b906020010190600160f860020a031916908160001a9053508284600c83016020811061055c57fe5b1a60f860020a02600f60f860020a021660f860020a900481518110151561057f57fe5b90602001015160f860020a900460f860020a0282826002026003018151811015156105a657fe5b906020010190600160f860020a031916908160001a9053506001016104c8565b50949350505050565b6000602081815291815260409081902080548251601f6002600019610100600186161502019093169290920491820185900485028101850190935280835290928391908301828280156106635780601f1061063857610100808354040283529160200191610663565b820191906000526020600020905b81548152906001019060200180831161064657829003601f168201915b505050505090806001018054600181600116156101000203166002900480601f0160208091040260200160405190810160405280929190818152602001828054600181600116156101000203166002900480156107015780601f106106d657610100808354040283529160200191610701565b820191906000526020600020905b8154815290600101906020018083116106e457829003601f168201915b5050506002909301549192505060ff1683565b336000908152602081905260409020600281015460ff161561073557600080fd5b60028101805460ff1916600117905561074d336103c0565b8051610760918391602090910190610926565b5050565b336000908152602081905260409020600281015460ff16151561078657600080fd5b815161079b9060018301906020850190610926565b505050565b336000908152602081905260409020600281015460ff1615156107c257600080fd5b815161079b9082906020850190610926565b3360009081526020819052604081206002810154606091829160ff1615156107fb57600080fd5b80546040805160206002600180861615610100026000190190951604601f8101829004820283018201909352828252849284840192918491908301828280156108855780601f1061085a57610100808354040283529160200191610885565b820191906000526020600020905b81548152906001019060200180831161086857829003601f168201915b5050845460408051602060026001851615610100026000190190941693909304601f8101849004840282018401909252818152959750869450925084019050828280156109135780601f106108e857610100808354040283529160200191610913565b820191906000526020600020905b8154815290600101906020018083116108f657829003601f168201915b5050505050905093509350935050909192565b828054600181600116156101000203166002900490600052602060002090601f016020900481019282601f1061096757805160ff1916838001178555610994565b82800160010185558215610994579182015b82811115610994578251825591602001919060010190610979565b506109a09291506109a4565b5090565b6109be91905b808211156109a057600081556001016109aa565b905600a165627a7a7230582002e6a214af3540cdb78b6e14c715ab70104433bbb1384121de8b373c39bec1000029",
  "source": "pragma solidity 0.4.24;\n\n\ncontract User {\n\n    mapping(address=>Account) public accounts;\n\n    struct Account {\n        string name;\n        string ipfs;\n        bool   exists;\n    }\n\n    function createUserAccount() public {\n        Account storage account = accounts[msg.sender];\n        require(!account.exists);\n        account.exists = true;\n        account.name = addressToString(msg.sender);\n    }\n\n    function setName(string _name) public {\n        Account storage account = accounts[msg.sender];   \n        require(account.exists);     \n        account.name = _name;        \n    } \n\n    function setIpfs(string _ipfs) public {\n        Account storage account = accounts[msg.sender];   \n        require(account.exists);     \n        account.ipfs = _ipfs;\n    }     \n\n    function getAccount() public view returns (\n        uint8   _exists,\n        string  _name,\n        string  _ipfs\n    ) {\n        Account storage account = accounts[msg.sender];\n        require(account.exists);\n        return (1, account.name, account.ipfs);\n    }\n\n    function addressToString(address _address) public pure returns (string) {\n        bytes32 value = bytes32(uint256(_address));\n        bytes memory alphabet = \"0123456789abcdef\";\n        bytes memory str = new bytes(51);\n        str[0] = '0';\n        str[1] = 'x';\n        for (uint i = 0; i < 20; i++) {\n            str[2+i*2] = alphabet[uint(value[i + 12] >> 4)];\n            str[3+i*2] = alphabet[uint(value[i + 12] & 0x0f)];\n        }\n        return string(str);\n    }\n}",
  "sourcePath": "/Users/hironobu/devs/mch-beta/contracts/user/User.sol",
  "compiler": {
    "name": "solc",
    "version": "0.4.24+commit.e67f0147.Emscripten.clang"
  },
  "schemaVersion": "2.0.1",
  "updatedAt": "2018-09-22T17:29:58.329Z"
}